:020000040002F8
:10600000B8410020F962020001630200036302004C
:10601000056302000763020009630200000000003C
:106020000000000000000000000000000B63020000
:106030000D630200000000000F6302001163020004
:106040006166020013630200016A0200136302002A
:1060500013630200136302009964020013630200D9
:106060001363020013630200136302001363020050
:106070001363020013630200136302001363020040
:1060800013630200B9660200136302001363020087
:10609000DD66020013630200E16602001363020082
:1060A0001363020013630200136302001363020010
:1060B00013630200136302000000000000000000F0
:1060C00013630200136302001363020013630200F0
:1060D0001363020013630200136302000000000058
:1060E00000000000000000000000000000000000B0
:1060F00000000000000000000000000000000000A0
:10610000000000000000000000000000000000008F
:10611000000000000000000000000000000000007F
:10612000000000000000000000000000000000006F
:10613000000000000000000000000000000000005F
:10614000000000000000000000000000000000004F
:10615000000000000000000000000000000000003F
:10616000000000000000000000000000000000002F
:10617000000000000000000000000000000000001F
:10618000000000000000000000000000000000000F
:1061900000000000000000000000000000000000FF
:1061A00000000000000000000000000000000000EF
:1061B00000000000000000000000000000000000DF
:1061C00000000000000000000000000000000000CF
:1061D00000000000000000000000000000000000BF
:1061E00000000000000000000000000000000000AF
:1061F000000000000000000000000000000000009F
:10620000DFF80CD000F00AF900480047517C02008A
:10621000B841002030B4044654E8000F0D4644E86D
:106220000053002BF8D1156030BC704730B40446E1
:1062300054E8000F40EA010544E80053002BF7D171
:10624000156030BC704730B4044654E8000F00EAD3
:10625000010544E80053002BF7D1156030BC7047AE
:1062600030B4044654E8000F80EA010544E80053C6
:10627000002BF7D1156030BC704730B4044654E8A9
:10628000000F00EB010544E80053002BF7D1156027
:1062900030BC704730B4044654E8000FA0EB010551
:1062A00044E80053002BF7D1156030BC704770B440
:1062B00004464FF0000054E8006F0D68AE4207BF7F
:1062C00044E80023012044E800630E60002B1CBF5B
:1062D0000020F0E770BC704730B4044654E8000F6B
:1062E00088422CBF451A054644E80053002BF5D1DF
:1062F000156030BC704700000648804706480047DC
:10630000FEE7FEE7FEE7FEE7FEE7FEE7FEE7FEE765
:10631000FEE7FEE7E5660200016202002DE9F05F9C
:106320000546002092469B46884606468146402404
:106330001BE0284641464746224600F05EF8534699
:106340005A46C01A914110D311461846224600F011
:1063500016F82D1A67EB01084F462246012000214E
:1063600000F00DF817EB00094E41201EA4F10104C6
:10637000DFDC484631462A464346BDE8F09F202AE6
:1063800004DB203A00FA02F1002070479140C2F18C
:10639000200320FA03F319439040704700487047E8
:1063A0003CA5020040EA01039B0703D009E008C9AD
:1063B000121F08C0042AFAD203E011F8013B00F8CA
:1063C000013B521EF9D27047D2B201E000F8012B16
:1063D000491EFBD270470022F6E710B513460A4665
:1063E00004461946FFF7F0FF204610BD421C10F886
:1063F000011B0029FBD1801A7047202A04DB203AB8
:1064000021FA02F00021704721FA02F3D040C2F1D4
:10641000200291400843194670470000064C074D82
:1064200006E0E06840F0010394E807009847103464
:10643000AC42F6D3FFF7E8FE8CAB0200ACAB020037
:1064400070B58C1810F8015B15F0070301D110F836
:10645000013B2A1106D110F8012B03E010F8016B63
:1064600001F8016B5B1EF9D12B0705D40023521EE6
:106470000DD401F8013BFAE710F8013BCB1A921C4E
:1064800003E013F8015B01F8015B521EF9D5A1424C
:10649000D8D3002070BD00002DE9F04700268AB057
:1064A000DFF85091B0464FF48075012437460696C8
:1064B000284601F0BDFF38B1D9F80403204203D0CB
:1064C000284601F0ABFF26432D1D64007F1CADB2B2
:1064D000082FEDD34FF4BE74204601F0A9FF48B158
:1064E000204601F09BFF46F0004606AA012100204D
:1064F00001F080FF404D16F0FF0F15D0012700245A
:1065000037420DD009EB8401D1F81005D1F81015F0
:10651000C0F3042055F82420C1F3014102B1904793
:106520007F00641C082CEBD3002E5FDA4FF0FF30A5
:10653000CDF8108054E0281910F8507F90F9000031
:1065400027F0C008401C3BD007A9404601F026FDBB
:1065500010B34FEA9719404601F058F855F82070EB
:106560001FB1B9F1030F03D006E0B9F1030F27D132
:1065700004A9404601F01AFD4FF0A04101EB88004C
:10658000D0F8000706A9C0F3014A404601F006FD15
:1065900018B1BAF1020F03D012E0BAF1030F0FD114
:1065A000B9F1030F08D1BAF1020F1DD00221404604
:1065B00001F004FF761CF6B217B149464046B847D1
:1065C000641C042CB7D3002E10D06A460121002091
:1065D00001F010FF06990098884207D006900498B1
:1065E000002634460790A6E70321E0E70AB0BDE89D
:1065F000F087000000600040A01A002000F01F0299
:10660000012191404009800000F1E020C0F8801293
:10661000704700F01F02012191404009800000F105
:10662000E020C0F80011704700F01F0201219140E6
:106630004009800000F1E020C0F8001270474907CF
:10664000090E002806DA00F00F0000F1E02080F8C3
:10665000141D704700F1E02080F80014704700001E
:1066600070B54FF48076304601F0AAFC114CB505A8
:1066700060B1304601F0ABFC0120C5F80803607939
:1066800020B9012060712168002088474FF482768C
:10669000304601F095FC00280AD0304601F097FC06
:1066A0000220C5F808032168BDE8704001200847B2
:1066B00070BD0000F018002007480021C0F840110C
:1066C000C0F84411C0F84811C0F84C11C0F80011CE
:1066D000C0F8041103F0FEBA0010014003F048BAFC
:1066E00002F0EABBF0B5B5480023021D0178101D89
:1066F00001254FF0805406290BD11678360708D1B2
:106700000678C6F30316032E06D0042E04D0052EF9
:1067100002D0062907D00EE0B4F82463A84FC6F3D0
:1067200004263E6002E01678360704D10678C6F3E8
:106730000316032E02D0062904D00FE0A24FA14E6B
:106740007E670EE01678360708D10678C6F3031682
:10675000032E06D0042E04D0052E02D0062907D021
:106760000EE0D4F84462994FC6F342363E6002E030
:106770001678360704D10678C6F30316032E02D026
:10678000062906D011E0924E376827F080773760EF
:106790000EE01678360708D10678C6F30316032EE6
:1067A00006D0042E04D0052E02D006290AD011E00E
:1067B0004FF08046C6F80C31C6F81031834E361FB4
:1067C000336002E01678360704D10678C6F3031664
:1067D000032E02D0062905D00CE07C4F0326643737
:1067E0003E600AE01678360704D10678C6F3031631
:1067F000032E02D006290DD014E0764F05263E6008
:10680000744E78363560734E083633603F263F1D30
:106810003E6002E01678360704D10678C6F3031608
:10682000052E02D0062957D062E06B4E36686B4FBA
:106830003E60694E361D36683F1D3E60664E083626
:1068400036683F1D3E60644E0C3636683F1D3E6024
:10685000614E103636683F1D3E605F4E1436366816
:106860003F1D3E605C4E183636685C4F20373E60F8
:10687000594E1C3636683F1D3E60574E20363668EE
:106880003F1D3E60544E243636683F1D3E60524EDA
:10689000283636683F1D3E604F4E2C3636683F1D09
:1068A0003E604D4E303636684C4F40373E604A4E63
:1068B000343636683F1D3E60474E383636683F1DD9
:1068C0003E60454E3C3636683F1D3E60424E403687
:1068D00036683F1D3E6002E01678360708D106781C
:1068E000C6F30316032E06D0042E04D0052E02D0C4
:1068F000062907D019E0D4F85812394A01F04F019F
:10690000116002E0117809070FD10078C0F303107D
:10691000032803D0042801D0052806D13148016896
:10692000C90702D06FF001010160D4F830010628D8
:1069300008D1D4F83401062804D12B48016841F469
:106940008061016022487438016841F4700101607F
:10695000BFF34F8FBFF36F8F4FF01021D1F80002BC
:10696000002803DBD1F80402002822DA1F4A156050
:106970001F480468002CFCD01524C1F800420568AB
:10698000002DFCD0C1F8044201680029FCD013603E
:1069900001680029FCD0BFF34F8F0D48F038016823
:1069A000144A01F4E06111430160BFF34F8F00BF4F
:1069B000FDE7124910480860F0BD0000E00F00F04C
:1069C000403501400DF0ADBA00C007403C05004025
:1069D000FCED00E0105600400404001020C500400B
:1069E000E40E0040000400403C17004004E5014074
:1069F00000E401400400FA050090D003B41900201F
:106A00000148006800470000F818002002E008C8AC
:106A1000121F08C1002AFAD170477047002001E018
:106A200001C1121F002AFBD170470000012120285C
:106A300003DA81400548014003E0402802DA2038AB
:106A4000814009B10120704700207047FC06FFBD5E
:106A5000082806D228B1012803D0042801D001203B
:106A6000704700207047000030B593B05920ADF852
:106A70003C00184811901720ADF8400004253C2137
:106A80006846FFF7A8FC00240FA88DF80040099085
:106A90008DF8035018211048FFF79DFC0E48052182
:106AA0000C4A017044600475A02181608481103A11
:106AB000684602CA00F004FA08B100F09FF80549E0
:106AC000054A1039081F72DF002801D000F096F83F
:106AD00013B030BDBC180020E8190020022000F0DF
:106AE0000BBB000070B50024064D06E0686801216C
:106AF00010F8340002F0BCFA641C28788442F5D304
:106B0000002070BD00190020F8B515460C46064659
:106B1000052A01D20720F8BD02F0A6FB18B902F041
:106B20006BFB0028F7D1124900224E600C708D607B
:106B3000C1E90422C1E906220E4D0DE006EBC400B6
:106B40002968009181788DF8011000780A4A694619
:106B500002F0E0FA0028DED1641EE4B2EED2BDE815
:106B6000F84004480021054A001D00F053B8000019
:106B7000001900205CA202008178020095770200D3
:106B800072B601F0F3FE00BF01F032FD0028FBD128
:106B9000104C0121208801EB00400FA101F038FECC
:106BA00010480068C00700D000BE2088022101EB19
:106BB00000400DA101F02CFEBFF34F8F0948E438CF
:106BC00001680D4A01F4E06111430160BFF34F8F8A
:106BD00000BFFDE7D8190020466174616C20657222
:106BE000726F7200F0ED00E053797374656D20727E
:106BF00065736574000000000400FA050EB50021FD
:106C00000091CDE901106A4644F20100FFF7B8FF98
:106C10000EBD0000074B9B7823B12AB120B100685C
:106C2000037C1BB108207047072070474174426104
:106C3000002070476C1B002070B502F0F5FD104875
:106C400000240B21047044700E4D817014206C6080
:106C50002C706C70FFF7D2FC07211420FFF7EFFCBB
:106C60001420FFF7D6FC0848046007211120FFF725
:106C7000E6FC0548001F0068A860002070BD000009
:106C80006C1B002020190020081501402DE9FC474D
:106C9000DFF8789099F8023073B368B3052902D20F
:106CA0000720BDE8FC87436933B3437C012B25D023
:106CB000002704460025884616468DF80050684691
:106CC00000F038F801A803F029FAC8B101210170D9
:106CD0000F4944600968C0E90218C0E904769DF8CC
:106CE000040089F801009DF8000000F047F8142026
:106CF000FFF79AFC2846D4E70820D2E70F46D8E7EA
:106D000004259DF8000000F039F8F3E76C1B002023
:106D1000041501400649897839B130B1416921B182
:106D200000210174022102F0B1BF08207047000069
:106D30006C1B002030B5EFF3108172B60D4A9468D9
:106D4000012324B10370002900D162B630BD9360E5
:106D50004FF0E023D3F88051074C25401560C3F86D
:106D60008041D3F8844154605A17C3F8842100222B
:106D70000270E8E7781C0020FC06FFBD0B498A681A
:106D8000002A11D000280FD1EFF3108072B60B68E3
:106D90004FF0E022C2F800314B68C2F80431002203
:106DA0008A60002800D162B670470000781C00207D
:106DB0002DE9F041064608680C46411C4FF0A047FB
:106DC0004FF0010506D005FA00F1C7F80815206854
:106DD00001F0E0FA6068411C02D0002101F0C8FA1D
:106DE0003168A069C1F82405607D227D31681043B7
:106DF000C1F86C05D4E900123068C0F81425C0F859
:106E00000C15207D012815D1A068411C02D000215D
:106E100001F0AEFAE068411C05D08540C7F808557E
:106E2000E06801F0B7FAD4E902123068C0F808252A
:106E3000C0F81015BDE8F0812DE9F041064608685C
:106E40000C46411C4FF0A0474FF0010506D005FA53
:106E500000F1C7F80815206801F0A6FA6068411C27
:106E600002D0002101F08DFA3168A069C1F8240533
:106E7000607D217D32680843C2F86C05D4E90012B8
:106E80003068C0F80C15C0F81425207D012815D1F4
:106E9000A068411C02D0002101F073FAE068411C97
:106EA00005D08540C7F80855E06801F07DFAD4E9BF
:106EB00002123068C0F80825C0F81015BDE8F0814E
:106EC0002DE9FC47002517880646158090F82D000F
:106ED0001446894630B13A462146484600F0B1F89A
:106EE000051E09D1B0784FF00C0A18B32088C846A7
:106EF000001DB84202D95046BDE8FC87684679DFDC
:106F00000028F9D12088032108F8001020881921D1
:106F1000401C80B2208008F800102088401C80B2FD
:106F2000208000EB0801BDF8000003F097F82188ED
:106F300008442080F0780222C8B1218896F90330F5
:106F400001F1030C4846BC45D5D8425421884FF086
:106F5000010C491C89B2218000F801C02188491C1C
:106F600089B2218009F801302088401C2080706897
:106F7000B8B1218890F9003001F1030C4846BC45B6
:106F8000B9D8425421880A22491C89B2218042542E
:106F90002188491C89B2218009F801302088401CD1
:106FA0002080308950B1CDE900474B4606220221AE
:106FB00006F1080003F0CAF8051E9DD1308A50B1D1
:106FC000CDE900474B460722032106F1100003F0EC
:106FD000BDF8051E90D1308B50B1CDE900474B462E
:106FE0001522142106F1180003F0B0F8051E83D114
:106FF000306A30B13B462246494600F087FB051E09
:10700000DBD1706A30B13B462246494600F07EFE35
:10701000051ED2D196F82C0038B13B46224649468F
:10702000304602F0E7FC051EC7D1307838B13B4648
:1070300022464946304600F0EFFE051EBDD12846E7
:107040005AE77CB5054608880C460930904201D9BC
:107050000C207CBD68466DDF0028FAD1218808200D
:10706000685420881B21401C80B22080295420882D
:10707000401C80B220802844DDF801100160BDF87A
:10708000051081802088801D80B220809DF800102E
:10709000490800D0012129542088401C208000206C
:1070A0007CBD00002DE9FC410646C0074FF00005FD
:1070B0000ED0104F00240122385D009500231146A8
:1070C000019501F0FBF8641C042CF4D300F046F8A1
:1070D000B0070DD5074E0024361D0022305D032376
:1070E00000951146019501F0E9F8641C042CF4D3D5
:1070F000BDE8FC811AA2020007490B5C4FF0A041D9
:10710000D1F804250120984020EA0203C1F808358F
:107110001040C1F80C0570471AA202000249085C31
:10712000012101F05CB900001AA202000249085CCA
:10713000002101F054B900001AA202000649095CBE
:107140004FF0A040D0F80405C84010F0010000D076
:10715000012080F0010070471AA2020010B500243F
:107160002046FFF7DBFF641C042CF9D310BD10B5DB
:1071700000242046FFF7DAFF641C042CF9D310BD6D
:1071800010B50246064B4FF0FF3000215C5C944284
:1071900001D1084610BD491C0429F7D310BD0000D9
:1071A0001EA202002DE9F0470D468146FFF7E8FFD9
:1071B0000446042836D2DFF874801B481C4EA8F120
:1071C0000C0725B3012D0ED0022D2BD104EB44006A
:1071D00030444578002D25D0B968002922D02846B2
:1071E000BDE8F047084704EB4401755C0E44717834
:1071F00049B10E4A4FF40041093A8068FFF746FD55
:1072000008B987F80390B17808F80410E2E78068BD
:10721000FFF780FD04EB4401314418F804008D7839
:10722000A842D7D0BDE8F08724A20200E0180020D1
:10723000601A002070B50023042810D20D4D00EB19
:107240004004012A02D101290CD00022094E00EB92
:107250004000304461B1012906D0022906D007233D
:10726000184670BD0E30C2B22A55F9E74270F7E7F2
:107270008270F5E7601A0020044A01460020127966
:10728000D20702D0084600F04DB87047D41800204D
:1072900070B506461E480024C0E90161B00720D53C
:1072A0000025012211462846FFF7C4FF6D1C044645
:1072B000042D02D2002CF4D013E094B940F266629F
:1072C00004211448FFF720FC04000AD1FFF70AFC50
:1072D000040006D10F48104A0021001FFFF79AFC56
:1072E0000446F00712D00120FFF7DCFE74B909480C
:1072F0000A4A00210C38FFF78DFC040006D105482E
:10730000074A01210838FFF785FC0446204670BD76
:10731000D418002030A20200A1750200A97A020050
:10732000DD6A02002DE9F05F6A4C054600266078B0
:10733000B34618B184F801B000F09EFB664F4FF4DD
:107340007A694FF4C87A4FF00108182D62D2DFE84D
:1073500005F0AC0C0C31404D62676B746B74BE7DF4
:107360007D7D7D7DACAFB2B5BEBE0020FFF7E6FEF1
:1073700000284FF0000008D0FFF7D0FE022D02D108
:107380004FF4E16008E0484606E0FFF7CFFE022D2B
:1073900001D1C82000E05046410CC0034FF4FA72FE
:1073A000801841F10001257052000023FEF7B6FF5E
:1073B00001462AE00020FFF7C1FE00284FF0000040
:1073C00004D0FFF7ABFE4FF44870E5E7FFF7AEFEE1
:1073D000DFE70020FFF7B2FE00284FF0000002D0E8
:1073E000FFF79CFECFE7FFF7A1FED4E70020FFF7F1
:1073F000A5FE00284FF0000002D0FFF78FFE01E04D
:10740000FFF794FE257041F69A1100223868FFF7C5
:107410003DFC064646E00020FFF76EFE257008E0C2
:10742000002051E025703DE084F801800120FFF745
:1074300063FE002240F6CD41E8E784F80180012098
:10744000FFF75AFE00224FF48041DFE77868FFF72C
:1074500061FC0646D5F1110000D02EB10220FFF7E5
:107460005DFE84F802B01DE0012816D980B2C82163
:107470004843C117C90341EA5041C0034FF4FA72AF
:10748000801841F1000152000023FEF747FF01463A
:1074900000227868FFF7FAFB06460220FFF746FE57
:1074A00084F802803046BDE8F09F00F0E5FAB9E7C5
:1074B00000F0E2FAB4E700F0DFFA04E000F0DCFAF2
:1074C0000020FFF733FE0120FFF730FEAAE7FFF7A9
:1074D0004EFEA7E7D418002024A202002DE9F843AD
:1074E0000546861C00208DF8000090460F464FF0A0
:1074F00001096846FFF71EFC1B4C20683860D4E980
:107500000001401AA16804F21C47081A0EE001218C
:10751000384600F0D5FC00F04DFB0146384600F03F
:10752000CFFCD4E90001401AA168081A401C864229
:10753000EDD8B8F1000F03D0052065F3891002E003
:10754000062065F39F50A2682168114004EB810179
:10755000C8602068304420609DF80000FFF70EFCF2
:107560004846BDE8F8830000901D002030B48268D2
:107570000468531C8360A154D0E901128A4202D3EB
:1075800030BC00F0A2BD30BC70470000034803C807
:10759000814201D10120704700207047901D0020DA
:1075A00000780221FFF7FEBD05494FF0FF320828A1
:1075B00041F8202002D3084480F84820704700009A
:1075C000A01A0020F0B54FF0FF3512B100230826B5
:1075D00001E008230C260C4C05E000BF54F8237092
:1075E0007F1C04D05B1CB342F8D32846F0BD26189C
:1075F0005DB286F8305044F82310002AF5D1E11826
:1076000081F84800F1E70000A01A00200249084470
:1076100090F9300070470000A01A002070B5084CA7
:10762000050009D010342168002907D008682060BF
:10763000496828468847F6E70834F4E770BD00003B
:107640008C1A0020054A012120B1012805D1917032
:10765000FFF7E4BF51700020FAE770478C1A002052
:107660002DE9F05F26484168F1B3DFF898B00E6865
:107670008146DBF8004087688078E11B21F07F4578
:10768000ED1CB0B9DFF880804FF48030C8F84403B7
:10769000C8F804031120FEF7B1FF1120FEF7B9FF6F
:1076A0004FF0010AC8F800A02F2001F0D9FC89F89A
:1076B00002A0B54200D23546124BE8193C3320F007
:1076C0007F401860DBF800105A46091B21F07F410B
:1076D000001B20F07F40C91C81420FD91068186040
:1076E0002F2001F0BDFC00E004E0BDE8F05F1120B8
:1076F000FEF79ABFBDE8F05F02F096B8BDE8F09FD4
:107700002019002004150140001001402DE9F0412E
:1077100017880646B81D14460D46984202D90C201B
:10772000BDE8F0813188072206290AD34FF4486C5E
:107730004FF6FF73614501D9994202D1708806283E
:1077400001D21046ECE7604501D99842F9D199423F
:1077500003D0984201D08142F3D80520E855208813
:107760001221401C80B2208029542088401C80B205
:1077700020804119308802F071FC2188084480B2D1
:1077800020804119708802F069FC2188084420801B
:107790000020C5E72DE9F0470025DFF88C803CE0AC
:1077A0006068002100EBC506012032789146FEF7A3
:1077B000E6FDD4E9062300EA020701EA030C57EAD2
:1077C0000C0728D082438B434846C4E9062301F0C6
:1077D00009FD32788246914601200021FEF7CFFD57
:1077E000D4E9042300EA020401EA03074A465046AA
:1077F0000021FEF7C4FD44404F403C430BD170785C
:10780000012801D0012100E00021726881EA0A010B
:107810000AB1484690476D1CEDB298F80000444606
:107820008542BDD3BDE8F0870019002010B50021C6
:10783000024800F050FB80F3100010BDAC21002086
:107840000E4910B50A784C780023A24212D0521C7F
:10785000D2B20A70022A00D10B70084A0B780C329F
:1078600052F8232002608868104420F07F4088602E
:10787000012010BD0360002010BD00002019002071
:107880002DE9F0418046024601200021FEF777FDF8
:107890001A4F05460E467868FFF73CFA00280CD1CF
:1078A000174CD4E9062110462A4001EA06031A4380
:1078B00005D0A843B143C4E90601BDE8F0814046C4
:1078C00001F090FC30B1D4E9040128433143C4E90C
:1078D000040105E0D4E90410A943B043C4E904104D
:1078E000D4E9060128433143C4E90601A168786858
:1078F000BDE8F0410022FFF7C9B900005CA2020018
:10790000001900202DE9FC5F0E008346DDE90C47DD
:10791000C6F1000098469246814600D408460125EB
:1079200003E000BF90FBFAF06D1C5045FADAA84561
:1079300000D9454624B1002E01DB780700D5641E2E
:10794000B80702D5B8F1000F0AD0F80708D13CB14A
:10795000A54205D220215846641EFFF707FEF6E730
:10796000002E02DA4E462D2102E0780703D52B21A6
:107970005846FFF7FBFD07F0030002280BD1B8F1D2
:10798000000F08D13CB1A54205D230215846641EF3
:10799000FFF7ECFDF6E7CDE9004743465246314696
:1079A000584602F061FBBDE8FC9F000070B50D4633
:1079B000044600684FF4887101F018FB4FF4907191
:1079C000206801F013FB4FF49271206801F00EFB68
:1079D0004FF4A271206801F009FB20681249C0F839
:1079E000041320686907000B40B2090E002806DA6C
:1079F00000F00F0000F1E02080F8141D03E000F11A
:107A0000E02080F8001420680121000B40B200F053
:107A10001F0291404009800000F1E020C0F8801270
:107A2000C0F8001170BD00001003020002460020E3
:107A30001268930702D0530702D47047500714D539
:107A400002F00300012802D002280CD105E0C2F3A5
:107A500083100B68801C184404E00223086803EBC1
:107A600092521044086001207047086800EB92535E
:107A7000C2F38910401CEEE70A4810B5807860B167
:107A8000002401E0022C06D02046FFF747FB641CCF
:107A9000042CF7D310BD0324F6E7BDE81040FFF730
:107AA0005DBB0000D418002003480179C90702D04B
:107AB0000078FFF737BC7047D41800202DE9F04755
:107AC000394E002780463D46DFF8E090D6F804A006
:107AD00057E003D00446D0F81C8035E099F8002028
:107AE00002EB4201521CD2B289F8002009EBC1011D
:107AF00099F80230091D9A4201D189F8005048686E
:107B00000A780446012A12D0022A02D0032A3BD165
:107B100008E002F08BF800B10127257434E0057409
:107B2000C06900E070680028F9D170602CE0207C0A
:107B300050BB88686060C868A0600869E0604869F8
:107B4000A061F07800B165606268B168184B501AA6
:107B500020F07F40984202D2A168084406E0881ACB
:107B6000A16820F07F40814202D9081A206000E01D
:107B7000256065600120A56020742046E56102F063
:107B800037F8B8F10000A4D199F8001099F8010075
:107B90008142A3D117B97168514502D00120BDE8D7
:107BA000F0870020FBE70000201900206C1B00205C
:107BB000FFFF7F002DE9FF410026234800F07DF9FB
:107BC0002148001F074600F078F9204C60680090BB
:107BD000A56800E000986946284004EB80000C305E
:107BE000FFF724FF0028F5D101AA009901EA050357
:107BF00004EB8303491CDB6842F82030401C0091F1
:107C00000228F2D3019800F0030001280BD00228CB
:107C100010D10198032101EB90500099BDF80A6042
:107C200001EB900005E00198BDF80A60C0F38310F5
:107C300008440090384600F03DF908B100986060B3
:107C400004B03046BDE8F081A8210020901D00203E
:107C500008B54FF40041002000F044FE08B1FEF7E3
:107C6000CDFF00F0B7FCFEF7E7FF08B1FEF7C6FF57
:107C700000210120FFF70CFB08B1FEF7BFFF00F069
:107C80004FFF08B1FEF7BAFF01F0CEF808B1FEF7DA
:107C9000B5FF002000906946012000F081FF08B187
:107CA000FEF7ACFF684600F0FBFF08B1FEF7A6FF49
:107CB000FEF7DAFE0D480321008801EB00400CA11D
:107CC00000F0A6FD10480121007873DF08B1FEF72F
:107CD00095FF0220FFF7D0FA08B1FEF78FFF00F002
:107CE00087FC0028FBD100F02FFFF8E7D81900200F
:107CF000426561636F6E206578616D706C6520739D
:107D00007461727465642E00A818002070B5144662
:107D100082880E4605462088111D0144921C994216
:107D200001D8FE2A01D90C2070BD521C3254208883
:107D3000FF21401C80B2208031542088401C80B23A
:107D400020808119288802F089F92188084480B2AE
:107D50002080AA8842B1A96841B13044FEF722FBD5
:107D60002088A98808442080002070BD072070BDAD
:107D70002DE9F047C7880446181D16468946B0FB12
:107D8000F7F1B0FBF7F207FB12009A193A44D21C44
:107D9000B2FBF7F2DDF820A001E02468491E0029BB
:107DA000FBD13D1A8846B54216D818E0BAF1000F4B
:107DB00005D0211809EB08002A46091D04E02044DB
:107DC00009EB08012A46001DFEF7ECFA00202468A2
:107DD000761BA844B74201D9354600E03D46002E47
:107DE000E4D1BDE8F087000030B5024659B100F09B
:107DF000A5FD0021074C09E004EB810315685B88B1
:107E0000AB4202D11160002030BD491C8142F3D346
:107E1000052030BDB8190020F8B50F46017814468A
:107E20000546012901D1687830B12088821C9A4228
:107E30002DD8012902D006E00720F8BD6978014459
:107E4000891C994223D8181A801E86B2ADF80060AA
:107E50002188B81C084469467DDF0028EDD12878C8
:107E6000022805D1BDF80010B14201D809210AE06D
:107E70000821012805D16878B04202D8ADF8000089
:107E800001E0ADF80060BDF80000FE2801D90C202B
:107E9000F8BD2288401CB8542088401C80B2208045
:107EA00039542088401C2080BDF8001008442080F0
:107EB0000020F8BD002100F009B8012100F010B841
:107EC00008B56A46FEF7D9F9009808BD08B56A46B4
:107ED000FEF7B9F908BD08B56A46FEF79BF908BD7B
:107EE00008B56A46FEF7A2F9009808BD08B56A46CB
:107EF000FEF7D0F9009808BD38B5044600258DF886
:107F000000506846FEF716FF2168626808689042D4
:107F10000ED9401E08600178A38AE26801FB0325A0
:107F2000227A2168101AC0B20A79824200D20871FE
:107F30009DF80000FEF722FF284638BD38B50546FB
:107F400000208DF800000C466846FEF7F3FEE86856
:107F5000A98A201AB0FBF1F12A681068431C13604B
:107F600001709DF80000FEF709FF38BD10B530B173
:107F7000017A42680368891AC9B21A6006E00E20C5
:107F800010BD03681A68541C1C601170491EC9B2E8
:107F9000F7D2006800210171084610BDC20800F048
:107FA00007030120895C98400840704710B5C2085B
:107FB00000F00703885C01249C402043885410BDD6
:107FC00000F180400068002800D00120704708B50B
:107FD00000F18040002101600068009008BD0000B1
:107FE00070B50B4C207808B185250FE00020A0600B
:107FF00060602061E060074801F014F8054600F079
:108000006DFF08B900F0F8FF01202070284670BD10
:108010008C1A00204576020038B500258DF80050F6
:108020006846FEF787FE074CE068401EE060E068A7
:1080300010B901F007F8A5709DF80000FEF79EFE4C
:1080400038BD00008C1A0020F0B5054604781548AC
:1080500089B0164640F82420124A0869121DA2F180
:10806000080742F82400487F385520226846FEF76A
:1080700099F904942878385C48B10EB10A4A00E0B6
:1080800000226946281D01F05DFA09B0F0BD0EB16D
:10809000064A00E00022694605F10C0001F024F9CF
:1080A000F3E70000E8180020399F0200859D0200D8
:1080B0000FB408B50399002904D004AA00926A46B7
:1080C00000F00FF801B05DF814FB10B582680446AB
:1080D000002A05D0D4E90403216898470020A06055
:1080E00010BD2DE9FC4791460C00804676D014F86F
:1080F000011B39B125290ED04046FFF737FA207809
:108100000028F4D198F80C00002867D04046BDE85C
:10811000FC47FFF7DABF0020012221782B291BD072
:108120002D2902D0302908D102E040F0010001E001
:1081300040F00200641C002AEFD100252A290ED04D
:108140002178A1F130020A2A11D205EB850201EB58
:108150004205641C303DF1E740F00400EAE7D9F83D
:1081600000100B1DC9F800300968641C0D4421780B
:1081700000232E290BD114F8011FA1F130020A2A85
:1081800005D203EB830201EB4203303BF3E76C299A
:108190000DD068290BD0692921D00BDC252918D0F6
:1081A000582931D063290ED0642915D117E014F86D
:1081B000011FECE7702969D0732932D075291BD0D3
:1081C000782909D120E0D9F80000011DC9F8001074
:1081D00001784046FFF7CAF9641C90E76CE0D9F8D3
:1081E00000100A1DC9F800200968CDE900500A22D4
:1081F0004046FFF787FBEFE7D9F800100A1DC9F8E2
:10820000002009680A2206E0D9F800100A1DC9F802
:10821000002009681022CDE90050404601F024FFFB
:10822000DAE7D9F8001000270A1DC9F800200E6807
:10823000C00705D112E04046761C7F1CFFF796F977
:1082400031780029F7D104E0202140466D1EFFF768
:108250008DF9BD42C0D9002DF6D1BDE74EB13046F3
:10826000FEF7C4F8074604E0202140466D1EFFF7E4
:108270007DF9BD4206D9002DF6D103E04046761CBB
:10828000FFF774F931780029F8D1A5E7D9F8000093
:10829000011DC9F80010056830214046FFF766F956
:1082A00078214046FFF762F908200021CDE900015E
:1082B000034610222946B0E7BDE8FC8770B541EAC5
:1082C0004201DDE904564FF0A04441EA830141EA4E
:1082D000052104EB800041EA0641C0F8001770BD9B
:1082E00070B541EA4201DDE904564FF0A04441EA8D
:1082F000830141EA052104EB800041EA0641C0F810
:10830000001770BD70B541EA4201DDE904564FF037
:10831000A04441EA830141EA052104EB800041EADF
:108320000641C0F8001770BD70B541EA4201DDE9B1
:1083300004564FF0A04441EA830141EA052104EBD1
:10834000800041EA0641C0F8001770BD1CB500214D
:1083500000910B4601220191FFF7D4FF1CBD1CB513
:10836000002100910B4601220191FFF7DDFF1CBDAA
:108370001CB500220B46009211460192FFF7C2FF86
:108380001CBD1CB500220B46009211460192FFF75E
:10839000CBFF1CBD1CB5002100910B4601220191B1
:1083A0001146FFF7AFFF1CBD1CB5002100910B4625
:1083B000012201911146FFF7B7FF1CBD4FF0A0420B
:1083C00002EB8000D0F8002722F44032C0F80027EA
:1083D000D0F8002742EA0141C0F800177047012297
:1083E0004FF0A043824011B1C3F808257047C3F88D
:1083F0000C25704718B5084B6C4601441B68009368
:1084000006E000BF54F82030D3F81035401C08C2F5
:108410008142F7D818BD000050A20200034908B5F8
:108420000844002101600068009008BD0060004021
:1084300002494058012800D00020704700600040E9
:1084400030B5124B01460020D3F81044224609E013
:10845000157A854205D1401C0A28F7DB4FF0FF3022
:1084600030BD5268002AF3D1421CF9D00872D3F80B
:1084700010242AB152684A60D3F81024516030BDEC
:108480000022C3F810144A6030BD0000901D002087
:10849000F0B595B01C4615460F4608461A9E00F0EA
:1084A0001DFB182109A8FDF796FF0E96CDE909548A
:1084B0000023082203A9384600F025FB0598069002
:1084C000BDF81000ADF81C00BDF81200ADF81E009C
:1084D00000208DF821000398082600F003000128F1
:1084E00002D0022818D032E003983346850AC0F340
:1084F000C2008DF8200003980FA9C0F38314A200D6
:10850000384600F000FB09A8009006AB22460FA9F0
:10851000284600F03FFA1AE00398840DC0F3C20029
:108520008DF82000082C01D2254600E008253346AE
:108530002A460FA9384600F0E6FA2E44641B09AB20
:1085400006AA29460FA800F077F9002CEAD1384690
:1085500000F0CAFA15B0F0BD7047012001F030BC40
:10856000084810B50178084A515C19B1001D01F0A6
:1085700075F802E00C3000F083FFBDE810400020E9
:1085800001F01EBC40190020E418002008B5034A81
:1085900000924023024AFFF77BFF08BDB599020015
:1085A000901C00200A4A012902EBC00007D00229D2
:1085B00007D0032907D0042907D0002070470220E4
:1085C0007047042070470079704740797047000079
:1085D000ACAB020010B5FFF7C0FF04210348FFF762
:1085E0002FFF02490120487210BD000054190020DD
:1085F0002DE9F04F8DB0FEF7C9FF18B100200DB086
:10860000BDE8F08F7A4C4FF0000BC4F818B4BFF3FC
:108610004F8F60680290A568D846284004EB800020
:1086200008E021680298814201D86160E6E72840AD
:1086300004EB80000C3002A9FFF7F8F90028F0D114
:1086400005AA029901EA050304EB8303491CDB68D0
:1086500042F82030401C02910228F2D3059800F025
:108660000300022802D001284ED0A9E0059850222C
:10867000810D8946B2EB905F00D850210E4666F31B
:108680009F50059008315B4800F0DFF9070079D072
:1086900000F024FA4346082205A9384600F039FACA
:1086A000029908F1080A2940681A8000001D8642D4
:1086B00023D94F4D0C3530B1C2B204EB8101301AD1
:1086C00090460C3104E02946F2B200259046284637
:1086D000C6B25346384600F01CFA0AEB08032DB127
:1086E000324629464FEA070000F013FA029909F1D1
:1086F000030001EB900002903BE004EB8101534644
:10870000324638460C31EFE70598C0F3831006284F
:1087100000D30620059960F38911C1F38310801CF2
:1087200005918100334800F090F9070048D000F02F
:10873000D5F94346082205A9384600F0EAF908F1C0
:10874000080800260FE00298434600EA0501401C95
:1087500004EB81010290042238460C3100F0D9F973
:1087600008F10408761C0598C0F38310B042EAD8DB
:1087700047B1D4F81054D4F8180468B1384600F062
:10878000B3F92FE01CE0687A012804D12A68284652
:108790003946126890476D68002DF4D1384600F0D4
:1087A000A3F98DF800B06846FEF7C4FAD4F81804AF
:1087B00008B9029860609DF80000FEF7DFFA11E04A
:1087C000D4F8104404E0216820468968884764682A
:1087D000002CF8D108480221008801EB004007A1D5
:1087E00000F016F8FEF7D2FE80F0010007E7000067
:1087F000901D00200CAC0200D81900204261636B70
:10880000656E647320666C757368656400000000B3
:1088100000231A4601F066B908B5012300926A46A2
:1088200001F060F908BD1CB5CDE9002302236A46BA
:1088300001F058F91CBD00002DE9F0470E468046B6
:108840001C46924608293ED894F80C9000202073CC
:108850001946104600F090FF0025B54206D218F8E0
:1088600005201AA12046FFF723FC03E019A12046AA
:10887000FFF71EFC6D1C082DEFD317A12046FFF754
:1088800017FC0025B54210D218F80570FDF786FDDB
:108890000068C05D10F03E0F01D03A4600E02E2285
:1088A0000EA12046FFF704FC03E00DA12046FFF7D0
:1088B000FFFB6D1C082DE5D301222146504600F038
:1088C0003DFF84F80C90BDE8F08700002025303291
:1088D00078000000202020007C00000025630000BC
:1088E00020000000104810B5FF21816000210160C8
:1088F0004160C0F81814C0F8141480F820140B4814
:1089000000F0F0F800280DD109480A490A4B401A36
:10891000C108002003E000BF23F82000401C88426B
:10892000FAD3002010BD0000901D00200CAC020006
:108930000CAC0200ACAB0200B8190020024803499D
:10894000401AC008704700000CAC0200ACAB02003B
:1089500013B56846FFF748FA08B100201CBD02486D
:10896000009950F831001CBDACAB020070B508484E
:108970000125D0F8104480F8205405E06572216884
:108980002046496888476468002CF7D170BD000014
:10899000901D00202DE9FF4781460C9D00200C46CC
:1089A0002F7B2873984616462946184600F0E4FEA9
:1089B000072E42D2DFE806F004090F161F2A360000
:1089C00049462846FFF774FB37E0494628462268A7
:1089D000FFF76EFB31E0D4E9002349462846FFF754
:1089E00067FB2AE0A0680090D4E9002349462846A6
:1089F000FFF75EFB21E0D4E90201CDE90001D4E9F3
:108A0000002349462846FFF753FB16E004F108000F
:108A100007C88DE80700D4E9002349462846FFF738
:108A200047FB0AE004F108000FC88DE80F00D4E905
:108A3000002349462846FFF73BFB002229464046D3
:108A400000F07CFE2F73BDE8FF872DE9F041858A99
:108A500080462D1F4819C01CB0FBF5F0C6B2404639
:108A6000FFF74AFA041E19D000202071012060711E
:108A7000E58000272546761EC4F800800BE04046BE
:108A8000FFF73AFA60B16179491C617128600546C7
:108A90007F1CC0F80080B742F1D32046BDE8F081CA
:108AA000204600F002F80020F8E72DE9F041457972
:108AB00001466B1E002201E00968521C9A42FBD35A
:108AC0000F680146002605E038460C68FFF736FAC5
:108AD0002146761CAE42F7D3BDE8F0810121001D8E
:108AE000FFF7EEB9FFF742BA10B504460121001DA9
:108AF000FFF7FCF910F0FF0F04D12046BDE810404D
:108B0000FFF7D3BF10BD38B501240094FFF730F94B
:108B100038BD38B500240094FFF72AF938BD0000AD
:108B2000064910B500204870091D0860BFF35F8F2B
:108B30000349044800F0F6F9002010BD3419002064
:108B4000A0A20200841C002008B500208DF80000BF
:108B50006846FEF7EFF8F1EE100A20F09F00E1EE14
:108B6000100ABFF35F8F08494020C1F880029DF8CA
:108B70000000FEF703F900F0B1F908B141DF08BDCC
:108B800020BF40BF20BF08BD04E000E020B1034982
:108B900009680160002070470E2070478CA4020015
:108BA000FEB502460D460846FFF7F0FF00286AD1E1
:108BB000002400940194012606208DF80020ADF8D1
:108BC000040002948DF80260694620202A6869DF5B
:108BD0002D4F40B100F0EAF9024638882B4906EBE8
:108BE0000040FFF719FE00948DF801408DF8024017
:108BF000019402948DF80340694640202A6869DF99
:108C000040B100F0D3F902463888214906EB004014
:108C1000FFF702FE0094019402948DF8004069462B
:108C200001202A6869DF40B100F0C0F902463888A7
:108C3000184906EB0040FFF7EFFDF8200090019483
:108C400002946946A1202A6869DF40B100F0AEF9BC
:108C500002463888104906EB0040FFF7DDFD00941E
:108C6000019402948DF800406946A0202A6869DFCB
:108C700040B100F09BF902463888084906EB0040F5
:108C8000FFF7CAFD0020FEBDE019002088AA0200FF
:108C9000D0AA0200E8A9020034AA020094A90200A6
:108CA0002DE9F0410446D0F8008060DF2168194DBD
:108CB000074641451CD92888022606EB004016A12C
:108CC000FFF7A6FD2888424606EB00401EA1236858
:108CD000FFF7A9FDF006D0F80C012168800200F131
:108CE0000050421A288825A106EB0040FFF794FDAA
:108CF000012467B1384600F059F9024628882AA1B4
:108D000004EB0040FFF788FD3846BDE8F0812E48AF
:108D10000470F9E7E0190020496E737566666963AF
:108D200069656E742052414D20616C6C6F63617493
:108D3000656420666F722074686520536F667444A2
:108D400065766963652E00004368616E676520740F
:108D500068652052414D207374617274206C6F639A
:108D60006174696F6E2066726F6D2030782578208F
:108D7000746F20307825782E000000004D617869EE
:108D80006D756D2052414D2073697A6520666F7252
:108D9000206170706C69636174696F6E2069732003
:108DA000307825782E00000073645F626C655F6523
:108DB0006E61626C6528292072657475726E6564D7
:108DC0002025732E00000000B319002030B5144890
:108DD00091B00078002820D05FF03405ADF8405005
:108DE00010A903A861DF30B1052816D011B0BDE885
:108DF0003040FDF703BF03AC0A49684600F092F823
:108E000007E000BFD0E9002120469047684600F007
:108E1000A0F802980028E1D0F4E711B030BD0000BE
:108E2000B319002090A402007CB5204C207808B132
:108E300008207CBD0120A070002000F08DFD1128CD
:108E400019D0002000F0A0FD19480026006801900C
:108E50008DF800606846FDF76DFF164901A810DF28
:108E600005000AD0002020709DF80000FDF786FF65
:108E70002DB128467CBD00207CBD0120F3E7A67003
:108E800066700721162000F01DFD08B1FDF7B6FE43
:108E90000721152000F016FD08B1FDF7AFFE00F028
:108EA000F9FD012000F070FDE5E70000B019002099
:108EB00024A40200816B02000EB50749684600F049
:108EC00031F805E0D0E900108847684600F041F825
:108ED00002980028F6D10EBD40A402000148007897
:108EE00070470000B01900201FB568464BDF30B155
:108EF000052814D004B0BDE81040FDF77FBE084936
:108F000001A800F00FF806E0D0E900210098904792
:108F100001A800F01EF803980028E6D0F4E71FBD72
:108F2000ACA40200016009684160AFF3008010B595
:108F3000D0E900215368994201D1002104E0D1E930
:108F40000034A34202D01946816010BD083141604F
:108F5000F0E7816800290BD0026892680A448260B9
:108F600041684B689A4203D108314160FFF7DFBF87
:108F7000704700000C4A10B502F594730EE0991A80
:108F8000C91001EBD171491002EBC1010C68844298
:108F900001D90B4602E005D201F108029A42EED354
:108FA000002010BD486810BDC0A2020000B5FFF748
:108FB000E1FF002800D1014800BD0000ACA2020082
:108FC0004058002800D00120704708B500224250C8
:108FD0004058009008BDD0F80403084000D001209C
:108FE00070474058002800D00120704708B5002283
:108FF00042504058009008BD08480068012110F018
:10900000010F08D14FF0E020E02280F80024C0F8E2
:109010008012C0F8001102480160704700E100E0D2
:10902000180500400649024600200B790BB1852047
:1090300070470A6001220A7100224A7170470000DD
:10904000F018002004490120086004480168C1F3B9
:1090500000410029FAD170470C000040180400407C
:10906000002802D0014980010847704771A2020020
:109070002DE9F0418846054600F048FB234E0028C4
:1090800028461AD0FEF7C2FA304490F8480080090A
:10909000032802D001280ED007E04FF0A040D0F8FE
:1090A0001005E84010F0010F05D003212846BDE867
:1090B000F041FFF783B90221F8E700F033FB002805
:1090C00022D02846FEF7A2FA04464FF4807000EB47
:1090D00084000F4F81B207EB8400D0F8102542F0D6
:1090E0000102C0F810250846FFF798F9B8F1000F03
:1090F0000AD02846FEF78AFA56F82000002803D046
:109100000120A040C7F80403BDE8F081A01A0020A8
:10911000006000402DE9FC41DFF8BC80044608EB0C
:109120000400002790F930001346C0170E46401C7B
:1091300001D008274CE0B0781946C0F34002204621
:10914000FEF740FA0546401C41D0B078410719D4DB
:10915000C0070AD04FF0A04000EB8401D1F800070F
:1091600020F00200C1F8000707E0002173782046D4
:1091700000910A460191FFF7B3F817492046543190
:10918000FEF714FFB078800718D51448317800EB4B
:109190008500D0F81025124B1A40C0F810254FF466
:1091A000F8524FF4403302EA042203EA01410A4331
:1091B000D0F810150A43C0F8102509E008EB0500A7
:1091C000327810F8481F41EA8211017000E004274C
:1091D0003846BDE8FC810000A01A00200060004075
:1091E000FFE0FCFF4FF0A041D1F81015C14011F095
:1091F000010000D00120704770B5184D95F8580057
:1092000008B1082070BD0020411E2A18401CC0B2C1
:1092100082F830102028F8D300242046FEF7C4F945
:10922000641CE4B20C2CF8D300240D49E0206C65DA
:1092300081F8000401264020891FC1F88002C1F88E
:1092400000014FF4BE70FFF7E9F80649F007C1F8D6
:10925000040385F85860204670BD0000A01A002065
:1092600006E000E000600040034890F85800002845
:1092700000D0012070470000A01A00200121B1EBAE
:10928000507F01D1012070470020704738B50D464E
:1092900000F0BEFA040014D000208DF800006846EB
:1092A000FDF748FD207928B19DF80000FDF766FD27
:1092B000112038BD0120256020719DF80000FDF7C8
:1092C0005DFD002038BD10B500F0A2FA002802D0E4
:1092D00000210160017110BD0149024800F098BDF4
:1092E000FC1A0020002000402DE9F04105460079DD
:1092F00016460F4600EB40012D4A01EBC00102EB80
:10930000810494F82A1011B10820BDE8F0812949A0
:1093100051F820102868FFF7B9FF08B11120F4E7D1
:1093200039462846FDF744FD666038692060300004
:109330004FF001062FD03F7F4FF48E712868FFF762
:1093400044FE4FF4A2712868FFF73FFE28681A49CF
:10935000C0F8041328684FEA4711000B40B20028F8
:1093600006DA00F00F0000F1E02080F8141D03E0A1
:1093700000F1E02080F800142868000B40B200F0F3
:109380001F0206FA02F14009800000F1E020C0F857
:109390008012C0F8001128680421C0F800150020D0
:1093A000A061E06184F8290044F8140FA675ACE7C9
:1093B000FC1A002054A20200800002002DE9F047B0
:1093C000054600790B4600EB400101EBC000234944
:1093D00001EB8004284600F043F810B11120BDE8ED
:1093E000F0874FF00008C4F82080A360626184F821
:1093F00028804FF48E76474631462868FFF7E5FD12
:1094000028684FF00109C0F808902146286800F04C
:109410009BFC606800BBD5F800A00EE094F8280023
:1094200008B10F2716E031465046FFF7C9FD002866
:10943000F4D02146504600F087FC216A60698142E1
:10944000F1D331462868FFF7BBFD0028F9D0286822
:10945000C0F80C90C4F814803846C0E7FC1A00200D
:10946000007900EB400101EBC000044901EB8000F2
:109470004069002800D0012070470000FC1A00203D
:109480002DE9F047044600794FF0000900EB400158
:1094900001EBC000254901EB80072068C0F800956A
:1094A000786880B120682249C0F80813206801213B
:1094B000000B40B200F01F0291404009800000F113
:1094C000E020C0F880112068D0F80C25D0F8148571
:1094D000D0F80865D0F810554FF0FF31C0F81415DA
:1094E000C0F80C152068C0F80815C0F81015501CFD
:1094F00002D01046FEF72AFFB8F1FF3F02D04046E7
:10950000FEF724FF681C02D02846FEF71FFF701CE0
:1095100002D03046FEF71AFF2068FFF7D4FE87F826
:109520002A90C7F80490BDE8F0870000FC1A0020DC
:10953000840202000149024800F016BD281B0020E9
:10954000002000402DE9F0410546164600790F46FF
:10955000154A00EBC00102EB810494F8201011B110
:109560000820BDE8F081114951F820102868FFF764
:109570008DFE08B11120F4E739462846FDF75CFC62
:109580006660386920601EB1397F2846FEF70EFA02
:1095900028680821C0F800150020A061E0610121C1
:1095A000606184F82010DCE7281B002058A202002C
:1095B0002DE9F04704460E460079204900EBC00033
:1095C00001EB800517463046FFF758FE30B12046C4
:1095D00000F036F820B11120BDE8F0871020FBE73D
:1095E0006F61AE604FF49076002731462068FFF738
:1095F000FDFC4FF4AC7841462068FFF7F7FC20688B
:10960000AA686969C0F84425C0F848152068012196
:109610008160686878B9B14649462068FFF7E1FC87
:10962000064641462068FFF7DCFC0643F4D000B153
:109630000F27002068613846CEE70000281B002075
:109640000079054900EBC00001EB8000406900286B
:1096500000D0012070470000281B00202DE9F047B2
:1096600004460079274900EBC00001EB8007206821
:109670004FF00009C0F80095786880B12068224951
:10968000C0F8081320680121000B40B200F01F024F
:1096900091404009800000F1E020C0F8801120686E
:1096A000D0F80C25D0F81485D0F80865D0F81055FE
:1096B0004FF0FF31C0F80C15C0F814152068C0F841
:1096C0000815C0F81015501C02D01046FEF747FED2
:1096D000B8F1FF3F02D04046FEF741FE681C02D0C1
:1096E0002846FEF73CFE701C02D03046FEF737FEDF
:1096F0002068FFF7E8FD87F82090C7F80490BDE8E0
:10970000F0870000281B00201003020004490844D1
:1097100090F93000082801DB0120704700207047D5
:10972000A01A00200449084490F93000082801D20A
:109730000120704700207047A01A002010B50C4689
:10974000017A052908D0407A38B1084808A1026892
:109750002046FEF7ADFC00E01AB106A12046FEF758
:10976000A7FC2046BDE81040FEF7AFBC8C190020D6
:10977000257300000D0A000038B5C3880D46044665
:1097800033B114A0009015A216A12846FEF790FC54
:10979000217A05291CD0607A48B1A088FEF702FF23
:1097A000164951F8202016A12846FEF781FCA08812
:1097B0000021FFF7CDF803461049207A143951F8FB
:1097C000202001B02846BDE830400EA1FEF770BC55
:1097D00038BD00001B5B306D000000001B5B313B9F
:1097E00033316D0025734C6F67732064726F707036
:1097F0006564202825642925730D0A008C19002032
:10980000257300003C25733E2025733A200000009C
:109810000349884201D10348704700207047000087
:1098200000200040F818002070B5012670044FF0A9
:10983000E0210025C1F88001084C4010C4F848031D
:10984000C4F8080366602F20FFF70AFCA660044CEA
:109850002F20A560FFF704FCA57070BD001001402B
:109860002019002070B5054688690C4600284FF481
:10987000847128460AD0FFF7A8FBD5F81805626A5C
:10988000E1688854606A401C606270BDFFF79DFB10
:10989000D5F8180570BD1FB501238DF80030CDE94E
:1098A0000121D0E90012684690471FBD1FB5012372
:1098B0008DF800308DF808100192D0E9001268464A
:1098C00090471FBD70B50D460446FDF7AFF870B167
:1098D0002846FDF7BDF868B16807000E002C0CDAC9
:1098E00004F00F0101F1E02181F8140D09E042F2CA
:1098F000010070BD42F2020070BD04F1E02484F862
:109900000004002070BD000038B50021012548B1D9
:1099100001280CD0032809D1FFF76EFBBDE83840C1
:10992000FEF77ABB4FF0E020C0F8805138BD8DF8CB
:1099300000106846FDF7FEF9064C207808B9FEF7DE
:109940004FFBE068401CE060A5709DF80000FDF74B
:1099500015FA38BD8C1A00203EB504460949684600
:10996000FFF7E0FA08E000BFD0E900212046904769
:1099700030B16846FFF7EDFA02980028F4D13EBDF9
:1099800011203EBD28A402003EB5044608496846A1
:10999000FFF7C8FA07E000BFD0E900212046904752
:1099A0006846FFF7D6FA02980028F5D13EBD0000C0
:1099B00034A4020070B50D4C0020D2B22070201DDE
:1099C0000B4D0378EB5C1BB1001DFFF7F1FD02E0CE
:1099D0000C30FFF7F3FC08B1FDF710F960780028B0
:1099E00002D021780029FAD070BD00003C19002077
:1099F000E41800202DE9F0410746806A14468846A5
:109A0000C8B3002531E000BFB96A05EB450001EBA2
:109A10008006B088801CFE2802D90C20BDE8F081A9
:109A20002288401C08F8020020881622401C80B2C0
:109A3000208008F800202088401C80B2208000EBA5
:109A40000801308800F00AFB2188084480B2208099
:109A5000B28842B1B16871B14044FCF7A3FC2088E0
:109A6000B188084420806D1CEDB297F82C00A84204
:109A7000CAD80020D2E7FFE70720CFE7002805D1AA
:109A80000349012048700020FDF7C8BD7047000061
:109A90008C1A002010B51620FCF7C8FF80B10F48C3
:109AA00090F800044009FCF7D3FF60B10C488268CD
:109AB0004FF480016AB1016841F48001016010BD7A
:109AC00042F2010001E042F20200BDE81040FDF761
:109AD00095B84FF0E020C0F8001110BD16E000E08E
:109AE000781C00202DE9F84F204D92468946064605
:109AF0009846012269461846AF68FDF7EFFC58B357
:109B0000009800210446801C09E000BF00EA07031A
:109B10005AF8212005EB8303401C491CDA604145BB
:109B2000F4D34FEA164AFDF781FE4AEA0041601C71
:109B3000384005EB80003C4005EB8402C160D068F2
:109B400066F3C50068F3891069F39F2020F00300D5
:109B5000401C20F00400D06095F8200402E000BF13
:109B6000FEF746FD0028FBD1BDE8F88F901D0020D0
:109B70002DE9F84F1D4C00256846D4E901A6FDF7F4
:109B80005FFE002738B30023009A61681CE0D1F81B
:109B900000C00846944503D9ACEB02020A6015E008
:109BA000A2EB0C0263440760D0F80CC0C169814687
:109BB000BCF1000F08D006EB030828F07F48C0E98D
:109BC000018CC9F81C5005460029E0D12846616087
:109BD000FDF774FF03E02846FDF770FF10B1504613
:109BE000FDF73EFDE770BDE8F88F0000201900206A
:109BF0000D4B10B5596831B102680C68A24204D807
:109C0000A21A0A60C161586010BD0B4603E00B4602
:109C1000C969121B21B10C689442F8D3A41A0C60D4
:109C20000260C161D86110BD201900202DE9F0410A
:109C3000144E77683D462C4603E0844204D0254606
:109C4000E469002CF9D11BE0D4B1A5420BD1F8692D
:109C5000706040B90C49012088600021B160F0704B
:109C60002F20FFF7FDF92168E069E86110B1026873
:109C7000114401607068874202D00120BDE8F08184
:109C80000020FBE720190020001001407CB50646AB
:109C900000240D468DF800406846FDF74BF801A8FA
:109CA00000F03CFA70B10570094946609DF8040067
:109CB00048709DF80000FDF761F81420FCF7B4FC33
:109CC00020467CBD04249DF80000FDF757F8F7E717
:109CD0006C1B00202DE9F041194D6C68002C2CD034
:109CE000184800270068A968B846401A20F07F4647
:109CF0002068B0420CD82146361A0744E469087C33
:109D000020B181F81080886949698847002CEFD11B
:109D100029786878814206D1401CC0B26870022858
:109D200001D185F80180064869780C3040F821702F
:109D3000BDE8F0411420FCF777BCBDE8F0810000DD
:109D4000201900200415014070B50C4605464FF45B
:109D50008E71FFF73AF9216AA068415C206A401CC5
:109D60002062C5F81C1570BD1FB500228DF80020BB
:109D70000291816801914261D0E9001268469047E2
:109D80001FBD00001FB50A4601788DF8001041681C
:109D90000191017A8DF80810C0680390044850F8CA
:109DA0002210001F50F82220684690471FBD000077
:109DB000EC18002001490120087070473C19002070
:109DC00010B588B0044620220E496846FCF7EAFA2E
:109DD00006200090C01F0190029003904FF0EB709E
:109DE00006900CB1084A00E0002269460748FEF7D9
:109DF0002BF908B1FCF702FF0448001F447008B0BB
:109E000010BD0000F4A30200B59D0200401900201F
:109E10002DE9FF470C4605464FF40071FFF7DBF8CC
:109E200001274FF40178002618B34FF49279494680
:109E30002846FFF7C5F8E0B149462846FFF7C5F8C0
:109E4000C5F8088394F8290000B96F6002208DF8E6
:109E50000000D5F88004C5F880040390A069029042
:109E6000E0680190A661E661D4E900126846904777
:109E700028E004212846FFF7AEF818B34FF48471A8
:109E80002846FFF79DF8E8B121462846FFF7EAFC8F
:109E9000616AA069884215D1E06938B1E268616AF7
:109EA000A0612069E6616662E06008E094F829003C
:109EB00000B96F60C5F80883A661E268616A204650
:109EC000FFF7E9FC4FF48E7841462846FFF778F813
:109ED00078B1206A6169884202D294F8280020B3E0
:109EE00041462846FFF771F8616911B12046FFF736
:109EF0003BFF4FF4A27841462846FFF761F800285F
:109F000018D041462846FFF760F894F8290000B1C0
:109F10002F60A06900280DD0A661E268616A04B0D4
:109F20002046BDE8F047FFF7B6BC21462846FFF7BC
:109F30000BFFDEE7BDE8FF871FB50A4601788DF805
:109F4000001041680191017A8DF80810C0680390F3
:109F5000044850F82210001F50F82220684690470D
:109F60001FBD0000EC1800202DE9FF410C464FF406
:109F7000927705463946FFF734F80026C0B13946D6
:109F80002846FFF733F802208DF80000D5F880044A
:109F9000C5F880040390D5F83C058DF80800E0680A
:109FA0000190A661E661D4E900126846904723E07B
:109FB0004FF4887739462846FFF713F8E0B1394661
:109FC0002846FFF713F8D5F83C15A069884213D14D
:109FD000E06960B1E268D5F8000220F02000C5F821
:109FE0000002E069A0612069E661E06001E0A6612D
:109FF000E2682046FFF75AFC4FF4A277394628461C
:10A00000FEF7EFFF60B139462846FEF7EFFFA06983
:10A0100030B1A661D5F83C152046E268FFF746FC52
:10A020004FF4907739462846FEF7DBFF002813D01F
:10A0300039462846FEF7DAFF606900280CD0D5F8CB
:10A040004C058DF800608DF80800A06801906661ED
:10A05000D4E9001268469047BDE8FF810870000A05
:10A0600048700220704700002DE9F05F8346DDE96B
:10A070000A4A994690460D460846012703E000BF6C
:10A08000B0FBF8F07F1C4045FAD2B94500D94F46E5
:10A090005FEACA7012D18CB15FEA8A7002D5B9F159
:10A0A000000F01D0202607E0302605E03146584653
:10A0B000641EFDF75BFA0CB1A742F7D35FF001060F
:10A0C000B9F1010F02D9A9F1010903E0B5FBF6F0DE
:10A0D000404502D306FB08F6F2E7DFF83C9000BFEC
:10A0E000B5FBF6F000FB165519F800105846FDF7C1
:10A0F0003DFAB6FBF8F6002EF2D15FEACA7009D03D
:10A10000002C07D0A74205D220215846641EFDF737
:10A110002DFAF5E7BDE8F09F76A202000A494A78D9
:10A120008B78521CD2B2934200D100220B7893421A
:10A1300001D1002070470270487800EB400001EB2D
:10A14000C000001D704700006C1B00202DE9FC4181
:10A150001646DDE90854CDE900541F468046022228
:10A1600000F00CF8002807D1CDE900543B4610223E
:10A170003146404600F002F8BDE8FC812DE9FC5F65
:10A180000026DDE90C4B994692468E46804627888C
:10A19000354630E0D8F80400002200EB850069461F
:10A1A0000068019001A864DF002830D19DF800000C
:10A1B00050451FD10EB1002100E002212288084441
:10A1C0001118594522D846B9521C90B2208009F87E
:10A1D00000E02088401C20800126218801A801EB96
:10A1E0000902694664DF002811D120889DF800101B
:10A1F000084420806D1CB8F80000A842CADC56B1A3
:10A200002088C01B401E80B2FF2802D90C20BDE868
:10A21000FC9F09F807000020F9E7111213140D0E36
:10A220000F100000201A0020401A00206C1A002095
:10A230000D000300A57102000E000300A5710200CD
:10A240000F000300A571020010000300A5710200B9
:10A2500000000050D9920200359502000300000072
:10A260004C1B002000000000000000000000000067
:10A270000338FDD87047303132333435363738390A
:10A280004142434445460000000000000000000039
:10A2900000000000000000000000000000000000BE
:10A2A00088A20200A0A2020004000000556E6B6E9E
:10A2B0006F776E206572726F7220636F6465000045
:10A2C00000000000B8A802000100000064A702001E
:10A2D0000200000058A5020003000000D8A70200F9
:10A2E000040000002CA80200050000000CA70200DA
:10A2F00006000000A8A602000700000014A8020043
:10A300000800000020A702000900000084A7020046
:10A310000A000000A0A802000B00000040A50200F7
:10A320000C00000038A702000D00000008A9020080
:10A330000E00000004A802000F00000040A8020068
:10A340001000000074A80200110000001CA9020007
:10A3500012000000F0A80200130000008CA8020008
:10A3600080000000C0A6020081000000FCA50200E1
:10A3700082000000BCA50200830000009CA5020032
:10A3800084000000D8A5020085000000E4A60200B9
:10A3900086000000ECA702009000000088A60200E2
:10A3A000910000007CA50200920000004CA7020072
:10A3B0000082000054A8020001820000A0A7020051
:10A3C00002820000BCA702000084000018A6020060
:10A3D00001840000C4A802000284000060A60200FC
:10A3E000038400003CA602008D8502006185020006
:10A3F00059850200FFFFFFFFFFFFFFFFFFFFFFFF89
:10A40000FFFFFFFF00000000000000000000D60179
:10A410000701000000000000000000000000000034
:10A42000000000000100000714A4020024A40200A0
:10A43000080000004CA402005CA402000800000018
:10A440005CA402006CA40200080000003CAC020006
:10A4500044AC020000000000000000002CAC020030
:10A460003CAC020000000000000000000000000002
:10A4700000000000000000000000000000000000DC
:10A48000000000000000000000000000A8180020EC
:10A490006CA402008CA402000800000024AC02009E
:10A4A0002CAC020000000000000000009CA4020090
:10A4B000ACA4020008000000004040404040404082
:10A4C0004040414141414140404040404040404087
:10A4D000404040404040404040050202020202022B
:10A4E000020202020202020202202020202020207A
:10A4F000202020020202020202029090909090908E
:10A50000101010101010101010101010101010104B
:10A5100010101010020202020202888888888888BF
:10A5200008080808080808080808080808080808AB
:10A53000080808080202020240000000B9A4020054
:10A540004E52465F4552524F525F494E56414C491A
:10A55000445F4441544100004E52465F4552524FC1
:10A56000525F534F46544445564943455F4E4F54FE
:10A570005F454E41424C4544000000004E52465F4C
:10A580004552524F525F464541545552455F4E4FDA
:10A59000545F454E41424C45440000004E52465FD8
:10A5A0004552524F525F4D555445585F554E4C4F92
:10A5B000434B5F4641494C45440000004E52465FC4
:10A5C0004552524F525F4D555445585F4C4F434B87
:10A5D0005F4641494C4544004E52465F4552524FFA
:10A5E000525F4D555445585F434F4E445F494E4965
:10A5F000545F4641494C4544000000004E52465FBE
:10A600004552524F525F4D555445585F494E49543B
:10A610005F4641494C4544004E52465F4552524FB9
:10A62000525F424C455F495053505F52585F504B08
:10A63000545F5452554E4341544544004E52465F78
:10A640004552524F525F424C455F495053505F5004
:10A650004545525F52454A45435445440000000079
:10A660004E52465F4552524F525F424C455F4950F1
:10A6700053505F4C494E4B5F444953434F4E4E45F8
:10A6800043544544000000004E52465F4552524F2D
:10A69000525F4150495F4E4F545F494D504C454DBC
:10A6A000454E5445440000004E52465F4552524FBD
:10A6B000525F4E4F545F535550504F5254454400D3
:10A6C0004E52465F4552524F525F4D4F44554C4596
:10A6D0005F4E4F545F494E495449414C495A454495
:10A6E000000000004E52465F4552524F525F4D4FA0
:10A6F00044554C455F414C52454144595F494E4990
:10A700005449414C495A4544000000004E52465FAE
:10A710004552524F525F4E4F545F464F554E440084
:10A720004E52465F4552524F525F494E56414C4938
:10A73000445F5354415445004E52465F4552524F78
:10A74000525F444154415F53495A45004E52465F5F
:10A750004552524F525F494F5F50454E44494E4714
:10A76000000000004E52465F4552524F525F535612
:10A77000435F48414E444C45525F4D495353494E07
:10A78000470000004E52465F4552524F525F494EBD
:10A7900056414C49445F4C454E4754480000000028
:10A7A0004E52465F4552524F525F4452565F545785
:10A7B000495F4552525F414E41434B004E52465F06
:10A7C0004552524F525F4452565F5457495F45526B
:10A7D000525F444E41434B004E52465F4552524FEA
:10A7E000525F494E5445524E414C00004E52465F16
:10A7F0004552524F525F53544F524147455F465561
:10A800004C4C00004E52465F4552524F525F4E55DF
:10A810004C4C00004E52465F4552524F525F494EDB
:10A8200056414C49445F504152414D004E52465FA3
:10A830004552524F525F4E4F5F4D454D0000000054
:10A840004E52465F4552524F525F464F5242494424
:10A8500044454E004E52465F4552524F525F44525D
:10A86000565F5457495F4552525F4F5645525255B5
:10A870004E0000004E52465F4552524F525F494EC5
:10A8800056414C49445F4144445200004E52465F99
:10A890004552524F525F5245534F55524345530014
:10A8A0004E52465F4552524F525F494E56414C49B7
:10A8B000445F464C414753004E52465F5355434315
:10A8C000455353004E52465F4552524F525F424CE1
:10A8D000455F495053505F4348414E4E454C5F41A0
:10A8E0004C52454144595F45584953545300000068
:10A8F0004E52465F4552524F525F434F4E4E5F435A
:10A900004F554E54000000004E52465F4552524F84
:10A91000525F54494D454F55540000004E52465F1A
:10A920004552524F525F4255535900007761726E43
:10A93000696E670064656275670000001B5B313BF0
:10A9400033306D001B5B306D000000001B5B313B42
:10A9500033316D001B5B313B33326D001B5B313B90
:10A9600033336D001B5B313B33346D001B5B313B7C
:10A9700033356D001B5B313B33366D001B5B313B68
:10A9800033376D00696E666F000000006572726F8C
:10A990007200000073645F626C655F6366675F737B
:10A9A000657428292072657475726E65642025733C
:10A9B000207768656E20617474656D7074696E6768
:10A9C00020746F2073657420424C455F4741545496
:10A9D000535F4346475F534552564943455F43489B
:10A9E000414E4745442E000073645F626C655F63AF
:10A9F00066675F73657428292072657475726E6569
:10AA000064202573207768656E20617474656D70AD
:10AA100074696E6720746F2073657420424C455FC3
:10AA2000434F4D4D4F4E5F4346475F56535F55551D
:10AA300049442E0073645F626C655F6366675F7391
:10AA4000657428292072657475726E65642025739B
:10AA5000207768656E20617474656D7074696E67C7
:10AA600020746F2073657420424C455F47415454F5
:10AA7000535F4346475F415454525F5441425F53D2
:10AA8000495A452E0000000073645F626C655F6385
:10AA900066675F73657428292072657475726E65C8
:10AAA00064202573207768656E20617474656D700D
:10AAB00074696E6720746F2073657420424C455F23
:10AAC000434F4E4E5F4346475F4741502E000000C4
:10AAD00073645F626C655F6366675F736574282982
:10AAE0002072657475726E656420257320776865C1
:10AAF0006E20617474656D7074696E6720746F2068
:10AB000073657420424C455F4741505F4346475F41
:10AB1000524F4C455F434F554E542E00636C6F634C
:10AB20006B000000434C4F434B0000004750494F1F
:10AB3000544500005052530055415254000000004B
:10AB400055415254450000007077725F6D676D7417
:10AB50000000000062616C6C6F632E6C6F675F6D4C
:10AB6000656D706F6F6C0000617070006E72665F73
:10AB7000736468006E72665F7364685F626C650020
:10AB80006E72665F7364685F736F630044AC02004B
:10AB9000A81800204001000040640200A0AC0200A0
:10ABA000E8190020D02700001C6A02001CAB02003C
:10ABB0000000000024AB0200000000002CAB0200EB
:10ABC0000000000034AB02000000000038AB0200BF
:10ABD0000000000040AB02000000000048AB020093
:10ABE0000000000054AB02000000000368AB02004C
:10ABF000000003036CAB02000000030374AB02000F
:10AC00000000030380AB020000000303681900206A
:10AC10006019002068190020D01C0020D4190020E1
:10AC2000180000007D9A020000000000CD8D020097
:10AC300000000000E98E02000000000009990200F7
:10AC40000000000042FF121AB3201F001872021504
:10AC50000112233445566778899AABBCCDDEEFF0FC
:10AC600001020304C31220AA40080425E8A3021429
:10AC70008CA9021A2C041A84041A34041A44041AE3
:10AC80003C041A4C041A54041A5C041A64041A6C26
:10AC9000041A74041A7C0451043090D0030000009C
:040000050002620192
:00000001FF
