:020000040002F8
:10600000C04B0020C1630200C9630200CB630200E1
:10601000CD630200CF630200D163020000000000E4
:10602000000000000000000000000000D363020038
:10603000D563020000000000D7630200D9630200AC
:10604000F56F0200DB630200DD740200DB63020017
:10605000DB630200DB630200AD6D020071700200C1
:10606000DB630200DB630200DB630200DB63020030
:10607000DB630200DB630200DB630200DB63020020
:10608000E97402004D700200DB630200DB63020072
:10609000B9710200DB630200BD710200DB63020024
:1060A000DB630200DB630200DB630200DB630200F0
:1060B000DB630200DB630200000000000000000060
:1060C000DB630200DB630200DB630200DB630200D0
:1060D000DB630200DB630200DB6302000000000000
:1060E00000000000000000000000000000000000B0
:1060F00000000000000000000000000000000000A0
:10610000000000000000000000000000000000008F
:10611000000000000000000000000000000000007F
:10612000000000000000000000000000000000006F
:10613000000000000000000000000000000000005F
:10614000000000000000000000000000000000004F
:10615000000000000000000000000000000000003F
:10616000000000000000000000000000000000002F
:10617000000000000000000000000000000000001F
:10618000000000000000000000000000000000000F
:1061900000000000000000000000000000000000FF
:1061A00000000000000000000000000000000000EF
:1061B00000000000000000000000000000000000DF
:1061C00000000000000000000000000000000000CF
:1061D00000000000000000000000000000000000BF
:1061E00000000000000000000000000000000000AF
:1061F000000000000000000000000000000000009F
:10620000DFF80CD000F014FC00480047D1AB0200CE
:10621000C04B002030B450E8012F93B2C48923440E
:106220008489A34228BF1B1B0489A34202BFBFF37A
:106230002F8F002007E0C3EA020340E80134002C5E
:10624000E9D14FF001000A6030BC704750E8012FDF
:10625000C2EA024240E801210029F7D1704730B478
:1062600050E8022F1FFAA2F3C488A34202BFBFF373
:106270002F8F00200DE0C48923448489A34228BFC6
:106280001B1BC2EA034340E80234002CE8D14FF064
:1062900001000A6030BC704750E8022FC2EA224277
:1062A00040E802210029F7D17047034653E8022F46
:1062B000D988B2EB324F4FF0000017BF92B241EADB
:1062C000014142EA014104E05A68B2EB324F08BF93
:1062D000012043E80212002AE8D1704730B4044696
:1062E00054E8000F0D4644E80053002BF8D1156028
:1062F00030BC704730B4044654E8000F40EA010552
:1063000044E80053002BF7D1156030BC704730B41F
:10631000044654E8000F00EA010544E80053002B4E
:10632000F7D1156030BC704730B4044654E8000F14
:1063300080EA010544E80053002BF7D1156030BC1A
:10634000704730B4044654E8000F00EB010544E800
:106350000053002BF7D1156030BC704730B40446B1
:1063600054E8000FA0EB010544E80053002BF7D1DF
:10637000156030BC704770B404464FF0000054E81C
:10638000006F0D68AE4207BF44E80023012044E8D7
:1063900000630E60002B1CBF0020F0E770BC70474C
:1063A00030B4044654E8000F88422CBF451A054615
:1063B00044E80053002BF5D1156030BC7047000055
:1063C0000648804706480047FEE7FEE7FEE7FEE78F
:1063D000FEE7FEE7FEE7FEE7FEE7FEE7C17102002B
:1063E000016202002DE9F05F0546002092469B46BF
:1063F00088460646814640241BE0284641464746DB
:10640000224600F047FA53465A46C01A914110D32B
:1064100011461846224600F016F82D1A67EB0108BF
:106420004F4622460120002100F00DF817EB00092D
:106430004E41201EA4F10104DFDC484631462A46C5
:106440004346BDE8F09F202A04DB203A00FA02F11F
:10645000002070479140C2F1200320FA03F3194352
:106460009040704740EA01039B0703D009E008C948
:10647000121F08C0042AFAD203E011F8013B00F809
:10648000013B521EF9D27047D2B201E000F8012B55
:10649000491EFBD270470022F6E710B513460A46A4
:1064A00004461946FFF7F0FF204610BD30B50446FC
:1064B0000020034600E05B1C934203D2E05CCD5C0D
:1064C000401BF8D030BD2DE9FE4F804681EA030025
:1064D000C00F0C46009021F0004123F00045B8EBBE
:1064E0000200A94105D24046214690461C460B4673
:1064F000024623F00040104347D0270DC7F30A009F
:10650000C3F30A510290401A019040286BDAC3F39A
:10651000130040F4801B0098924620B10023D2EB78
:10652000030A63EB0B0B01985946C0F14002504639
:10653000FFF789FF06460D4650465946019A00F07E
:10654000B9F910EB08006141002487EA115284EA8E
:10655000E7731A4340D0009A62B3019A012A4FEAC6
:10656000075215DC001B61EB02014FF0004202EA0A
:106570000752CDE90042001C41F5801132462B46FE
:1065800000F0F0F903B0BDE8F08F40462146F9E78E
:10659000001B61EB0201001C41F5801300185B41F8
:1065A0002018A2F5001747EB030140EAD570B61991
:1065B0006D4111E06D084FEA360645EAC0754FEAB5
:1065C0000752001B61EB0201001C41F580114908D4
:1065D0004FEA30000019514132462B4603B0BDE866
:1065E000F04F00F0B0B90098012240000023D0EB3A
:1065F000020263EBE073009821464FEAE074B8EBC7
:10660000000061EB0401E9E783F000435BE781F000
:10661000004158E72DE9FE4F81EA030404F00044ED
:1066200021F0004100944FF0000B23F0004350EAAA
:1066300001045ED052EA03045BD0C3F30A54C1F3F1
:106640000A552C44A4F2F3340194A0FB0254C1F384
:10665000130141F48011C3F3130343F4801301FBCE
:10666000024400FB034E840A970A44EA815447EA35
:106670008357A4FB076802958D0A05FB07854FEA3F
:10668000932C04FB0C542705029D4FEA065847EA59
:106690001637B5EB08056EEB070C870E920E47EA2E
:1066A000811742EA8312A7FB0201B6EB0B0164EBF0
:1066B00000042B0D43EA0C335E1844EB1C50DA4601
:1066C0005146E7FB0201C5F313044FEA0B3343EADB
:1066D00014534FEA0432019C43EA0603A4F10C046C
:1066E0000294009CCDE900B400F03CF903B0BDE891
:1066F000F08F00200146F9E72DE9F04D81EA03040F
:1067000004F0004B21F0004514464FF0000A23F03E
:10671000004150EA050220D054EA01021DD0C5F321
:106720000A570246C5F31303C1F31300C1F30A5617
:1067300040F4801543F48013A7EB0608101BD646DF
:1067400008F2FD3873EB050002D308F1010801E0FF
:1067500092185B41B8F1000F03DA00200146BDE852
:10676000F08D00204FF48011064684460EE0171B82
:1067700073EB050705D3121B63EB050306434CEAD5
:10678000010C49084FEA300092185B4150EA0107BA
:10679000EDD152EA030012D082EA040083EA050137
:1067A000084305D0101BAB4106D20122002306E0AE
:1067B00000224FF0004302E06FF0010253101AEB89
:1067C00006004CEB085110EB0A0041EB0B01BDE851
:1067D000F04D00F0B8B80EB5C10F80EAE070084483
:1067E000CA07002140F233438DE80E000A460B46EB
:1067F00000F0B8F803B000BD70B5C1F30A5201F063
:1068000000450024C1F3130140F2FF3341F480112D
:106810009A4201DA002070BD40F233439A42A2F25C
:10682000334203DC524200F035F800E090402C4344
:10683000F1D0404270BD00F0004230F000400AD07C
:10684000C10D01F56071C0F3160042EA0151C208A2
:1068500040071143704700200146704701F0004394
:1068600030B421F0004150EA010206D00A0DA2F531
:106870006072C1F31301002A02DC30BC00207047B3
:10688000440F44EAC104C100E01830BC00EBC25020
:1068900000F022B8202A04DB203A21FA02F000217D
:1068A000704721FA02F3D040C2F120029140084320
:1068B00019467047202A06DBCB17203A41FA02F02E
:1068C00043EAE07306E041FA02F3D040C2F120024D
:1068D00091400843194670470029A8BF7047401CE3
:1068E000490008BF20F00100704710B4B0FA80FCE6
:1068F00000FA0CF050EA010404BF10BC704749B123
:10690000CCF1200421FA04F411FA0CF118BF012192
:1069100021430843A3EB0C01CB1D4FEA00614FEA72
:10692000102042BF002010BC704700EBC350104441
:106930000029A4BF10BC7047401C490008BF20F0CC
:10694000010010BC704710B5141E73F1000408DA82
:10695000401C41F1000192185B411A4301D120F023
:10696000010010BD2DE9F04D92469B4611B1B1FAE0
:1069700081F202E0B0FA80F220329046FFF763FD28
:1069800004460F4640EA0A0041EA0B0153465A46C4
:10699000084313D0114653EA010019D0C8F1400250
:1069A0005046FFF777FF05460E4650465946424689
:1069B000FFF749FD084305D0012004E02046394691
:1069C000BDE8F08D0020054346EAE0762C433743CE
:1069D0000A986305E40AA0EB08000022FD0A44EAD5
:1069E00047540A3002D500200146E9E70105101995
:1069F0006941DDE9084500196941BDE8F04DA2E7AC
:106A000030B5041E71F1000404DB4FF00044404235
:106A100064EB0101141E73F1000405DB1C464FF00A
:106A20000043524263EB04038B4208BF824230BDF5
:106A3000064C074D06E0E06840F0010394E80700CB
:106A400098471034AC42F6D3FFF7DEFB08EA0200A9
:106A500028EA020070B58C1810F8015B15F00703E6
:106A600001D110F8013B2A1106D110F8012B03E0E7
:106A700010F8016B01F8016B5B1EF9D12B0705D4EF
:106A80000023521E0DD401F8013BFAE710F8013B38
:106A9000CB1A921C03E013F8015B01F8015B521E54
:106AA000F9D5A142D8D3002070BD09B1082802D37E
:106AB0004FF0FF30704705F0B7B9000000B587B060
:106AC0001049114805F068F908B101F093F90E4832
:106AD000001D0EC88DE80E0007C803AB83E8070051
:106AE0006946002005F0FAF808B101F083F903A91E
:106AF000012005F0F3F808B101F07CF907B000209F
:106B000000BD0000B17A020050E7020008B56946F6
:106B10000090024800F068F808BD00008C240020B6
:106B20002DE9F04186B00E4605461C4690461421DC
:106B300068460C9FFFF7AFFC002E13D0012E11D139
:106B4000012F0FD1217801290FD002290FD003295D
:106B500008D1282241460D48FFF784FC0C4801214A
:106B60008170C58006B0BDE8F0810A4800E00A489F
:106B700003236A460088ADF8010020788DF80000F4
:106B80004146284600F00AF8ECE7000064240020A3
:106B9000182200202C2200202E2200201FB584B0B5
:106BA00071B16AB1BDF81C3053B1A0F57F44FF3C10
:106BB00004D0142B06D9072008B010BD0520FBE730
:106BC0000E20F9E70023009301930293039301231E
:106BD0008DF802304988ADF8001007A9CDE90212FE
:106BE0006946AEDFE8E70000F0B593B00D46044615
:106BF00014210DA8FFF74FFC564B286860620FCB9D
:106C000008AE86E80F0004F1220108A862DF002820
:106C10007DD194F822008DF832004FF6E070ADF887
:106C2000300022460CA90120A8DF00286FD12021C6
:106C30006846FFF730FC4FF6E170ADF8000094F8BD
:106C400022008DF802009DF80D00012514268DF814
:106C50001150ADF806600DAF40F012008DF81250E3
:106C60000297ADF804608DF80D008DF81350208860
:106C7000A21C694602F09EF9002868D120216846CE
:106C8000FFF709FC4FF6E270ADF8000094F822001F
:106C90008DF802009DF80D00ADF8066040F0080088
:106CA0008DF811500297ADF804608DF80D008DF845
:106CB0001250208804F10A02694602F07BF900288C
:106CC00045D120216846FFF7E6FB4FF6E370ADF8AB
:106CD000000094F822008DF802009DF80D00ADF838
:106CE000066040F002008DF811500297ADF8046084
:106CF0008DF80D008DF81250208804F112026946BB
:106D000002F058F9002822D12021684600E01EE058
:106D1000FFF7C1FB4FF6E470ADF8000094F82200D5
:106D20008DF802009DF80D00ADF8066040F00200FD
:106D30008DF811500297ADF804608DF80D008DF8B4
:106D40001250208804F11A02694602F033F913B098
:106D5000F0BD000040E702001CB508B9124850B170
:106D60004AB143B149B1012909D0022909D0032907
:106D700009D005201CBD0E201CBD418804E04189BE
:106D800002E0418A00E0418B142B01D907201CBD91
:106D900000200090ADF80030ADF8020001926A4684
:106DA0004FF6FF70ACDF1CBD8C2400202DE9F047AE
:106DB00000268AB0DFF85091B0464FF48075012468
:106DC00037460696284604F027FC38B1D9F8040364
:106DD000204203D0284604F015FC26432D1D6400F4
:106DE0007F1CADB2082FEDD34FF4BE74204604F0E3
:106DF00013FC48B1204604F005FC46F0004606AA04
:106E00000121002004F0EAFB404D16F0FF0F15D0E1
:106E10000127002437420DD009EB8401D1F8100579
:106E2000D1F81015C0F3042055F82420C1F3014116
:106E300002B190477F00641C082CEBD3002E5FDA70
:106E40004FF0FF30CDF8108054E0281910F8507F33
:106E500090F9000027F0C008401C3BD007A940462D
:106E600004F0E9F810B34FEA9719404602F09AF897
:106E700055F820701FB1B9F1030F03D006E0B9F146
:106E8000030F27D104A9404604F0DDF84FF0A041DC
:106E900001EB8800D0F8000706A9C0F3014A40467C
:106EA00004F0C9F818B1BAF1020F03D012E0BAF138
:106EB000030F0FD1B9F1030F08D1BAF1020F1DD0A2
:106EC0000221404604F06DFB761CF6B217B149462C
:106ED0004046B847641C042CB7D3002E10D06A4635
:106EE0000121002004F07AFB06990098884207D01F
:106EF00006900498002634460790A6E70321E0E7B1
:106F00000AB0BDE8F0870000006000404C28002077
:106F10009FED161A10B5C0EE010A10EE900AFFF7A9
:106F20008AFC41EC100B00F0FBFA51EC100BFFF760
:106F300095FC00EE100A9FED0E1AC0EE010A9FEDBF
:106F40000D0AB7EE001A30EE800AC1EE000A9FED7E
:106F50000A0A30EEC00ADFED090A20EE200ABCEE74
:106F6000C00A10EE100A80B210BD000000401C469E
:106F700000E076450FCF5B3B339388430000C84267
:106F80000A46014610460A88502A01D100F088BE00
:106F9000704700F01F02012191404009800000F17C
:106FA000E020C0F88012704700F01F0201219140DC
:106FB0004009800000F1E020C0F80011704700F0A7
:106FC0001F02012191404009800000F1E020C0F83B
:106FD000001270474907090E002806DA00F00F007A
:106FE00000F1E02080F8141D704700F1E02080F8E7
:106FF0000014704770B54FF48076304604F070F995
:10700000114CB50560B1304604F071F90120C5F8A6
:107010000803607920B90120607121680020884749
:107020004FF48276304604F05BF900280AD03046EF
:1070300004F05DF90220C5F808032168BDE870403E
:107040000120084770BD0000B82200200748002139
:10705000C0F84011C0F84411C0F84811C0F84C11F4
:10706000C0F80011C0F8041107F00AB80010014080
:107070002DE9FE434FF48278404604F01FFB4C4F4D
:1070800000254C4C012600B3404604F01FFB94F849
:107090002E0010B194F82F10D1B18DF80050616816
:1070A00001912189ADF80810E26832B1218B61832A
:1070B00062602181E56010B102E0257400E03E606D
:1070C00021686846884784F82F5094F82E0060B3F2
:1070D0004FF48077384604F0F1FA30B3384604F0C4
:1070E000F5FA628B94F82D108A420AD9A2EB0100BE
:1070F00080B260832289A2EB0000626802EB40004C
:1071000005E007D1E06828B184F82F60658304F0BA
:10711000C3FA04E08A4202D184F82F6065834046B6
:1071200004F0D4FA2248001D06604FF488773846F0
:1071300004F0C4FA48B1384604F0C8FA25740220B5
:107140008DF800002168684688474FF48A773846F2
:1071500004F0B4FA28B1384604F0B8FA2574BDE852
:10716000FE834FF000484FF48C7967691DE000BF43
:10717000B7FA87F028FA00F109EB80058F4328461B
:1071800004F09CFA88B1284604F0A0FAA5F58C75A5
:10719000E8088DF8040045F38000401C8DF800607D
:1071A0008DF80500216868468847002FE0D1D6E7B2
:1071B00000700040A828002006F0E8BD04F086BB5F
:1071C000F0B5B5480023021D0178101D01254FF0D0
:1071D000805406290BD11678360708D10678C6F3F5
:1071E0000316032E06D0042E04D0052E02D0062945
:1071F00007D00EE0B4F82463A84FC6F304263E601F
:1072000002E01678360704D10678C6F30316032E7B
:1072100002D0062904D00FE0A24FA14E7E670EE0F7
:107220001678360708D10678C6F30316032E06D063
:10723000042E04D0052E02D0062907D00EE0D4F883
:107240004462994FC6F342363E6002E01678360734
:1072500004D10678C6F30316032E02D0062906D001
:1072600011E0924E376827F0807737600EE016788D
:10727000360708D10678C6F30316032E06D0042E6F
:1072800004D0052E02D006290AD011E04FF0804626
:10729000C6F80C31C6F81031834E361F336002E059
:1072A0001678360704D10678C6F30316032E02D0EB
:1072B000062905D00CE07C4F032664373E600AE0C7
:1072C0001678360704D10678C6F30316032E02D0CB
:1072D00006290DD014E0764F05263E60744E7836B0
:1072E0003560734E083633603F263F1D3E6002E036
:1072F0001678360704D10678C6F30316052E02D099
:10730000062957D062E06B4E36686B4F3E60694E7F
:10731000361D36683F1D3E60664E083636683F1D96
:107320003E60644E0C3636683F1D3E60614E10363E
:1073300036683F1D3E605F4E143636683F1D3E6026
:107340005C4E183636685C4F20373E60594E1C360E
:1073500036683F1D3E60574E203636683F1D3E6002
:10736000544E243636683F1D3E60524E28363668ED
:107370003F1D3E604F4E2C3636683F1D3E604D4EE1
:10738000303636684C4F40373E604A4E34363668A9
:107390003F1D3E60474E383636683F1D3E60454EC5
:1073A0003C3636683F1D3E60424E403636683F1DD3
:1073B0003E6002E01678360708D10678C6F3031659
:1073C000032E06D0042E04D0052E02D0062907D0A5
:1073D00019E0D4F85812394A01F04F01116002E067
:1073E000117809070FD10078C0F30310032803D0E8
:1073F000042801D0052806D131480168C90702D008
:107400006FF001010160D4F83001062808D1D4F8EA
:107410003401062804D12B48016841F480610160E1
:1074200022487438016841F470010160BFF34F8F46
:10743000BFF36F8F4FF01021D1F80002002803DB5B
:10744000D1F80402002822DA1F4A15601F48046898
:10745000002CFCD01524C1F800420568002DFCD09A
:10746000C1F8044201680029FCD0136001680029BA
:10747000FCD0BFF34F8F0D48F0380168144A01F477
:10748000E06111430160BFF34F8F00BFFDE7124978
:1074900010480860F0BD0000E00F00F040350140EA
:1074A0000DF0ADBA00C007403C050040FCED00E027
:1074B000105600400404001020C50040E40E0040B7
:1074C000000400403C17004004E5014000E4014096
:1074D0000400FA050090D003502300200148006802
:1074E00000470000C0220020094882B0D0F8040301
:1074F0004FF0000110F0010F07D00648016000684E
:1075000000900548406802B0004702B07047000094
:107510000000014000010140C822002000000000DE
:1075200070B5D94B00242DED020B2DED108BDDE94C
:107530001010984205DA20F000429A4201D809D191
:1075400041B19DED100BBDEC108B02B0BDE8704059
:1075500000F05EBAB0F5801F26DA11430BD0002888
:1075600013DA012000F09EFABDEC108B02B0BDE8EA
:10757000704000F059BA022000F094FA00F030FA9E
:1075800051EC100B81F000419EE06FF035049FED4F
:10759000C00B53EC102B9DED100B51EC100BFFF7B3
:1075A00039F8CDE91001084604EB2051C0F313046B
:1075B000B948A1F2FF31204400F4801080F07F62CE
:1075C00082F04052224301EB20559FEDB50B119202
:1075D00053EC102B9DED100B51EC100BFFF714F832
:1075E00041EC180BA01CC0F313009FEDAFDB9FED27
:1075F000B0EBB14E7E4403286CD296ED000B51ECFB
:10760000180B53EC102BFFF7FBF91DD1002D01BF18
:1076100096ED000BBDEC108B02B070BD2846FFF755
:10762000DAF841EC180B53EC1D2BFEF7F3FF41EC9D
:10763000190B53EC1E2B51EC180BFEF7EBFF53EC20
:10764000192BFEF740FF3FE09FED9D0B51EC180B0F
:1076500053EC102BFEF7DEFF9FED9B1B53EC112B21
:10766000FEF7D5FF41EC190B53EC182B51EC180B1E
:10767000FEF7D0FF53EC192BFEF7CCFF41EC190BB2
:10768000002D04BF53EC192B51EC180B1AD02846CF
:10769000FFF7A1F841EC1A0B53EC1D2BFEF7BAFFD4
:1076A00053EC192BFEF7B3FF53EC182BFEF7ACFF8E
:1076B00041EC180B53EC1E2B51EC1A0BFEF7AAFFF2
:1076C00053EC182BFEF7A0FFBDEC108B02B041EC81
:1076D000100B70BD9FED7E0B51EC180B53EC102B73
:1076E000FEF7F1FE41EC100B51EC180B53EC102B94
:1076F000FFF702F841EC190B2846FFF76CF841EC54
:107700001B0B53EC192B51EC190BFEF783FF41ECCB
:107710001A0B714853EC1A2B261851EC1A0BFEF772
:1077200079FF41EC1F0B6D48C4F1510404F5D724D7
:10773000B0EE4F0AF0EE6F0A0321784400F0D2F861
:1077400053EC1F2B51EC100BFEF764FF41EC1C0BAC
:107750006348B0EE4F0AF0EE6F0A0421784400F05F
:10776000C1F853EC1A2B51EC100BFEF753FF3443C6
:1077700053EC1C2BFEF7A7FE41EC1C0B002C4CDD40
:107780009FED510B51EC180B53EC102BFEF742FF01
:1077900053EC182BFEF73EFF41EC1A0B55B353EC9C
:1077A0001D2B51EC1B0BFEF735FF41EC1D0B53EC71
:1077B0001C2B51EC1A0BFEF786FE53EC192BFEF72F
:1077C00029FF53EC1D2BFEF77EFE53EC1A2BFEF720
:1077D0001EFF53EC182BFEF717FF41EC180B53EC70
:1077E0001E2B51EC1B0BFEF715FF53EC182BFEF76D
:1077F0000BFF69E753EC1C2B51EC1A0BFEF763FEF1
:1078000053EC192BFEF706FF53EC1A2BFEF7FFFE85
:1078100053EC182BFEF7FBFE56E735B353EC1D2B4C
:1078200051EC1B0BFEF7F6FE41EC1A0B53EC1C2B34
:1078300051EC180BFEF7E8FE53EC192BFEF7EAFEAD
:1078400053EC1A2BFEF7E0FE53EC182BFEF7DCFE90
:1078500041EC180B53EC1E2B51EC1B0BFEF7DAFE20
:1078600053EC182BFEF7D0FE2EE753EC1C2B51ECFB
:10787000180BFEF7C9FE53EC192BFEF7CBFE53ECA9
:10788000182BFEF7C4FE1FE70000F07F0000000089
:107890000000000000005043645F09000000000089
:1078A000000000000000F03F763C7935EF39EA3DFA
:1078B0000000E0FE422EE63F0874000000000000D9
:1078C000555555555555D53F000000000000E03F87
:1078D000000000000000004086EBF9FF8A72000003
:1078E0008072000070B504462DED028B4D1E00EB3A
:1078F000C500B0EE408AF0EE608A90ED000B35F0E6
:10790000060017D053EC182B51EC100BFEF782FE3B
:1079100041EC100B6D1E04EBC50090ED001B51EC0B
:10792000100B53EC112BFEF7CEFD41EC100B35F094
:107930000600E7D1022D36D0042D1CD0062D1CBF29
:10794000BDEC028B70BD53EC182B51EC100BFEF705
:1079500061FE94ED0A1B53EC112BFEF7B4FD53ECC2
:10796000182BFEF757FE94ED081B53EC112BFEF776
:10797000AAFD41EC100B53EC182B51EC100BFEF749
:1079800049FE94ED061B53EC112BFEF79CFD53ECC6
:10799000182BFEF73FFE94ED040B53EC102BFEF773
:1079A00092FD41EC100B53EC182B51EC100BFEF731
:1079B00031FE94ED021B53EC112BFEF784FD53ECCA
:1079C000182BFEF727FE94ED001B53EC112BFEF74E
:1079D0007AFDBDEC028B41EC100B70BD0000000085
:1079E0009FED070B10B553EC102B9FED070B51ECDF
:1079F000100BFEF781FE41EC100B10BD00000000E3
:107A00000000000000000000000000000000F03F47
:107A100010B553EC102B51EC100BFEF754FD41EC5C
:107A2000100B10BD000000009FED050B10B553ECCE
:107A3000102B51EC100BFEF75FFE41EC100B10BD4C
:107A4000000000000000000002E008C8121F08C18A
:107A5000002AFAD170477047002001E001C1121FCF
:107A6000002AFBD1704700000121202803DA814061
:107A70000548014003E0402802DA2038814009B17E
:107A80000120704700207047FC06FFBD082806D281
:107A900028B1012803D0042801D00120704700201C
:107AA000704700000149086070470000542300201F
:107AB00010B50078002809D10221054804F0BCF86F
:107AC000002803D0BDE8104000F094B910BD0000BC
:107AD0003022002010B560B159B102780B785208FD
:107AE000B2EB530F05D10622401C491CFEF7DEFC09
:107AF00008B1002010BD012010BD800701D000207A
:107B0000704701207047C3688B4206D81144006952
:107B1000491E814201D801207047002070470000B3
:107B200030B5B3B0002404218DF8AC1028492C9452
:107B30002D942F9430940988ADF8BE102549062560
:107B400009888DF8C0004FF2F110ADF8B0002FA8F1
:107B5000ADF8BC102E90ADF8B450AC216846FEF7DD
:107B60009AFC02208DF800008DF802408DF8035039
:107B7000194901200591ADF810002CA909912BA9F4
:107B800001918DF87C008DF87D004FF4FA714FF46F
:107B90007A602291249041F27071104823912990CB
:107BA00069460F4800F076FB08B100F023F9012187
:107BB0000B4800F06CFB0A489DF9AC2090F854107B
:107BC000012077DF002801D000F014F933B030BD78
:107BD0002E2200202C22002028220020B5BF0200E7
:107BE000AC23002070B505004FF0040400D003243E
:107BF000084890F8540074DF2846FFF791FF2146AB
:107C0000044800F011FC002803D0BDE8704000F0EB
:107C1000F1B870BDAC23002010B518B1BDE810401C
:107C200001F026BC0321054800F0FEFB002803D02C
:107C3000BDE8104000F0DEB810BD0000AC2300200D
:107C400070B58CB015460E4600236C46C3F10F018B
:107C5000415CE1545B1C102BF8D30D2104F11000A2
:107C6000FEF719FC0020C0F10F02315C2244401CD9
:107C700011740328F7D3684646DF0020C0F10F01D6
:107C8000214491F820102954401C0328F6D30CB04D
:107C900070BD00000149097900F05ABD982200200A
:107CA000F8B5CD8844888A1D01F11203A54207D199
:107CB0005689741E132C03D8446A0CB1002709E0BE
:107CC0004489A5420ED15689741E132C0AD8446AE1
:107CD00044B10127F2B200928D8802463946284607
:107CE000A047F8BD448AA5420DD15689741E132CB5
:107CF00009D8446A3CB1F2B200928E88022502464D
:107D000029463046ECE7448BA542EAD15289541EFD
:107D1000132CE6D8446A002CE3D0D2B2009203269A
:107D20008D8802463146DAE770B50024064D06E03C
:107D30006868012110F8340003F078FE641C28788C
:107D40008442F5D3002070BDD8220020F8B5154636
:107D50000C460646052A01D20720F8BD03F062FF53
:107D600018B903F027FF0028F7D1124900224E600E
:107D70000C708D60C1E90422C1E906220E4D0DE0B0
:107D800006EBC4002968009181788DF80110007815
:107D90000A4A694603F09CFE0028DED1641EE4B264
:107DA000EED2BDE8F84004480021054A001D00F06D
:107DB0002DB80000D8220020A8E8020015A102007A
:107DC0000595020072B609480068C00700D000BEE1
:107DD000BFF34F8F0548E4380168054A01F4E061BC
:107DE00011430160BFF34F8F00BFFDE7F0ED00E0EE
:107DF0000400FA050EB500210091CDE901106A4694
:107E000044F20100FFF7DEFF0EBD0000074B9B7838
:107E100023B12AB120B10068037C1BB10820704750
:107E2000072070474174426100207047F828002005
:107E300070B505F06FFA104800240B2104704470EF
:107E40000E4D817014206C602C706C70FFF7A1F8DF
:107E500007211420FFF7BEF81420FFF7A5F8084803
:107E6000046007211120FFF7B5F80548001F0068DE
:107E7000A860002070BD0000F8280020F822002033
:107E8000081501402DE9FC47DFF8789099F8023099
:107E900073B368B3052902D20720BDE8FC874369A4
:107EA00033B3437C012B25D00027044600258846A8
:107EB00016468DF80050684600F038F801A806F024
:107EC00091F9C8B1012101700F4944600968C0E906
:107ED0000218C0E904769DF8040089F801009DF8B5
:107EE000000000F047F81420FFF769F82846D4E7AF
:107EF0000820D2E70F46D8E704259DF8000000F0DF
:107F000039F8F3E7F828002004150140064989787C
:107F100039B130B1416921B100210174022105F06C
:107F2000C3BF082070470000F828002030B5EFF3E9
:107F3000108172B60D4A9468012324B103700029A0
:107F400000D162B630BD93604FF0E023D3F880518A
:107F5000074C25401560C3F88041D3F88441546034
:107F60005A17C3F8842100220270E8E7042A00208F
:107F7000FC06FFBD0B498A68002A11D000280FD1EA
:107F8000EFF3108072B60B684FF0E022C2F80031B8
:107F90004B68C2F8043100228A60002800D162B622
:107FA00070470000042A0020410CC0034FF4FA720D
:107FB000801810B541F1000152000023FEF712FABB
:107FC0000146064800224068FFF75CFF002803D006
:107FD000BDE81040FFF70EBF10BD000010E7020023
:107FE00002F0A0BD2DE9F047074600888EB080461C
:107FF00002F016FB824604462D4800252A460178E9
:10800000404600F0BDFB7879400734D501254FF696
:10801000FF7603AB2A460721504604F0B5F901006C
:1080200004D0404605F060FB00252BE0B146314608
:10803000049802F049FA064648450FD00446014626
:10804000404602F0D7FA4046FFF724FE30B94046DA
:1080500005F01CFB4046FFF71DFE48B122460721F4
:10806000504604F007FA010003D0404605F03CFBFF
:1080700000254E4506D0404604F06AFB10B150463C
:1080800002F0BAFA02208DF81800ADF81A8078795B
:10809000400701D5012000E002208DF820008DF876
:1080A000215006A801F0A2FB0EB0BDE8F087000049
:1080B000982200202DE9FC470025178806461580E8
:1080C00090F82D001446894630B13A46214648467C
:1080D00000F080FB051E09D1B0784FF00C0A18B3F0
:1080E0002088C846001DB84202D95046BDE8FC872A
:1080F000684679DF0028F9D12088032108F80010AC
:1081000020881921401C80B2208008F800102088A7
:10811000401C80B2208000EB0801BDF8000005F093
:10812000E9FF218808442080F0780222C8B1218824
:1081300096F9033001F1030C4846BC45D5D84254AA
:1081400021884FF0010C491C89B2218000F801C040
:108150002188491C89B2218009F801302088401CFF
:1081600020807068B8B1218890F9003001F1030CCB
:108170004846BC45B9D8425421880A22491C89B2D4
:10818000218042542188491C89B2218009F801309C
:108190002088401C2080308950B1CDE900474B46F3
:1081A0000622022106F1080006F034F8051E9DD1D2
:1081B000308A50B1CDE900474B460722032106F132
:1081C000100006F027F8051E90D1308B50B1CDE994
:1081D00000474B461522142106F1180006F01AF844
:1081E000051E83D1306A30B13B462246494601F034
:1081F00062F8051EDBD1706A30B13B462246494623
:1082000002F08AFD051ED2D196F82C0038B13B460B
:1082100022464946304605F0EDFA051EC7D13078B2
:1082200038B13B4622464946304602F0A7FD051EBE
:10823000BDD128465AE718B504460020ADF8000025
:1082400013466A46204600F006F8002802D0BDF822
:108250000000204418BD70B588B182B10024158893
:1082600003E0065D641C3444A4B2A54203D8061999
:1082700076789E4201D08C42F3D38C4201D3002009
:1082800070BDA11C1180005D401E80B270BD80F8E1
:10829000301070472DE9F0410D00044606D02CB196
:1082A00095F87A000026012803D006E00E20BDE8EC
:1082B000F08195F89800012829D0D5F8A00004286D
:1082C00025D0D5F89C00042821D04FF00108A670D5
:1082D0002C2205F17801201DFEF7C4F884F83060E7
:1082E000D5F8A4006063D5F8A800A0634FF6FF702E
:1082F000A4F8A80004F19400C4F8A400C4F8AA608B
:10830000A4F8AE6084F8B060207810B104E00720D3
:10831000CDE7FF2084F8540004F155011F27C4F86D
:108320009410A4F8987004F198022846FFF7C2FE52
:108330000028BCD115F13C0F0ED004F17401C4F833
:108340009C10A4F8A07004F1A00205F13C00FFF716
:10835000B1FE0028ABD103E0C4F89C60A4F8A06093
:1083600084F85180208BA4F8480084F83C8026646F
:1083700084F8506060696064454604F13C02002165
:1083800004F1540072DF002891D125708FE710B5F9
:108390000288102A1BD0112A20D0262A1DD1007A4B
:1083A0000C46012801D0022817D1A0780521401CD5
:1083B000B0FBF1F201FB1201204600F035F8002875
:1083C0000BD0A16B002908D0BDE810400847C27B44
:1083D000012A02D18088A1F8A80010BD0C46002116
:1083E00084F8B2108088B4F8A8108842F5D12079BA
:1083F0000028F2D10121DFE710B50C46022801D098
:10840000032810D1607800280DD000206070A1787A
:10841000204600F009F8002805D0A16B002902D001
:10842000BDE81040084710BD2DE9F05F0446007814
:108430000F4638B1A770002002F0C6FF012620B118
:10844000667007E10820BDE8F09F0025C4F8AA5037
:10845000A4F8AE5084F8B050A07910B1A0780128EB
:1084600006D0E07968B1A078012801D0022808D1AF
:10847000616B21B184F8B1600820884701E084F87D
:10848000B15004F1AB0100200A5C0AB1304603E0B0
:10849000401C0628F8D300204FF002084FF0030BD1
:1084A000012F06D0022F0CD0032F0FD0042F15D18F
:1084B00010E0A17929B194F8241011B908B130461F
:1084C0000DE0E17911B108B1404608E0207A08B129
:1084D000584604E0607A08B1042000E02846A07005
:1084E000616B41B1032801D0042804D1607910B137
:1084F00094F8B200A0B184F8B35004F13C00182104
:108500000746FDF7C8FF04F12C0084F83C60814663
:1085100004F048FA58B194F82C0084F8510008E0AF
:1085200084F8B45084F8B36007208847E5E784F8FE
:10853000516094F8240050B1484604F033FA20B159
:1085400094F8280084F8520001E084F8526084F81E
:108550005050A27804F1AA0104F194094FF0060AE0
:10856000052A60D2DFE802F078030F223F0084F88A
:108570003160C4F8A450C4E9101584F83C80802010
:10858000A4F8480051E084F8318094F8242038465B
:1085900012B10722027001E080F800B0228A8281C5
:1085A000C4F8A4504160E168B9603EE06069B86019
:1085B000208BB88194F824003D4610B184F83CA08B
:1085C00001E084F83C60204605F0E8FD40B185F804
:1085D00014800421204601F00FFB20BB05211EE082
:1085E00084F831B01DE0E069B860208CB88194F85F
:1085F00024003D4610B184F83CA001E084F83C60C2
:10860000204605F0CBFD48B185F8148004212046B2
:1086100001F0F2FA38B984F831A002E0042184F8BC
:108620003110C4F8A490A07878B13A4604F154000F
:10863000D4F8A41072DF00287FF405AF94F830104E
:1086400094F8540073DF0028F6D1616B11B194F8EF
:10865000310088470020F6E684F83150F5E7000045
:1086600070B5040012D001461C221448FDF7FAFE32
:108670001248134D0560206850B17ADF002806D1FA
:108680002068016829604068686005E00E2070BDC0
:108690000B487BDF0028FAD108484FF6FF711438E9
:1086A000084A20F8041B0549343901600021FFF70E
:1086B000ADFB0028EBD0032070BD00004825002052
:1086C0005822002035E1020010B5044600F078F889
:1086D000002805D02146BDE81040024802F071BCD8
:1086E00010BD00007425002070B515460E460446E6
:1086F00005F060FD002809D0054800EB8400806982
:108700002A463146BDE8704001F0B4BA70BD0000A1
:108710006425002070B50546002400F051F838B1FA
:108720002946044802F04DFC08B1022400E001246F
:10873000204670BD7025002010B51821034802F0B6
:108740001BFC182800D0C0B210BD0000642500201A
:1087500070B505460C46084605F02CFD60B128466C
:1087600000F02EF840B10548294600EB8400BDE832
:108770007040183002F025BC002070BD6425002038
:1087800070B5054614460E46084605F013FD002850
:1087900012D0284600F014F800280DD007482946CA
:1087A00000EB860018301CB1BDE8704002F014BC2C
:1087B000BDE8704002F0C5BB70BD0000642500201C
:1087C000142801D3002070470146014802F0F9BB8C
:1087D000682500207CB5054608880C460930904283
:1087E00001D90C207CBD68466DDF0028FAD12188B4
:1087F0000820685420881B21401C80B22080295406
:108800002088401C80B220802844DDF801100160DF
:10881000BDF8051081802088801D80B220809DF8E1
:108820000010490800D0012129542088401C2080D4
:1088300000207CBD7CB53F4C05460288002026897F
:10884000192A66D01BDC3C49042A6CD0102A27D098
:10885000112A46D14FF6FF722281A0702070E2806B
:10886000E060012060704868FFF750FB08B1FFF737
:10887000C1FABDE87C404FF47A70FFF795BB1E2A21
:108880003DD0212A2ED03B2A35D0562A29D1A8887E
:10889000132176DF002824D0BDE87C40FFF7AABA78
:1088A00001F032FCFFF732FB122000F0ADFA064671
:1088B000072000F0A9FA304301D0FFF79BFAA988FE
:1088C00021811E4802F094FC08B1FFF793FA0422BC
:1088D0002189032077DF08B1FFF78CFA69462089E8
:1088E0007EDF7CBD0090A88869468FDF0EE000BF68
:1088F000FFF780FA7CBDA888132176DFCAE70090D5
:10890000002301906A46194630467FDF0028EFD1E8
:108910007CBD287A0028FBD01321304676DFBDE8E5
:108920007C4000F0A5BD086800906946304604F020
:10893000D4F87CBD1822002010E70200A0230020FC
:10894000054902884868102A04D0112A01D1401E26
:1089500048607047401CFBE7502200202DE9F0479B
:1089600001883B4E40F2F3194FF6FF7510291BD0DA
:1089700011293ED0122954D0502946D1C188F289FC
:10898000841D914241D1618902293ED186883046B9
:1089900001F010FF050038D004F10C0000F022F9BE
:1089A000A8B3294630464EE0C17B8788044601299A
:1089B0002BD1A846284601F0FDFE050017D02F80D8
:1089C00000202872234843464A460168C5F80A1029
:1089D0004068C5F80E0004F1100105F10A0001F02D
:1089E000FBFE6872F08900280FD129462AE0042096
:1089F00013E0808801F0DEFE040006D06068FFF717
:108A000085FA08B104F054FE2580BDE8F087FFE741
:108A10006868FFF77BFA0028F7D0BDE8F04704F05C
:108A200047BE87880646384601F0C4FE0400ECD0F5
:108A30002B464A4606F1080104F10A0001F0CCFE7B
:108A4000607221463846BDE8F04700F07BBC00006C
:108A500048250020582200202DE9F04F0746858840
:108A600002883D48012197B08346102A09D0112A77
:108A700049D01A2A6CD1387AB1EB101F45D20122A5
:108A800044E0354C083CA068C0430B9061680BA8DB
:108A900002F0B5FA0B990CA800F0EEFB2C220CA901
:108AA0006846FDF7DFFC0026E946A04610E000BF5F
:108AB00009EB46005FF00004B0F804A008EB840066
:108AC0005146001D02F03DFA641C1D2CF6D3761CA5
:108AD0000098B042ECD8142D05D317B00420BDE89F
:108AE000F04FFFF787B92946584602F075FA294634
:108AF00008F1040002F070FAF87B012828D016482B
:108B00002946001D15E029461AE000220221B1EB9A
:108B1000101F01D2012600E000260F49083901F19B
:108B20001000041D294682B102F056FA36B12946DA
:108B3000204617B0BDE8F04F02F04EBA2946204655
:108B400017B0BDE8F04F02F0FCB902F0FAF9F5E712
:108B500017B0BDE8F08F00006C25002010B504466A
:108B60000748007800280AD0204601F033FC204650
:108B700004F0B0FE2046BDE8104001F0C7B910BDBA
:108B80008822002070B5154D4FF4FA64002100B919
:108B90006961012000F056F868693C2804D3BDE8FB
:108BA0007040012000F060B8C0074FF47A7200D026
:108BB0001446610CE0034FF4FA73C01841F1000150
:108BC0000023FDF70FFC0146054801224068FFF72E
:108BD00059F96869401C686170BD000038220020A6
:108BE0006CE70200007800F0010070470149085C62
:108BF0007047000069E702002DE9FC410646C00706
:108C00004FF000040ED00E4F00250122785D009435
:108C100000231146019402F0A0FC6D1C022DF4D338
:108C200000F032F8B00709D505480022401E0323A2
:108C3000007800941146019402F08FFCBDE8FC819D
:108C40006AE7020007490B5C4FF0A041D1F8042508
:108C50000120984020EA0203C1F808351040C1F80D
:108C60000C0570476AE702000249085C012102F026
:108C7000A9BC00006AE702000249085C002102F07A
:108C8000A1BC00006AE7020010B500242046FFF7EF
:108C9000EBFF641C022CF9D310BD0000044B02460C
:108CA00000211B784FF0FF30934200D108467047F7
:108CB00069E7020010B5002000F03AF908B1062873
:108CC00006D1012000F034F908B1062800D10020B7
:108CD00010BD00002DE9F047884681460025FFF7CA
:108CE000DDFF002834D11C4E1A48741C671FB8F1F0
:108CF000000F20D0B8F1010F0DD0B8F1020F27D12D
:108D000065783570002D23D0F968002920D02846D9
:108D1000BDE8F04708472578617849B10E4A49F621
:108D20009A11521E8068FFF7ADF808B987F80390D2
:108D3000A0783070E6E78068FFF7E8F83178A0782F
:108D4000814200D1054662789142DBD10546D9E7E0
:108D5000BDE8F0876CE702003C22002070B50A28CD
:108D600022D041F69A150E2822D00F282FD1184C68
:108D70002089A0F57F41FF3929D101F0C5F9FFF71E
:108D8000C5F8122000F040F801F0BEF90122294692
:108D9000FFF778F8012020700020E0606070BDE8E7
:108DA00070400120FEF71EBFBDE8704004F07EBD9C
:108DB00001F0AAF9FFF7AAF8132000F025F801F056
:108DC000A3F92946BDE870400022FFF75BB870BDEB
:108DD0001822002003004FF000000AD1094B012A9D
:108DE00002D1012907D0002251B1012904D0022962
:108DF00004D00720704710221A7070475A707047CD
:108E00009A7070473D220020044A01460020127AE1
:108E1000D20702D0084600F04DB870473822002033
:108E200070B505461E480024C0E90251A80720D5A8
:108E30000E2201210020FFF7CDFF06460F2202215E
:108E40000020FFF7C7FF50EA060412D140F2666225
:108E500001211448FEF77AFF04000AD1FEF764FFEF
:108E6000040006D10F48104A0021001FFEF7CEFF74
:108E70000446E80712D00120FFF7BEFE74B9094886
:108E80000A4A00210C38FEF7C1FF040006D105484C
:108E9000074A00210838FEF7B9FF0446204670BD96
:108EA0003822002078E70200378F020061A8020014
:108EB000858B02002DE9F0411B4D064600246878A1
:108EC00018B10020687001F0B9FC184F072E14D0BB
:108ED00005DC56B1012E0BD0022E04D108E0122E73
:108EE00017D0132E19D005241BE001F0A7FC17E0C2
:108EF0007868FFF70BF801200CE00120FFF7BCFEBB
:108F000000224FF400417868FEF7BCFF040007D050
:108F100007E00020FFF7A8FE02E00020FFF7ACFE0C
:108F20002E702046BDE8F081382200206CE7020058
:108F3000012105F0D6B900780221FFF7CBBE000071
:108F400005494FF0FF32082841F8202002D3084499
:108F500080F84820704700004C280020F0B54FF002
:108F6000FF3512B10023082601E008230C260C4C23
:108F700005E000BF54F823707F1C04D05B1CB34293
:108F8000F8D32846F0BD26185DB286F8305044F874
:108F90002310002AF5D1E11881F84800F1E700001C
:108FA0004C2800200249084490F930007047000026
:108FB0004C2800202DE9F0438146887891B09046F6
:108FC0000C4600B901208DF83E002088ADF83C0029
:108FD00000250095607C694604F050FC6E46A07C3C
:108FE000711C04F04BFCE07B00289DF8020002D0CD
:108FF00040F0080001E020F008008DF80200217C1C
:1090000011B140F0100001E020F010008DF80200D6
:10901000217B11B140F0010001E020F001008DF84A
:109020000200217D09B1022100E0012161F342002B
:109030008DF802001C2102A8FDF72DFA607BC10605
:1090400001D4800617D50E950EAFE07C791C04F094
:1090500015FC9DF83800079720F00F00401C20F009
:10906000F00010308DF838009DF83A0020F006002E
:10907000801C8DF83A00607B8DF80800A07B8DF88D
:109080000900142109A8FDF706FA0FA8CDE9090681
:10909000A088ADF83000A06820B1E088ADF82C00C1
:1090A000A0680D90A06998B301950088ADF81000F4
:1090B000A06901AD01A94088ADF81200A06940681F
:1090C00006950390A069007B04F0D8FBA069691C99
:1090D000407B04F0D3FBA069807A00289DF806004D
:1090E00002D040F0080001E020F008008DF80600F2
:1090F000A169C97A11B140F0100001E020F0100020
:109100008DF80600A169097A19B140F0010002E06A
:109110000DE020F001008DF80600A169897B09B1FE
:10912000022100E0012161F342008DF80600E069B0
:1091300000B10590434609AA02A94846AADF11B02A
:10914000BDE8F08370B504464FF6FF750A46284621
:10915000AC4208D14FF480742146104603F028FD3C
:10916000A04209D070BDFF2CFCD82146104603F068
:1091700012FD08B1204670BD284670BD0148007937
:1091800002F0D4BE1822002070B5084C050009D0AA
:1091900010342168002907D00868206049682846F3
:1091A0008847F6E70834F4E770BD0000382800204F
:1091B000054A012120B1012805D19170FFF7E4BFD4
:1091C00051700020FAE77047382800202DE9F05F41
:1091D00026484168F1B3DFF898B00E688146DBF8A5
:1091E000004087688078E11B21F07F45ED1CB0B915
:1091F000DFF880804FF48030C8F84403C8F80403D7
:109200001120FDF7C6FE1120FDF7CEFE4FF0010A3A
:10921000C8F800A02F2002F001FC89F802A0B54296
:1092200000D23546124BE8193C3320F07F401860DD
:10923000DBF800105A46091B21F07F41001B20F08B
:109240007F40C91C81420FD9106818602F2002F09E
:10925000E5FB00E004E0BDE8F05F1120FDF7AFBEE4
:10926000BDE8F05F04F056B8BDE8F09FF82200209A
:10927000041501400010014073B58CB00646002073
:1092800000900D9880B100246D4621460DA801F094
:1092900098FE30B1009805EB400084800098401C97
:1092A0000090641C142CF0D32C2269463046FDF744
:1092B000D9F80EB070BD2DE9F04117880646B81DEB
:1092C00014460D46984202D90C20BDE8F081318841
:1092D000072206290AD34FF4486C4FF6FF73614505
:1092E00001D9994202D17088062801D21046ECE7D4
:1092F000604501D99842F9D1994203D0984201D0F2
:109300008142F3D80520E85520881221401C80B204
:10931000208029542088401C80B220804119308848
:1093200004F0E8FE2188084480B22080411970884A
:1093300004F0E0FE2188084420800020C5E7FEF705
:1093400059BD000038B54A7A0F4B62B100220A724B
:109350005969002906D001228DF80020ADF80200DD
:109360006846884738BD0A7A62B19B684C680246F5
:1093700019462046FEF786FD0028F3D0BDE83840A8
:1093800004F096B95B68F1E748250020F0B585B098
:1093900016460F4604461D4614220B496846FDF743
:1093A00061F80A488DF80870ADF80240ADF80A601F
:1093B0008DF80C50017800222046FFF7E1F968464D
:1093C00000F014FA05B0F0BD6CE80200982200200D
:1093D0001FB500220092ADF800100192ADF8021006
:1093E0000292039202AA694690DF04B010BD000009
:1093F00030B5044685B000211B4803F0CCFB0028A3
:109400002FD00025204600F014FF68B1112812D09B
:1094100086281BD0A0F54051023903D001462046D2
:1094200004F04EF9294607E005B029462046BDE87C
:10943000304001F0ABBB0121204601F0A7FB05B095
:109440000021BDE83040084803F0D9BB1422074989
:109450006846FDF707F8ADF80240684600F0A2F94B
:10946000E0E705B030BD00006122002094E7020073
:1094700010B503F0D3FC002803D0BDE81040FEF780
:10948000B9BC10BD7FB50C4610B1012004B070BD51
:109490002079002638B141F61D5501281BD002283D
:1094A00026D00F20F2E70220207102960396E06892
:1094B0000190694601A803F089FE50B102988188A5
:1094C000E18000882081BDF80010029803F0FCFEC6
:1094D000DCE70A20DAE70A4B6A460021A01D03F008
:1094E00031FE38B1064918398E61CE610A28CDD1D6
:1094F0002846CBE702488188019803F0E5FEF5E7AE
:10950000242300202DE9F0470025DFF88C803CE083
:109510006068002100EBC506012032789146FCF717
:1095200092FFD4E9062300EA020701EA030C57EA96
:109530000C0728D082438B434846C4E9062302F037
:109540002FFB32788246914601200021FCF77BFFF9
:10955000D4E9042300EA020401EA03074A4650461C
:109560000021FCF770FF44404F403C430BD1707822
:10957000012801D0012100E00021726881EA0A017E
:109580000AB1484690476D1CEDB298F80000444679
:109590008542BDD3BDE8F087D82200200E4910B522
:1095A0000A784C780023A24212D0521CD2B20A7020
:1095B000022A00D10B70084A0B780C3252F8232093
:1095C00002608868104420F07F408860012010BD50
:1095D0000360002010BD0000F82200204FF0A042E0
:1095E0004FF4803110B1C2F80C157047C2F808155D
:1095F000704713460A460021FFF7C8BE2DE9F8431D
:10960000104D0F4680461E4691466946286801F077
:109610006CFC040014D01C21FCF73DFF01202071DC
:10962000C4F81490380BC4F80080C4E9026069469D
:10963000286801F07BFC03F019FD0020BDE8F883E9
:109640000420FBE7D0E8020010B503780022072BC6
:1096500006D2DFE803F005040610202930000A7066
:1096600010BD01230B7003898B818388CB81C06877
:1096700088600A7410BD02220A7002898A81828879
:10968000CA81C2688A60807D062802D000200874E2
:1096900010BD0120FBE703220A70C2888A8102897B
:1096A000CA81C068886010BD04230B70C08888819F
:1096B000CA818A6010BD0520087010BD70B5064DC6
:1096C0000646002455F8241009B130468847641C2A
:1096D000042CF7D370BD00002C2A002030B50446BE
:1096E000006887B00D46806800281FD018216846A2
:1096F000FCF7D1FE0195A0680590207910B10128F2
:1097000010D107E001208DF8000020690290E06888
:10971000039005E002208DF80000E068000302904D
:1097200060690490206881686846884707B030BD4A
:1097300070B586B015460C00064619D0112C17D00E
:10974000082C15D014216846FCF7A5FEADF8026080
:10975000304600F065FFADF804000D2C0AD0862CD1
:109760001CD007208DF800000294684600F04CF8E9
:1097700006B070BD03208DF8000025B12878C00721
:1097800001D0012000E002208DF8080000208DF8B3
:109790000C0041F20110ADF80A00E6E706208DF852
:1097A0000000E2E710B50446408800F039FFA080D1
:1097B000024801682046BDE81040084768220020A2
:1097C0002DE9F04107460024064E074D05E000BF95
:1097D00056F8241038468847641CE8788442F7DB42
:1097E000BDE8F081EC2700208822002010B5044657
:1097F000408800F015FFA080024801682046BDE8BF
:109800001040084740E80200014909680847000085
:1098100094E8020070B586B0044614216846FCF74F
:109820003AFEA0890125A0F54040ADF8040020785B
:109830002A4E062833D2DFE800F0320303032C4817
:10984000A08900F0BDF930B9E08943F6FE71A0F5BA
:109850004040884223D8A07B8DF808002078032858
:109860000FD000208DF80900A0680390606850B107
:1098700009208DF8000060680490684602F042FEFE
:109880000DE00120EEE708208DF800008DF8105063
:10989000F3E7A08900F094F908B1E08930B170785D
:1098A000002801D002F05EFF06B070BD606820B1F4
:1098B0000B208DF800007570DFE70A208DF800009E
:1098C000BDF8040002F0D8FFF5E713208DF8000082
:1098D0004FF6FF70ADF80400CFE7000078220020BB
:1098E00038B504460E480078A8B1A4F57F40FF388B
:1098F0000FD0684603F0ECFA78B105210170012120
:109900000171C480684603F0F1FA03F0A1FB002066
:1099100038BD042038BD022038BD082038BD000005
:109920002C2300200C4808B5007888B1684603F065
:10993000CFFA78B106210170684603F0D7FA0748DC
:10994000017809B10121017303F082FB002008BDF9
:10995000022008BD082008BD2C230020F02A00208A
:10996000F0B587B014216846FCF795FD2B4C2078A4
:1099700018B16846FFF7A2FE4EE0201D01F036FB4D
:10998000B8BB4FF0102041690004026940694B1CCC
:1099900001D100FB02F1224800220161A1F54051F2
:1099A000C160204901F007FD002820D11F481C2379
:1099B0008C221D49006801F085FA02F093FB051E18
:1099C00014D0022812D000270126062D12D005A897
:1099D00003F07EFA88B106700C2D18D2DFE805F08E
:1099E000170F170F17161716171113110B2007B0A3
:1099F000F0BD11E026706760BBE70820F7E707714C
:109A000005E0032100E00221017100E0067105A8D4
:109A100003F06CFA03F01CFB0020E8E72C23002085
:109A200058230020E0E802003C2A0020B8E80200A9
:109A300038B5040014D0694603F0C8FBA0B1BDF8E6
:109A4000000000EB8001094800EB8100C16849B1CA
:109A5000A17A39B1C168491EC1600020A07238BD29
:109A6000052038BD062038BD0A2038BDC82A002090
:109A70001FB501A9684603F065FB04B010BD07B52A
:109A800013460A466946002003F05CFB0EBD07B58D
:109A900013460A460021684603F054FB0EBD20B170
:109AA00019B1006808600020704705207047000069
:109AB000F8B50D46040018D0BDB1694603F086FB29
:109AC000A8B1BDF800000B4900EB800001EB80005D
:109AD00001210C30666801F08CFA2E6060680C3051
:109AE00068600120A0720020F8BD0520F8BD0A20A2
:109AF000F8BD0000C82A002018B10323002204F09A
:109B0000DFBC052070470223002204F0D9BC12B14B
:109B1000022304F0D5BC052070470000084910B5A9
:109B20000A69042A0AD0074A096942F82100044850
:109B30000121103001F05DFA002010BD0C2010BD95
:109B40000C2300202C2A002038B5044609480D4675
:109B5000007858B164B16946284604F0ABFD00288E
:109B600003D1BDF800102180658038BD022038BDCA
:109B7000052038BD2C23002010B504460E4800787F
:109B800098B1A4B12188022913D80C4A01EB8100B5
:109B900002EB800260885289C31C934209D804F00A
:109BA0007DFD00202080608010BD022010BD0520BA
:109BB00010BD042010BD00002C230020C82A002066
:109BC00043F6FE71A0F54040884201D8012070475D
:109BD0000020704710B504460078182802D1FEF71F
:109BE000ABFD207010BD10B504460078182802D1D6
:109BF000FEF7A2FD207010BD70B50D460446B0F80A
:109C00009810D0F894000122FEF715FB00B1057002
:109C100004F13C0204F1940104F1540072DF70BDC0
:109C200070B51346002206461546862902D0112932
:109C300002D002E0012200E001250D4C73B1A179B0
:109C4000FEF79EFD2A4661793046FEF799FD002217
:109C5000A1783046FEF794FD002203E0A178FEF7DC
:109C60008FFD2A4661783046BDE87040FEF788BD1A
:109C7000A0220020F7B517460E0011D0009800254D
:109C800060B100242146684601F09BF918B1A0B2EA
:109C90003946B0476D1C641C142CF3D32846FEBD16
:109CA0000020FEBD406803F033B9000000B587B066
:109CB0001AA19DF8100020F00F00401C20F0F000C9
:109CC00010308DF81000052204A87CDF08B1FEF7E3
:109CD00091F814A1D1E90001CDE9020102A8059093
:109CE00005A9222067DF08B1FEF784F80020009064
:109CF00001909021ADF80400ADF800104FF4C87049
:109D00004FF4A071ADF80600ADF8021068467ADF96
:109D1000002801D0FEF76EF807B000BD4262656111
:109D200072000000313233343536000070B508B1AE
:109D3000012070BD194C0025207B08B1257301E07E
:109D400000F0A0F82078082826D2DFE800F02504EB
:109D5000080C10251420BDE8704000F021B8BDE8C3
:109D6000704000F07DB8BDE8704000F05FB8BDE81D
:109D7000704000F03BB86088084900EB800028394B
:109D800001EB80004068BDE8704002F08BB965606F
:109D9000BDE8704002F094B90F2070BDF02A002099
:109DA0001149F0B48A1C00200346A1F128050C18C3
:109DB000A67A4EB1A37200EB800405EB8404E6683A
:109DC00016B9247C012C0AD0401C80B20228EED3A4
:109DD0000B704B804B60F0BC41F61D5070471080FB
:109DE000F0BC00F03DB80000F02A00200C4841888B
:109DF00001EB8102A0F1280101EB8201CA6852B196
:109E00000521017007480221818001680023012299
:109E1000054801F0A9BA042202704968F6E700007B
:109E2000F02A0020342300205823002038B50A49A6
:109E3000084803240B684268898803EB8101538832
:109E40000470DB1C00201B0400909B0B034801F0F6
:109E500051FB38BDF02A0020342300205823002075
:109E6000074910B54888091D03F000FA18B1BDE88C
:109E70001040FFF7DBBFBDE81040FFF7B7BF0000A1
:109E8000F02A0020F0B51F481F490125067802245A
:109E90008B88A0F12802082E19D2DFE806F00418FA
:109EA000181B222F2F170189491C01810021418095
:109EB00080F80C1001EB810312F8233043B100232A
:109EC0004418491C89B2A3720229F3D30570F0BD6E
:109ED0000123F5E742685288D21C1A448A80047034
:109EE000F0BD46880D6806EB860602EB86025668D2
:109EF0000E60556013818C80062100E007210170FF
:109F0000F0BD0000F02A00203423002030B5018885
:109F10008488224D85B0502924D0522902D054295A
:109F200031D103E0204600F0FDFD2CE014221C4955
:109F30006846FCF797FAADF80240204600F070FB47
:109F4000ADF8040000F028F9002269792046FEF7F8
:109F500017FC002229792046FEF712FC6846FFF71D
:109F600021FC10E0017B01290DD1817A01290AD160
:109F70000089A0F52451023905D10121204600F0C5
:109F800005FE04F0CDF800220649E878FEF7ACFBA8
:109F900005B0BDE8304003F0BBBB000060220020EC
:109FA000BCE70200E17F020010B5044600780028FB
:109FB0000FD1608800F0B6FD608800F087F90028B6
:109FC00007D00449608801220979BDE81040FEF7F6
:109FD000D7BB10BD6022002010B5124C00202070AD
:109FE000FEF7AAFBA070FEF7A7FBE070FEF7A4FB4C
:109FF0002071FEF7A1FB6071A17818290FD0E178DC
:10A0000018290CD02179182909D0182807D0012146
:10A01000601C02F0B9FD01202070002010BD03205B
:10A0200010BD0000602200207CB50446007808289E
:10A030002FD1607A38BB207A4FF6FF7501280DD0FA
:10A04000072802D0082824D11EE0A08800F026FAB4
:10A05000A8421ED0012100F099FD1AE0A0886A46AE
:10A06000012102F067F970B90198007858B1A08811
:10A0700000F014FAA8420CD0084901220979FEF731
:10A080007FFB03F045FB04E004480021401C02F084
:10A09000B6FDBDE87C4004F043B80000602200201B
:10A0A00010B504460A4841782046FEF751FB68B1D6
:10A0B0000848002101EB410200EB82025288A242D3
:10A0C00001D1C8B210BD491C1429F3D3FF2010BD23
:10A0D00072220020DC25002070B5094D094E0024B5
:10A0E00004EB440005EB800071784088FEF730FBFC
:10A0F00020B1641C142CF3D3FF2070BDE0B270BDFE
:10A10000DC25002072220020014800687047000012
:10A110006CE702002DE9F041804602460120002153
:10A12000FCF791F91A4F05460E467868FDF7EEFEEA
:10A1300000280CD1174CD4E9062110462A4001EA28
:10A1400006031A4305D0A843B143C4E90601BDE89C
:10A15000F081404601F024FD30B1D4E904012843E8
:10A160003143C4E9040105E0D4E90410A943B04334
:10A17000C4E90410D4E9060128433143C4E90601C7
:10A18000A1687868BDE8F0410022FDF77BBE0000C1
:10A19000A8E80200D82200201CB5054AD2E9021224
:10A1A000CDE900120022694602F0E9F81CBD00006A
:10A1B000D4E7020003484FF6FF718180012101704E
:10A1C000002070476C2200202DE9FC41804600F001
:10A1D00027FA002403250127A0F57F412646FF39F1
:10A1E00008D06A46082102F0A5F818B90198841D24
:10A1F0008688056832462B4621464046B1DF042852
:10A2000004D0082804D00B2808D002E0112000E078
:10A210000020002F00D10B20BDE8FC810027A807FB
:10A2200001D50125E6E73443F5D000242646032571
:10A23000E0E72DE9FC41804600F0F2F90646A0F582
:10A240007F40FF380ED001252A466D1C0027ADB295
:10A250006B460821304602F097F8040006D0072C20
:10A2600025D025E043F20200BDE8FC8101990323DB
:10A270000A1D0B604046891DB2DF040004D00C2C7F
:10A2800009D0052C09D009E032460821104602F019
:10A29000F1F804460CE0012700E0002408213046D4
:10A2A00002F0D4F800B10324002FCDD100E00C243B
:10A2B0002046D9E704488088A0F57F41FF3901D0C6
:10A2C00003F030BA704700006C2200200EB502A9DE
:10A2D000019100F0A5F96A46012102F02BF808B1BE
:10A2E00000200EBD019800780EBD00002DE9F04160
:10A2F00007464FF6FF760A48B3DF10B10320BDE8EA
:10A30000F081074C43F20305A41E324661883846AB
:10A31000AFDFA842F3D16088401C6080F5E7000001
:10A320006E220020428800EB82020C328A4201D960
:10A33000022070478188A1F57F42FF3A03D0008850
:10A3400008B10020704701207047884204D200689D
:10A35000401C01D001207047002070473EB50278B4
:10A3600002230C46B3EB520F17D1B0F80110ADF831
:10A370000010C1788DF802108188ADF80410807942
:10A380008DF8060002AA01A92046FDF759FC032218
:10A3900002A96846FCF78AF808B100203EBD0120FA
:10A3A0003EBD000010B50C46FFF77AFEFF280CD02A
:10A3B000074900EB400001EB800041682160018902
:10A3C000A180807AA071002010BD052010BD000082
:10A3D000DC25002070B5018890B0102959D1011DED
:10A3E0002C226846FCF73EF89DF804004FF6FF76F5
:10A3F000032134466D46B1EB500F2AD002F0F0F83D
:10A400009DF8040040080ED001280CD0022820D16D
:10A4100018E00D99281D1131FDF75CFB18B100BF44
:10A42000BDF82C4015E00CAA0BA9072002F0ACF8EF
:10A430000028EED10DE00D99281D491CFFF78EFF75
:10A440000028EDD10CAA0BA9072002F09DF80028E6
:10A45000F1D1BDF80000291D00F0DEFCB44218D097
:10A46000BDF80000214600F0C5F8BDF80000ADF8C9
:10A470002E000020ADF83040074E8DF82C000BADBB
:10A48000044600BF56F8241028468847641C022C56
:10A49000F8D310B070BD0000E8E70200094A0021BF
:10A4A00001EB410332F82330834205D101EB410037
:10A4B00002EB800040887047491C1429F0D34FF606
:10A4C000FF707047DC2500203EB50C46054602F0C3
:10A4D00087F80BE0BDF80000A04207D0284602999B
:10A4E00000F02EF810B1BDF800003EBD01AA69468B
:10A4F000072002F049F80028ECD14FF6FF703EBD6E
:10A5000010B50D4C18200D4A607000204FF6FF71F9
:10A5100000EB400302EB8303401C59801428F7D35F
:10A52000FEF70AF96070182803D00120207000207F
:10A5300010BD032010BD000072220020DC25002089
:10A540002DE9F0410C46054600F1110701F1110615
:10A550001022491C401CFBF7A9FF48B9681C00F0F9
:10A560005DF928B1601C00F059F908B1012400E040
:10A57000002431463846FDF7ADFA3B780222B2EBB3
:10A58000530F0CD00321B1EB530F08D03378B2EB4B
:10A59000530F04D0B1EB530F01D0012100E0002193
:10A5A000084201D18C4302D00120BDE8F081002097
:10A5B000FBE7018811B9421892780AB1012070476F
:10A5C000491C0829F7D30020704710B50C460346F4
:10A5D000FFF7EFFF00280AD018882188884205D1AC
:10A5E0000822A11C981CFBF761FF08B1002010BDD8
:10A5F000012010BD02F094B970B50446FFF74EFF7C
:10A600000546204601F099FE4FF6FF7104468D4243
:10A6100003D014B9284602F083F9204670BD00002B
:10A6200010B5FFF73DFDFF2805D0044900EB4000C1
:10A6300031F8200010BD4FF6FF7010BDDC25002062
:10A640003EB5044601F0CCFF0EE0019920464631AC
:10A65000FFF7BBFF28B9019920462A31FFF7B5FF64
:10A6600010B1BDF808003EBD6A4602A9072001F0FE
:10A670008BFF0028E9D14FF6FF703EBD10B50A49A7
:10A6800041600A4800F0B2FC58B901F031F90749BD
:10A690001C238C22087404488C39001F006800F0C9
:10A6A00011FC002010BD0000D4E802009C2B00200B
:10A6B0002DE9F0412D4F002518B17D600120BDE846
:10A6C000F0810879012258B1294E01280CD0274C7D
:10A6D0004FF002080834022821D0032842D128E094
:10A6E0000A7101F0EDFC3BE05FF0000000EB80013F
:10A6F00016F82110022908D0401C80B20228F5D398
:10A700003A707D6041F61D50D9E700EB800006F8F5
:10A71000205006EB8000406801F0C4FC20E00D7181
:10A72000A4F80480002301221248216800F01CFED6
:10A7300016E00D71206801F0B5FC0D492368283141
:10A74000498801EB810206EB8201D1F804C0C4F80C
:10A7500000C04B60A3880B81A4F8048006F8225047
:10A760000028ACD07D600E20A9E700002C2300203B
:10A77000C82A0020582300203EB50B4A07CA8DE89E
:10A7800007006846094901F0EBFB08B1FDF732FB11
:10A79000074801F0A9FB041E01D0FDF72BFB01F0D7
:10A7A000D1FB20463EBD000034E702001BE302005F
:10A7B0001C2200200146034802888A4200D0002063
:10A7C00070470000342500200248007A002800D09D
:10A7D000012070479C2B0020F0B58488A518944276
:10A7E00000D82246A41AC288D6189A4200D8134626
:10A7F000D21A4B880788BB420CD34088834209D8C1
:10A800008888A04206D3A84204D8C888904201D3C1
:10A81000B04201D90020F0BD0120F0BD0021425C12
:10A820000AB101207047491C1029F8D30020704755
:10A83000800701D00020704701207047074810B5FD
:10A84000807838B100242046FEF70EFA641C022CF2
:10A85000F9D310BDBDE81040FEF716BA382200202B
:10A8600010B50F4C2178072918D020B1012807D046
:10A8700020693C2806D3BDE810400020FEF7F4B95B
:10A88000002020610020FEF7DDF906480222910336
:10A890000068FDF7F7FA2069401C206110BD000038
:10A8A000382200206CE7020017210180418000213E
:10A8B000017141711B218171C17170472DE9FE4FFA
:10A8C0002B4D984691460F00824601D000260DE0A0
:10A8D000684600F0CDFA6A460021504601F099FC26
:10A8E0002878009E10B99DF8090098B14A46314673
:10A8F000504603F04BF90446014600225046FFF74C
:10A900008FF90D2C32D008DC84B3082C2ED00B2C00
:10A910000BD12BE00520BDE8FE8F112C10D0862C2A
:10A920001AD0A4F54050023820D00325B8F1000F0A
:10A9300004D0324621465046FEF7FAFE2846EAE7A2
:10A940003A4629795046FDF71BFF4A46E9785046BA
:10A95000FDF716FF0025E9E73A4629795046FDF74D
:10A960000FFF4A46E9785046FDF70AFF2546DDE726
:10A97000A02200202DE9F041204F0E461546044646
:10A980003978FDF7E5FE002835D0204601F038FC87
:10A9900050B32046FFF744FE80462046B978FDF7C5
:10A9A000D7FE08B1012700E00227204601F0D0FEC3
:10A9B0000028404602D0FFF71FFE0DE0A8F57F41BA
:10A9C000FF3909D0072101F041FD010004D005291C
:10A9D00002D0204602F088FE2B46324639462046F9
:10A9E000BDE8F041FEF7D2BC2A4631462046BDE81C
:10A9F000F041FEF7FEBDBDE8F08100009822002086
:10AA000070B5094D0646E978FDF7A2FE044629799E
:10AA10003046FDF79DFE014622463046BDE87040B7
:10AA20000123FFF74BBF0000A02200202DE9F047D3
:10AA3000394E002780463D46DFF8E090D6F804A066
:10AA400057E003D00446D0F81C8035E099F8002088
:10AA500002EB4201521CD2B289F8002009EBC1017D
:10AA600099F80230091D9A4201D189F800504868CE
:10AA70000A780446012A12D0022A02D0032A3BD1C6
:10AA800008E003F0E1F900B10127257434E0057412
:10AA9000C06900E070680028F9D170602CE0207C6B
:10AAA00050BB88686060C868A0600869E060486959
:10AAB000A061F07800B165606268B168184B501A07
:10AAC00020F07F40984202D2A168084406E0881A2C
:10AAD000A16820F07F40814202D9081A206000E07E
:10AAE000256065600120A56020742046E56103F0C3
:10AAF0008DF9B8F10000A4D199F8001099F801007F
:10AB00008142A3D117B97168514502D00120BDE837
:10AB1000F0870020FBE70000F8220020F828002042
:10AB2000FFFF7F0030B585B005460024142168463C
:10AB3000FBF7B1FCA5F57F40ADF80250FF3815D00A
:10AB40002846FFF741FB98B10B2815D0112811D0EA
:10AB5000A0F54051023903D00146284602F0B0FD6D
:10AB600009482246C1782846FDF70AFE05B030BDE7
:10AB70000E2002E00124F3E70F208DF80000684664
:10AB8000FEF710FEECE70000602200200A460249B2
:10AB90008978FDF7F5BD000060220020F8B5054674
:10ABA00000780C46002620420FD100208DF80000CE
:10ABB0006846FDF7BBF92878204202D1204328706F
:10ABC00001269DF80000FDF7D5F93046F8BD0000DC
:10ABD000474888B00325C0F80057FDF729F908B1A8
:10ABE000FDF708F9434A00214348FDF70FF908B182
:10ABF000FDF700F9FFF7C0FD40490320FEF710F90B
:10AC000008B1FDF7F7F8022C70D0002600F00CFD1B
:10AC100008B1FDF7EFF83A49012008603848543888
:10AC20000560FEF7ABFA00F009FE08B1FDF7E2F8A7
:10AC3000002469460120009400F05CFD08B1FDF796
:10AC4000D9F8684600F098FD08B1FDF7D3F8FFF792
:10AC50002DF800212B4800F000FA08B1FDF7CAF8E2
:10AC6000FEF78CFA0120FCF75BFF2748009025488F
:10AC70006946143000F0C7FA08B1FDF7BBF8234865
:10AC8000FBF744FF08B1FDF7B5F81C216846FBF758
:10AC900002FC4FF42030CDE900404FF470200290C8
:10ACA0001B4805901B488DF80C500690ADF80E40DF
:10ACB0008DF810406846FDF7D3FC08B1FDF79AF80F
:10ACC00001F03CFEFEF75AFAFEF758FA3046FCF760
:10ACD000A3FFFBF7F3FE41F28830FDF765F900BFF3
:10ACE00000F0B6FCFEF74AFAFAE7FFE701268DE727
:10ACF00040000050F1DE020014E702005D8D02000A
:10AD0000780500408C23002095B60200216B0200DC
:10AD1000DDBF02003F93020070B5144682880E46E4
:10AD200005462088111D0144921C994201D8FE2A33
:10AD300001D90C2070BD521C32542088FF21401CC8
:10AD400080B2208031542088401C80B2208081193C
:10AD5000288803F0CFF92188084480B22080AA888F
:10AD600042B1A96841B13044FBF77CFB2088A98837
:10AD700008442080002070BD072070BDF8B50F4644
:10AD8000017814460546012901D1687830B1208840
:10AD9000821C9A422DD8012902D006E00720F8BD76
:10ADA00069780144891C994223D8181A801E86B2FA
:10ADB000ADF800602188B81C084469467DDF002892
:10ADC000EDD12878022805D1BDF80010B14201D894
:10ADD00009210AE00821012805D16878B04202D88B
:10ADE000ADF8000001E0ADF80060BDF80000FE28FD
:10ADF00001D90C20F8BD2288401CB8542088401C82
:10AE000080B2208039542088401C2080BDF800107A
:10AE1000084420800020F8BD70B505460C004FF0B6
:10AE2000FF0020D04FF6FF76B5421CD00E4801221D
:10AE300041782846FDF7A4FC2846FFF731F9FF28A2
:10AE400003D1FFF749F9FF280DD0084B00EB400272
:10AE500003EB82014D8023F8226022684A60A288B9
:10AE60000A81A2798A7270BD72220020DC2500203E
:10AE7000034A00219268C0E9002181607047000008
:10AE8000A022002070B54FF6FF750E46A84201D1F2
:10AE9000002000E0401C84B208E02146304601F06A
:10AEA000A2FE08B1204670BD641CA4B2FF2CF4D9E8
:10AEB000284670BD10B5FBF7F8F908B1002010BDA9
:10AEC000112010BD10B531B1B2FBF3F403FB142413
:10AED0001CB1092010BD0E2010BD01600021416091
:10AEE00081608281C381084610BD70B50C4605465D
:10AEF000FBF790F9002802D021882868084470BD2B
:10AF000010B50A8849888A4203D1FBF7C5F90120A8
:10AF100010BD002010BD70B50C460546FBF79FF92B
:10AF2000002802D061882868084470BD10B50A88DE
:10AF300049888A4203D1FBF789F9012010BD00201E
:10AF400010BD01F01F0301229A40D243490900EBD2
:10AF50008100114600F053B80A4601F01F03012199
:10AF6000994010B552090C4600EB820000F052F8EF
:10AF7000204000D0012010BD2DE9F04180460D4653
:10AF80000024481E012101EB501716E058F8240058
:10AF9000C04390FAA0F0B0FA80F020280CD200EB69
:10AFA0004416AE4208D231464046FFF7D5FF00288E
:10AFB000ECD13046BDE8F081641CA742E6D82846B3
:10AFC000F8E74A0950F8220001F01F0201219140E0
:10AFD000084000D00120704701F01F0301229A4071
:10AFE000490900EB8100114600F019B8012100F079
:10AFF00011B808B56A46FBF7A4F9009808BD08B572
:10B000006A46FBF784F9009808BD08B56A46FBF765
:10B0100098F908BD08B56A46FBF76CF908BD08B594
:10B020006A46FBF767F9009808BD08B56A46FBF762
:10B0300095F9009808BDC20800F007030120895C5B
:10B0400098400840704710B5C20800F00703885CBC
:10B0500001249C402043885410BD10B560B10161AB
:10B06000172120F8021B20F8021B1B2100F8021BED
:10B07000FFF71AFC002010BD0E2010BD2DE9F0478F
:10B08000B0F804A08EB00C465FEA0A0957D10188D7
:10B09000564E0127002524297BD006DC102909D033
:10B0A000112929D0232926D199E03A2928D05529D8
:10B0B00021D147E021792173C07BA61D012802D050
:10B0C000022804D101E0208800E0608830803188C7
:10B0D0007088814208D94846A5DF10B1112802D0F6
:10B0E00002E0777100E03771B179F07981426BD974
:10B0F0004846FEF76DF967E0A01DFFF7D5FB63E05A
:10B100002246408934F8061F814200D808466080F4
:10B11000172800D217206080106970B1607960B183
:10B12000D6E90001CDE90001ADF802906088ADF8E4
:10B1300004001369694610469847657125710EB081
:10B14000BDE8F087C08804F10608172800D2172050
:10B15000B8F80010814200D80846A8F8020088F824
:10B1600004502846B8F80010B5DF98F8050058BB21
:10B17000206948B3D6E90201CDE90001ADF802909B
:10B18000B8F80200ADF804002046694622691AE0CA
:10B19000FFE7011D2C226846FBF764F9BDF80000AB
:10B1A000BDF8042004EBC0014A73226962B1D6E9FC
:10B1B0000423CDE90B23ADF82E00487B8DF8300039
:10B1C000226920460BA99047A07A0028B7D0E188D1
:10B1D0005046A5DF0028B2D1A572E772AFE7017A29
:10B1E000207B884284D2014682E70000F0E702001B
:10B1F00020B10278DE2A03D0082070470E20704765
:10B2000041800020704760B159B10278DE2A0AD02F
:10B2100009684160DE2101704FF6FF714180002016
:10B2200070470E207047082070477FB505460029FB
:10B230004DD0002D4BD008780C46DE2847D1A88889
:10B240006188884202D1204602F0BAFF288801288E
:10B2500025D002283BD011283AD0512837D135F8D3
:10B26000040F6188884232D1A978A81C02292ED106
:10B27000017A042903D0062901D0052927D100210C
:10B28000009102228DF8002001914FF4C0720291CA
:10B290000391ADF80420007A05280FD010E0297A38
:10B2A0002046012913D1A988428891420FD101215A
:10B2B000017204B0BDE8704002F082BFADF8041026
:10B2C00028886946B0DF002801D0616888477FBDC3
:10B2D000A88861888842FAD14FF6FF7060807FBDF0
:10B2E00000F180400068002800D00120704708B5B8
:10B2F00000F18040002101600068009008BD00005E
:10B3000070B50B4C207808B185250FE00020A060B7
:10B3100060602061E060074800F05AFB054600F0DD
:10B32000E7FA08B900F03EFB01202070284670BD06
:10B3300038280020B191020038B500258DF8005062
:10B340006846FCF7F3FD074CE068401EE060E068EB
:10B3500010B900F04DFBA5709DF80000FCF70AFE47
:10B3600038BD0000382800202DE9F0411F46164660
:10B3700004000D4616D02068B8B1C6B160680268F6
:10B38000501E284215D172432046FCF7BCFB80B109
:10B3900020683B463246D0F810C029462046BDE81A
:10B3A000F04160470E20BDE8F0810820FBE709204E
:10B3B000F9E71020F7E720B119B101600B681146D9
:10B3C00018470E20704700002DE9F04128B10168B0
:10B3D00019B1C969BDE8F04108470D4D0D48002479
:10B3E000461B14270DE000BF04EB840005EB800032
:10B3F000016829B1C969884710B10120BDE8F08111
:10B40000641CB6FBF7F0A042EED80020F6E700007F
:10B41000582300206C230020044801214174007A45
:10B4200008B1002070470120704700009C2B0020CD
:10B43000012801D0032808D10449002201284A74B8
:10B4400000D00020087401F0B3BD70479C2B002091
:10B4500070B50246022801D0032A45D1234C207A38
:10B46000002841D0012833D0022831D120480023C0
:10B47000022A006802D0032A2AD11BE0E360017986
:10B4800011B1012924D10DE0D0E90565711B4FF4FC
:10B490008056B14200D33146294481614569A942B1
:10B4A0000ED015E00169491C0161426991420FD13A
:10B4B000237213E0E168491CE160082908D9E360C0
:10B4C0002372022A0AD00D21FEF708F901F016FDB9
:10B4D000607C28B1BDE8704000F010BA0021F3E7AD
:10B4E000BDE8704001F064BD70BD00009C2B0020E1
:10B4F0003C2300202DE9F8431D46089F1646884648
:10B5000004000DD066B1206860B135B16068406854
:10B51000B5FBF0F100FB115030B10920BDE8F88314
:10B520000E20FBE70820F9E74046FCF7E6FA90B169
:10B530003046FCF7E2FA70B12A4641462046FCF755
:10B54000E2FA40B1009720682B463246C768414670
:10B550002046B847E2E71020E0E770B541EA420133
:10B56000DDE904564FF0A04441EA830141EA052198
:10B5700004EB800041EA0641C0F8001770BD70B5C9
:10B5800041EA4201DDE904564FF0A04441EA83015B
:10B5900041EA052104EB800041EA0641C0F80017AA
:10B5A00070BD4FF0A04202EB8000D0F8002722F4DB
:10B5B0004032C0F80027D0F8002742EA0141C0F825
:10B5C0000017704701224FF0A043824011B1C3F829
:10B5D00008257047C3F80C257047000018B5084BC4
:10B5E0006C4601441B68009306E000BF54F820300D
:10B5F000D3F81035401C08C28142F7D818BD0000AE
:10B6000098E80200034908B5084400210160006879
:10B61000009008BD0060004002494058012800D059
:10B620000020704700600040064910B500204870B7
:10B63000091D0860BFF35F8F0349044800F08AF9D1
:10B64000002010BD4423002018E90200B02B002088
:10B6500008B500208DF800006846FCF767FCF1EEA5
:10B66000100A20F09F00E1EE100ABFF35F8F084937
:10B670004020C1F880029DF80000FCF77BFC00F040
:10B6800037F908B141DF08BD20BF40BF20BF08BD6A
:10B6900004E000E0FCF7AEBB024A1060101D016040
:10B6A000704700002C760040030103481844C0F89E
:10B6B0001425C0F81015704700700040024940582A
:10B6C000002800D00120704700700040034908B5F1
:10B6D0000844002202600068009008BD007000402D
:10B6E00020B1034909680160002070470E207047AF
:10B6F0009CE90200FEB502460D460846FFF7F0FF42
:10B70000002838D1002400940194012606208DF8E9
:10B710000020ADF8040002948DF8026069462020F4
:10B720002A6869DF00948DF801608DF80240019469
:10B7300002948DF80340694640202A6869DF00942E
:10B74000019402948DF80040694601202A6869DF5F
:10B750004FF4B0600090019402946946A1202A68D9
:10B7600069DF0094019402948DF800606946A0207E
:10B770002A6869DF0020FEBD60DF002802D1024A8E
:10B7800001211170704700004F23002030B514488C
:10B7900091B00078002820D05FF03405ADF840501B
:10B7A00010A903A861DF30B1052816D011B0BDE89B
:10B7B0003040FCF71FBB03AC0A49684600F0CAF8EA
:10B7C00007E000BFD0E9002120469047684600F01E
:10B7D000D8F802980028E1D0F4E711B030BD00009D
:10B7E0004F230020A0E90200F8B5134C2078C0B127
:10B7F0000120A07001F008FE112814D0022001F0F1
:10B800001BFE00258DF800506846FCF78FFB11DF0A
:10B81000064625709DF80000FCF7ACFB2EB13046C3
:10B82000F8BD0820F8BD0020F8BDA57002F06AFA46
:10B83000032001F001FEF6E74C2300207CB5204CEC
:10B84000207808B108207CBD0120A070002001F004
:10B85000DBFD112819D0002001F0EEFD194800266B
:10B86000006801908DF800606846FCF75FFB1649A0
:10B8700001A810DF05000AD0002020709DF800000C
:10B88000FCF778FB2DB128467CBD00207CBD012053
:10B89000F3E7A67066700721162001F06BFD08B172
:10B8A000FCF7A8FA0721152001F064FD08B1FCF7A8
:10B8B000A1FA02F043FA012001F0BEFDE5E7000025
:10B8C0004C23002034E90200C57D02000EB5074973
:10B8D000684600F03FF805E0D0E900108847684668
:10B8E00000F04FF802980028F6D10EBD50E9020092
:10B8F00001480078704700004C23002005488178FB
:10B9000019B1007818B1FFF76FBF08207047FFF733
:10B9100095BF00004C2300201FB568464BDF30B1B7
:10B92000052814D004B0BDE81040FCF763BA0849FC
:10B9300001A800F00FF806E0D0E900210098904738
:10B9400001A800F01EF803980028E6D0F4E71FBD18
:10B95000BCE90200016009684160AFF3008010B5E6
:10B96000D0E900215368994201D1002104E0D1E9D6
:10B970000034A34202D01946816010BD08314160F5
:10B98000F0E7816800290BD0026892680A4482605F
:10B9900041684B689A4203D108314160FFF7DFBF2D
:10B9A0007047000008480068012110F0010F08D11D
:10B9B0004FF0E020E02280F80024C0F88012C0F8A8
:10B9C000001102480160704700E100E018050040E6
:10B9D0000649024600200B790BB1852070470A60AA
:10B9E00001220A7100224A7170470000B82200202B
:10B9F00004490120086004480168C1F3004100299E
:10BA0000FAD170470C00004018040040002802D012
:10BA10000149800108477047A1E80200002802D0D0
:10BA20000149800108477047B1E802002DE9F04163
:10BA30008846054600F0C0FF234E002828461AD04D
:10BA4000FDF7B0FA304490F848008009032802D08E
:10BA500001280ED007E04FF0A040D0F81005E840D4
:10BA600010F0010F05D003212846BDE8F041FFF793
:10BA700098BD0221F8E700F0ABFF002822D028464D
:10BA8000FDF790FA04464FF4807000EB84000F4FEE
:10BA900081B207EB8400D0F8102542F00102C0F813
:10BAA00010250846FFF7AEFDB8F1000F0AD0284672
:10BAB000FDF778FA56F82000002803D00120A040B6
:10BAC000C7F80403BDE8F0814C2800200060004066
:10BAD0002DE9FC41DFF8BC80044608EB0400002798
