:020000040002F8
:10600000E8540020C1630200C9630200CB630200B0
:10601000CD630200CF630200D163020000000000E4
:10602000000000000000000000000000D363020038
:10603000D563020000000000D7630200D9630200AC
:1060400041670200DB630200FD6A0200DB630200BD
:10605000DB630200DB63020079650200DB630200A0
:10606000DB630200DB630200DB630200DB63020030
:10607000DB630200DB630200DB630200DB63020020
:10608000DB63020099670200DB630200DB6302004E
:10609000BD670200DB630200C1670200DB63020030
:1060A000DB630200DB630200DB630200DB630200F0
:1060B000DB630200DB630200000000000000000060
:1060C000DB630200DB630200DB630200DB630200D0
:1060D000DB630200DB630200DB6302000000000000
:1060E00000000000000000000000000000000000B0
:1060F00000000000000000000000000000000000A0
:10610000000000000000000000000000000000008F
:10611000000000000000000000000000000000007F
:10612000000000000000000000000000000000006F
:10613000000000000000000000000000000000005F
:10614000000000000000000000000000000000004F
:10615000000000000000000000000000000000003F
:10616000000000000000000000000000000000002F
:10617000000000000000000000000000000000001F
:10618000000000000000000000000000000000000F
:1061900000000000000000000000000000000000FF
:1061A00000000000000000000000000000000000EF
:1061B00000000000000000000000000000000000DF
:1061C00000000000000000000000000000000000CF
:1061D00000000000000000000000000000000000BF
:1061E00000000000000000000000000000000000AF
:1061F000000000000000000000000000000000009F
:10620000DFF80CD000F07AF9004800477DB00200BA
:10621000E854002030B450E8012F93B2C4892344DD
:106220008489A34228BF1B1B0489A34202BFBFF37A
:106230002F8F002007E0C3EA020340E80134002C5E
:10624000E9D14FF001000A6030BC704750E8012FDF
:10625000C2EA024240E801210029F7D1704730B478
:1062600050E8022F1FFAA2F3C488A34202BFBFF373
:106270002F8F00200DE0C48923448489A34228BFC6
:106280001B1BC2EA034340E80234002CE8D14FF064
:1062900001000A6030BC704750E8022FC2EA224277
:1062A00040E802210029F7D17047034653E8022F46
:1062B000D988B2EB324F4FF0000017BF92B241EADB
:1062C000014142EA014104E05A68B2EB324F08BF93
:1062D000012043E80212002AE8D1704730B4044696
:1062E00054E8000F0D4644E80053002BF8D1156028
:1062F00030BC704730B4044654E8000F40EA010552
:1063000044E80053002BF7D1156030BC704730B41F
:10631000044654E8000F00EA010544E80053002B4E
:10632000F7D1156030BC704730B4044654E8000F14
:1063300080EA010544E80053002BF7D1156030BC1A
:10634000704730B4044654E8000F00EB010544E800
:106350000053002BF7D1156030BC704730B40446B1
:1063600054E8000FA0EB010544E80053002BF7D1DF
:10637000156030BC704770B404464FF0000054E81C
:10638000006F0D68AE4207BF44E80023012044E8D7
:1063900000630E60002B1CBF0020F0E770BC70474C
:1063A00030B4044654E8000F88422CBF451A054615
:1063B00044E80053002BF5D1156030BC7047000055
:1063C0000648804706480047FEE7FEE7FEE7FEE78F
:1063D000FEE7FEE7FEE7FEE7FEE7FEE7E167020015
:1063E000016202002DE9F05F0546002092469B46BF
:1063F00088460646814640241BE0284641464746DB
:10640000224600F06BF853465A46C01A914110D309
:1064100011461846224600F016F82D1A67EB0108BF
:106420004F4622460120002100F00DF817EB00092D
:106430004E41201EA4F10104DFDC484631462A46C5
:106440004346BDE8F09F202A04DB203A00FA02F11F
:10645000002070479140C2F1200320FA03F3194352
:1064600090407047004870475416030040EA01030B
:106470009B0703D009E008C9121F08C0042AFAD2FA
:1064800003E011F8013B00F8013B521EF9D27047BE
:10649000D2B201E000F8012B491EFBD27047002266
:1064A000F6E710B513460A4604461946FFF7F0FF13
:1064B000204610BD421C10F8011B0029FBD1801A98
:1064C000704730B504460020034600E05B1C934251
:1064D00003D2E05CCD5C401BF8D030BD202A04DB49
:1064E000203A21FA02F00021704721FA02F3D0404D
:1064F000C2F120029140084319467047064C074DEF
:1065000006E0E06840F0010394E807009847103483
:10651000AC42F6D3FFF778FEE01D0300001E030037
:1065200070B58C1810F8015B15F0070301D110F855
:10653000013B2A1106D110F8012B03E010F8016B82
:1065400001F8016B5B1EF9D12B0705D40023521E05
:106550000DD401F8013BFAE710F8013BCB1A921C6D
:1065600003E013F8015B01F8015B521EF9D5A1426B
:10657000D8D3002070BD00002DE9F04700268AB076
:10658000DFF85091B0464FF48075012437460696E7
:10659000284605F0ABFE38B1D9F80403204203D0F9
:1065A000284605F099FE26432D1D64007F1CADB2E0
:1065B000082FEDD34FF4BE74204605F097FE48B186
:1065C000204605F089FE46F0004606AA012100207B
:1065D00005F06EFE404D16F0FF0F15D00127002488
:1065E00037420DD009EB8401D1F81005D1F8101510
:1065F000C0F3042055F82420C1F3014102B19047B3
:106600007F00641C082CEBD3002E5FDA4FF0FF30C4
:10661000CDF8108054E0281910F8507F90F9000050
:1066200027F0C008401C3BD007A9404605F08DF874
:1066300010B34FEA9719404602F0DEFB55F8207080
:106640001FB1B9F1030F03D006E0B9F1030F27D151
:1066500004A9404605F081F84FF0A04101EB880005
:10666000D0F8000706A9C0F3014A404605F06DF8CE
:1066700018B1BAF1020F03D012E0BAF1030F0FD133
:10668000B9F1030F08D1BAF1020F1DD00221404623
:1066900005F0F2FD761CF6B217B149464046B84700
:1066A000641C042CB7D3002E10D06A4601210020B0
:1066B00005F0FEFD06990098884207D006900498E0
:1066C000002634460790A6E70321E0E70AB0BDE8BC
:1066D000F087000000600040502C002000F01F02F6
:1066E000012191404009800000F1E020C0F88012B3
:1066F000704700F01F02012191404009800000F125
:10670000E020C0F80011704700F01F020121914005
:106710004009800000F1E020C0F8001270474907EE
:10672000090E002806DA00F00F0000F1E02080F8E2
:10673000141D704700F1E02080F80014704700003D
:1067400070B54FF48076304605F03EF9114CB50532
:1067500060B1304605F03FF90120C5F808036079C3
:1067600020B9012060712168002088474FF48276AB
:10677000304605F029F900280AD0304605F02BF9FB
:106780000220C5F808032168BDE8704001200847D1
:1067900070BD00001425002007480021C0F84011FA
:1067A000C0F84411C0F84811C0F84C11C0F80011ED
:1067B000C0F8041109F0B6BF0010014009F000BF95
:1067C00010B50021054A084600F074FB002803D0EC
:1067D000BDE8104000F062BB10BD00007172020005
:1067E000F0B5B5480023021D0178101D01254FF0BA
:1067F000805406290BD11678360708D10678C6F3DF
:106800000316032E06D0042E04D0052E02D006292E
:1068100007D00EE0B4F82463A84FC6F304263E6008
:1068200002E01678360704D10678C6F30316032E65
:1068300002D0062904D00FE0A24FA14E7E670EE0E1
:106840001678360708D10678C6F30316032E06D04D
:10685000042E04D0052E02D0062907D00EE0D4F86D
:106860004462994FC6F342363E6002E0167836071E
:1068700004D10678C6F30316032E02D0062906D0EB
:1068800011E0924E376827F0807737600EE0167877
:10689000360708D10678C6F30316032E06D0042E59
:1068A00004D0052E02D006290AD011E04FF0804610
:1068B000C6F80C31C6F81031834E361F336002E043
:1068C0001678360704D10678C6F30316032E02D0D5
:1068D000062905D00CE07C4F032664373E600AE0B1
:1068E0001678360704D10678C6F30316032E02D0B5
:1068F00006290DD014E0764F05263E60744E78369A
:106900003560734E083633603F263F1D3E6002E01F
:106910001678360704D10678C6F30316052E02D082
:10692000062957D062E06B4E36686B4F3E60694E69
:10693000361D36683F1D3E60664E083636683F1D80
:106940003E60644E0C3636683F1D3E60614E103628
:1069500036683F1D3E605F4E143636683F1D3E6010
:106960005C4E183636685C4F20373E60594E1C36F8
:1069700036683F1D3E60574E203636683F1D3E60EC
:10698000544E243636683F1D3E60524E28363668D7
:106990003F1D3E604F4E2C3636683F1D3E604D4ECB
:1069A000303636684C4F40373E604A4E3436366893
:1069B0003F1D3E60474E383636683F1D3E60454EAF
:1069C0003C3636683F1D3E60424E403636683F1DBD
:1069D0003E6002E01678360708D10678C6F3031643
:1069E000032E06D0042E04D0052E02D0062907D08F
:1069F00019E0D4F85812394A01F04F01116002E051
:106A0000117809070FD10078C0F30310032803D0D1
:106A1000042801D0052806D131480168C90702D0F1
:106A20006FF001010160D4F83001062808D1D4F8D4
:106A30003401062804D12B48016841F480610160CB
:106A400022487438016841F470010160BFF34F8F30
:106A5000BFF36F8F4FF01021D1F80002002803DB45
:106A6000D1F80402002822DA1F4A15601F48046882
:106A7000002CFCD01524C1F800420568002DFCD084
:106A8000C1F8044201680029FCD0136001680029A4
:106A9000FCD0BFF34F8F0D48F0380168144A01F461
:106AA000E06111430160BFF34F8F00BFFDE7124962
:106AB00010480860F0BD0000E00F00F040350140D4
:106AC0000DF0ADBA00C007403C050040FCED00E011
:106AD000105600400404001020C50040E40E0040A1
:106AE000000400403C17004004E5014000E4014080
:106AF0000400FA050090D0034C26002001480068ED
:106B0000004700001C25002002E008C8121F08C131
:106B1000002AFAD170477047002001E001C1121F1E
:106B2000002AFBD1704700000121202803DA8140B0
:106B30000548014003E0402802DA2038814009B1CD
:106B40000120704700207047FC06FFBD082806D2D0
:106B500028B1012803D0042801D00120704700206B
:106B6000704710B560B159B102780B785208B2EB9A
:106B7000530F05D10622401C491CFFF7A2FC08B1A7
:106B8000002010BD012010BD800701D000207047FB
:106B900001207047C3688B4206D811440069491E22
:106BA000814201D8012070470020704710B50122B2
:106BB0000221002001F04CFF08B1072810D1072264
:106BC0000221012001F044FF08B1072808D100216B
:106BD0000A22084601F03CFF08B1072800D1002036
:106BE00010BD000000B5ABB0AC216846FFF757FC04
:106BF00002208DF80000012005218DF802008DF89B
:106C00000310164905918DF879008DF87A0000215E
:106C1000ADF8100020918DF87C008DF87D004FF4C8
:106C20004860249044F250608DF87B1021912590AB
:106C300028210B482291299040F6B8310948239128
:106C40002A906946084800F0A4FD08B100F026F932
:106C50000121054800F098FD2BB000BD2622002040
:106C600051D602008F770200C42700202DE9F0479B
:106C700050B125480321008801EB004023A105F015
:106C800025FD08F059F937E04FF6FF78424610210C
:106C90002248FFF7FDFB224D08200446E8601F4F05
:106CA00005F10C06404608F00FF80021B1463160AE
:106CB000464608E0D9F800104B00491CC9F80010FE
:106CC000F85208F001F8B04201D0641EF2D2134825
:106CD000E96808F0A1F908B100F0E0F80F48E968A8
:106CE00007F08CFE062802D008B100F0D7F80B4858
:106CF0000321C83800F045FE002803D0BDE8F04766
:106D000000F0CCB8BDE8F08798260020457261738A
:106D10006520626F6E647321000000008C280020E3
:106D20002022002070B58CB015460E4600236C461C
:106D3000C3F10F01415CE1545B1C102BF8D30D2112
:106D400004F11000FFF7ABFB0020C0F10F02315C33
:106D50002244401C11740328F7D3684646DF002004
:106D6000C0F10F01214491F820102954401C032840
:106D7000F6D30CB070BD00000149097901F070B87C
:106D8000A024002070B50024064D06E068680121AB
:106D900010F8340006F00EF9641C28788442F5D30C
:106DA000002070BD28250020F8B515460C46064683
:106DB000052A01D20720F8BD06F0F8F918B906F047
:106DC000BDF90028F7D1124900224E600C708D6089
:106DD000C1E90422C1E906220E4D0DE006EBC40014
:106DE0002968009181788DF8011000780A4A694677
:106DF00006F032F90028DED1641EE4B2EED2BDE81E
:106E0000F84004480021054A001D00F0D9B80000F0
:106E100028250020D0120300559F0200E5920200B1
:106E200072B605F009FD00BF05F040FB0028FBD15C
:106E3000104C0121208801EB00400FA105F046FC19
:106E400010480068C00700D000BE2088022101EB76
:106E500000400DA105F03AFCBFF34F8F0948E4381C
:106E600001680D4A01F4E06111430160BFF34F8FE7
:106E700000BFFDE798260020466174616C206572B2
:106E8000726F7200F0ED00E053797374656D2072DB
:106E900065736574000000000400FA050EB500215A
:106EA0000091CDE901106A4644F20100FFF7B8FFF6
:106EB0000EBD00002DE9F84F254C814692466088B2
:106EC0000E46814241D800274FF6FF788DF80070BA
:106ED000684600F005F922786078A188884201DAD6
:106EE000401C00E00020C0B2904204D19DF8000098
:106EF00000F01AF927E065786078884201DA401CD2
:106F000000E0002060709DF8000000F00DF945459C
:106F100019D0A068B9F1000F40F835A00DD066B1C6
:106F20006188E068324605FB01004946FFF79EFA9A
:106F3000A06800EBC500868002E000EBC5008780FA
:106F40000020BDE8F88F0420FBE70920F9E70000E6
:106F50004825002010B50E4C03E0401C00E0002046
:106F6000207020786178814210D022786188E068B2
:106F7000A36802FB010003EBC20153F832208988A9
:106F800090472078A1888842E9DAE6E710BD000042
:106F90004825002030B5CB0008339DB293074FF051
:106FA000000401D0072030BD044B9A602A44DA6007
:106FB0005C701C7058809980002030BD48250020EE
:106FC000074B9B7823B12AB120B10068037C1BB129
:106FD00008207047072070474174426100207047C5
:106FE0001C2D002070B508F0CDFC104800240B21AA
:106FF000047044700E4D817014206C602C706C70A5
:10700000FFF76CFB07211420FFF789FB1420FFF723
:1070100070FB0848046007211120FFF780FB05483A
:10702000001F0068A860002070BD00001C2D00201B
:1070300058250020081501402DE9FC47DFF878901D
:1070400099F8023073B368B3052902D20720BDE86E
:10705000FC87436933B3437C012B25D000270446CA
:107060000025884616468DF80050684600F038F82E
:1070700001A809F0F7FDC8B1012101700F49446072
:107080000968C0E90218C0E904769DF8040089F88F
:1070900001009DF8000000F047F81420FFF734FBD2
:1070A0002846D4E70820D2E70F46D8E704259DF804
:1070B000000000F039F8F3E71C2D00200415014012
:1070C0000649897839B130B1416921B10021017493
:1070D000022109F003BB0820704700001C2D00208E
:1070E00030B5EFF3108172B60D4A9468012324B1D4
:1070F0000370002900D162B630BD93604FF0E023E9
:10710000D3F88051074C25401560C3F88041D3F86F
:10711000844154605A17C3F8842100220270E8E7C2
:10712000282E0020FC06FFBD0B498A68002A11D0DA
:1071300000280FD1EFF3108072B60B684FF0E022F9
:10714000C2F800314B68C2F8043100228A6000287E
:1071500000D162B670470000282E00202DE9F041D2
:10716000064608680C46411C4FF0A0474FF0010549
:1071700006D005FA00F1C7F80815206805F068F890
:107180006068411C02D0002105F050F83168A06908
:10719000C1F82405607D227D31681043C1F86C057B
:1071A000D4E900123068C0F81425C0F80C15207D11
:1071B000012815D1A068411C02D0002105F036F845
:1071C000E068411C05D08540C7F80855E06805F027
:1071D0003FF8D4E902123068C0F80825C0F810154D
:1071E000BDE8F0812DE9F041064608680C46411CD7
:1071F0004FF0A0474FF0010506D005FA00F1C7F89F
:107200000815206805F02EF86068411C02D00021A6
:1072100005F015F83168A069C1F82405607D217D6D
:1072200032680843C2F86C05D4E900123068C0F82F
:107230000C15C0F81425207D012815D1A068411C2B
:1072400002D0002104F0FBFFE068411C05D085401E
:10725000C7F80855E06805F005F8D4E9021230686F
:10726000C0F80825C0F81015BDE8F08103F062BE33
:1072700005F0B6BD2DE9F047074600888EB0804680
:1072800003F0D2FA824604462D4800252A460178AA
:10729000404600F0FDFD7879400734D501254FF6D2
:1072A000FF7603AB2A460721504606F097FF010000
:1072B00004D0404608F080FD00252BE0B146314661
:1072C000049803F004FA064648450FD004460146E8
:1072D000404603F093FA4046FFF74EFD30B9404672
:1072E00008F03CFD4046FFF747FD48B12246072124
:1072F000504606F0E9FF010003D0404608F05CFD6F
:1073000000254E4506D0404607F04CF910B15046D6
:1073100003F076FA02208DF81800ADF81A8078791B
:10732000400701D5012000E002208DF820008DF8F3
:10733000215006A802F088F90EB0BDE8F0870000E1
:10734000A024002000B585B014216846FFF7A7F8F7
:1073500000200090029064208DF80C009DF80D0034
:10736000012120F00F00401C20F0F00020308DF8AB
:107370000D009DF80E008DF8041020F00F00401C49
:1073800020F0F00020308DF80E009DF80F006946C7
:1073900020F0FF008DF80F009DF8100020F00F0086
:1073A000401C20F0F00020308DF81000044800F060
:1073B00075FC002801D0FFF771FD05B000BD00008D
:1073C000902700202DE9F0430546407C93B00E46FF
:1073D0000024A0B107949DF81C0020F00F00401C71
:1073E00020F0F00010308DF81C00707B8DF81D002F
:1073F0009DF81E0020F00600801C8DF81E001C2148
:107400006846FFF74CF89DF8000040F002008DF848
:107410000000697C11B140F0100001E020F0100084
:107420008DF80000019403940494687C00B107A8CF
:10743000CDE9050401278DF8427042F61920ADF818
:1074400040000D94B07B8DF83400F07B8DF8350052
:107450009DF83600142120F00600801C20F0190051
:107460008DF83600307B8DF8440008A8FFF717F838
:107470000DF140080DF13409ADF8287011A8CDE9DF
:107480000889ADF82A40ADF82C700C90A888AB1D87
:1074900008AA6946AADF002838D1B06898B38DF8E9
:1074A000427042F60810ADF840000D94307C8DF823
:1074B00034009DF8350020F0FF008DF835009DF870
:1074C000360020F00600801C20F019008DF83600F0
:1074D0000EA8B16801F0E0F80646142108A8FEF7EE
:1074E000DEFFADF828600EA8CDE90889ADF82A4086
:1074F000ADF82C600C90E88805F10E0208A9ABDF0E
:10750000002803D101E0FFE7EC81002013B0BDE8C3
:10751000F083000010B50F490F4808F088FCC1B295
:107520000C484FF6FE72EC3800F058FB00280FD0E4
:1075300011280DD013280BD00F2809D0082807D008
:1075400043F20141884203D0BDE81040FFF7A6BCDA
:1075500010BD00007C280020302200200A46014691
:107560001046AEDF704770B51500044609D0002004
:10757000286034B1206820B1A079800703D00720AB
:1075800070BD0E2070BD084600F00AFCC0B2142881
:1075900004D02179814203D8042070BD052070BD3C
:1075A000E288216800FB02102860002070BD2DE9F0
:1075B000FC47002517880646158090F82D001446D4
:1075C000894630B13A462146484600F08BFC051EFC
:1075D00009D1B0784FF00C0A18B32088C846001DB6
:1075E000B84202D95046BDE8FC87684679DF0028DA
:1075F000F9D12088032108F8001020881921401CA7
:1076000080B2208008F800102088401C80B22080C2
:1076100000EB0801BDF8000009F052FA2188084487
:107620002080F0780222C8B1218896F9033001F158
:10763000030C4846BC45D5D8425421884FF0010C74
:10764000491C89B2218000F801C02188491C89B2F7
:10765000218009F801302088401C20807068B8B172
:10766000218890F9003001F1030C4846BC45B9D897
:10767000425421880A22491C89B22180425421881F
:10768000491C89B2218009F801302088401C2080E3
:10769000308950B1CDE900474B460622022106F160
:1076A000080009F0F7FA051E9DD1308A50B1CDE9E6
:1076B00000474B460722032106F1100009F0EAFAC1
:1076C000051E90D1308B50B1CDE900474B461522B5
:1076D000142106F1180009F0DDFA051E83D1306A85
:1076E00030B13B462246494601F091FC051EDBD1F4
:1076F000706A30B13B462246494603F09CFD051EA8
:10770000D2D196F82C0038B13B4622464946304645
:1077100008F02CFC051EC7D1307838B13B46224614
:107720004946304603F052FE051EBDD128465AE7B1
:1077300018B504460020ADF8000013466A462046FE
:1077400000F006F8002802D0BDF80000204418BD63
:1077500070B588B182B10024158803E0065D641C11
:107760003444A4B2A54203D8061976789E4201D0CB
:107770008C42F3D38C4201D3002070BDA11C118038
:10778000005D401E80B270BD80F830107047FFF77A
:1077900085BB2DE9F0410D00044606D02CB195F8CB
:1077A0007A000026012803D006E00E20BDE8F08113
:1077B00095F89800012829D0D5F8A000042825D0F4
:1077C000D5F89C00042821D04FF00108A6702C2287
:1077D00005F17801201DFEF749FE84F83060D5F8E8
:1077E000A4006063D5F8A800A0634FF6FF70A4F86A
:1077F000A80004F19400C4F8A400C4F8AA60A4F896
:10780000AE6084F8B060207810B104E00720CDE7C6
:10781000FF2084F8540004F155011F27C4F8941088
:10782000A4F8987004F198022846FFF7C0FE0028DB
:10783000BCD115F13C0F0ED004F17401C4F89C10BA
:10784000A4F8A07004F1A00205F13C00FFF7AFFE20
:107850000028ABD103E0C4F89C60A4F8A06084F8D1
:107860005180208BA4F8480084F83C80266484F87A
:10787000506060696064454604F13C02002104F1F7
:10788000540072DF002891D125708FE710B502886F
:10789000102A1BD0112A20D0262A1DD1007A0C468E
:1078A000012801D0022817D1A0780521401CB0FB87
:1078B000F1F201FB1201204600F063F800280BD022
:1078C000A16B002908D0BDE810400847C27B012AFF
:1078D00002D18088A1F8A80010BD0C46002184F8D0
:1078E000B2108088B4F8A8108842F5D12079002819
:1078F000F2D10121DFE710B50C46022801D00328A0
:1079000010D1607800280DD000206070A17820464A
:1079100000F037F8002805D0A16B002902D0BDE89F
:107920001040084710BD90F8B1205AB1002280F8ED
:10793000B1200A6840F8AA2F8A88828089798171EB
:10794000002070470820704710B5044690F8540096
:1079500074DF012084F8B200002084F8B40084F8B9
:1079600050000621204602F075F8002808D1A178C1
:10797000204600F006F810B1A16B01B18847002045
:1079800010BD2DE9F05F044600780F4638B1A770AE
:10799000002004F071FA012620B1667007E108208A
:1079A000BDE8F09F0025C4F8AA50A4F8AE5084F8B2
:1079B000B050A07910B1A078012806D0E07968B164
:1079C000A078012801D0022808D1616B21B184F888
:1079D000B1600820884701E084F8B15004F1AB01A0
:1079E00000200A5C0AB1304603E0401C0628F8D3A8
:1079F00000204FF002084FF0030B012F06D0022F9A
:107A00000CD0032F0FD0042F15D110E0A17929B18C
:107A100094F8241011B908B130460DE0E17911B1A4
:107A200008B1404608E0207A08B1584604E0607A80
:107A300008B1042000E02846A070616B41B1032822
:107A400001D0042804D1607910B194F8B200A0B13B
:107A500084F8B35004F13C0018210746FEF71FFDDF
:107A600004F12C0084F83C60814606F027FF58B1F1
:107A700094F82C0084F8510008E084F8B45084F89D
:107A8000B36007208847E5E784F8516094F8240044
:107A900050B1484606F012FF20B194F8280084F84F
:107AA000520001E084F8526084F85050A27804F14A
:107AB000AA0104F194094FF0060A052A60D2DFE812
:107AC00002F078030F223F0084F83160C4F8A4501C
:107AD000C4E9101584F83C808020A4F8480051E0E7
:107AE00084F8318094F82420384612B107220270BD
:107AF00001E080F800B0228A8281C4F8A45041607D
:107B0000E168B9603EE06069B860208BB88194F8A4
:107B100024003D4610B184F83CA001E084F83C60AC
:107B2000204609F07BF840B185F8148004212046F6
:107B300001F090FF20BB05211EE084F831B01DE06C
:107B4000E069B860208CB88194F824003D4610B1FB
:107B500084F83CA001E084F83C60204609F05EF81F
:107B600048B185F814800421204601F073FF38B92C
:107B700084F831A002E0042184F83110C4F8A49004
:107B8000A07878B13A4604F15400D4F8A41072DF1A
:107B900000287FF405AF94F8301094F8540073DF98
:107BA0000028F6D1616B11B194F8310088470020AC
:107BB000F6E684F83150F5E790F8B330009933B128
:107BC000002380F8B3300A4303D0012102E00820EB
:107BD0007047002180F8B41000207047F7B594B0CA
:107BE000174605003CD0287C9DF85410002488429C
:107BF00052D000264FF0010E0D9615A8ADF834E0D6
:107C00000E90ADF83660E9880DAA4FF6FF70ACDF34
:107C1000040026D19DF854002874687CA0B30F9608
:107C2000109611961296E888ADF83C00BDF8360023
:107C3000ADF840000DA811900E981290A7F57F4066
:107C40008DF83EE0FE3805D039460FA8FFF786FCD8
:107C5000044621E0684600F09DF800256F460FE0DD
:107C60000E2017B0F0BD00BF07EB4506B08800F04E
:107C7000D9F8022803D144B10FA9B088AEDF6D1C3A
:107C80000098A842F0D807E005E0B1880FA8FFF7F8
:107C900065FC0446F3E708242046E2E738B50D46C4
:107CA000040018D0BDB12868206028796074FF20D6
:107CB000207401208DF8020041F60F00ADF800009D
:107CC000221D69460120A8DF002803D1294620464D
:107CD000FFF778FB38BD0E2038BD38B5002924D019
:107CE000002822D00288502A1FD10546487C0C4625
:107CF00000281AD0E9886289A81D914215D14189CE
:107D0000022912D1216800290FD00C3000F0C0FCEC
:107D100008B1002000E001208DF80000A888ADF82F
:107D20000200226869462046904738BD70B50400BD
:107D300012D001461C221448FEF798FB1248134D3E
:107D40000560206850B17ADF002806D120680168FC
:107D500029604068686005E00E2070BD0B487BDF3D
:107D60000028FAD108484FF6FF711438084A20F865
:107D7000041B0549343901600021FFF721F900286F
:107D8000EBD0032070BD00004C29002060240020AF
:107D9000B50B03000149496801F01AB968290020B0
:107DA00010B5044600F094F808B1204610BD142028
:107DB00010BD000010B5044600F08AF8002805D078
:107DC0002146BDE81040024803F023BC10BD00006E
:107DD0007829002070B515460E46044608F02AFFA3
:107DE000002809D0054800EB840080692A46314606
:107DF000BDE8704001F06CBE70BD00006829002035
:107E000070B50546002400F063F838B129460448EF
:107E100003F0FFFB08B1022400E00124204670BDFE
:107E20007429002070B50546002400F051F838B1DF
:107E30002946044803F0EDFB08B1022400E00124C8
:107E4000204670BD7029002010B51821034803F0AA
:107E5000BBFB182800D0C0B210BD0000682900206C
:107E600070B505460C46084608F0E4FE60B12846A9
:107E700000F02EF840B10548294600EB8400BDE82B
:107E80007040183003F0C5BB002070BD6829002089
:107E900070B5054614460E46084608F0CBFE00288D
:107EA00012D0284600F014F800280DD007482946C3
:107EB00000EB860018301CB1BDE8704003F0B4BB85
:107EC000BDE8704003F065BB70BD0000682900206C
:107ED000142801D3002070470146014803F099BBE4
:107EE0006C2900207CB5054608880C460930904274
:107EF00001D90C207CBD68466DDF0028FAD12188AD
:107F00000820685420881B21401C80B220802954FE
:107F10002088401C80B220802844DDF801100160D8
:107F2000BDF8051081802088801D80B220809DF8DA
:107F30000010490800D0012129542088401C2080CD
:107F400000207CBD7FB5044601208DF8060041F677
:107F50000A00ADF80400454A01A90120A8DF002865
:107F60007ED1228804F13C0552B140482B46801C4A
:107F7000009042F62920616800F046FF002873D186
:107F8000228952B139482B460A30009042F624200B
:107F9000E16800F039FF002866D1228A52B13348E7
:107FA0002B461230009042F62520616900F02CFF2C
:107FB000002859D1228B52B12C482B461A30009000
:107FC00042F62720E16900F01FFF00284CD1228CE7
:107FD00052B126482B462230009042F62620616A94
:107FE00000F012FF00283FD1228D52B11F482B46CE
:107FF0002A30009042F62820E16A00F005FF0028B0
:1080000032D1216B71B102A808F0ACFA17482B46A7
:1080100032300090082202A942F6232000F0F4FE3C
:10802000002821D1606B58B110492B463A3100919C
:108030000279016842F62A2000F0E6FE002813D1FA
:10804000A16B81B102A806F0F1FF08482B4642302F
:108050000090072202A942F6502000F0D5FE00E071
:1080600002E0002800D1002004B070BDBE24002032
:1080700038B502880446212A2ED011DC1D484FF065
:1080800003011D4D0088102A01EB004010D0112A79
:1080900005D11AA104F01AFB4FF6FF70688038BDB5
:1080A0003B2A23D0562AFAD18088132176DF0DE0AF
:1080B00016A104F00BFB072000F0E4FC08B1FEF76A
:1080C000EDFEA1886980144803F006FC0028E6D084
:1080D000BDE83840FEF7E2BE00200090A088694667
:1080E0008FDF0028DBD0FEF7D9FE38BD8088132152
:1080F00076DFEBE798260020202200204469736396
:108100006F6E6E656374656400000000436F6E6E91
:108110006563746564000000B827002010B50B4C3F
:108120000188606810290ED011290ED1401E6060B0
:108130000BD1FEF73BFD002807D02168002904D0B1
:10814000BDE810400847401C606010BD5824002066
:108150002DE9F04701883B4E40F2F3194FF6FF75C9
:1081600010291BD011293ED0122954D0502946D1B4
:10817000C188F289841D914241D1618902293ED191
:108180008688304602F08CFC050038D004F10C00E3
:1081900000F07EFAA8B3294630464EE0C17B8788BE
:1081A000044601292BD1A846284602F079FC050097
:1081B00017D02F8000202872234843464A46016882
:1081C000C5F80A104068C5F80E0004F1100105F169
:1081D0000A0002F031FD6872F08900280FD12946AB
:1081E0002AE0042013E0808802F05AFC040006D044
:1081F0006068FEF765FF08B107F0C2FD2580BDE8A5
:10820000F087FFE76868FEF75BFF0028F7D0BDE85E
:10821000F04707F0B5BD87880646384602F040FCB7
:108220000400ECD02B464A4606F1080104F10A008E
:1082300002F002FD607221463846BDE8F04700F0CA
:108240002DBF00004C290020602400202DE9F04FB4
:108250000746858802883D48012197B08346102A49
:1082600009D0112A49D01A2A6CD1387AB1EB101FE3
:1082700045D2012244E0354C083CA068C0430B9035
:1082800061680BA803F0E9F90B990CA800F0A0FEB7
:108290002C220CA96846FEF7E9F80026E946A0461C
:1082A00010E000BF09EB46005FF00004B0F804A046
:1082B00008EB84005146001D03F06BF9641C1D2C73
:1082C000F6D3761C0098B042ECD8142D05D317B025
:1082D0000420BDE8F04FFEF7E1BD2946584603F003
:1082E000A3F9294608F1040003F09EF9F87B012860
:1082F00028D016482946001D15E029461AE000221C
:108300000221B1EB101F01D2012600E000260F4927
:10831000083901F11000041D294682B103F084F9E7
:1083200036B12946204617B0BDE8F04F03F07CB9BE
:108330002946204617B0BDE8F04F03F02AB903F0F4
:1083400028F9F5E717B0BDE8F08F0000702900208C
:1083500010B504460748007800280AD0204602F0ED
:10836000E9F8204607F05CFE2046BDE8104001F029
:10837000F3BC10BD902400202DE9F04F8BB08A464D
:10838000DDF85890DDE9144BA9F57F411F46904672
:108390000646FF3945D0E51CA8B2ADF80000082814
:1083A00038D808AA4946D6F87801FFF7DCF8002843
:1083B00031D1089890B38DF818A08DF819800B3042
:1083C0008DF81A70089006AF24B122465946F81C61
:1083D000FEF74CF8BDF8002006A90898FEF746F80D
:1083E00000200290039004900590B6F85E11ADF85D
:1083F0000C006846ADF80810CDE9040701218DF89E
:108400000A1002A94846AEDF002804D1BDF80010CA
:10841000A94200D00C200BB0BDE8F08FFFE705208B
:10842000F9E70820F7E72DE9F0410546887A86B09C
:108430000C460A2805D8207C0A2802D8207E0A2863
:1084400003D9072006B0BDE8F08120682860606885
:108450006860A07AA874207C85F87800207E85F872
:10846000DE0001278DF80E7041F61200ADF80C0009
:1084700005F1080203A93846A8DF0028E2D100264A
:1084800009E0A06B6A4630F816102889A9DF002899
:10849000D8D1761CF6B294F83600B042F1D8207AE2
:1084A0004FF0000808B9607A30B104F13C01284669
:1084B00006F040FE0028C5D12146284602F0B6FA53
:1084C0000028BFD12146284605F092FC0028B9D1EA
:1084D000207E20B3E06910B300261DE0E069CDF8EE
:1084E000108000EBC6039DF8100006EB860140F0FB
:1084F0000A008DF81000181D05EB4101CDE90007B9
:10850000E031029133F8022B04A9284607F086F8DF
:10851000002897D1761CF6B2207EB042DED82146E4
:10852000284607F014F900288CD1207A90B105F57F
:10853000A770009004F14303082242F62221284646
:1085400000F0B0F8002899D12146284600F014F92F
:10855000002893D1607A60B105F5AF70009004F106
:108560004003082242F63321284600F09BF80028F9
:1085700084D12146284601F056FE002888D104F116
:108580003E01284601F00AFE002894D1E168C5F8B2
:108590007C116169C5F88011E169C5F8841151E762
:1085A0002DE9F04786B00546807C0F46DDF838900F
:1085B0009A461646B8424FD907EB870005EB4000B4
:1085C000A9F57F4100F11408FF3943D0ADF80060F0
:1085D000002405AA4946D5F87801FEF7C4FF002813
:1085E00005D1059810B1133005900AE0052006B0BA
:1085F000BDE8F08730F834000599641C0844E4B203
:108600000590D5F87C01BC42F4D330F83700B04275
:108610001ED3324651460598FDF728FF00200190F1
:10862000029003900490B8F80010ADF804100121F6
:108630008DF80610ADF808006846CDE9030A01A9D7
:108640004846AEDF0028D2D1BDF80010B142CED0EE
:108650000C20CCE70820CAE70720C8E70A460146F5
:1086600010460A88102A05D0502A05D0512A05D173
:1086700005F082BA05F0AEB805F0E6BA704770B5FD
:1086800004460D460846FDF715FF2080656070BD65
:10869000007800F0010070470A7802704978417054
:1086A000022070472DE9F0438FB00024DDF8589088
:1086B000804607949DF81C000F4620F00F00401CD8
:1086C00020F0F00010308DF81C0018788DF81D0097
:1086D0009DF81E001D4620F00600801C8DF81E002F
:1086E00016461C216846FDF7DAFE9DF8000040F0B2
:1086F00002008DF80000A978090702D040F00800B8
:1087000001E020F0080040F010008DF8000007A8FC
:10871000CDE904400120019403948DF83A000694B9
:10872000ADF838700D9468788DF83400A8788DF81D
:1087300035009DF83600142120F00600801C20F042
:10874000110040F008008DF8360008A8FDF7A7FEDC
:108750000EA808900DA8ADF828400990ADF82A4061
:10876000ADF82C600C94B8F808004B4608AA69468E
:10877000AADF0FB0BDE8F083F0B58FB00E46054616
:108780001C216846FDF78BFE00249DF80000039431
:1087900040F00E008DF80000012701948DF836702E
:1087A00042F63220049405940694ADF834000C94FB
:1087B00016F8460F8DF8300070788DF831009DF86E
:1087C0003200142120F00600801C20F0110040F03F
:1087D00008008DF8320007A8FDF761FE0DA807908C
:1087E0000CA8ADF824400890ADF82640ADF82870EC
:1087F0000B94288905F5AB7307AA6946AADF0FB069
:10880000F0BD00000149085C7047000095110300AD
:108810000649095C4FF0A040D0F81005C84010F0A0
:10882000010000D0012080F0010070479511030085
:108830007CB50546C0074FF000040AD00B48012262
:108840000023007800941146019403F095FC00F099
:1088500041F8A80709D505480022401C03230078E9
:1088600000941146019403F087FC7CBD9411030031
:1088700007490B5C4FF0A041D1F804250120984036
:1088800020EA0203C1F808351040C1F80C05704712
:10889000941103000249085C012103F0FEBC0000B2
:1088A000941103000249085C002103F0F6BC0000AB
:1088B000941103000649095C4FF0A040D0F804056C
:1088C000C84010F0010000D0012080F00100704786
:1088D000941103000020FFF7DDBF0020FFF7E2BF87
:1088E000044B024600211B784FF0FF30934200D129
:1088F000084670479511030070B50C4E0C004FF000
:10890000000530600BD0012000F05AF808B10220B9
:1089100004E0002000F054F800B10B2020707068D3
:1089200010B9FEF743F90546284670BD58240020CB
:1089300010B5002000F0C4F908B1062806D10120C6
:1089400000F0BEF908B1062800D1002010BD0000DB
:108950002DE9F0410D468046FFF7C2FF002829D1DE
:10896000164F15487C1C661FEDB1012D0BD0022D52
:1089700020D16578002D1DD0F16800291AD0284635
:10898000BDE8F04108472578617849B10B4A4FF4BA
:108990000041521E8068FEF74FFB08B986F803803D
:1089A000A0783870E6E78068FEF78AFB3878A5780B
:1089B000A842DFD0BDE8F081981103004C240020CC
:1089C00008B100207047FFF723BF0000011F1E48B9
:1089D00010B540884FF6FF726FF004030E291CD2C9
:1089E000DFE801F00B1B1B141B1B071B1B1B1C21AF
:1089F000252ABDE8104007F0FFBA132176DF0AE010
:108A000000280AD0BDE81040FEF748BA904204D1D1
:108A10000E48FEF799FF0828F2D110BD9042FCD015
:108A2000002118460CE09042F7D0194607E090422A
:108A3000F3D00021052003E09042EED00521002074
:108A4000BDE8104002F07CBC20220020C42700209A
:108A500003004FF000000AD1094B012A02D101297D
:108A600007D0002251B1012904D0022904D00720E7
:108A700070470E221A7070475A7070479A7070478C
:108A80004D240020044A01460020127AD20702D069
:108A9000084600F047B870474824002070B50646E5
:108AA0001C480024C0E90261B00724D500250BE072
:108AB00005F10E00C2B2152A00D901220121284673
:108AC000FFF7C6FF04466D1C55EA0400F0D094B9C8
:108AD00040F2666201211048FEF766F904000AD1EF
:108AE000FEF750F9040006D10B480C4A0021001F84
:108AF000FEF766FA0446F0070AD00120FFF798FE59
:108B000034B90548064A00210C38FEF759FA0446E4
:108B1000204670BD48240020A41103008D8D020062
:108B2000B1AC02002DE9F05F634C05460026607889
:108B3000B34618B184F801B002F0B0F85F4F4FF4BB
:108B40007A694FF4C87A4FF00108142D60D2DFE83B
:108B500005F0AB0A0A2F3E4B60AE67706770797CF8
:108B60007C7C7C7CABAE0020FFF7A4FE00284FF09D
:108B7000000008D0FFF78EFE022D02D14FF4E16015
:108B800008E0484606E0FFF78DFE022D01D1C8201F
:108B900000E05046410CC0034FF4FA72801841F1D6
:108BA0000001257052000023FDF71CFC01462AE05D
:108BB0000020FFF77FFE00284FF0000004D0FFF7F1
:108BC00069FE4FF44870E5E7FFF76CFEDFE7002031
:108BD000FFF770FE00284FF0000002D0FFF75AFEAA
:108BE000CFE7FFF75FFED4E70020FFF763FE002822
:108BF0004FF0000002D0FFF74DFE01E0FFF752FEFC
:108C0000257041F69A1100223868FEF715FA0646DB
:108C100047E00020FFF72CFE257006E0257040E0BD
:108C200084F801800020FFF723FE002240F6CD41AA
:108C3000EAE784F801800020FFF71AFE00224FF4D3
:108C40008041E1E7FFF749FEE8E77868FEF738FA88
:108C50000646D5F1110000D02EB10020FFF71AFE14
:108C600084F802B01DE0012816D980B2C82148431B
:108C7000C117C90341EA5041C0034FF4FA7280188A
:108C800041F1000152000023FDF7ACFB0146002238
:108C90007868FEF7D1F906460020FFF703FE84F856
:108CA00002803046BDE8F09F01F0F8FFB6E70020F3
:108CB000FFF7F8FDB2E700004824002098110300F8
:108CC000012108F04EB800002DE9F8430546861C46
:108CD00000208DF8000090460F464FF001096846CD
:108CE000FEF7FEF91B4C20683860D4E90001401AF9
:108CF000A16804F21C47081A0EE00121384602F070
:108D0000A6FC02F06DF90146384602F0A0FCD4E959
:108D10000001401AA168081A401C8642EDD8B8F13B
:108D2000000F03D0052065F3891002E0062065F3EB
:108D30009F50A2682168114004EB8101C86020683F
:108D4000304420609DF80000FEF7EEF94846BDE88B
:108D5000F8830000C030002030B482680468531CDF
:108D60008360A154D0E901128A4202D330BC02F0E0
:108D7000B0BE30BC70470000034803C8814201D137
:108D80000120704700207047C03000200078022189
:108D9000FFF7DEBD05494FF0FF32082841F82020DB
:108DA00002D3084480F8482070470000502C00206F
:108DB000F0B54FF0FF3512B10023082601E008237B
:108DC0000C260C4C05E000BF54F823707F1C04D027
:108DD0005B1CB342F8D32846F0BD26185DB286F876
:108DE000305044F82310002AF5D1E11881F84800EA
:108DF000F1E70000502C00200249084490F93000AF
:108E000070470000502C00202DE9F0438FB01E4623
:108E1000DDF8589015460F00804602D10020FEF77D
:108E20003DF815B90020FEF739F81C216846FDF71A
:108E300036FB00249DF80000039440F002008DF8FA
:108E40000000012001948DF83600049405940694E6
:108E5000ADF834800C9430788DF8300070788DF84F
:108E600031009DF83200142120F00600801C20F013
:108E700019008DF8320007A8FDF711FB0DA8079027
:108E80000CA808900748ADF82450ADF82640ADF87E
:108E900028500B974B4607AA69460088AADF0FB0F7
:108EA000BDE8F083BE24002070B504464FF6FF7580
:108EB0000A462846AC4208D14FF480742146104639
:108EC00005F0BEFEA04209D070BDFF2CFCD82146A3
:108ED000104605F0A8FE08B1204670BD284670BDBA
:108EE00070B5084C050009D010342168002907D05E
:108EF00008682060496828468847F6E70834F4E7A0
:108F000070BD00003C2C0020054A012120B1012841
:108F100005D19170FFF7E4BF51700020FAE7704768
:108F20003C2C00202DE9F05F26484168F1B3DFF8C2
:108F300098B00E688146DBF8004087688078E11BB6
:108F400021F07F45ED1CB0B9DFF880804FF4803010
:108F5000C8F84403C8F804031120FDF7BFFB112033
:108F6000FDF7C7FB4FF0010AC8F800A02F2004F05E
:108F700019F889F802A0B54200D23546124BE8191B
:108F80003C3320F07F401860DBF800105A46091B84
:108F900021F07F41001B20F07F40C91C81420FD986
:108FA000106818602F2003F0FDFF00E004E0BDE82A
:108FB000F05F1120FDF7A8BBBDE8F05F06F0E2BC52
:108FC000BDE8F09F58250020041501400010014025
:108FD00073B58CB00646002000900D9880B1002437
:108FE0006D4621460DA802F014FB30B1009805EB48
:108FF000400084800098401C0090641C142CF0D326
:109000002C2269463046FDF731FA0EB070BD2DE9CD
:10901000F04117880646B81D14460D46984202D9FD
:109020000C20BDE8F0813188072206290AD34FF4CD
:10903000486C4FF6FF73614501D9994202D170889F
:10904000062801D21046ECE7604501D99842F9D1D3
:10905000994203D0984201D08142F3D80520E855C7
:1090600020881221401C80B2208029542088401C76
:1090700080B220804119308807F022FD2188084401
:1090800080B220804119708807F01AFD21880844B9
:1090900020800020C5E7FDF701BF000038B54A7AFF
:1090A0000F4B62B100220A725969002906D00122D1
:1090B0008DF80020ADF802006846884738BD0A7A6E
:1090C00062B19B684C68024619462046FDF7B4FF22
:1090D0000028F3D0BDE8384006F052BE5B68F1E7E7
:1090E0004C290020F0B585B016460F4604461D46B3
:1090F00014220B496846FDF7B9F90A488DF8087043
:10910000ADF80240ADF80A608DF80C5001780022ED
:109110002046FEF7BDFE684600F096FA05B0F0BDA9
:1091200098120300A0240020F0B587B00746002065
:109130000490ADF810100590ADF812100190029057
:1091400001AA04A9384690DF060022D003F0D0FE21
:10915000114C0346012520883A4605EB00400F4993
:1091600003F0BFFABDF8042012B9BDF8060038B10B
:109170002088BDF8063005EB004009A103F0B1FAE4
:10918000BDF808202AB12088154905EB004003F0FE
:10919000A1FA07B03046F0BD64260020581603003F
:1091A00054686520726571756573746564205458E0
:1091B0002F5258207061636B6574206C656E677404
:1091C0006820697320746F6F206C6F6E67206279FE
:1091D0002025752F2575206F63746574732E00002C
:1091E000A416030030B5044685B000211B4805F0E5
:1091F0001AFD00282FD00025204600F03AFF68B164
:10920000112812D086281BD0A0F54051023903D076
:109210000146204606F0BCFD294607E005B0294678
:109220002046BDE8304001F0B9BE0121204601F0E2
:10923000B5FE05B00021BDE83040084805F027BD67
:10924000142207496846FDF711F9ADF80240684657
:1092500000F0D6F9E0E705B030BD00006924002039
:10926000C01103007FB50C4610B1012004B070BDE1
:109270002079002638B141F61D5501281BD002285F
:1092800026D00F20F2E70220207102960396E068B4
:109290000190694601A806F01FF950B10298818833
:1092A000E18000882081BDF80010029806F092F954
:1092B000DCE70A20DAE70A4B6A460021A01D06F027
:1092C000C7F838B1064918398E61CE610A28CDD168
:1092D0002846CBE702488188019806F07BF9F5E73C
:1092E000982500202DE9F0470025DFF88C803CE030
:1092F0006068002100EBC506012032789146FDF739
:10930000A2F8D4E9062300EA020701EA030C57EAAF
:109310000C0728D082438B434846C4E9062303F058
:1093200003FF32788246914601200021FDF78BF839
:10933000D4E9042300EA020401EA03074A4650463E
:109340000021FDF780F844404F403C430BD170783A
:10935000012801D0012100E00021726881EA0A01A0
:109360000AB1484690476D1CEDB298F8000044469B
:109370008542BDD3BDE8F0872825002000B593B015
:1093800002208DF8400041F61510ADF842004EF66F
:10939000EE60ADF844000120ADF84600402168467B
:1093A000FDF77DF80FA16846FFF769F910A80E9048
:1093B0009DF83C0020F00F00401C20F0F000203011
:1093C0008DF83C009DF83D0020F0FF008DF83D0039
:1093D0006846FEF7B7FD002801D0FDF75FFD13B02A
:1093E00000BD00004E6F7264696353656D69636F01
:1093F0006E647563746F720010B50021024802F04C
:1094000041F980F3100010BDDC3400200E4910B586
:109410000A784C780023A24212D0521CD2B20A70B1
:10942000022A00D10B70084A0B780C3252F8232024
:1094300002608868104420F07F408860012010BDE1
:109440000360002010BD00005825002013460A4686
:109450000021FFF747BE00002DE9F843104D0F46ED
:1094600080461E4691466946286802F066F8040068
:1094700014D01C21FDF713F801202071C4F81490BA
:10948000380BC4F80080C4E902606946286802F01D
:1094900075F805F071FF0020BDE8F8830420FBE7B4
:1094A0007013030010B503780022072B06D2DFE803
:1094B00003F005040610202930000A7010BD0123B6
:1094C0000B7003898B818388CB81C06888600A74A4
:1094D00010BD02220A7002898A818288CA81C2680C
:1094E0008A60807D062802D00020087410BD01200B
:1094F000FBE703220A70C2888A810289CA81C06898
:10950000886010BD04230B70C0888881CA818A607E
:1095100010BD0520087010BD70B5064D064600242C
:1095200055F8241009B130468847641C042CF7D341
:1095300070BD0000402E002030B50446006887B0A2
:109540000D46806800281FD018216846FCF7A7FF49
:109550000195A0680590207910B1012810D107E08D
:1095600001208DF8000020690290E068039005E07A
:1095700002208DF80000E06800030290606904900A
:10958000206881686846884707B030BD70B586B0EE
:1095900015460C00064619D0112C17D0082C15D0F2
:1095A00014216846FCF77BFFADF80260304601F0FD
:1095B0003BF9ADF804000D2C0AD0862C1CD00720F6
:1095C0008DF800000294684600F04CF806B070BDBB
:1095D00003208DF8000025B12878C00701D00120B4
:1095E00000E002208DF8080000208DF80C0041F208
:1095F0000110ADF80A00E6E706208DF80000E2E76A
:1096000010B50446408801F00FF9A08002480168B7
:109610002046BDE810400847702400202DE9F041A5
:1096200007460024064E074D05E000BF56F82410FB
:1096300038468847641CE8788442F7DBBDE8F0814F
:10964000F02B00209024002010B50446408801F043
:10965000EBF8A080024801682046BDE810400847AA
:109660006C1203000149096808470000C01203009A
:1096700070B586B0044614216846FCF710FFA08937
:109680000125A0F54040ADF8040020782A4E0628B8
:1096900033D2DFE800F0320303032C48A08900F046
:1096A000BDF930B9E08943F6FE71A0F5404088422B
:1096B00023D8A07B8DF80800207803280FD0002045
:1096C0008DF80900A0680390606850B109208DF8FA
:1096D000000060680490684604F03EFE0DE0012042
:1096E000EEE708208DF800008DF81050F3E7A08910
:1096F00000F094F908B1E08930B17078002801D009
:1097000004F05AFF06B070BD606820B10B208DF8E0
:1097100000007570DFE70A208DF80000BDF8040036
:1097200004F0D4FFF5E713208DF800004FF6FF702A
:10973000ADF80400CFE700008024002038B50446CF
:109740000E480078A8B1A4F57F40FF380FD06846D6
:1097500005F044FD78B10521017001210171C4803B
:10976000684605F049FD05F0F9FD002038BD0420EC
:1097700038BD022038BD082038BD0000A0250020DB
:109780000C4808B5007888B1684605F027FD78B127
:1097900006210170684605F02FFD0748017809B1E0
:1097A0000121017305F0DAFD002008BD022008BD8B
:1097B000082008BDA0250020042F0020F0B587B0A8
:1097C00014216846FCF76BFE2B4C207818B16846D4
:1097D000FFF7A2FE4EE0201D01F036FFB8BB4FF0B0
:1097E000102041690004026940694B1C01D100FB53
:1097F00002F1224800220161A1F54051C1602049D7
:1098000002F0F6FA002820D11F481C238C221D49A3
:10981000006801F07FFE04F08FFB051E14D00228C3
:1098200012D000270126062D12D005A805F0D6FC7F
:1098300088B106700C2D18D2DFE805F0170F170F4E
:1098400017161716171113110B2007B0F0BD11E0F2
:1098500026706760BBE70820F7E7077105E0032182
:1098600000E00221017100E0067105A805F0C4FCCA
:1098700005F074FD0020E8E7A02500205026002018
:1098800080130300502E0020E812030038B50400B6
:1098900014D0694605F020FEA0B1BDF8000000EB31
:1098A0008001094800EB8100C16849B1A17A39B152
:1098B000C168491EC1600020A07238BD052038BDB6
:1098C000062038BD0A2038BDDC2E00201FB501A9B6
:1098D000684605F0BDFD04B010BD07B513460A4645
:1098E0006946002005F0B4FD0EBD07B513460A46D3
:1098F0000021684605F0ACFD0EBD20B119B100682D
:10990000086000207047052070470000F8B50D463C
:10991000040018D0BDB1694605F0DEFDA8B1BDF860
:1099200000000B4900EB800001EB800001210C30AE
:10993000666801F08CFE2E6060680C306860012063
:10994000A0720020F8BD0520F8BD0A20F8BD000077
:10995000DC2E002018B10323002207F0F1BA052005
:1099600070470223002207F0EBBA12B1022307F07E
:10997000E7BA052070470000084910B50A69042AB3
:109980000AD0074A096942F8210004480121103031
:1099900001F05DFE002010BD0C2010BD80250020D0
:1099A000402E002038B5044609480D46007858B1CD
:1099B00064B16946284607F0BDFB002803D1BDF815
:1099C00000102180658038BD022038BD052038BDDB
:1099D000A025002010B504460E48007898B1A4B127
:1099E0002188022913D80C4A01EB810002EB800286
:1099F00060885289C31C934209D807F08FFB00206E
:109A00002080608010BD022010BD052010BD042004
:109A100010BD0000A0250020DC2E002043F6FE71C2
:109A2000A0F54040884201D80120704700207047CF
:109A300010B504460078182802D1FEF705FA207008
:109A400010BD10B504460078182802D1FEF7FCF9C5
:109A5000207010BD70B50D460446B0F89810D0F8CF
:109A600094000122FDF764FE00B1057004F13C0290
:109A700004F1940104F1540072DF70BD70B5134617
:109A8000002206461546862902D0112902D002E09E
:109A9000012200E001250D4C73B1A179FEF7F8F920
:109AA0002A4661793046FEF7F3F90022A178304664
:109AB000FEF7EEF9002203E0A178FEF7E9F92A4665
:109AC00061783046BDE87040FEF7E2B9A824002076
:109AD000F7B517460E0011D00098002560B100249C
:109AE0002146684601F095FD18B1A0B23946B0474D
:109AF0006D1C641C142CF3D32846FEBD0020FEBD53
:109B0000406805F08BBB00000EB517A19DF808005A
:109B100020F00F00401C20F0F00010308DF80800FD
:109B20000C2202A87CDF08B1FDF7B8F940F2C23080
:109B300078DF08B1FDF7B2F900200090019006200F
:109B4000ADF800000C20ADF802001420ADF80400C0
:109B50004FF49670ADF8060068467ADF002801D011
:109B6000FDF79CF90EBD00004E6F726469635F4D96
:109B70006F7573650000000070B508B1012070BDFD
:109B8000194C0025207B08B1257301E000F0A0F8F6
:109B90002078082826D2DFE800F02504080C1025DC
:109BA0001420BDE8704000F021B8BDE8704000F01E
:109BB0007DB8BDE8704000F05FB8BDE8704000F0CF
:109BC0003BB86088084900EB8000283901EB800031
:109BD0004068BDE8704004F08FB96560BDE8704032
:109BE00004F098B90F2070BD042F00201149F0B483
:109BF0008A1C00200346A1F128050C18A67A4EB154
:109C0000A37200EB800405EB8404E66816B9247C9B
:109C1000012C0AD0401C80B20228EED30B704B807E
:109C20004B60F0BC41F61D5070471080F0BC00F056
:109C30003DB80000042F00200C48418801EB810250
:109C4000A0F1280101EB8201CA6852B1052101701F
:109C5000074802218180016800230122054802F0A3
:109C600031B8042202704968F6E70000042F002092
:109C7000A82500205026002038B50A4908480324AA
:109C80000B684268898803EB810153880470DB1CF0
:109C900000201B0400909B0B034802F083F938BDA1
:109CA000042F0020A825002050260020074910B5C9
:109CB0004888091D05F060FC18B1BDE81040FFF7A9
:109CC000DBBFBDE81040FFF7B7BF0000042F002046
:109CD000F0B51F481F490125067802248B88A0F1A2
:109CE0002802082E19D2DFE806F00418181B222FCC
:109CF0002F170189491C01810021418080F80C1037
:109D000001EB810312F8233043B100234418491CAE
:109D100089B2A3720229F3D30570F0BD0123F5E7E0
:109D200042685288D21C1A448A800470F0BD46886A
:109D30000D6806EB860602EB860256680E605560DB
:109D400013818C80062100E007210170F0BD000026
:109D5000042F0020A825002030B501888488224DDA
:109D600085B0502924D0522902D0542931D103E0A2
:109D7000204601F0DFF82CE014221C496846FCF76D
:109D800075FBADF80240204600F04EFDADF8040032
:109D900000F022F9002269792046FEF779F80022C6
:109DA00029792046FEF774F86846FFF729FC10E091
:109DB000017B01290DD1817A01290AD10089A0F501
:109DC0002451023905D10121204601F0E7F806F0BF
:109DD000E7FE00220649E878FDF7FCFF05B0BDE884
:109DE000304006F051B8000068240020E81103005C
:109DF0006D72020010B50446007800280FD160880B
:109E000001F098F8608800F081F9002807D0044933
:109E1000608801220979BDE81040FEF739B810BD0D
:109E20006824002010B5124C00202070FEF70CF8BA
:109E3000A070FEF709F8E070FEF706F82071FEF753
:109E400003F86071A17818290FD0E17818290CD097
:109E50002179182909D0182807D00121601C04F0A5
:109E6000DBFE01202070002010BD032010BD00008B
:109E7000682400207CB50446007808282FD1607A39
:109E800038BB207A4FF6FF7501280DD0072802D085
:109E9000082824D11EE0A08800F0B0FBA8421ED004
:109EA000012101F07BF81AE0A0886A46012104F044
:109EB0006BF970B90198007858B1A08800F09EFB4A
:109EC000A8420CD0084901220979FDF7E1FF05F00D
:109ED000DBFF04E004480021401C04F0D8FEBDE88C
:109EE0007C4006F05DBE00006824002010B50446EA
:109EF0000A4841782046FDF7B3FF68B108480021C1
:109F000001EB410200EB82025288A24201D1C8B2A9
:109F100010BD491C1429F3D3FF2010BD7A24002062
:109F2000E029002070B5094D094E002404EB4400DF
:109F300005EB800071784088FDF792FF20B1641C2A
:109F4000142CF3D3FF2070BDE0B270BDE0290020D7
:109F50007A2400202DE9F0418046024601200021AC
:109F6000FCF771FA1A4F05460E467868FDF7A8F817
:109F700000280CD1174CD4E9062110462A4001EAEA
:109F800006031A4305D0A843B143C4E90601BDE85E
:109F9000F081404603F0C8F830B1D4E90401284309
:109FA0003143C4E9040105E0D4E90410A943B043F6
:109FB000C4E90410D4E9060128433143C4E9060189
:109FC000A1687868BDE8F0410022FDF735B80000CF
:109FD000D0120300282500201CB5054AD2E9021240
:109FE000CDE900120022694604F0F3F81CBD000020
:109FF0000012030003484FF6FF71818001210170B8
:10A0000000207047742400202DE9FC41804600F0B8
:10A010000BFC002403250127A0F57F412646FF39CC
:10A0200008D06A46082104F0AFF818B90198841DD9
:10A030008688056832462B4621464046B1DF042813
:10A0400004D0082804D00B2808D002E0112000E03A
:10A050000020002F00D10B20BDE8FC810027A807BD
:10A0600001D50125E6E73443F5D000242646032533
:10A07000E0E72DE9FC41804600F0D6FB0646A0F55E
:10A080007F40FF380ED001252A466D1C0027ADB257
:10A090006B460821304604F0A1F8040006D0072CD6
:10A0A00025D025E043F20200BDE8FC81019903239D
:10A0B0000A1D0B604046891DB2DF040004D00C2C41
:10A0C00009D0052C09D009E032460821104604F0D9
:10A0D000FBF804460CE0012700E00024082130468C
:10A0E00004F0DEF800B10324002FCDD100E00C24F1
:10A0F0002046D9E704488088A0F57F41FF3901D088
:10A1000005F0CCBE70470000742400200EB502A9F3
:10A11000019100F089FB6A46012104F035F808B18D
:10A1200000200EBD019800780EBD00002DE9F04121
:10A1300007464FF6FF760A48B3DF10B10320BDE8AB
:10A14000F081074C43F20305A41E3246618838466D
:10A15000AFDFA842F3D16088401C6080F5E70000C3
:10A1600076240020428800EB82020C328A4201D918
:10A17000022070478188A1F57F42FF3A03D0008812
:10A1800008B10020704701207047884204D200685F
:10A19000401C01D00120704700207047F0B58FB0FF
:10A1A0000F4605461C216846FCF779F900249DF806
:10A1B0000000039440F004008DF800000126019493
:10A1C0008DF8366042F64C20049405940694ADF860
:10A1D00034000C9438788DF8300078788DF83100A0
:10A1E0009DF832008DF8384020F00600801C20F0E9
:10A1F00019008DF83200142107A8FCF750F90DA8BA
:10A2000007900CA80890ADF824600EA8ADF8264081
:10A21000ADF828600B90288905F5B77307AA694641
:10A22000AADF0FB0F0BD70B590B00D4606461C21F8
:10A2300005A8FCF734F900249DF81400069440F0BA
:10A2400002008DF814000A9401208DF83E00089455
:10A2500042F64A2009940B94ADF83C000D9495F811
:10A2600034008DF8340095F835008DF835009DF8F0
:10A270003600142120F00600801C20F019008DF813
:10A28000360035F8300F8DF83800000A8DF83900A7
:10A29000A8788DF83A00E8788DF83B0004256846E8
:10A2A000FCF7FDF80FA800900DA80190ADF808503C
:10A2B0000EA8ADF80A40ADF80C500490308906F5B0
:10A2C000B3736A4605A9AADF10B070BD30B593B06C
:10A2D00018217548FCF7E3F873480325012405802D
:10A2E0008470C470017921F00F01491C21F0F00144
:10A2F00020310171417921F00F01491C21F0F00159
:10A3000020314171817921F00F01491C21F0F001C8
:10A3100020318171058102218172C472017B21F09B
:10A320000F01491C21F0F00120310173417B21F024
:10A330000F01491C21F0F00120314173817B21F094
:10A340000F01491C21F0F0012031817304828574D2
:10A35000C474017D21F00F01491C21F0F00120316E
:10A360000175417D21F00F01491C21F0F0012031E0
:10A370004175817D21F00F01491C21F0F001203150
:10A38000817548216846FCF78AF84848009048489B
:10A3900001900020444903918DF810008821ADF808
:10A3A00024108DF8080043498DF8094008918DF874
:10A3B0000A50079040F20111ADF8301005908DF869
:10A3C00018008DF832008DF836000E909DF82C00A4
:10A3D0008DF8335020F00F00401C20F0F0002030AA
:10A3E0008DF82C009DF82D0020F0FF008DF82D0039
:10A3F0009DF8340020F00F00401C20F0F0002030C9
:10A400008DF834009DF8350020F0FF008DF8350000
:10A410009DF8400020F00F00401C20F0F00020309C
:10A420008DF840009DF8410020F00F00401C20F006
:10A43000F00020308DF841009DF8420020F00F0020
:10A44000401C20F0F00020308DF842009DF83C00C8
:10A4500020F00F00401C20F0F00020308DF83C0070
:10A460009DF83D0020F00F00401C20F0F00020304F
:10A470008DF83D009DF83E0020F0FF008DF83E0075
:10A480009DF83F00694620F00F00401C20F0F000CE
:10A4900020308DF83F000848FDF7C5FF002801D0A7
:10A4A000FCF7FCFC13B030BDC8260020C5D9020063
:10A4B000F5FF0200C0230020382200203EB50278BC
:10A4C00002230C46B3EB520F17D1B0F80110ADF8D0
:10A4D0000010C1788DF802108188ADF804108079E1
:10A4E0008DF8060002AA01A92046FCF71BFC0322F6
:10A4F00002A96846FBF7E5FF08B100203EBD012038
:10A500003EBD000010B50C46FFF7F0FCFF280CD054
:10A51000074900EB400001EB8000416821600189A0
:10A52000A180807AA071002010BD052010BD000020
:10A53000E029002070B5018890B0102959D1011D83
:10A540002C226846FBF792FF9DF804004FF6FF7639
:10A55000032134466D46B1EB500F2AD003F06AFF59
:10A560009DF8040040080ED001280CD0022820D10C
:10A5700018E00D99281D1131FCF7F3FA18B100BF4E
:10A58000BDF82C4015E00CAA0BA9072003F026FF0C
:10A590000028EED10DE00D99281D491CFFF78EFF14
:10A5A0000028EDD10CAA0BA9072003F017FF002803
:10A5B000F1D1BDF80000291D00F056FFB44218D0BB
:10A5C000BDF80000214600F019F9BDF80000ADF813
:10A5D0002E000020ADF83040074E8DF82C000BAD5A
:10A5E000044600BF56F8241028468847641C022CF5
:10A5F000F8D310B070BD000014120300094A002106
:10A6000001EB410332F82330834205D101EB4100D5
:10A6100002EB800040887047491C1429F0D34FF6A4
:10A62000FF707047E02900202DE9F041CEB00D46C3
:10A63000070019D0C5B10DF1B8085020CDE94B8005
:10A64000B8216846FBF72BFF002042A94FEA0D0610
:10A65000C0EBC00202EB0012324441F82020401C43
:10A660000828F5D300242BE00022114610466FDFA6
:10A670004EB0BDE8F08150212EA8FBF710FF37F84F
:10A6800014004CAB4AAA072103F0DCFE05280AD0CF
:10A69000072808D09DF8C900400806D0012804D03A
:10A6A00043F20220E4E70520E2E7C4EBC40000EB3C
:10A6B00004103044172208F10101FBF7D7FE641C97
:10A6C000AC42D8D3EAB2002142A86FDFD0E73EB552
:10A6D0000C46054603F0AEFE0BE0BDF80000A042BC
:10A6E00007D02846029900F02FF810B1BDF80000FD
:10A6F0003EBD01AA6946072003F070FE0028ECD198
:10A700004FF6FF703EBD000010B50D4C18200D4AED
:10A71000607000204FF6FF7100EB400302EB8303F3
:10A72000401C59801428F7D3FDF78EFB6070182861
:10A7300003D001202070002010BD032010BD0000B8
:10A740007A240020E02900202DE9F0410C4605463E
:10A7500000F1110701F111061022491C401CFBF702
:10A76000B0FE48B9681C00F089FA28B1601C00F0FE
:10A7700085FA08B1012400E0002431463846FCF790
:10A78000F0F93B780222B2EB530F0CD00321B1EB6E
:10A79000530F08D03378B2EB530F04D0B1EB530F03
:10A7A00001D0012100E00021084201D18C4302D0F8
:10A7B0000120BDE8F0810020FBE7018811B94218B3
:10A7C00092780AB101207047491C0829F7D300206C
:10A7D000704710B50C460346FFF7EFFF00280AD07C
:10A7E00018882188884205D10822A11C981CFBF7F3
:10A7F00068FE08B1002010BD012010BD03F0BABFF3
:10A8000070B50446FFF7FAFE0546204603F0BFFC8C
:10A810004FF6FF7104468D4203D014B9284603F069
:10A82000A9FF204670BD000010B5FFF75FFBFF28B1
:10A8300005D0044900EB400031F8200010BD4FF670
:10A84000FF7010BDE02900203EB5044603F0F2FD84
:10A850000EE0019920464631FFF7BBFF28B9019968
:10A8600020462A31FFF7B5FF10B1BDF808003EBD04
:10A870006A4602A9072003F0B1FD0028E9D14FF68E
:10A88000FF703EBD7CB514460A000A49897802D0A3
:10A8900015688D4203D323B11D688D4201D2042077
:10A8A0007CBDCDE9004313460246034803F0A6FFF2
:10A8B0007CBD00007A240020D02A002070B50C4610
:10A8C00006469AB010211848FBF7E9FD1748002505
:10A8D0002EB324B38470620031461348FBF7C6FDE3
:10A8E000382102A81895FBF7DAFD009518AB02AAEB
:10A8F00021463046019503F081FF00280DD110AAB2
:10A900000DF10801C0EBC0030B4442F82030401C9D
:10A910000828F7D3E1B210466EDF1AB070BD85701B
:10A92000002108466EDFF8E7D02A00207A240020B4
:10A9300010B50A4941600A4800F086FE58B902F095
:10A9400061FA07491C238C22087404488C39001FC3
:10A95000006800F0DFFD002010BD0000741303004C
:10A96000A02F00202DE9F0412D4F002518B17D606A
:10A970000120BDE8F0810879012258B1294E012853
:10A980000CD0274C4FF002080834022821D00328AD
:10A9900042D128E00A7103F0BDFA3BE05FF000000D
:10A9A00000EB800116F82110022908D0401C80B26B
:10A9B0000228F5D33A707D6041F61D50D9E700EBCF
:10A9C000800006F8205006EB8000406803F094FAFF
:10A9D00020E00D71A4F804800023012212482168B0
:10A9E00001F070F916E00D71206803F085FA0D4949
:10A9F00023682831498801EB810206EB8201D1F8F6
:10AA000004C0C4F800C04B60A3880B81A4F8048084
:10AA100006F822500028ACD07D600E20A9E7000087
:10AA2000A0250020DC2E0020502600207FB5064601
:10AA3000887A0D4688B3E86878B300242AE0E8688D
:10AA400000EBC403002003909DF80C0040F00200CE
:10AA50008DF80C009979090702D040F0080001E058
:10AA600020F0080040F010008DF80C0004EB84008A
:10AA7000191D06EB4000009101221430CDE90120A0
:10AA800033F8022B03A9304604F0C8FD002805D195
:10AA9000641CE4B2A87AA042D1D8002004B070BDF2
:10AAA0000146034802888A4200D000207047000017
:10AAB000382900202DE9FC5F0E008346DDE90C47B4
:10AAC000C6F1000098469246814600D4084601250A
:10AAD00003E000BF90FBFAF06D1C5045FADAA84580
:10AAE00000D9454624B1002E01DB780700D5641E4D
:10AAF000B80702D5B8F1000F0AD0F80708D13CB169
:10AB0000A54205D220215846641EFEF725F9F6E736
:10AB1000002E02DA4E462D2102E0780703D52B21C4
:10AB20005846FEF719F907F0030002280BD1B8F1D7
:10AB3000000F08D13CB1A54205D230215846641E11
:10AB4000FEF70AF9F6E7CDE900474346524631469B
:10AB5000584605F0CBFFBDE8FC9F000070B50D46E0
:10AB6000044600684FF4887102F0E2F94FF49071E6
:10AB7000206802F0DDF94FF49271206802F0D8F9F4
:10AB80004FF4A271206802F0D3F920681249C0F88E
:10AB9000041320686907000B40B2090E002806DA8A
:10ABA00000F00F0000F1E02080F8141D03E000F138
:10ABB000E02080F8001420680121000B40B200F072
:10ABC0001F0291404009800000F1E020C0F880128F
:10ABD000C0F8001170BD0000100302000246002002
:10ABE0001268930702D0530702D47047500714D558
:10ABF00002F00300012802D002280CD105E0C2F3C4
:10AC000083100B68801C184404E00223086803EBDF
:10AC100092521044086001207047086800EB92537C
:10AC2000C2F38910401CEEE70248007A002800D0E9
:10AC300001207047A02F0020F0B58488A518944209
:10AC400000D82246A41AC288D6189A4200D81346C1
:10AC5000D21A4B880788BB420CD34088834209D85C
:10AC60008888A04206D3A84204D8C888904201D35D
:10AC7000B04201D90020F0BD0120F0BD0021425CAE
:10AC80000AB101207047491C1029F8D300207047F1
:10AC9000800701D00020704701207047034880786A
:10ACA000002801D1FDF716BE70470000482400209F
:10ACB0001220FDF7E7BE17210180418000210171BC
:10ACC00041711B218171C171704700002DE9FE4F58
:10ACD0002B4D984691460F00824601D000260DE08C
:10ACE000684600F0EDFB6A460021504603F0BBF9D0
:10ACF0002878009E10B99DF8090098B14A4631465F
:10AD0000504605F0E9FA0446014600225046FEF797
:10AD1000B5FE0D2C32D008DC84B3082C2ED00B2CC1
:10AD20000BD12BE00520BDE8FE8F112C10D0862C16
:10AD30001AD0A4F54050023820D00325B8F1000FF6
:10AD400004D0324621465046FEF720FC2846EAE76A
:10AD50003A4629795046FDF79BF84A46E97850462D
:10AD6000FDF796F80025E9E73A4629795046FDF7C0
:10AD70008FF84A46E9785046FDF78AF82546DDE720
:10AD8000A82400202DE9F041204F0E461546044628
:10AD90003978FDF765F8002835D0204603F05AF9D8
:10ADA00050B32046FFF740FD80462046B978FDF7B6
:10ADB00057F808B1012700E00227204603F0F2FB14
:10ADC0000028404602D0FFF71BFD0DE0A8F57F41AB
:10ADD000FF3909D0072103F063FA010004D00529E7
:10ADE00002D0204604F0E8FF2B4632463946204682
:10ADF000BDE8F041FEF776B92A4631462046BDE867
:10AE0000F041FEF723BBBDE8F0810000A024002044
:10AE100070B5094D0646E978FDF722F80446297910
:10AE20003046FDF71DF8014622463046BDE8704029
:10AE30000123FFF74BBF0000A82400202DE9F047B5
:10AE4000394E002780463D46DFF8E090D6F804A052
:10AE500057E003D00446D0F81C8035E099F8002074
:10AE600002EB4201521CD2B289F8002009EBC10169
:10AE700099F80230091D9A4201D189F800504868BA
:10AE80000A780446012A12D0022A02D0032A3BD1B2
:10AE900008E005F0F3FB00B10127257434E00574E8
:10AEA000C06900E070680028F9D170602CE0207C57
:10AEB00050BB88686060C868A0600869E060486945
:10AEC000A061F07800B165606268B168184B501AF3
:10AED00020F07F40984202D2A168084406E0881A18
:10AEE000A16820F07F40814202D9081A206000E06A
:10AEF000256065600120A56020742046E56105F0AD
:10AF00009FFBB8F10000A4D199F8001099F8010056
:10AF10008142A3D117B97168514502D00120BDE823
:10AF2000F0870020FBE70000582500201C2D0020A2
:10AF3000FFFF7F0030B585B0054600241421684628
:10AF4000FBF7ADFAA5F57F40ADF80250FF3815D0FC
:10AF50002846FFF759F898B10B2815D0112811D0C1
:10AF6000A0F54051023903D00146284604F010FFF5
:10AF700009482246C1782846FCF78AFF05B030BD53
:10AF80000E2002E00124F3E70F208DF80000684650
:10AF9000FEF736FBECE70000682400200A46024971
:10AFA0008978FCF775BF000068240020F8B50546D5
:10AFB00000780C46002620420FD100208DF80000BA
:10AFC0006846FCF78DF82878204202D1204328708B
:10AFD00001269DF80000FCF7A7F83046F8BD0000F8
:10AFE0002DE9FF410026234800F02BFB2148001FDC
:10AFF000074600F026FB204C60680090A56800E042
:10B0000000986946284004EB80000C30FFF7E6FD0D
:10B010000028F5D101AA009901EA050304EB830396
:10B02000491CDB6842F82030401C00910228F2D312
:10B03000019800F0030001280BD0022810D10198DC
:10B04000032101EB90500099BDF80A6001EB9000DC
:10B0500005E00198BDF80A60C0F383100844009031
:10B06000384600F0EBFA08B10098606004B0304652
:10B07000BDE8F081D8340020C030002088B04FF403
:10B080000041002001F094FB08B1FBF707FF01F03D
:10B09000FFF9FBF7A7FF08B1FBF700FF514A0121B9
:10B0A0005148FBF78DFF08B1FBF7F8FE4F4903202D
:10B0B000FDF7F4FC08B1FBF7F1FE69460020FDF74F
:10B0C0001BFC08B1FBF7EAFE9DF8000002287CD0CB
:10B0D0005FF0000501F08AFC08B1FBF7DFFE01F02C
:10B0E00037FE08B1FBF7DAFE002469460120009420
:10B0F00001F0BEFC08B1FBF7D1FE684601F03AFD55
:10B1000008B1FBF7CBFE3A4A0A210820FBF742FFC1
:10B1100008B1FBF7C3FEFEF7F7FC35480021C43049
:10B1200000F025FB08B1FBF7B9FEFBF75BFD3148EA
:10B1300000902F486946D83000F0D9FB08B1FBF7E2
:10B14000ADFEFEF71BF9FCF7FDF8FFF7BFF82A4844
:10B150005121016064214160012181600173014638
:10B16000264804F059FE1C216846FBF798F94FF475
:10B170002030CDE900404FF47020032602908DF876
:10B180000C601F48ADF80E408DF81040CDE9054029
:10B190006846FCF7CBFD08B1FBF780FE03F0F8FA38
:10B1A000184819A1008806EB004001F08FFA0E48FC
:10B1B00000224FF480310068FBF73EFF08B1FBF737
:10B1C0006DFE2846FBF752FD00E008E0FBF7C2FEEB
:10B1D00001F06CF90028F7D101F01CFCF4E701251F
:10B1E00078E700001575020090110300CD89020078
:10B1F000E026002059CA02007C28002030220020CE
:10B200009790020098260020484944204D6F75739E
:10B2100065206578616D706C65207374617274650A
:10B22000642E0000002360F30F03184661F31740FB
:10B2300062F31F60704770B5144682880E4605465B
:10B240002088111D0144921C994201D8FE2A01D97F
:10B250000C2070BD521C32542088FF21401C80B24B
:10B26000208031542088401C80B220808119288899
:10B2700005F026FC2188084480B22080AA8842B1CB
:10B28000A96841B13044FBF7F1F82088A988084447
:10B290002080002070BD072070BD2DE9F047C788D1
:10B2A0000446181D16468946B0FBF7F1B0FBF7F2CD
:10B2B00007FB12009A193A44D21CB2FBF7F2DDF8F0
:10B2C00020A001E02468491E0029FBD13D1A8846D0
:10B2D000B54216D818E0BAF1000F05D0211809EBD5
:10B2E00008002A46091D04E0204409EB08012A460B
:10B2F000001DFBF7BBF800202468761BA844B7426A
:10B3000001D9354600E03D46002EE4D1BDE8F08786
:10B3100030B5024659B101F077FA0021074C09E037
:10B3200004EB810315685B88AB4202D111600020F9
:10B3300030BD491C8142F3D3052030BD6426002076
:10B340000EB5214A204B12785B888AB1FF2800DBBA
:10B35000FF20FF2900DBFF2100220092CDE901231D
:10B3600042B219484BB200211830FDF705F81AE037
:10B3700040F6FF72904200DB1046914200DB11461E
:10B380008DF80400C0F3032040EA01108DF8050099
:10B3900008098DF806000C48009301AB0322012137
:10B3A0001830FDF7FDF800280DD008280BD0132821
:10B3B00009D0112807D043F20141884203D0BDE8EB
:10B3C0000E40FBF76BBD0EBD20220020F8B50F46E6
:10B3D000017814460546012901D1687830B12088EA
:10B3E000821C9A422DD8012902D006E00720F8BD20
:10B3F00069780144891C994223D8181A801E86B2A4
:10B40000ADF800602188B81C084469467DDF00283B
:10B41000EDD12878022805D1BDF80010B14201D83D
:10B4200009210AE00821012805D16878B04202D834
:10B43000ADF8000001E0ADF80060BDF80000FE28A6
:10B4400001D90C20F8BD2288401CB8542088401C2B
:10B4500080B2208039542088401C2080BDF8001024
:10B46000084420800020F8BD70B505460C004FF060
:10B47000FF0020D04FF6FF76B5421CD00E480122C7
:10B4800041782846FCF704FD2846FEF72FFDFF28EB
:10B4900003D1FEF747FDFF280DD0084B00EB40021B
:10B4A00003EB82014D8023F8226022684A60A28863
:10B4B0000A81A2798A7270BD7A240020E0290020D6
:10B4C000034A00219268C0E90021816070470000B2
:10B4D000A824002070B54FF6FF750E46A84201D192
:10B4E000002000E0401C84B208E02146304603F012
:10B4F000C2FB08B1204670BD641CA4B2FF2CF4D975
:10B50000284670BD10B5FAF7D0FE08B1002010BD76
:10B51000112010BD10B531B1B2FBF3F403FB1424BC
:10B520001CB1092010BD0E2010BD0160002141603A
:10B5300081608281C381084610BD70B50C46054606
:10B54000FAF768FE002802D021882868084470BDF8
:10B5500010B50A8849888A4203D1FAF79DFE012076
:10B5600010BD002010BD70B50C460546FAF777FEF9
:10B57000002802D061882868084470BD10B50A8888
:10B5800049888A4203D1FAF761FE012010BD0020EC
:10B5900010BD01F01F0301229A40D243490900EB7C
:10B5A0008100114600F059B80A4601F01F0301213D
:10B5B000994010B552090C4600EB820000F05DF88E
:10B5C000204000D0012010BD2DE9F04180460D46FD
:10B5D0000024481E012101EB501716E058F8240002
:10B5E000C04390FAA0F0B0FA80F020280CD200EB13
:10B5F0004416AE4208D231464046FFF7D5FF002838
:10B60000ECD13046BDE8F081641CA742E6D828465C
:10B61000F8E74A0950F8220001F01F020121914089
:10B62000084000D00120704701F01F0301229A401A
:10B63000490900EB8100114600F029B8002100F013
:10B6400017B8012100F023B8012100F016B808B5A1
:10B650006A46FAF776FE009808BD08B56A46FAF71A
:10B6600056FE009808BD08B56A46FAF76AFE08BD9E
:10B6700008B56A46FAF74BFE08BD08B56A46FAF700
:10B6800039FE08BD08B56A46FAF728FE08BD08B5B8
:10B690006A46FAF72FFE009808BD08B56A46FAF721
:10B6A0005DFE009808BD38B5044600258DF80050B1
:10B6B0006846FBF715FD21686268086890420ED95C
:10B6C000401E08600178A38AE26801FB0325227A04
:10B6D0002168101AC0B20A79824200D208719DF81E
:10B6E0000000FBF721FD284638BD38B5054600208F
:10B6F0008DF800000C466846FBF7F2FCE868A98A62
:10B70000201AB0FBF1F12A681068431C1360017025
:10B710009DF80000FBF708FD38BD10B530B1017A87
:10B7200042680368891AC9B21A6006E00E2010BD8B
:10B7300003681A68541C1C601170491EC9B2F7D204
:10B74000006800210171084610BDC20800F007031F
:10B750000120895C98400840704710B5C20800F08D
:10B760000703885C01249C402043885410BD10B519
:10B7700060B10161172120F8021B20F8021B1B2178
:10B7800000F8021BFFF797FA002010BD0E2010BD35
:10B79000F0B5858893B00C46002D39D1018800267C
:10B7A0003E4F24293BD006DC102909D011290CD0AA
:10B7B000232958D14FE03A290BD0552953D129E0FC
:10B7C0000146204602F05CF84DE0A01DFFF773FA39
:10B7D00049E02246408934F8061F814200D80846D5
:10B7E0006080172800D217206080106970B16079DE
:10B7F00060B1D7E90001CDE90301ADF80E506088D2
:10B80000ADF81000136903A91046984766712671B8
:10B8100013B0F0BD0146204602F082F823E0011D7E
:10B820002C2206A8FAF722FEBDF81800BDF81C204D
:10B8300004EBC0014A732269AAB1D7E90423CDE918
:10B840000423ADF81200487B8DF8140022692046CD
:10B8500004A9904707E0017A207B884200D2014684
:10B860002846FDF761FCA07A0028D1D0E18828465F
:10B87000A5DF012570B11128CAD001F039FB0246BD
:10B88000074808A1008813B005EB0040BDE8F04070
:10B8900000F020BFA672E572BAE700001C12030098
:10B8A0006426002073645F626C655F676174746313
:10B8B0005F65786368616E67655F6D74755F7265FB
:10B8C000717565737428292072657475726E65646C
:10B8D0002025732E0000000020B10278DE2A03D05C
:10B8E000082070470E20704741800020704760B1EB
:10B8F00059B10278DE2A0AD009684160DE21017060
:10B900004FF6FF714180002070470E2070470820DD
:10B9100070477FB5054600294DD0002D4BD00878E3
:10B920000C46DE2847D1A8886188884202D120468B
:10B9300005F086F92888012825D002283BD0112857
:10B940003AD0512837D135F8040F6188884232D176
:10B95000A978A81C02292ED1017A042903D006292E
:10B9600001D0052927D10021009102228DF8002065
:10B9700001914FF4C07202910391ADF80420007A56
:10B9800005280FD010E0297A2046012913D1A98873
:10B99000428891420FD10121017204B0BDE870408C
:10B9A00005F04EB9ADF8041028886946B0DF0028CC
:10B9B00001D0616888477FBDA88861888842FAD134
:10B9C0004FF6FF7060807FBD00F180400068002866
:10B9D00000D00120704708B500F1804000210160CF
:10B9E0000068009008BD000070B50B4C207808B1CD
:10B9F00085250FE00020A06060602061E0600748BE
:10BA000001F0B2FA054601F0FDF908B901F096FA25
:10BA100001202070284670BD3C2C0020098F0200B8
:10BA200038B500258DF800506846FBF759FB074CE8
:10BA3000E068401EE060E06810B901F0A5FAA5706A
:10BA40009DF80000FBF770FB38BD00003C2C002087
:10BA5000F0B505460478154889B0164640F824200C
:10BA6000124A0869121DA2F1080742F82400487F13
:10BA7000385520226846FAF7F9FC04942878385C97
:10BA800048B10EB10A4A00E000226946281D01F0C3
:10BA9000FBFC09B0F0BD0EB1064A00E00022694689
:10BAA00005F10C0001F0C2FBF3E700000C250020BB
:10BAB0009D090300E90703000FB408B503990029A5
:10BAC00004D004AA00926A4600F00FF801B05DF8B5
:10BAD00014FB10B582680446002A05D0D4E904039B
