:020000040002F8
:10600000F8570020C1630200C9630200CB6302009D
:10601000CD630200CF630200D163020000000000E4
:10602000000000000000000000000000D363020038
:10603000D563020000000000D7630200D9630200AC
:1060400041670200DB630200296C0200DB6302008F
:10605000DB630200DB63020079650200BD670200BA
:10606000DB630200DB630200DB630200DB63020030
:10607000DB630200DB630200DB630200DB63020020
:10608000DB63020099670200DB630200DB6302004E
:1060900005690200DB63020009690200DB6302009C
:1060A000DB630200DB630200DB630200DB630200F0
:1060B000DB630200DB630200000000000000000060
:1060C000DB630200DB630200DB630200DB630200D0
:1060D000DB630200DB630200DB6302000000000000
:1060E00000000000000000000000000000000000B0
:1060F00000000000000000000000000000000000A0
:10610000000000000000000000000000000000008F
:10611000000000000000000000000000000000007F
:10612000000000000000000000000000000000006F
:10613000000000000000000000000000000000005F
:10614000000000000000000000000000000000004F
:10615000000000000000000000000000000000003F
:10616000000000000000000000000000000000002F
:10617000000000000000000000000000000000001F
:10618000000000000000000000000000000000000F
:1061900000000000000000000000000000000000FF
:1061A00000000000000000000000000000000000EF
:1061B00000000000000000000000000000000000DF
:1061C00000000000000000000000000000000000CF
:1061D00000000000000000000000000000000000BF
:1061E00000000000000000000000000000000000AF
:1061F000000000000000000000000000000000009F
:10620000DFF80CD000F07AF9004800477DAB0200BF
:10621000F857002030B450E8012F93B2C4892344CA
:106220008489A34228BF1B1B0489A34202BFBFF37A
:106230002F8F002007E0C3EA020340E80134002C5E
:10624000E9D14FF001000A6030BC704750E8012FDF
:10625000C2EA024240E801210029F7D1704730B478
:1062600050E8022F1FFAA2F3C488A34202BFBFF373
:106270002F8F00200DE0C48923448489A34228BFC6
:106280001B1BC2EA034340E80234002CE8D14FF064
:1062900001000A6030BC704750E8022FC2EA224277
:1062A00040E802210029F7D17047034653E8022F46
:1062B000D988B2EB324F4FF0000017BF92B241EADB
:1062C000014142EA014104E05A68B2EB324F08BF93
:1062D000012043E80212002AE8D1704730B4044696
:1062E00054E8000F0D4644E80053002BF8D1156028
:1062F00030BC704730B4044654E8000F40EA010552
:1063000044E80053002BF7D1156030BC704730B41F
:10631000044654E8000F00EA010544E80053002B4E
:10632000F7D1156030BC704730B4044654E8000F14
:1063300080EA010544E80053002BF7D1156030BC1A
:10634000704730B4044654E8000F00EB010544E800
:106350000053002BF7D1156030BC704730B40446B1
:1063600054E8000FA0EB010544E80053002BF7D1DF
:10637000156030BC704770B404464FF0000054E81C
:10638000006F0D68AE4207BF44E80023012044E8D7
:1063900000630E60002B1CBF0020F0E770BC70474C
:1063A00030B4044654E8000F88422CBF451A054615
:1063B00044E80053002BF5D1156030BC7047000055
:1063C0000648804706480047FEE7FEE7FEE7FEE78F
:1063D000FEE7FEE7FEE7FEE7FEE7FEE70D690200E7
:1063E000016202002DE9F05F0546002092469B46BF
:1063F00088460646814640241BE0284641464746DB
:10640000224600F06BF853465A46C01A914110D309
:1064100011461846224600F016F82D1A67EB0108BF
:106420004F4622460120002100F00DF817EB00092D
:106430004E41201EA4F10104DFDC484631462A46C5
:106440004346BDE8F09F202A04DB203A00FA02F11F
:10645000002070479140C2F1200320FA03F3194352
:106460009040704700487047F40B030040EA010376
:106470009B0703D009E008C9121F08C0042AFAD2FA
:1064800003E011F8013B00F8013B521EF9D27047BE
:10649000D2B201E000F8012B491EFBD27047002266
:1064A000F6E710B513460A4604461946FFF7F0FF13
:1064B000204610BD421C10F8011B0029FBD1801A98
:1064C000704730B504460020034600E05B1C934251
:1064D00003D2E05CCD5C401BF8D030BD202A04DB49
:1064E000203A21FA02F00021704721FA02F3D0404D
:1064F000C2F120029140084319467047064C074DEF
:1065000006E0E06840F0010394E807009847103483
:10651000AC42F6D3FFF778FE9C130300BC130300D4
:1065200070B58C1810F8015B15F0070301D110F855
:10653000013B2A1106D110F8012B03E010F8016B82
:1065400001F8016B5B1EF9D12B0705D40023521E05
:106550000DD401F8013BFAE710F8013BCB1A921C6D
:1065600003E013F8015B01F8015B521EF9D5A1426B
:10657000D8D3002070BD00002DE9F04700268AB076
:10658000DFF85091B0464FF48075012437460696E7
:10659000284605F0E7FB38B1D9F80403204203D0C0
:1065A000284605F0D5FB26432D1D64007F1CADB2A7
:1065B000082FEDD34FF4BE74204605F0D3FB48B14D
:1065C000204605F0C5FB46F0004606AA0121002042
:1065D00005F0AAFB404D16F0FF0F15D0012700244F
:1065E00037420DD009EB8401D1F81005D1F8101510
:1065F000C0F3042055F82420C1F3014102B19047B3
:106600007F00641C082CEBD3002E5FDA4FF0FF30C4
:10661000CDF8108054E0281910F8507F90F9000050
:1066200027F0C008401C3BD007A9404604F0C9FD34
:1066300010B34FEA9719404602F03CFB55F8207022
:106640001FB1B9F1030F03D006E0B9F1030F27D151
:1066500004A9404604F0BDFD4FF0A04101EB8800C5
:10666000D0F8000706A9C0F3014A404604F0A9FD8E
:1066700018B1BAF1020F03D012E0BAF1030F0FD133
:10668000B9F1030F08D1BAF1020F1DD00221404623
:1066900005F02EFB761CF6B217B149464046B847C6
:1066A000641C042CB7D3002E10D06A4601210020B0
:1066B00005F03AFB06990098884207D006900498A6
:1066C000002634460790A6E70321E0E70AB0BDE8BC
:1066D000F087000000600040302F002000F01F0213
:1066E000012191404009800000F1E020C0F88012B3
:1066F000704700F01F02012191404009800000F125
:10670000E020C0F80011704700F01F020121914005
:106710004009800000F1E020C0F8001270474907EE
:10672000090E002806DA00F00F0000F1E02080F8E2
:10673000141D704700F1E02080F80014704700003D
:1067400070B54FF48076304604F07AFE114CB505F2
:1067500060B1304604F07BFE0120C5F80803607983
:1067600020B9012060712168002088474FF48276AB
:10677000304604F065FE00280AD0304604F067FE7B
:106780000220C5F808032168BDE8704001200847D1
:1067900070BD0000B025002007480021C0F840115E
:1067A000C0F84411C0F84811C0F84C11C0F80011ED
:1067B000C0F8041109F00CBA001001402DE9FE43A5
:1067C0004FF48278404605F097FE4C4F00254C4C24
:1067D000012600B3404605F097FE94F82E0010B154
:1067E00094F82F10D1B18DF8005061680191218982
:1067F000ADF80810E26832B1218B618362602181BB
:10680000E56010B102E0257400E03E602168684652
:10681000884784F82F5094F82E0060B34FF48077A7
:10682000384605F069FE30B3384605F06DFE628BE0
:1068300094F82D108A420AD9A2EB010080B260833D
:106840002289A2EB0000626802EB400005E007D15C
:10685000E06828B184F82F60658305F03BFE04E012
:106860008A4202D184F82F606583404605F04CFED1
:106870002248001D06604FF48877384605F03CFE3C
:1068800048B1384605F040FE257402208DF800001E
:106890002168684688474FF48A77384605F02CFE11
:1068A00028B1384605F030FE2574BDE8FE834FF070
:1068B00000484FF48C7967691DE000BFB7FA87F094
:1068C00028FA00F109EB80058F43284605F014FEF5
:1068D00088B1284605F018FEA5F58C75E8088DF8F6
:1068E000040045F38000401C8DF800608DF8050021
:1068F000216868468847002FE0D1D6E70070004045
:106900008C2F002009F0B2B805F0CABFF0B5B54829
:106910000023021D0178101D01254FF08054062927
:106920000BD11678360708D10678C6F30316032E66
:1069300006D0042E04D0052E02D0062907D00EE082
:10694000B4F82463A84FC6F304263E6002E016782C
:10695000360704D10678C6F30316032E02D00629A3
:1069600004D00FE0A24FA14E7E670EE016783607E6
:1069700008D10678C6F30316032E06D0042E04D0E1
:10698000052E02D0062907D00EE0D4F84462994FB4
:10699000C6F342363E6002E01678360704D1067828
:1069A000C6F30316032E02D0062906D011E0924E3C
:1069B000376827F0807737600EE01678360708D101
:1069C0000678C6F30316032E06D0042E04D0052E37
:1069D00002D006290AD011E04FF08046C6F80C31EB
:1069E000C6F81031834E361F336002E01678360742
:1069F00004D10678C6F30316032E02D0062905D06B
:106A00000CE07C4F032664373E600AE016783607B8
:106A100004D10678C6F30316032E02D006290DD042
:106A200014E0764F05263E60744E78363560734E1E
:106A3000083633603F263F1D3E6002E01678360779
:106A400004D10678C6F30316052E02D0062957D0C6
:106A500062E06B4E36686B4F3E60694E361D36689D
:106A60003F1D3E60664E083636683F1D3E60644EF0
:106A70000C3636683F1D3E60614E103636683F1D4D
:106A80003E605F4E143636683F1D3E605C4E1836E1
:106A900036685C4F20373E60594E1C3636683F1DC5
:106AA0003E60574E203636683F1D3E60544E2436B9
:106AB00036683F1D3E60524E283636683F1D3E60A8
:106AC0004F4E2C3636683F1D3E604D4E3036366890
:106AD0004C4F40373E604A4E343636683F1D3E606C
:106AE000474E383636683F1D3E60454E3C36366868
:106AF0003F1D3E60424E403636683F1D3E6002E01C
:106B00001678360708D10678C6F30316032E06D08A
:106B1000042E04D0052E02D0062907D019E0D4F89F
:106B20005812394A01F04F01116002E0117809074B
:106B30000FD10078C0F30310032803D0042801D03C
:106B4000052806D131480168C90702D06FF001015C
:106B50000160D4F83001062808D1D4F834010628A1
:106B600004D12B48016841F48061016022487438E7
:106B7000016841F470010160BFF34F8FBFF36F8F65
:106B80004FF01021D1F80002002803DBD1F80402F5
:106B9000002822DA1F4A15601F480468002CFCD028
:106BA0001524C1F800420568002DFCD0C1F804424C
:106BB00001680029FCD0136001680029FCD0BFF3F4
:106BC0004F8F0D48F0380168144A01F4E061114319
:106BD0000160BFF34F8F00BFFDE712491048086006
:106BE000F0BD0000E00F00F0403501400DF0ADBAFF
:106BF00000C007403C050040FCED00E0105600409E
:106C00000404001020C50040E40E004000040040D1
:106C10003C17004004E5014000E401400400FA058F
:106C20000090D003D42600200148006800470000EF
:106C3000B825002002E008C8121F08C1002AFAD1B6
:106C400070477047002001E001C1121F002AFBD1EC
:106C5000704700000121202803DA814005480140E7
:106C600003E0402802DA2038814009B10120704752
:106C700000207047FC06FFBD082806D228B1012875
:106C800003D0042801D00120704700207047000085
:106C90000EB51249124806F0D1F808B100F010FA0A
:106CA0000F4A121D07CA8DE807006946002006F04A
:106CB00067F808B100F004FA01210A4806F00EF85E
:106CC00008B100F0FDF907480121801C06F006F824
:106CD000002801D000F0F4F90EBD0000B5ED02006F
:106CE000B40603002222002010B560B159B1027829
:106CF0000B785208B2EB530F05D10622401C491CF9
:106D0000FFF7DFFB08B1002010BD012010BD800798
:106D100001D00020704701207047C3688B4206D81D
:106D200011440069491E814201D8012070470020AA
:106D3000704710B501220221002001F0E5FD08B1E5
:106D4000072810D107220221012001F0DDFD08B142
:106D5000072808D100210A22084601F0D5FD08B114
:106D6000072800D1002010BD10B550B10A480321FA
:106D7000008801EB004009A105F0E4F907F0BEFC32
:106D800003E00321094800F03DFE002803D0BDE8E0
:106D9000104000F095B910BD2C270020457261739A
:106DA0006520626F6E64732100000000C827002018
:106DB00070B58CB015460E4600236C46C3F10F012A
:106DC000415CE1545B1C102BF8D30D2104F1100041
:106DD000FFF765FB0020C0F10F02315C2244401C2C
:106DE00011740328F7D3684646DF0020C0F10F0175
:106DF000214491F820102954401C0328F6D30CB0EC
:106E000070BD70B590B005461C216846FFF747FB82
:106E10009DF80000002440F004008DF80000039469
:106E200001268DF8366042F60620ADF834000C9449
:106E30009DF83000019420F0FF008DF830009DF89F
:106E40003100049420F00F00401C20F0F0002030AE
:106E50008DF831009DF83200059420F00600801C6A
:106E600020F019008DF832000694142107A8FFF7CE
:106E700016FB0DA807900CA88DF838400890ADF8C7
:106E800024600EA8ADF82640ADF828600B90A888C5
:106E9000AB1D07AA6946AADF10B070BDF0B58FB070
:106EA0000D4606461C216846FFF7F9FA00249DF8B6
:106EB0000000039440F00A008DF8000001270194BF
:106EC0008DF8367042F60620049405940694ADF8C9
:106ED00034000C94687A8DF83000A87A8DF831006F
:106EE0009DF83200142120F00600801C20F01900CB
:106EF0008DF8320007A8FFF7D2FA287A8DF838000B
:106F00000DA807900CA80890ADF824700EA8ADF855
:106F10002640ADF828700B90308906F10A0307AAC5
:106F20006946AADF0FB0F0BD124910B509880322E7
:106F300002EB014248B101280DD0022818D11046B9
:106F40000DA105F0FFF810200AE010460DA105F094
:106F5000F9F8112004E010460DA105F0F3F80D201A
:106F600001F0ECFC002803D0BDE8104000F0A8B808
:106F700010BD00002C2700204849474820416C657F
:106F800072742E004E6F20416C6572742E000000EA
:106F90004D696C6420416C6572742E000149097959
:106FA00000F08EBF8425002070B50024064D06E059
:106FB0006868012110F8340005F05CFD641C287835
:106FC0008442F5D3002070BDC0250020F8B51546D9
:106FD0000C460646052A01D20720F8BD05F046FEFC
:106FE00018B905F00BFE0028F7D1124900224E60B7
:106FF0000C708D60C1E90422C1E906220E4D0DE03E
:1070000006EBC4002968009181788DF801100078A2
:107010000A4A694605F080FD0028DED1641EE4B20C
:10702000EED2BDE8F84004480021054A001D00F0FA
:1070300053B80000C025002078080300F19E02002C
:10704000DD91020072B605F033F900BF04F06AFF6B
:107050000028FBD1104C0121208801EB00400FA13A
:1070600005F070F810480068C00700D000BE208806
:10707000022101EB00400DA105F064F8BFF34F8F32
:107080000948E43801680D4A01F4E06111430160E8
:10709000BFF34F8F00BFFDE72C27002046617461CE
:1070A0006C206572726F7200F0ED00E053797374BA
:1070B000656D207265736574000000000400FA05B8
:1070C0000EB500210091CDE901106A4644F201009D
:1070D000FFF7B8FF0EBD0000074B9B7823B12AB124
:1070E00020B10068037C1BB108207047072070475F
:1070F00041744261002070472C30002070B507F0C9
:107100000BFE104800240B21047044700E4D81705A
:1071100014206C602C706C70FFF7E0FA07211420CB
:10712000FFF7FDFA1420FFF7E4FA0848046007218E
:107130001120FFF7F4FA0548001F0068A86000203E
:1071400070BD00002C300020E02500200815014013
:107150002DE9FC47DFF8789099F8023073B368B3F3
:10716000052902D20720BDE8FC87436933B3437C7D
:10717000012B25D0002704460025884616468DF8A9
:107180000050684600F038F801A808F0FBFFC8B1CD
:10719000012101700F4944600968C0E90218C0E983
:1071A00004769DF8040089F801009DF8000000F0C5
:1071B00047F81420FFF7A8FA2846D4E70820D2E7BA
:1071C0000F46D8E704259DF8000000F039F8F3E7F2
:1071D0002C300020041501400649897839B130B1BE
:1071E000416921B100210174022108F0CDBC0820C1
:1071F000704700002C30002030B5EFF3108172B6DC
:107200000D4A9468012324B10370002900D162B6AD
:1072100030BD93604FF0E023D3F88051074C2540F8
:107220001560C3F88041D3F8844154605A17C3F8FD
:10723000842100220270E8E738310020FC06FFBDFF
:107240000B498A68002A11D000280FD1EFF3108073
:1072500072B60B684FF0E022C2F800314B68C2F8FA
:10726000043100228A60002800D162B67047000015
:10727000383100202DE9F041064608680C46411CD3
:107280004FF0A0474FF0010506D005FA00F1C7F80E
:107290000815206804F018FD6068411C02D0002128
:1072A00004F000FD3168A069C1F82405607D227DED
:1072B00031681043C1F86C05D4E900123068C0F899
:1072C0001425C0F80C15207D012815D1A068411C9B
:1072D00002D0002104F0E6FCE068411C05D08540A6
:1072E000C7F80855E06804F0EFFCD4E902123068F2
:1072F000C0F80825C0F81015BDE8F0812DE9F0416F
:10730000064608680C46411C4FF0A0474FF00105A7
:1073100006D005FA00F1C7F80815206804F0DEFC75
:107320006068411C02D0002104F0C5FC3168A069EE
:10733000C1F82405607D217D32680843C2F86C05E0
:10734000D4E900123068C0F80C15C0F81425207D6F
:10735000012815D1A068411C02D0002104F0ABFC2B
:10736000E068411C05D08540C7F80855E06804F086
:10737000B5FCD4E902123068C0F80825C0F8101531
:10738000BDE8F08103F056BB2DE9F04707460088C1
:107390008EB0804603F032F8824604462D48002520
:1073A0002A460178404600F0A3FD7879400734D59D
:1073B00001254FF6FF7603AB2A460721504606F01B
:1073C00001FC010004D0404607F03AFF00252BE005
:1073D000B1463146049802F065FF064648450FD095
:1073E00004460146404602F0F3FF4046FFF7D6FD53
:1073F00030B9404607F0F6FE4046FFF7CFFD48B1F2
:1074000022460721504606F053FC010003D04046B7
:1074100007F016FF00254E4506D0404606F0B6FDA3
:1074200010B1504602F0D6FF02208DF81800ADF8DA
:107430001A807879400701D5012000E002208DF8FC
:1074400020008DF8215006A802F0D0F80EB0BDE85B
:10745000F08700008425002000B585B0142168461F
:10746000FFF71DF81B48009001208DF80400002054
:10747000029064208DF80C009DF80D00694620F004
:107480000F00401C20F0F00010308DF80D009DF82A
:107490000E0020F00F00401C20F0F00010308DF89E
:1074A0000E009DF80F0020F0FF008DF80F009DF8F2
:1074B000100020F00F00401C20F0F00010308DF87C
:1074C0001000054800F01AFC002801D0FFF7F8FD75
:1074D00005B000BD79D302007C2700202DE9F043E0
:1074E0000546407C93B00E460024A0B107949DF859
:1074F0001C0020F00F00401C20F0F00010308DF830
:107500001C00707B8DF81D009DF81E0020F0060009
:10751000801C8DF81E001C216846FEF7C0FF9DF8F8
:10752000000040F002008DF80000697C11B140F0CD
:10753000100001E020F010008DF800000194039489
:107540000494687C00B107A8CDE9050401278DF8F3
:10755000427042F61920ADF840000D94B07B8DF8D2
:107560003400F07B8DF835009DF83600142120F0B2
:107570000600801C20F019008DF83600307B8DF855
:10758000440008A8FEF78BFF0DF140080DF1340907
:10759000ADF8287011A8CDE90889ADF82A40ADF8FA
:1075A0002C700C90A888AB1D08AA6946AADF002899
:1075B00038D1B06898B38DF8427042F60810ADF833
:1075C00040000D94307C8DF834009DF8350020F09B
:1075D000FF008DF835009DF8360020F00600801C75
:1075E00020F019008DF836000EA8B16801F03BF8C4
:1075F0000646142108A8FEF752FFADF828600EA831
:10760000CDE90889ADF82A40ADF82C600C90E888E7
:1076100005F10E0208A9ABDF002803D101E0FFE766
:10762000EC81002013B0BDE8F08310B505F04EFCEE
:10763000002803D0BDE81040FFF742BD10BD0A4648
:1076400001461046AEDF704770B51500044609D0FC
:107650000020286034B1206820B1A079800703D0D1
:10766000072070BD0E2070BD084600F0C9FBC0B2F7
:10767000142804D02179814203D8042070BD05204C
:1076800070BDE288216800FB02102860002070BDF8
:107690002DE9FC47002517880646158090F82D0037
:1076A0001446894630B13A462146484600F0D4FC9B
:1076B000051E09D1B0784FF00C0A18B32088C846CF
:1076C000001DB84202D95046BDE8FC87684679DF04
:1076D0000028F9D12088032108F8001020881921FA
:1076E000401C80B2208008F800102088401C80B226
:1076F000208000EB0801BDF8000008F071FC218833
:1077000008442080F0780222C8B1218896F903301D
:1077100001F1030C4846BC45D5D8425421884FF0AE
:10772000010C491C89B2218000F801C02188491C44
:1077300089B2218009F801302088401C20807068BF
:10774000B8B1218890F9003001F1030C4846BC45DE
:10775000B9D8425421880A22491C89B22180425456
:107760002188491C89B2218009F801302088401CF9
:107770002080308950B1CDE900474B4606220221D6
:1077800006F1080008F016FD051E9DD1308A50B1A3
:10779000CDE900474B460722032106F1100008F00F
:1077A00009FD051E90D1308B50B1CDE900474B4605
:1077B0001522142106F1180008F0FCFC051E83D1E7
:1077C000306A30B13B462246494601F050FB051E67
:1077D000DBD1706A30B13B462246494603F0ACFA31
:1077E000051ED2D196F82C0038B13B4622464946B8
:1077F000304607F0CBFD051EC7D1307838B13B4687
:1078000022464946304603F01DFB051EBDD12846E1
:107810005AE718B504460020ADF8000013466A4642
:10782000204600F006F8002802D0BDF800002044F1
:1078300018BD70B588B182B10024158803E0065DDB
:10784000641C3444A4B2A54203D8061976789E423B
:1078500001D08C42F3D38C4201D3002070BDA11C17
:107860001180005D401E80B270BD80F830107047FE
:107870002DE9F0410D00044606D02CB195F87A00B0
:107880000026012803D006E00E20BDE8F08195F81F
:107890009800012829D0D5F8A000042825D0D5F8D3
:1078A0009C00042821D04FF00108A6702C2205F17D
:1078B0007801201DFEF7DAFD84F83060D5F8A400C9
:1078C0006063D5F8A800A0634FF6FF70A4F8A80085
:1078D00004F19400C4F8A400C4F8AA60A4F8AE604F
:1078E00084F8B060207810B104E00720CDE7FF20D5
:1078F00084F8540004F155011F27C4F89410A4F82B
:10790000987004F198022846FFF7C2FE0028BCD107
:1079100015F13C0F0ED004F17401C4F89C10A4F8CA
:10792000A07004F1A00205F13C00FFF7B1FE0028B1
:10793000ABD103E0C4F89C60A4F8A06084F8518047
:10794000208BA4F8480084F83C80266484F85060BA
:1079500060696064454604F13C02002104F1540072
:1079600072DF002891D125708FE710B50288102AA8
:107970001BD0112A20D0262A1DD1007A0C460128BE
:1079800001D0022817D1A0780521401CB0FBF1F2EC
:1079900001FB1201204600F035F800280BD0A16B46
:1079A000002908D0BDE810400847C27B012A02D157
:1079B0008088A1F8A80010BD0C46002184F8B21000
:1079C0008088B4F8A8108842F5D120790028F2D137
:1079D0000121DFE710B50C46022801D0032810D1A1
:1079E000607800280DD000206070A178204600F05B
:1079F00009F8002805D0A16B002902D0BDE810408D
:107A0000084710BD2DE9F05F044600780F4638B1F5
:107A1000A770002003F06CFF012620B1667007E11B
:107A20000820BDE8F09F0025C4F8AA50A4F8AE5085
:107A300084F8B050A07910B1A078012806D0E07980
:107A400068B1A078012801D0022808D1616B21B16A
:107A500084F8B1600820884701E084F8B15004F14F
:107A6000AB0100200A5C0AB1304603E0401C062846
:107A7000F8D300204FF002084FF0030B012F06D07F
:107A8000022F0CD0032F0FD0042F15D110E0A179B5
:107A900029B194F8241011B908B130460DE0E1790C
:107AA00011B108B1404608E0207A08B1584604E018
:107AB000607A08B1042000E02846A070616B41B1F3
:107AC000032801D0042804D1607910B194F8B200E1
:107AD000A0B184F8B35004F13C0018210746FEF72A
:107AE000DEFC04F12C0084F83C60814606F07AFB51
:107AF00058B194F82C0084F8510008E084F8B45090
:107B000084F8B36007208847E5E784F8516094F86B
:107B1000240050B1484606F065FB20B194F82800D7
:107B200084F8520001E084F8526084F85050A27842
:107B300004F1AA0104F194094FF0060A052A60D263
:107B4000DFE802F078030F223F0084F83160C4F8C8
:107B5000A450C4E9101584F83C808020A4F84800A3
:107B600051E084F8318094F82420384612B107227D
:107B7000027001E080F800B0228A8281C4F8A4502B
:107B80004160E168B9603EE06069B860208BB8810F
:107B900094F824003D4610B184F83CA001E084F83C
:107BA0003C60204608F0CAFA40B185F814800421F0
:107BB000204601F021FF20BB05211EE084F831B0F2
:107BC0001DE0E069B860208CB88194F824003D463F
:107BD00010B184F83CA001E084F83C60204608F035
:107BE000ADFA48B185F814800421204601F004FF65
:107BF00038B984F831A002E0042184F83110C4F8C7
:107C0000A490A07878B13A4604F15400D4F8A410B6
:107C100072DF00287FF405AF94F8301094F8540018
:107C200073DF0028F6D1616B11B194F831008847F9
:107C30000020F6E684F83150F5E70000F7B594B07F
:107C4000174605003CD0287C9DF85410002488423B
:107C500052D000264FF0010E0D9615A8ADF834E075
:107C60000E90ADF83660E9880DAA4FF6FF70ACDFD4
:107C7000040026D19DF854002874687CA0B30F96A8
:107C8000109611961296E888ADF83C00BDF83600C3
:107C9000ADF840000DA811900E981290A7F57F4006
:107CA0008DF83EE0FE3805D039460FA8FFF7C7FC37
:107CB000044621E0684600F09DF800256F460FE07D
:107CC0000E2017B0F0BD00BF07EB4506B08800F0EE
:107CD000D9F8022803D144B10FA9B088AEDF6D1CDA
:107CE0000098A842F0D807E005E0B1880FA8FFF798
:107CF000A6FC0446F3E708242046E2E738B50D4623
:107D0000040018D0BDB12868206028796074FF2075
:107D1000207401208DF8020041F60F00ADF800003C
:107D2000221D69460120A8DF002803D129462046EC
:107D3000FFF7D4FB38BD0E2038BD38B5002924D05C
:107D4000002822D00288502A1FD10546487C0C46C4
:107D500000281AD0E9886289A81D914215D141896D
:107D6000022912D1216800290FD00C3000F077FCD5
:107D700008B1002000E001208DF80000A888ADF8CF
:107D80000200226869462046904738BD70B504005D
:107D900012D001461C221448FEF768FB1248134D0E
:107DA0000560206850B17ADF002806D1206801689C
:107DB00029604068686005E00E2070BD0B487BDFDD
:107DC0000028FAD108484FF6FF711438084A20F805
:107DD000041B0549343901600021FFF77DF90028B3
:107DE000EBD0032070BD00001429002034250020B2
:107DF000D50003000149496801F01AB83029002074
:107E000010B5044600F094F808B1204610BD1420C7
:107E100010BD000010B5044600F08AF8002805D017
:107E20002146BDE81040024803F02FB910BD000004
:107E30004029002070B515460E46044608F08AF920
:107E4000002809D0054800EB840080692A463146A5
:107E5000BDE8704001F00EBE70BD0000302900206A
:107E600070B50546002400F063F838B1294604488F
:107E700003F00BF908B1022400E00124204670BD94
:107E80003C29002070B50546002400F051F838B1B7
:107E90002946044803F0F9F808B1022400E001245F
:107EA000204670BD3829002010B51821034803F082
:107EB000C7F8182800D0C0B210BD0000302900203B
:107EC00070B505460C46084608F044F960B12846EE
:107ED00000F02EF840B10548294600EB8400BDE8CB
:107EE0007040183003F0D1B8002070BD3029002058
:107EF00070B5054614460E46084608F02BF90028D2
:107F000012D0284600F014F800280DD00748294662
:107F100000EB860018301CB1BDE8704003F0C0B81B
:107F2000BDE8704003F071B870BD0000302900203A
:107F3000142801D3002070470146014803F0A5B87A
:107F40003429002070B540B10C4D297839B1044670
:107F500006F0BCFE28B1002070BD0E2070BD0820C8
:107F600070BDE868062807D20549226801EB800148
:107F7000401C0A60E860EEE7042070BD3C2500204C
:107F8000A829002040B1054900220123CA600B70D6
:107F9000C1E90102104670470E2070473C250020C1
:107FA00070B504002DD000292BD02048007800287F
:107FB00027D020880D46112815D0302804D032282B
:107FC00007D033281ED109E0211D284605F0BEFB4D
:107FD00018E0211D284605F0E9F913E0211D284687
:107FE00005F0BEFA0EE0A088B5F8CA12884209D1A1
:107FF000002085F8C70285F8C8024FF6FF70A5F883
:10800000CA0270BD95F8C8020028FAD0208830282E
:10801000F7D34F28F5D8A088B5F8CA128842F0D116
:108020002846BDE8704001F08BB900003C250020D7
:1080300048B1084A137843B1D26832B190F8C722E8
:108040002AB1112070470E2070470820704701F0B8
:1080500077B900003C2500207CB5054608880C4611
:108060000930904201D90C207CBD68466DDF0028A4
:10807000FAD121880820685420881B21401C80B236
:10808000208029542088401C80B220802844DDF8BC
:1080900001100160BDF8051081802088801D80B22C
:1080A00020809DF80010490800D001212954208823
:1080B000401C208000207CBD38B502880446212A5F
:1080C00031D00EDC1F484FF00301102A008801EB6D
:1080D00000400ED0112A2FD1BDE838401AA104F07B
:1080E00031B83B2A29D0562A26D18088132176DF41
:1080F00013E019A104F026F8072000F01FFC08B1D6
:10810000FEF7DEFFA188174803F022F908B1FEF759
:10811000D7FFA1881448FFF78BFF00280CD0BDE8DB
:108120003840FEF7CDBF00200090A08869468FDF61
:10813000002801D0FEF7C4FF38BD8088132176DF08
:10814000EBE700002C270020446973636F6E6E65B7
:10815000637465642E000000436F6E6E6563746522
:10816000642E0000BC2700203C22002010B50B4CE0
:108170000188606810290ED011290ED1401E606060
:108180000BD1FEF7D6FD002807D02168002904D0C6
:10819000BDE810400847401C606010BD2C25002041
:1081A0002DE9F04701883B4E40F2F3194FF6FF7579
:1081B00010291BD011293ED0122954D0502946D164
:1081C000C188F289841D914241D1618902293ED141
:1081D0008688304602F0BEF9050038D004F10C0064
:1081E00000F03DFAA8B3294630464EE0C17B8788AF
:1081F000044601292BD1A846284602F0ABF9050018
:1082000017D02F8000202872234843464A46016831
:10821000C5F80A104068C5F80E0004F1100105F118
:108220000A0002F063FA6872F08900280FD129462B
:108230002AE0042013E0808802F08CF9040006D0C4
:108240006068FEF7C9FF08B106F0DEFF2580BDE8D3
:10825000F087FFE76868FEF7BFFF0028F7D0BDE8AA
:10826000F04706F0D1BF87880646384602F072F91B
:108270000400ECD02B464A4606F1080104F10A003E
:1082800002F034FA607221463846BDE8F04700F04B
:1082900035BE000014290020342500202DE9F04FC0
:1082A0000746858802883D48012197B08346102AF9
:1082B00009D0112A49D01A2A6CD1387AB1EB101F93
:1082C00045D2012244E0354C083CA068C0430B90E5
:1082D00061680BA802F0FDFE0B990CA800F0A8FD48
:1082E0002C220CA96846FEF7C1F80026E946A046F4
:1082F00010E000BF09EB46005FF00004B0F804A0F6
:1083000008EB84005146001D02F07FFE641C1D2C0A
:10831000F6D3761C0098B042ECD8142D05D317B0D4
:108320000420BDE8F04FFEF7CBBE2946584602F0C8
:10833000B7FE294608F1040002F0B2FEF87B0128DE
:1083400028D016482946001D15E029461AE00022CB
:108350000221B1EB101F01D2012600E000260F49D7
:10836000083901F11000041D294682B102F098FE7F
:1083700036B12946204617B0BDE8F04F02F090BE56
:108380002946204617B0BDE8F04F02F03EBE02F08D
:108390003CFEF5E717B0BDE8F08F0000382900205B
:1083A00010B504460748007800280AD0204601F09E
:1083B000FFFE204607F0B8F82046BDE8104001F067
:1083C00099BC10BD7425002018B10181C282002023
:1083D00070470E207047C8B10A68BAB1B1B104C085
:1083E000496842F6062202C04FF6FF7120F8081BCA
:1083F0000021C180012100F8021920F8022900F8AB
:10840000021941F602010180FFF79CBD0E20704762
:10841000C08A002800D0012070471FB500881128AD
:1084200011D14FF6FF7008810C460846FFF7F0FFA8
:10843000002808D002208DF80000226869462046F6
:1084400090470020E0821FBD7FB5002400940122E8
:108450000194029403948DF800204A88ADF802201C
:108460000A7801F10E0312BB8A88A2F5C055023DBD
:108470001DD18A79012A1AD1002215E002EBC2052A
:1084800033F81560A6F60626B6F5005F0BD103EBB0
:1084900045052E79760706D52E6801966E680296F8
:1084A0002D89ADF80C50521C0D7A9542E6D8BDF8D6
:1084B0000C1009B18DF800400268694690477FBDF5
:1084C00013B584B00446FFF7A3FFA0B12089E48A66
:1084D00000230122009305A90193ADF80240022474
:1084E000ADF8043002918DF80040ADF806206946E1
:1084F000A3DF06B010BD0520FBE738B504460868C9
:1085000088B1206001208DF8020041F60200ADF82C
:108510000000221D69460120A8DF002802D1204664
:10852000FEF76FFC38BD072038BDFEB50A4601884E
:108530000026102912D050291AD10546841DC08862
:10854000D1881746884213D16089012810D1A988A3
:1085500002AA3869FFF778F870B90AE000968188B6
:1085600010696A46FFF770F8002801D1009806707C
:10857000FEBD0299207B08708DF80060A888ADF8D8
:108580000200029801903A68694638469047FEBD5D
:108590001CB568B161B1002201230092ADF8003032
:1085A000ADF8022001914189408A6A46ADDF1CBDC9
:1085B0000E201CBD38B50D46040018D0BDB128688A
:1085C000B8B120606868606001208DF8020041F653
:1085D0000300ADF8000004F1080269460120A8DF9D
:1085E000002803D129462046FEF758FC38BD0E204E
:1085F00038BD072038BD38B50246002929D0002AE9
:1086000027D013880020102B0FD0112B11D0192B3D
:108610001FD10B46117A00291BD18DF800008DF86F
:108620000100694618461A6817E00B46918859827E
:10863000F3E70C46117A08290BD18DF8000020468B
:108640000DF10101FFF7A4FF20B16168002900D0FE
:10865000884738BD226869462046904738BD007873
:1086600000F0010070470A780270497841700220DA
:10867000704738B5044601208DF8020041F6040029
:108680000D46ADF80000224669460120A8DF00280B
:1086900003D12946204607F0F2FA38BD0288102A95
:1086A00001D18088488170470149085C704700000B
:1086B000C20603000649095C4FF0A040D0F810053F
:1086C000C84010F0010000D0012080F00100704788
:1086D000C20603007CB50546C0074FF000040AD06F
:1086E0000B4801220023007800941146019403F006
:1086F0007FFA00F041F8A80709D505480022401C80
:108700000323007800941146019403F071FA7CBDB4
:10871000C106030007490B5C4FF0A041D1F80425C6
:108720000120984020EA0203C1F808351040C1F842
:108730000C057047C10603000249085C012103F0E3
:10874000E8BA0000C10603000249085C002103F0FA
:10875000E0BA0000C10603000649095C4FF0A040E2
:10876000D0F80405C84010F0010000D0012080F0CE
:1087700001007047C10603000020FFF7DDBF0020A5
:10878000FFF7E2BF044B024600211B784FF0FF3099
:10879000934200D108467047C206030070B50C4EE4
:1087A0000C004FF0000530600BD0012000F05AF8AB
:1087B00008B1022004E0002000F054F800B10B20C2
:1087C0002070706810B9FEF7B4FA0546284670BDEF
:1087D0002C25002010B5002000F0D0F908B10628A3
:1087E00006D1012000F0CAF908B1062800D1002006
:1087F00010BD00002DE9F0410D468046FFF7C2FF95
:10880000002829D1164F15487C1C661FEDB1012D9B
:108810000BD0022D20D16578002D1DD0F1680029E4
:108820001AD02846BDE8F04108472578617849B15B
:108830000B4A4FF40041521E8068FEF789FC08B9CC
:1088400086F80380A0783870E6E78068FEF7C4FCFD
:108850003878A578A842DFD0BDE8F081C4060300CF
:108860002025002008B100207047FFF723BF00003B
:1088700010B5042815D00A280FD00E2819D00F28BB
:1088800016D11B480321008801EB004019A103F019
:1088900059FC112000F052F809E0BDE8104006F044
:1088A0002FBE17481321008976DF082800D098B919
:1088B00010BD144C20780028FAD0607880B10021D7
:1088C0000F48FFF7FDFD68B11328F1D043F20141D5
:1088D0008842EDD00528EBD0BDE81040FEF7F0BB94
:1088E0000221EDE7607880F00100607010BD0000AB
:1088F0002C270020416C657274204F66662E0000A4
:10890000902700202022002003004FF000000AD111
:10891000094B012A02D1012907D0002251B10129B6
:1089200004D0022904D0072070470E221A70704725
:108930005A7070479A70704721250020044A0146FA
:108940000020127AD20702D0084600F047B87047DC
:108950001C25002070B506461C480024C0E90261B1
:10896000B00724D500250BE005F10E00C2B2152A90
:1089700000D9012201212846FFF7C6FF04466D1CDD
:1089800055EA0400F0D094B940F266620121104823
:10899000FEF71CFB04000AD1FEF706FB040006D11B
:1089A0000B480C4A0021001FFEF796FB0446F00717
:1089B0000AD00120FFF78EFE34B90548064A00218F
:1089C0000C38FEF789FB0446204670BD1C250020AC
:1089D000D0060300498C0200B1A702002DE9F05F28
:1089E000644C054600266078B34618B184F801B09F
:1089F00001F0D4FE604F4FF001084FF47A694FF454
:108A0000C87A142D60D2DFE805F0AD0A0A2F3E4B7C
:108A10006065697269727B7E7E7E7E7EADB001206C
:108A2000FFF79AFE00284FF0010008D0FFF784FE00
:108A3000022D02D14FF4E16008E0484606E0FFF75E
:108A400083FE022D01D1C82000E05046410CC00336
:108A50004FF4FA72801841F1000125705200002392
:108A6000FDF7C0FC01462AE00120FFF775FE002853
:108A70004FF0010004D0FFF75FFE4FF44870E5E7C8
:108A8000FFF762FEDFE70120FFF766FE00284FF0E8
:108A9000010002D0FFF750FECFE7FFF755FED4E705
:108AA0000120FFF759FE00284FF0010002D0FFF728
:108AB00043FE01E0FFF748FE257041F69A110022BF
:108AC0003868FEF745FB064649E00120FFF722FE25
:108AD000257008E0012049E0257040E084F801801D
:108AE0000120FFF717FE002240F6CD41E8E784F8A9
:108AF00001800120FFF70EFE00224FF48041DFE7E6
:108B0000FFF73DFEE8E77868FEF766FB0646D5F11D
:108B1000110000D02EB10020FFF70EFE84F802B045
:108B20001DE0012816D980B2C8214843C117C903E6
:108B300041EA5041C0034FF4FA72801841F100013C
:108B400052000023FDF74EFC014600227868FEF734
:108B5000FFFA06460020FFF7F7FD84F80280304652
:108B6000BDE8F09F01F01AFEB6E70020FFF7ECFD2C
:108B7000B2E700001C250020C4060300012107F015
:108B800080BB00002DE9F8430546861C00208DF8C7
:108B9000000090460F464FF001096846FEF72CFB97
:108BA0001B4C20683860D4E90001401AA16804F227
:108BB0001C47081A0EE00121384602F084FA01F041
:108BC0008FFF0146384602F07EFAD4E90001401AD0
:108BD000A168081A401C8642EDD8B8F1000F03D0F6
:108BE000052065F3891002E0062065F39F50A26816
:108BF0002168114004EB8101C86020683044206086
:108C00009DF80000FEF71CFB4846BDE8F883000015
:108C1000D033002030B482680468531C8360A154B0
:108C2000D0E901128A4202D330BC02F08EBC30BCC3
:108C300070470000034803C8814201D101207047FA
:108C400000207047D033002000780221FFF7D2BD0A
:108C500005494FF0FF32082841F8202002D308448C
:108C600080F8482070470000302F0020F0B54FF00A
:108C7000FF3512B10023082601E008230C260C4C16
:108C800005E000BF54F823707F1C04D05B1CB34286
:108C9000F8D32846F0BD26185DB286F8305044F867
:108CA0002310002AF5D1E11881F84800F1E700000F
:108CB000302F00200249084490F93000704700002E
:108CC000302F002008B5024690F8C6020B4600EB94
:108CD0008001C1EB801002EB400092F8C52242B146
:108CE000521ED2B202EBC20100EB4102518A491C72
:108CF00000E0C188ADF800100089ADF802006946B7
:108D000018469DDF08BD70B504464FF6FF750A464C
:108D10002846AC4208D14FF480742146104605F035
:108D2000B7FBA04209D070BDFF2CFCD821461046ED
:108D300005F0A1FB08B1204670BD284670BD0000BB
:108D400070B5084C050009D010342168002907D0FF
:108D500008682060496828468847F6E70834F4E741
:108D600070BD00001C2F0020054A012120B1012800
:108D700005D19170FFF7E4BF51700020FAE770470A
:108D80001C2F00202DE9F05F26484168F1B3DFF881
:108D900098B00E688146DBF8004087688078E11B58
:108DA00021F07F45ED1CB0B9DFF880804FF48030B2
:108DB000C8F84403C8F804031120FDF78FFC112004
:108DC000FDF797FC4FF0010AC8F800A02F2003F030
:108DD00049FE89F802A0B54200D23546124BE81987
:108DE0003C3320F07F401860DBF800105A46091B26
:108DF00021F07F41001B20F07F40C91C81420FD928
:108E0000106818602F2003F02DFE00E004E0BDE89C
:108E1000F05F1120FDF778BCBDE8F05F05F07CBF86
:108E2000BDE8F09FE025002004150140001001403E
:108E300073B58CB00646002000900D9880B10024D8
:108E40006D4621460DA802F020F930B1009805EBDF
:108E5000400084800098401C0090641C142CF0D3C7
:108E60002C2269463046FDF701FB0EB070BD2DE99E
:108E7000F04117880646B81D14460D46984202D99F
:108E80000C20BDE8F0813188072206290AD34FF46F
:108E9000486C4FF6FF73614501D9994202D1708841
:108EA000062801D21046ECE7604501D99842F9D175
:108EB000994203D0984201D08142F3D80520E85569
:108EC00020881221401C80B2208029542088401C18
:108ED00080B220804119308807F082F82188084448
:108EE00080B220804119708807F07AF82188084400
:108EF00020800020C5E7FEF7E3B8000038B54A7AC5
:108F00000F4B62B100220A725969002906D0012272
:108F10008DF80020ADF802006846884738BD0A7A0F
:108F200062B19B684C68024619462046FEF710F96C
:108F30000028F3D0BDE8384006F066B95B68F1E779
:108F400014290020F0B585B016460F4604461D468C
:108F500014220B496846FDF789FA0A488DF8087013
:108F6000ADF80240ADF80A608DF80C50017800228F
:108F70002046FEF7BDFF684600F038FB05B0F0BDA7
:108F80004008030084250020F0B587B00746002084
:108F90000490ADF810100590ADF8121001900290F9
:108FA00001AA04A9384690DF060022D003F000FD94
:108FB000114C0346012520883A4605EB00400F4935
:108FC00003F0CBF8BDF8042012B9BDF8060038B1A3
:108FD0002088BDF8063005EB004009A103F0BDF87C
:108FE000BDF808202AB12088154905EB004003F0A0
:108FF000ADF807B03046F0BDF0260020F80B0300B6
:109000005468652072657175657374656420545881
:109010002F5258207061636B6574206C656E6774A5
:109020006820697320746F6F206C6F6E672062799F
:109030002025752F2575206F63746574732E0000CD
:10904000440C030001460148FFF7FEB990270020B9
:1090500030B5044685B000211B4805F00CFA002805
:109060002FD00025204600F0D2FF68B1112812D081
:1090700086281BD0A0F54051023903D00146204676
:1090800006F0CAF8294607E005B029462046BDE8A3
:10909000304001F003BD0121204601F0FFFC05B086
:1090A0000021BDE83040084805F019BA14220749EC
:1090B0006846FDF7DBF9ADF80240684600F072FA49
:1090C000E0E705B030BD00004D2500206807030033
:1090D0007FB50C4610B1012004B070BD2079002688
:1090E00038B141F61D5501281BD0022826D00F208B
:1090F000F2E70220207102960396E068019069462B
:1091000001A805F049FD50B102988188E1800088EE
:109110002081BDF80010029805F0BCFDDCE70A20B4
:10912000DAE70A4B6A460021A01D05F0F1FC38B1D0
:10913000064918398E61CE610A28CDD12846CBE781
:1091400002488188019805F0A5FDF5E7202600205A
:109150002DE9F843054690F8C6020F4600EB800162
:10916000C1EB801005EB400695F8C542914604EB33
:10917000C40006EB40013279601C0A31904226D1CE
:109180006B460022284601F0D3FA18B310E0401EC7
:10919000A04201D1002004E004EBC40006EB400033
:1091A0001C30804602466B46284601F0C1FA30B1B9
:1091B00000203870694648469EDFBDE8F88395F880
:1091C000C5024146401C641C85F8C502E4B23079F2
:1091D000A042DCD8012038700020EEE72DE9F047EE
:1091E0000025DFF88C803CE06068002100EBC506BC
:1091F000012032789146FDF726F9D4E9062300EAEA
:10920000020701EA030C57EA0C0728D082438B437C
:109210004846C4E9062303F0E7FC327882469146CB
:1092200001200021FDF70FF9D4E9042300EA02042C
:1092300001EA03074A4650460021FDF704F944407D
:109240004F403C430BD17078012801D0012100E050
:109250000021726881EA0A010AB1484690476D1CF4
:10926000EDB298F8000044468542BDD3BDE8F087D2
:10927000C02500202DE9F047894690F8C612904697
:1092800001EB8102C2EB811100EB4107384605F08A
:109290001DFD06002FD0194CA06806282BD2184DB2
:1092A000762205EBC0103946A0F80280001DFDF7BC
:1092B000DDF80027B9F1000F04D0A06805EBC0105D
:1092C000077004E0A168022005EBC1110870A068D6
:1092D00005EBC011401CCE67A060E16888420AD14E
:1092E000002604E005EBC610C16F8847761CE068D5
:1092F0008642F7D3A760BDE8F08700003C25002038
:10930000C029002070B50E4690F8C612154601EB34
:109310008102C2EB8111A0B000EB410005F0D6FC48
:10932000040009D07C2205496846FDF79FF8ADF896
:10933000025068460196A04720B070BDD8060300D1
:1093400070B50E4604464FF43371FDF7A8F8114886
:109350000025A4F8CA62856084F8C9520E4884F8D2
:10936000C65284F8C552006820602246012130466A
:109370009BDF0121112806D0002809D184F8C712EB
:1093800084F8C85203E084F8C71284F8C812002099
:1093900070BD00003C250020A829002010B5002148
:1093A000024801F0ABFE80F3100010BDEC37002046
:1093B0000E4910B50A784C780023A24212D0521CF4
:1093C000D2B20A70022A00D10B70084A0B780C3214
:1093D00052F8232002608868104420F07F408860A3
:1093E000012010BD0360002010BD0000E02500201A
:1093F00013460A460021FFF7A5BD00002DE9F843FA
:10940000104D0F4680461E4691466946286801F079
:10941000D0FD040014D01C21FDF741F8012020717B
:10942000C4F81490380BC4F80080C4E9026069469F
:10943000286801F0DFFD05F0FFFA0020BDE8F883A1
:109440000420FBE71009030010B503780022072B66
:1094500006D2DFE803F005040610202930000A7068
:1094600010BD01230B7003898B818388CB81C06879
:1094700088600A7410BD02220A7002898A8182887B
:10948000CA81C2688A60807D062802D000200874E4
:1094900010BD0120FBE703220A70C2888A8102897D
:1094A000CA81C068886010BD04230B70C0888881A1
:1094B000CA818A6010BD0520087010BD70B5064DC8
:1094C0000646002455F8241009B130468847641C2C
:1094D000042CF7D370BD00005031002030B5044695
:1094E000006887B00D46806800281FD018216846A4
:1094F000FCF7D5FF0195A0680590207910B10128EF
:1095000010D107E001208DF8000020690290E0688A
:10951000039005E002208DF80000E068000302904F
:1095200060690490206881686846884707B030BD4C
:1095300070B586B015460C00064619D0112C17D010
:10954000082C15D014216846FCF7A9FFADF802607D
:10955000304600F053FFADF804000D2C0AD0862CE5
:109560001CD007208DF800000294684600F04CF8EB
:1095700006B070BD03208DF8000025B12878C00723
:1095800001D0012000E002208DF8080000208DF8B5
:109590000C0041F20110ADF80A00E6E706208DF854
:1095A0000000E2E710B50446408800F027FFA080E5
:1095B000024801682046BDE81040084754250020B5
:1095C0002DE9F04107460024064E074D05E000BF97
:1095D00056F8241038468847641CE8788442F7DB44
:1095E000BDE8F081D02E00207425002010B504467F
:1095F000408800F003FFA080024801682046BDE8D3
:109600001040084714080300014909680847000092
:109610006808030070B586B0044614216846FCF75C
:109620003EFFA0890125A0F54040ADF80400207858
:109630002A4E062833D2DFE800F0320303032C4819
:10964000A08900F0BDF930B9E08943F6FE71A0F5BC
:109650004040884223D8A07B8DF80800207803285A
:109660000FD000208DF80900A0680390606850B109
:1096700009208DF8000060680490684604F060FBE3
:109680000DE00120EEE708208DF800008DF8105065
:10969000F3E7A08900F094F908B1E08930B170785F
:1096A000002801D004F07CFC06B070BD606820B1D9
:1096B0000B208DF800007570DFE70A208DF80000A0
:1096C000BDF8040004F0F6FCF5E713208DF8000067
:1096D0004FF6FF70ADF80400CFE7000064250020CE
:1096E00038B504460E480078A8B1A4F57F40FF388D
:1096F0000FD0684605F0D2F878B10521017001213C
:109700000171C480684605F0D7F805F087F900209C
:1097100038BD042038BD022038BD082038BD000007
:10972000282600200C4808B5007888B1684605F066
:10973000B5F878B106210170684605F0BDF8074814
:10974000017809B10121017305F068F9002008BD15
:10975000022008BD082008BD282600201432002061
:10976000F0B587B014216846FCF799FE2B4C2078A1
:1097700018B16846FFF7A2FE4EE0201D01F0A0FCE4
:10978000B8BB4FF0102041690004026940694B1CCE
:1097900001D100FB02F1224800220161A1F54051F4
:1097A000C160204902F060F8002820D11F481C2326
:1097B0008C221D49006801F0E9FB04F0B1F8051E98
:1097C00014D0022812D000270126062D12D005A899
:1097D00005F064F888B106700C2D18D2DFE805F0AA
:1097E000170F170F17161716171113110B2007B0A5
:1097F000F0BD11E026706760BBE70820F7E707714E
:1098000005E0032100E00221017100E0067105A8D6
:1098100005F052F805F002F90020E8E728260020BC
:10982000D8260020200903006031002088080300AA
:1098300038B5040014D0694605F0AEF9A0B1BDF802
:10984000000000EB8001094800EB8100C16849B1CC
:10985000A17A39B1C168491EC1600020A07238BD2B
:10986000052038BD062038BD0A2038BDEC31002067
:109870001FB501A9684605F04BF904B010BD07B546
:1098800013460A466946002005F042F90EBD07B5A9
:1098900013460A460021684605F03AF90EBD20B18C
:1098A00019B100680860002070470520704700006B
:1098B000F8B50D46040018D0BDB1694605F06CF945
:1098C000A8B1BDF800000B4900EB800001EB80005F
:1098D00001210C30666801F0F6FB2E6060680C30E8
:1098E00068600120A0720020F8BD0520F8BD0A20A4
:1098F000F8BD0000EC31002018B10323002206F06F
:10990000AFBD052070470223002206F0A9BD12B1A9
:10991000022306F0A5BD052070470000084910B5D8
:109920000A69042A0AD0074A096942F82100044852
:109930000121103001F0C7FB002010BD0C2010BD2C
:10994000082600205031002038B5044609480D464D
:10995000007858B164B16946284606F07BFE0028BD
:1099600003D1BDF800102180658038BD022038BDCC
:10997000052038BD2826002010B504460E48007882
:1099800098B1A4B12188022913D80C4A01EB8100B7
:1099900002EB800260885289C31C934209D806F00A
:1099A0004DFE00202080608010BD022010BD0520EB
:1099B00010BD042010BD000028260020EC3100203E
:1099C00043F6FE71A0F54040884201D8012070475F
:1099D0000020704710B504460078182802D1FEF721
:1099E00063FA207010BD10B504460078182802D123
:1099F000FEF75AFA207010BD70B50D460446B0F857
:109A00009810D0F894000122FDF703FF00B1057013
:109A100004F13C0204F1940104F1540072DF70BDC2
:109A200070B51346002206461546862902D0112934
:109A300002D002E0012200E001250D4C73B1A179B2
:109A4000FEF756FA2A4661793046FEF751FA0022AF
:109A5000A1783046FEF74CFA002203E0A178FEF729
:109A600047FA2A4661783046BDE87040FEF740BAB2
:109A70008C250020F7B517460E0011D00098002560
:109A800060B100242146684601F0FFFA18B1A0B287
:109A90003946B0476D1C641C142CF3D32846FEBD18
:109AA0000020FEBD406804F019BF00000EB516A1ED
:109AB0009DF8080020F00F00401C20F0F00010304E
:109AC0008DF808000B2202A87CDF08B1FDF7F8FA38
:109AD0004FF4107078DF08B1FDF7F2FA00204FF470
:109AE000C87100900190ADF80400ADF800104A0074
:109AF000ADF80220ADF8061068467ADF002801D0E4
:109B0000FDF7DEFA0EBD00004E6F726469635F50B0
:109B1000726F780070B508B1012070BD194C002536
:109B2000207B08B1257301E000F0A0F82078082818
:109B300026D2DFE800F02504080C10251420BDE82B
:109B4000704000F021B8BDE8704000F07DB8BDE87D
:109B5000704000F05FB8BDE8704000F03BB860882E
:109B6000084900EB8000283901EB80004068BDE81F
:109B7000704003F0B5BE6560BDE8704003F0BEBE46
:109B80000F2070BD143200201149F0B48A1C00204F
:109B90000346A1F128050C18A67A4EB1A37200EB7A
:109BA000800405EB8404E66816B9247C012C0AD0F5
:109BB000401C80B20228EED30B704B804B60F0BC8F
:109BC00041F61D5070471080F0BC00F03DB8000019
:109BD000143200200C48418801EB8102A0F12801D9
:109BE00001EB8201CA6852B10521017007480221C8
:109BF0008180016800230122054801F09FBD0422F5
:109C000002704968F6E70000143200203026002078
:109C1000D826002038B50A49084803240B68426852
:109C2000898803EB810153880470DB1C00201B042E
:109C300000909B0B034801F0F1FE38BD1432002068
:109C400030260020D8260020074910B54888091D75
:109C500004F0F2FF18B1BDE81040FFF7DBBFBDE82C
:109C60001040FFF7B7BF000014320020F0B51F48C6
:109C70001F490125067802248B88A0F12802082EAE
:109C800019D2DFE806F00418181B222F2F170189BC
:109C9000491C01810021418080F80C1001EB8103F7
:109CA00012F8233043B100234418491C89B2A3722F
:109CB0000229F3D30570F0BD0123F5E7426852880D
:109CC000D21C1A448A800470F0BD46880D6806EBE9
:109CD000860602EB860256680E60556013818C8002
:109CE000062100E007210170F0BD000014320020C1
:109CF0003026002030B501888488224D85B0502957
:109D000024D0522902D0542931D103E0204600F05A
:109D100091FE2CE014221C496846FCF7A7FBADF825
:109D20000240204600F06AFBADF8040000F022F982
:109D3000002269792046FEF7DBF8002229792046C7
:109D4000FEF7D6F86846FFF72DFC10E0017B0129ED
:109D50000DD1817A01290AD10089A0F52451023957
:109D600005D10121204600F099FE06F0A9F9002254
:109D70000649E878FEF75EF805B0BDE8304005F02A
:109D800093BA00004C250020900703008573020061
:109D900010B50446007800280FD1608800F04AFE14
:109DA000608800F081F9002807D00449608801220A
:109DB0000979BDE81040FEF79BB810BD4C25002086
:109DC00010B5124C00202070FEF76EF8A070FEF760
:109DD0006BF8E070FEF768F82071FEF765F86071C7
:109DE000A17818290FD0E17818290CD021791829E9
:109DF00009D0182807D00121601C04F035FB012090
:109E00002070002010BD032010BD00004C25002054
:109E10007CB50446007808282FD1607A38BB207AB8
:109E20004FF6FF7501280DD0072802D0082824D14D
:109E30001EE0A08800F020FAA8421ED0012100F008
:109E40002DFE1AE0A0886A46012103F091FE70B948
:109E50000198007858B1A08800F00EFAA8420CD002
:109E6000084901220979FEF743F805F01DFA04E0DC
:109E700004480021401C04F032FBBDE87C4006F0A1
:109E80001FB900004C25002010B504460A4841784F
:109E90002046FEF715F868B10848002101EB4102A1
:109EA00000EB82025288A24201D1C8B210BD491C07
:109EB0001429F3D3FF2010BD5E250020C02C002004
:109EC00070B5094D094E002404EB440005EB8000F9
:109ED00071784088FDF7F4FF20B1641C142CF3D393
:109EE000FF2070BDE0B270BDC02C00205E250020B8
:109EF0002DE9F0418046024601200021FCF7A3FA3B
:109F00001A4F05460E467868FDF766F900280CD111
:109F1000174CD4E9062110462A4001EA06031A43E9
:109F200005D0A843B143C4E90601BDE8F08140462D
:109F300002F05AFE30B1D4E9040128433143C4E9A8
:109F4000040105E0D4E90410A943B043C4E90410B6
:109F5000D4E9060128433143C4E90601A1687868C1
:109F6000BDE8F0410022FDF7F3B8000078080300D7
:109F7000C02500201CB5054AD2E90212CDE9001225
:109F80000022694603F019FE1CBD0000A80703006B
:109F900003484FF6FF718180012101700020704756
:109FA000582500202DE9FC41804600F027FA0024C6
:109FB00003250127A0F57F412646FF3908D06A46D0
:109FC000082103F0D5FD18B90198841D868805681D
:109FD00032462B4621464046B1DF042804D00828EB
:109FE00004D00B2808D002E0112000E00020002F50
:109FF00000D10B20BDE8FC810027A80701D5012571
:10A00000E6E73443F5D0002426460325E0E72DE9B2
:10A01000FC41804600F0F2F90646A0F57F40FF388B
:10A020000ED001252A466D1C0027ADB26B460821D3
:10A03000304603F0C7FD040006D0072C25D025E0EC
:10A0400043F20200BDE8FC81019903230A1D0B6065
:10A050004046891DB2DF040004D00C2C09D0052C29
:10A0600009D009E032460821104603F021FE0446DB
:10A070000CE0012700E000240821304603F004FE34
:10A0800000B10324002FCDD100E00C242046D9E7F5
:10A0900004488088A0F57F41FF3901D005F00EB952
:10A0A00070470000582500200EB502A9019100F06C
:10A0B000A5F96A46012103F05BFD08B100200EBD41
:10A0C000019800780EBD00002DE9F04107464FF6DB
:10A0D000FF760A48B3DF10B10320BDE8F081074CDA
:10A0E00043F20305A41E324661883846AFDFA8421A
:10A0F000F3D16088401C6080F5E700005A250020FD
:10A10000428800EB82020C328A4201D90220704759
:10A110008188A1F57F42FF3A03D0008808B1002072
:10A12000704701207047884204D20068401C01D06B
:10A1300001207047002070473EB5027802230C468C
:10A14000B3EB520F17D1B0F80110ADF80010C17881
:10A150008DF802108188ADF8041080798DF8060022
:10A1600002AA01A92046FCF723FE032202A96846A1
:10A17000FCF7A7F908B100203EBD01203EBD00005C
:10A1800010B50C46FFF780FEFF280CD0074900EB06
:10A19000400001EB8000416821600189A180807A44
:10A1A000A071002010BD052010BD0000C02C0020B3
:10A1B00070B5018890B0102959D1011D2C22684634
:10A1C000FCF754F99DF804004FF6FF76032134465E
:10A1D0006D46B1EB500F2AD003F020FE9DF804002D
:10A1E00040080ED001280CD0022820D118E00D998B
:10A1F000281D1131FCF778FD18B100BFBDF82C40C7
:10A2000015E00CAA0BA9072003F0DCFD0028EED115
:10A210000DE00D99281D491CFFF78EFF0028EDD198
:10A220000CAA0BA9072003F0CDFD0028F1D1BDF841
:10A230000000291D00F054FEB44218D0BDF8000003
:10A24000214600F0C5F8BDF80000ADF82E00002052
:10A25000ADF83040074E8DF82C000BAD044600BF22
:10A2600056F8241028468847641C022CF8D310B0F6
:10A2700070BD0000BC070300094A002101EB410347
:10A2800032F82330834205D101EB410002EB80001C
:10A2900040887047491C1429F0D34FF6FF7070476F
:10A2A000C02C00203EB50C46054603F0B7FD0BE080
:10A2B000BDF80000A04207D02846029900F02EF811
:10A2C00010B1BDF800003EBD01AA6946072003F0A9
:10A2D00079FD0028ECD14FF6FF703EBD10B50D4C56
:10A2E00018200D4A607000204FF6FF7100EB40030C
:10A2F00002EB8303401C59801428F7D3FDF7D4FDEB
:10A300006070182803D001202070002010BD0320A9
:10A3100010BD00005E250020C02C00202DE9F0417A
:10A320000C46054600F1110701F111061022491CE7
:10A33000401CFCF7C6F848B9681C00F01FFA28B1A9
:10A34000601C00F01BFA08B1012400E00024314633
:10A350003846FCF7C9FC3B780222B2EB530F0CD015
:10A360000321B1EB530F08D03378B2EB530F04D075
:10A37000B1EB530F01D0012100E00021084201D1CF
:10A380008C4302D00120BDE8F0810020FBE701886A
:10A3900011B9421892780AB101207047491C082966
:10A3A000F7D30020704710B50C460346FFF7EFFFC8
:10A3B00000280AD018882188884205D10822A11CCB
:10A3C000981CFCF77EF808B1002010BD012010BDDC
:10A3D00003F0C4BE70B50446FFF74EFF05462046A5
:10A3E00003F0C9FB4FF6FF7104468D4203D014B948
:10A3F000284603F0B3FE204670BD000010B5FFF7FD
:10A4000043FDFF2805D0044900EB400031F820004F
:10A4100010BD4FF6FF7010BDC02C00203EB50446A5
:10A4200003F0FCFC0EE0019920464631FFF7BBFF2C
:10A4300028B9019920462A31FFF7B5FF10B1BDF8C0
:10A4400008003EBD6A4602A9072003F0BBFC0028B5
:10A45000E9D14FF6FF703EBD10B50A4941600A4888
:10A4600000F02EFE58B902F02DFA07491C238C2269
:10A47000087404488C39001F006800F087FD002034
:10A4800010BD000014090300B03200202DE9F04196
:10A490002D4F002518B17D600120BDE8F0810879BD
:10A4A000012258B1294E01280CD0274C4FF0020848
:10A4B0000834022821D0032842D128E00A7103F091
:10A4C0001DFA3BE05FF0000000EB800116F8211060
:10A4D000022908D0401C80B20228F5D33A707D6072
:10A4E00041F61D50D9E700EB800006F8205006EB3E
:10A4F0008000406803F0F4F920E00D71A4F80480B6
:10A50000002301221248216801F018F916E00D71AC
:10A51000206803F0E5F90D4923682831498801EBEB
:10A52000810206EB8201D1F804C0C4F800C04B6080
:10A53000A3880B81A4F8048006F822500028ACD030
:10A540007D600E20A9E7000028260020EC310020C5
:10A55000D82600200146034802888A4200D0002005
:10A5600070470000002900202DE9FC5F0E008346A3
:10A57000DDE90C47C6F1000098469246814600D4BA
:10A580000846012503E000BF90FBFAF06D1C504522
:10A59000FADAA84500D9454624B1002E01DB780738
:10A5A00000D5641EB80702D5B8F1000F0AD0F8072D
:10A5B00008D13CB1A54205D220215846641EFEF7C1
:10A5C00029FBF6E7002E02DA4E462D2102E078073D
:10A5D00003D52B215846FEF71DFB07F00300022888
:10A5E0000BD1B8F1000F08D13CB1A54205D2302102
:10A5F0005846641EFEF70EFBF6E7CDE900474346DA
:10A6000052463146584605F001FDBDE8FC9F00006A
:10A6100070B50D46044600684FF4887102F0E8F901
:10A620004FF49071206802F0E3F94FF492712068C2
:10A6300002F0DEF94FF4A271206802F0D9F9206827
:10A640001249C0F8041320686907000B40B2090ED4
:10A65000002806DA00F00F0000F1E02080F8141D59
:10A6600003E000F1E02080F8001420680121000BD5
:10A6700040B200F01F0291404009800000F1E0204C
:10A68000C0F88012C0F8001170BD00001003020075
:10A69000024600201268930702D0530702D4704785
:10A6A000500714D502F00300012802D002280CD173
:10A6B00005E0C2F383100B68801C184404E00223F9
:10A6C000086803EB92521044086001207047086844
:10A6D00000EB9253C2F38910401CEEE70248007A67
:10A6E000002800D001207047B0320020F0B58488E7
:10A6F000A518944200D82246A41AC288D6189A42B5
:10A7000000D81346D21A4B880788BB420CD3408826
:10A71000834209D88888A04206D3A84204D8C888B2
:10A72000904201D3B04201D90020F0BD0120F0BD1C
:10A7300010B509892AB1D088491C814218D100205E
:10A7400010BD90F8C62202EB8204C4EB821200EB2B
:10A75000420212899142F2D0491C198090F8C61227
:10A7600001EB8102C2EB811100EB4100008902E0A4
:10A770001980D088401E5880012010BD0021425C05
:10A780000AB101207047491C1029F8D300207047F6
:10A79000800701D00020704701207047034880786F
:10A7A000002801D1FDF7E8BF704700001C250020FC
:10A7B0001220FEF7C3B817210180418000210171EA
:10A7C00041711B218171C171704700002DE9FE4F5D
:10A7D0002B4D984691460F00824601D000260DE091
:10A7E000684600F0A9FB6A460021504603F02FF9A5
:10A7F0002878009E10B99DF8090098B14A46314664
:10A80000504604F0EDFF0446014600225046FFF793
:10A8100007F90D2C32D008DC84B3082C2ED00B2C79
:10A820000BD12BE00520BDE8FE8F112C10D0862C1B
:10A830001AD0A4F54050023820D00325B8F1000FFB
:10A8400004D0324621465046FEF772FE2846EAE71B
:10A850003A4629795046FDF74BFB4A46E97850467F
:10A86000FDF746FB0025E9E73A4629795046FDF712
:10A870003FFB4A46E9785046FDF73AFB2546DDE7BF
:10A880008C2500202DE9F041204F0E461546044648
:10A890003978FDF715FB002835D0204603F0CEF8B7
:10A8A00050B32046FFF7AAFD80462046B978FDF751
:10A8B00007FB08B1012700E00227204603F066FBF2
:10A8C0000028404602D0FFF785FD0DE0A8F57F4146
:10A8D000FF3909D0072103F0D7F9010004D0052979
:10A8E00002D0204604F0ACFC2B46324639462046C6
:10A8F000BDE8F041FEF726BB2A4631462046BDE8BA
:10A90000F041FEF775BDBDE8F08100008425002010
:10A9100070B5094D0646E978FDF7D2FA0446297963
:10A920003046FDF7CDFA014622463046BDE870407C
:10A930000123FFF74BBF00008C2500202DE9F047D5
:10A94000394E002780463D46DFF8E090D6F804A057
:10A9500057E003D00446D0F81C8035E099F8002079
:10A9600002EB4201521CD2B289F8002009EBC1016E
:10A9700099F80230091D9A4201D189F800504868BF
:10A980000A780446012A12D0022A02D0032A3BD1B7
:10A9900008E005F0C9F800B10127257434E005741A
:10A9A000C06900E070680028F9D170602CE0207C5C
:10A9B00050BB88686060C868A0600869E06048694A
:10A9C000A061F07800B165606268B168184B501AF8
:10A9D00020F07F40984202D2A168084406E0881A1D
:10A9E000A16820F07F40814202D9081A206000E06F
:10A9F000256065600120A56020742046E56105F0B2
:10AA000075F8B8F10000A4D199F8001099F8010088
:10AA10008142A3D117B97168514502D00120BDE828
:10AA2000F0870020FBE70000E02500202C3000200C
:10AA3000FFFF7F0030B585B005460024142168462D
:10AA4000FBF72DFDA5F57F40ADF80250FF3815D07E
:10AA50002846FFF7A7FA98B10B2815D0112811D076
:10AA6000A0F54051023903D00146284604F0D4FB3A
:10AA700009482246C1782846FDF73AFA05B030BDAC
:10AA80000E2002E00124F3E70F208DF80000684655
:10AA9000FEF788FDECE700004C2500200A4602493D
:10AAA0008978FDF725BA00004C250020F8B5054649
:10AAB00000780C46002620420FD100208DF80000BF
:10AAC0006846FCF799FB2878204202D12043287081
:10AAD00001269DF80000FCF7B3FB3046F8BD0000EE
:10AAE0002DE9FF410026234800F0E7FA2148001F26
:10AAF000074600F0E2FA204C60680090A56800E08C
:10AB000000986946284004EB80000C30FFF7C0FD38
:10AB10000028F5D101AA009901EA050304EB83039B
:10AB2000491CDB6842F82030401C00910228F2D317
:10AB3000019800F0030001280BD0022810D10198E1
:10AB4000032101EB90500099BDF80A6001EB9000E1
:10AB500005E00198BDF80A60C0F383100844009036
:10AB6000384600F0A7FA08B10098606004B030469B
:10AB7000BDE8F081E8370020D0330020ACB04FF4BE
:10AB80000041002001F050FB08B1FCF799FA01F0F8
:10AB9000BBF9FCF7B3FA08B1FCF792FA564A012167
:10ABA0005648FCF799FA08B1FCF78AFA5449032091
:10ABB000FDF7D0FE08B1FCF783FA69460020FDF7E7
:10ABC000EDFD08B1FCF77CFA9DF80000022877D073
:10ABD0005FF0000601F046FC08B1FCF771FA01F0E5
:10ABE00017FE08B1FCF76CFA0024694601200094B6
:10ABF00001F09EFC08B1FCF763FA684601F01AFD0B
:10AC000008B1FCF75DFAFCF743F8FEF74FFF0021AF
:10AC10003C4800F0E8FA08B1FCF752FAAC2168466B
:10AC2000FBF73DFC02208DF8000001258DF8025055
:10AC300005208DF803000420ADF81000324805907F
:10AC40002820229044F2506023908DF87C502F48A9
:10AC500029902C4869462030FCF70AFE08B1FCF721
:10AC60002FFA284801212030FCF7FFFD2848FDF786
:10AC700089F908B1FCF724FA04F0CEFB1C216846E0
:10AC8000FBF70DFC4FF42030CDE900404FF470206D
:10AC9000032702908DF80C701E48ADF80E408DF819
:10ACA0001050CDE905406846FDF770F808B1FCF793
:10ACB00007FA03F061FA1848008807EB004000E04B
:10ACC00017E016A101F03EFA3046FCF74DF80D48AA
:10ACD0006FF00702203090F85410012077DF08B1A0
:10ACE000FCF7EEF901F01EF90028FBD101F0CEFBD4
:10ACF000F8E701266EE700002B760200B00603009D
:10AD000071880200A8270020082500202DD302000A
:10AD100045900200F78E02002C27002050726F78B9
:10AD2000696D697479206578616D706C65207374E4
:10AD300061727465642E000070B5144682880E46F8
:10AD400005462088111D0144921C994201D8FE2A13
:10AD500001D90C2070BD521C32542088FF21401CA8
:10AD600080B2208031542088401C80B2208081191C
:10AD7000288805F035F92188084480B22080AA8807
:10AD800042B1A96841B13044FBF770FB2088A98823
:10AD900008442080002070BD072070BD2DE9F047D9
:10ADA000C7880446181D16468946B0FBF7F1B0FB6C
:10ADB000F7F207FB12009A193A44D21CB2FBF7F2E1
:10ADC000DDF820A001E02468491E0029FBD13D1ACE
:10ADD0008846B54216D818E0BAF1000F05D0211800
:10ADE00009EB08002A46091D04E0204409EB08018C
:10ADF0002A46001DFBF73AFB00202468761BA84476
:10AE0000B74201D9354600E03D46002EE4D1BDE809
:10AE1000F087000030B5024659B101F031FA002147
:10AE2000074C09E004EB810315685B88AB4202D153
:10AE30001160002030BD491C8142F3D3052030BD94
:10AE4000EC260020F8B50F46017814460546012986
:10AE500001D1687830B12088821C9A422DD801290E
:10AE600002D006E00720F8BD69780144891C9942A8
:10AE700023D8181A801E86B2ADF800602188B81C4D
:10AE8000084469467DDF0028EDD12878022805D1E5
:10AE9000BDF80010B14201D809210AE008210128BB
:10AEA00005D16878B04202D8ADF8000001E0ADF8F5
:10AEB0000060BDF80000FE2801D90C20F8BD2288F2
:10AEC000401CB8542088401C80B22080395420880F
:10AED000401C2080BDF80010084420800020F8BDF0
:10AEE00070B505460C004FF0FF0020D04FF6FF76FE
:10AEF000B5421CD00E48012241782846FCF7F8FFE5
:10AF00002846FEF7C1FFFF2803D1FEF7D9FFFF282F
:10AF10000DD0084B00EB400203EB82014D8023F87B
:10AF2000226022684A60A2880A81A2798A7270BD72
:10AF30005E250020C02C0020034A00219268C0E951
:10AF400000218160704700008C25002070B54FF60D
:10AF5000FF750E46A84201D1002000E0401C84B2DB
:10AF600008E02146304603F0AEFA08B1204670BD35
:10AF7000641CA4B2FF2CF4D9284670BD10B5FBF7B1
:10AF800094F908B1002010BD112010BD10B531B1E9
:10AF9000B2FBF3F403FB14241CB1092010BD0E20F6
:10AFA00010BD01600021416081608281C38108463B
:10AFB00010BD70B50C460546FBF72CF9002802D0F1
:10AFC00021882868084470BD10B50A8849888A42DB
:10AFD00003D1FBF761F9012010BD002010BD70B551
:10AFE0000C460546FBF73BF9002802D0618828682B
:10AFF000084470BD10B50A8849888A4203D1FBF71E
:10B0000025F9012010BD002010BD01F01F03012211
:10B010009A40D243490900EB8100114600F059B82B
:10B020000A4601F01F030121994010B552090C4650
:10B0300000EB820000F05DF8204000D0012010BD40
:10B040002DE9F04180460D460024481E012101EB08
:10B05000501716E058F82400C04390FAA0F0B0FA58
:10B0600080F020280CD200EB4416AE4208D23146C4
:10B070004046FFF7D5FF0028ECD13046BDE8F0810F
:10B08000641CA742E6D82846F8E74A0950F822008F
:10B0900001F01F0201219140084000D001207047BB
:10B0A00001F01F0301229A40490900EB810011467B
:10B0B00000F029B8002100F017B8012100F023B8F2
:10B0C000012100F016B808B56A46FBF73AF9009876
:10B0D00008BD08B56A46FBF71AF9009808BD08B51F
:10B0E0006A46FBF72EF908BD08B56A46FBF70FF96B
:10B0F00008BD08B56A46FBF7FDF808BD08B56A4605
:10B10000FBF7ECF808BD08B56A46FBF7F3F80098C2
:10B1100008BD08B56A46FBF721F9009808BD38B5A7
:10B12000044600258DF800506846FCF765F8216854
:10B130006268086890420ED9401E08600178A38AB0
:10B14000E26801FB0325227A2168101AC0B20A794D
:10B15000824200D208719DF80000FCF771F8284681
:10B1600038BD38B5054600208DF800000C4668460D
:10B17000FCF742F8E868A98A201AB0FBF1F12A68C6
:10B180001068431C136001709DF80000FCF758F82C
:10B1900038BD10B530B1017A42680368891AC9B266
:10B1A0001A6006E00E2010BD03681A68541C1C606B
:10B1B0001170491EC9B2F7D200680021017108461A
:10B1C00010BDC20800F007030120895C98400840C8
:10B1D000704710B5C20800F00703885C01249C404A
:10B1E0002043885410BD10B560B10161172120F8CB
:10B1F000021B20F8021B1B2100F8021BFFF7DBFAE1
:10B20000002010BD0E2010BDF0B5858893B00C460F
:10B21000002D39D1018800263E4F24293BD006DC81
:10B22000102909D011290CD0232958D14FE03A29EF
:10B230000BD0552953D129E00146204602F040F9B0
:10B240004DE0A01DFFF7B7FA49E02246408934F8E7
:10B25000061F814200D808466080172800D21720B8
:10B260006080106970B1607960B1D7E90001CDE903
:10B270000301ADF80E506088ADF81000136903A902
:10B28000104698476671267113B0F0BD01462046FE
:10B2900002F0DEF923E0011D2C2206A8FBF7E6F8F8
:10B2A000BDF81800BDF81C2004EBC0014A732269E8
:10B2B000AAB1D7E90423CDE90423ADF81200487BF5
:10B2C0008DF814002269204604A9904707E0017A0E
:10B2D000207B884200D201462846FDF755FEA07A21
:10B2E0000028D1D0E1882846A5DF012570B11128BA
:10B2F000CAD001F05DFB0246074808A1008813B0E0
:10B3000005EB0040BDE8F04000F020BFA672E572FA
:10B31000BAE70000C4070300F026002073645F62F0
:10B320006C655F67617474635F65786368616E679D
:10B33000655F6D74755F726571756573742829201A
:10B3400072657475726E65642025732E00000000AE
:10B3500020B10278DE2A03D0082070470E20704703
:10B3600041800020704760B159B10278DE2A0AD0CE
:10B3700009684160DE2101704FF6FF7141800020B5
:10B3800070470E207047082070477FB5054600299A
:10B390004DD0002D4BD008780C46DE2847D1A88828
:10B3A0006188884202D1204604F0DAFE288801280C
:10B3B00025D002283BD011283AD0512837D135F872
:10B3C000040F6188884232D1A978A81C02292ED1A5
:10B3D000017A042903D0062901D0052927D10021AB
:10B3E000009102228DF8002001914FF4C072029169
:10B3F0000391ADF80420007A05280FD010E0297AD7
:10B400002046012913D1A988428891420FD10121F8
:10B41000017204B0BDE8704004F0A2BEADF80410A3
:10B4200028886946B0DF002801D0616888477FBD61
:10B43000A88861888842FAD14FF6FF7060807FBD8E
:10B4400000F180400068002800D00120704708B556
:10B4500000F18040002101600068009008BD0000FC
:10B4600070B50B4C207808B185250FE00020A06056
:10B4700060602061E060074801F0D6FA054601F0FF
:10B4800021FA08B901F0BAFA01202070284670BDEF
:10B490001C2F0020698D020038B500258DF8005062
:10B4A0006846FBF7A9FE074CE068401EE060E068D4
:10B4B00010B901F0C9FAA5709DF80000FBF7C0FEB5
:10B4C00038BD00001C2F0020F0B505460478154853
:10B4D00089B0164640F82420124A0869121DA2F1CC
:10B4E000080742F82400487F385520226846FAF7BA
:10B4F000BDFF04942878385C48B10EB10A4A00E0D8
:10B5000000226946281D01F02DFE09B0F0BD0EB1E4
:10B51000064A00E00022694605F10C0001F0F4FC47
:10B52000F3E70000A8250020BDFE020009FD02008F
:10B530000FB408B50399002904D004AA00926A4602
:10B5400000F00FF801B05DF814FB10B582680446F6
:10B55000002A05D0D4E90403216898470020A060A0
:10B5600010BD2DE9FC4791460C00804676D014F8BA
:10B57000011B39B125290ED04046FDF74BFB207841
:10B580000028F4D198F80C00002867D04046BDE8A8
:10B59000FC47FFF7DABF0020012221782B291BD0BE
:10B5A0002D2902D0302908D102E040F0010001E04D
:10B5B00040F00200641C002AEFD100252A290ED099
:10B5C0002178A1F130020A2A11D205EB850201EBA4
:10B5D0004205641C303DF1E740F00400EAE7D9F889
:10B5E00000100B1DC9F800300968641C0D44217857
:10B5F00000232E290BD114F8011FA1F130020A2AD1
:10B6000005D203EB830201EB4203303BF3E76C29E5
:10B610000DD068290BD0692921D00BDC252918D041
:10B62000582931D063290ED0642915D117E014F8B8
:10B63000011FECE7702969D0732932D075291BD01E
:10B64000782909D120E0D9F80000011DC9F80010BF
:10B6500001784046FDF7DEFA641C90E76CE0D9F80B
:10B6600000100A1DC9F800200968CDE900500A221F
:10B670004046FEF779FFEFE7D9F800100A1DC9F838
:10B68000002009680A2206E0D9F800100A1DC9F84E
:10B69000002009681022CDE90050404604F0B6FCB5
:10B6A000DAE7D9F8001000270A1DC9F800200E6853
:10B6B000C00705D112E04046761C7F1CFDF7AAFAB0
:10B6C00031780029F7D104E0202140466D1EFDF7B6
:10B6D000A1FABD42C0D9002DF6D1BDE74EB130462A
:10B6E000FAF7E8FE074604E0202140466D1EFDF70C
:10B6F00091FABD4206D9002DF6D103E04046761CF2
:10B70000FDF788FA31780029F8D1A5E7D9F80000CB
:10B71000011DC9F80010056830214046FDF77AFA8E
:10B7200078214046FDF776FA08200021CDE9000196
:10B73000034610222946B0E7BDE8FC872DE9F84F03
:10B740002B4E04009A4630884FF001031546894677
:10B7500003EB004024D0216800292BD0002D32D0EB
:10B76000626849464FF010071268A2F1010C1CEA0A
:10B77000090F11D198466A432046FBF7CEFA0028FC
:10B780002AD0206853462A46066901B04946204619
:10B79000B446BDE8F04F6047164B17A2009721E072
:10B7A0000E210091134B1EA21FA100F0DEFC0E2003
:10B7B000BDE8F88F082100910E4B26A21AA100F0D7
:10B7C000D4FC0820F4E7092100910A4B24A216A119
:10B7D00000F0CBFC0920EBE700973188054B214AAC
:10B7E00008EB014010A100F0C0FC1020E0E70000D1
:10B7F0001C270020FB080300616464725F69735FAB
:10B80000706167655F616C69676E656428705F660B
:10B81000732C20706167655F6164647229000000A9
:10B82000705F667300000000257320636865636BBA
:10B83000206661696C656420696E20257328292063
:10B84000776974682076616C756520307825782E6C
:10B8500000000000705F66732D3E705F61706900CC
:10B860006C656E009C0C030038B503000F484FF068
:10B8700001054FF00E04008805EB004009D061B1CE
:10B8800019600C6801B0A446BDE830401146184666
:10B890006047074B07A2009402E0054B07A2009403
:10B8A00008A100F062FC0E2038BD00001C2700201B
:10B8B000B0080300705F667300000000705F617085
:10B8C00069000000257320636865636B2066616909
:10B8D0006C656420696E2025732829207769746857
:10B8E0002076616C756520307825782E0000000088
:10B8F0002DE9F04128B1016819B1C969BDE8F041ED
:10B9000008470D4D0D480024461B14270DE000BFCD
:10B9100004EB840005EB8000016829B1C969884700
:10B9200010B10120BDE8F081641CB6FBF7F0A04225
:10B93000EED80020F6E70000D8260020EC260020F4
:10B94000044801214174007A08B1002070470120A9
:10B9500070470000B0320020012801D0032808D130
:10B960000449002201284A7400D00020087403F022
:10B9700005B87047B032002070B50246022801D0E9
:10B98000032A45D1234C207A002841D0012833D006
:10B99000022831D120480023022A006802D0032A5D
:10B9A0002AD11BE0E360017911B1012924D10DE016
:10B9B000D0E90565711B4FF48056B14200D3314682
:10B9C000294481614569A9420ED015E00169491CED
:10B9D0000161426991420FD1237213E0E168491C71
:10B9E000E160082908D9E3602372022A0AD00D21F8
:10B9F000FDF774FD02F068FF607C28B1BDE870407F
:10BA000000F066BF0021F3E7BDE8704002F0B6BF6A
:10BA100070BD0000B03200204C2600202DE9F84F08
:10BA20003A4D04008B4628884FF00106DDF828A027
:10BA3000984691464FF00E0106EB00401AD0B9F13E
:10BA4000000F1BD02168002920D00921B8F1000F78
:10BA500025D062685368B8FBF3F703FB1782002A0E
:10BA600021D02B4B2BA2009135A100F07EFB0920A9
:10BA7000BDE8F88F264B3DA2009102E0244B3DA289
:10BA800000912FA100F071FB0E20F1E70821009139
:10BA90001F4B3AA22AA100F068FB0820E8E71C4BE4
:10BAA00039A20091E0E75846FBF731F9102798B129
:10BAB0004846FBF72CF9B0B1424659462046FBF701
:10BAC0002CF9B8B1CDF800A0206843464A46C568B5
:10BAD00059462046A847CBE7009728880C4B06EB31
