:020000040000FA
:10000000B0220020150200001D0200001F020000A7
:100010002102000023020000250200000000000071
:1000200000000000000000000000000027020000A7
:1000300029020000000000002B0200002D02000039
:100040002F0200002F0200009D0500002F0200007B
:100050002F0200002F0200002F0200002F020000DC
:100060002F0200002F0200002F0200002F020000CC
:100070002F0200002F0200002F0200002F020000BC
:100080002F0200002F0200002F0200002F020000AC
:100090002F0200002F0200002F0200002F0200009C
:1000A0002F0200002F0200002F0200002F0200008C
:1000B0002F0200002F0200000000000000000000DE
:1000C0002F0200002F0200002F0200002F0200006C
:1000D0002F0200002F0200002F020000000000008D
:1000E0000000000000000000000000000000000010
:1000F0000000000000000000000000000000000000
:1001000000000000000000000000000000000000EF
:1001100000000000000000000000000000000000DF
:1001200000000000000000000000000000000000CF
:1001300000000000000000000000000000000000BF
:1001400000000000000000000000000000000000AF
:10015000000000000000000000000000000000009F
:10016000000000000000000000000000000000008F
:10017000000000000000000000000000000000007F
:10018000000000000000000000000000000000006F
:10019000000000000000000000000000000000005F
:1001A000000000000000000000000000000000004F
:1001B000000000000000000000000000000000003F
:1001C000000000000000000000000000000000002F
:1001D000000000000000000000000000000000001F
:1001E000000000000000000000000000000000000F
:1001F00000000000000000000000000000000000FF
:10020000DFF80CD000F02AF800480047D10A0000BF
:10021000B02200200648804706480047FEE7FEE778
:10022000FEE7FEE7FEE7FEE7FEE7FEE7FEE7FEE7A6
:10023000810200000102000040EA01039B0703D095
:1002400009E008C9121F08C0042AFAD203E011F815
:10025000013B00F8013B521EF9D27047064C074D96
:1002600006E0E06840F0010394E807009847103486
:10027000AC42F6D3FFF7C8FF0416000024160000B6
:10028000F0B5B5480023021D0178101D01254FF07F
:10029000805406290BD11678360708D10678C6F3A4
:1002A0000316032E06D0042E04D0052E02D00629F4
:1002B00007D00EE0B4F82463A84FC6F304263E60CE
:1002C00002E01678360704D10678C6F30316032E2B
:1002D00002D0062904D00FE0A24FA14E7E670EE0A7
:1002E0001678360708D10678C6F30316032E06D013
:1002F000042E04D0052E02D0062907D00EE0D4F833
:100300004462994FC6F342363E6002E016783607E3
:1003100004D10678C6F30316032E02D0062906D0B0
:1003200011E0924E376827F0807737600EE016783C
:10033000360708D10678C6F30316032E06D0042E1E
:1003400004D0052E02D006290AD011E04FF08046D5
:10035000C6F80C31C6F81031834E361F336002E008
:100360001678360704D10678C6F30316032E02D09A
:10037000062905D00CE07C4F032664373E600AE076
:100380001678360704D10678C6F30316032E02D07A
:1003900006290DD014E0764F05263E60744E78365F
:1003A0003560734E083633603F263F1D3E6002E0E5
:1003B0001678360704D10678C6F30316052E02D048
:1003C000062957D062E06B4E36686B4F3E60694E2F
:1003D000361D36683F1D3E60664E083636683F1D46
:1003E0003E60644E0C3636683F1D3E60614E1036EE
:1003F00036683F1D3E605F4E143636683F1D3E60D6
:100400005C4E183636685C4F20373E60594E1C36BD
:1004100036683F1D3E60574E203636683F1D3E60B1
:10042000544E243636683F1D3E60524E283636689C
:100430003F1D3E604F4E2C3636683F1D3E604D4E90
:10044000303636684C4F40373E604A4E3436366858
:100450003F1D3E60474E383636683F1D3E60454E74
:100460003C3636683F1D3E60424E403636683F1D82
:100470003E6002E01678360708D10678C6F3031608
:10048000032E06D0042E04D0052E02D0062907D054
:1004900019E0D4F85812394A01F04F01116002E016
:1004A000117809070FD10078C0F30310032803D097
:1004B000042801D0052806D131480168C90702D0B7
:1004C0006FF001010160D4F83001062808D1D4F89A
:1004D0003401062804D12B48016841F48061016091
:1004E00022487438016841F470010160BFF34F8FF6
:1004F000BFF36F8F4FF01021D1F80002002803DB0B
:10050000D1F80402002822DA1F4A15601F48046847
:10051000002CFCD01524C1F800420568002DFCD049
:10052000C1F8044201680029FCD013600168002969
:10053000FCD0BFF34F8F0D48F0380168144A01F426
:10054000E06111430160BFF34F8F00BFFDE7124927
:1005500010480860F0BD0000E00F00F04035014099
:100560000DF0ADBA00C007403C050040FCED00E0D6
:10057000105600400404001020C50040E40E004066
:10058000000400403C17004004E5014000E4014045
:100590000400FA050090D003000000200148006824
:1005A0000047000010000020014A024900F013B883
:1005B000950900003800002002E008C8121F08C199
:1005C000002AFAD170477047002001E001C1121FD4
:1005D000002AFBD170472DE9F04116460F4604462C
:1005E000002503E03946B047641C6D1C20780028C4
:1005F000F8D12846BDE8F08172B609480068C00706
:1006000000D000BEBFF34F8F0548E4380168054AAB
:1006100001F4E06111430160BFF34F8F00BFFDE7BC
:10062000F0ED00E00400FA050EB500210091CDE9DF
:1006300001106A4644F20100FFF7DEFF0EBD10B55F
:100640008268C368934203D000F091F9002010BD86
:10065000052010BD29B112B1531E134203D0092049
:1006600070470E2070470160838000218160C16067
:100670000846704710B58268C3689A1A83889A4200
:1006800003D800F07EF9002010BD042010BD00004A
:1006900070B50A4E01460A48B578FFF7D0FF044608
:1006A0004DB10020B070711C0122C81D00F092FAFB
:1006B00008B1FFF7B9FF204670BD00001800002008
:1006C0008C020020F0B5244E89B01F460D00044670
:1006D00072603FD0A888296882B22048FFF7BAFF2D
:1006E000002835D1A889A96882B21C481030FFF7CC
:1006F000B1FF00282CD1202219496846FFF79CFD44
:1007000060690690207C00B101208DF814008DF8FE
:100710001C70607C00B10E208DF81500E06802901E
:10072000A068039020680190606800900A480D4A14
:100730006946083000F01AFA002809D1B070206824
:10074000401C05D004490122491CC81D00F042FA92
:1007500009B0F0BD0720FBE7180000208C02002044
:10076000E4150000A112000010B501461048FFF783
:1007700081FF040019D10F480F4A0178515C19B16B
:10078000001D00F00DFD02E00C3000F0F1FB60B93F
:10079000084907480839FFF752FF30B905490122D7
:1007A0000839044800F026FA0446204610BD00002F
:1007B0009C020020200000200400002000F002B86D
:1007C00000F008B872B602480168491C0160704721
:1007D0003400002003490868401E086000D162B65A
:1007E00070470000340000202DE9F04106460868FB
:1007F0000C46411C4FF0A0474FF0010506D005FA0A
:1008000000F1C7F80815206800F04CFA6068411C38
:1008100002D0002100F034FA3168A069C1F8240543
:10082000607D227D31681043C1F86C05D4E9001267
:100830003068C0F81425C0F80C15207D012815D1AA
:10084000A068411C02D0002100F01AFAE068411CA7
:1008500005D08540C7F80855E06800F023FAD4E9D0
:1008600002123068C0F80825C0F81015BDE8F08104
:100870002DE9F041064608680C46411C4FF0A047A0
:100880004FF0010506D005FA00F1C7F808152068F9
:1008900000F012FA6068411C02D0002100F0F9F962
:1008A0003168A069C1F82405607D217D3268084364
:1008B000C2F86C05D4E900123068C0F80C15C0F815
:1008C0001425207D012815D1A068411C02D00021EB
:1008D00000F0DFF9E068411C05D08540C7F80855F5
:1008E000E06800F0E9F9D4E902123068C0F80825A0
:1008F000C0F81015BDE8F0812DE9FC410646C0079F
:100900004FF000050ED0104F00240122385D0095F5
:1009100000231146019500F07DF9641C042CF4D3EA
:1009200000F01CF8B0070DD5074E0024361D00223C
:10093000305D032300951146019500F06BF9641CAE
:10094000042CF4D3BDE8FC81D41500000249085CF6
:10095000012100F0BBB90000D415000010B500243F
:100960002046FFF7F3FF641C042CF9D310BD826806
:1009700083881A4003689A5C0A708168491C816008
:100980007047C26883881A4003689954C168491C3B
:10099000C160704710B50446C0B2FFF7E5FE2046BF
:1009A00010BD000070B50D46044600684FF48E710E
:1009B00000F09CF94FF4A271206800F097F92068CC
:1009C0001A49C0F804132068000B42B26807000EF1
:1009D000002A04DB02F1E02282F8000405E002F0C4
:1009E0000F0101F1E02181F8140D20680121000BB5
:1009F00040B200280CDB00BF4FEA50134FEA8303DC
:100A000000F01F0203F1E02301FA02F2C3F8802292
:100A10000BDB00F01F024FEA50104FEA800000F19C
:100A2000E02001FA02F1C0F8001170BD8000020060
:100A300070B50D46044600684FF4887100F067F900
:100A40004FF49071206800F062F94FF492712068C1
:100A500000F05DF94FF4A271206800F058F92068A9
:100A60001A49C0F8041320686907000B40B2090E48
:100A7000002804DB00F1E02080F8001405E000F01D
:100A80000F0000F1E02080F8141D20680121000B08
:100A900040B200280CDB00BF4FEA50134FEA83033B
:100AA00000F01F0203F1E02301FA02F2C3F88022F2
:100AB0000BDB00F01F024FEA50104FEA800000F1FC
:100AC000E02001FA02F1C0F8001170BD100302002D
:100AD0008AB00120FFF710FF182216496846FFF779
:100AE000ABFB1548069015494FF48070CDE907011E
:100AF00009900723124A06A96846FFF7E3FD08B1EB
:100B0000FFF792FD0FA0FFF74FFD06A8FFF7C0FD0E
:100B10000028FAD19DF81800FFF726FE0028F9D129
:100B20009DF81800712801D05128EED10CA0FFF7D4
:100B30003BFDFEE7BC1500003C0000203C0100200E
:100B40008F1200000D0A55415254206578616D7076
:100B50006C6520737461727465642E0D0A00000068
:100B6000200D0A45786974210D0A0000F0B505468C
:100B70000478154889B0164640F82420124A0869BE
:100B8000121DA2F1080742F82400487F38552022A0
:100B90006846FFF751FB04942878385C48B10EB1E1
:100BA0000A4A00E000226946281D00F0F9F909B060
:100BB000F0BD0EB1064A00E00022694605F10C00C6
:100BC00000F0D4F8F3E700000800002099140000BA
:100BD0004113000030B40378054CE35C1BB130BC1A
:100BE000001D00F013BA30BC0C3000F0F9B8000062
:100BF0000400002030B40378054CE35C1BB130BC2A
:100C0000001D00F085BA30BC0C3000F05FB9000068
:100C10000400002070B541EA4201DDE904564FF0BE
:100C2000A04441EA830141EA052104EB800041EA46
:100C30000641C0F8001770BD70B541EA4201DDE918
:100C400004564FF0A04441EA830141EA052104EB38
:100C5000800041EA0641C0F8001770BD70B541EA56
:100C60004201DDE904564FF0A04441EA830141EA24
:100C7000052104EB800041EA0641C0F8001770BD71
:100C80001CB500220B46009211460192FFF7D4FFDB
:100C90001CBD1CB500220B46009211460192FFF7C5
:100CA000DDFF1CBD1CB5002100910B460122019106
:100CB0001146FFF7C1FF1CBD1CB5002100910B467A
:100CC000012201911146FFF7C9FF1CBD01224FF01F
:100CD000A043824011B1C3F808257047C3F80C2522
:100CE00070474058002800D00120704708B5002206
:100CF00042504058009008BDD0F80403084000D08E
:100D0000012070474058002800D00120704708B5E6
:100D1000002242504058009008BD0121B1EB507FA5
:100D200001D1012070470020704770B50D4600F0DA
:100D300045FA04000FD00020FFF740FD207920B1D4
:100D40000020FFF73DFD112070BD012025602071BE
:100D50000020FFF735FD002070BD0000014902486A
:100D600000F006BB3C020020002000402DE9F041CD
:100D70000546007916460F4600EB4001164A01EB86
:100D8000C00102EB810494F82A1011B10820BDE8DB
:100D9000F081124951F820102868FFF7C6FF08B10A
:100DA0001120F4E739462846FFF71EFD66603869D2
:100DB00020601EB1397F2846FFF7F4FD2868042122
:100DC000C0F800150020A061E06184F8290044F813
:100DD000140F0121A175DAE73C020020DC150000A8
:100DE0002DE9F05F054600794FF4017600EB4003F2
:100DF00003EBC000344B03EB80040020636813B1A5
:100E00002B68C3F80863A3694FF000096BB1E06970
:100E100038B1606810B12868C0F804631120BDE8DB
:100E2000F09FE2610120216105E0C4F82490A261F5
:100E3000E160C4F81C9094F82910014302D12846BF
:100E400000F0F8F960680028286803D0C0F804634F
:100E50000020E4E74FF4A2763146FFF747FFB246A1
:100E60004FF4927B59462868FFF73BFF06464FF444
:100E700084712868FFF735FF804651462868FFF7E0
:100E800030FF074648EA07003043EBD056EA070038
:100E900007D12146286800F09DF9A169606A814266
:100EA000E0D8C4F818900EB10320B8E70FB10F20B6
:100EB000B5E794F8291001200029296801D00860BD
:100EC000C6E74860C4E700003C0200202DE9F04777
:100ED000054600790B4600EB400101EBC0002349B9
:100EE00001EB8004284600F043F810B11120BDE862
:100EF000F0874FF00008C4F82080A360626184F896
:100F000028804FF48E76474631462868FFF7EEFE7C
:100F100028684FF00109C0F808902146286800F0C1
:100F200099F9606800BBD5F800A00EE094F828009D
:100F300008B10F2716E031465046FFF7D2FE0028D1
:100F4000F4D02146504600F085F9216A606981425B
:100F5000F1D331462868FFF7C4FE0028F9D028688D
:100F6000C0F80C90C4F814803846C0E73C0200205A
:100F7000007900EB400101EBC000044901EB800067
:100F80004069002800D00120704700003C0200208A
:100F90000149024800F098BA680200200020004091
:100FA0002DE9F0410546164600790F46154A00EB3B
:100FB000C00102EB810494F8201011B10820BDE8B3
:100FC000F081114951F820102868FFF7AEFE08B1F2
:100FD0001120F4E739462846FFF74AFC6660386975
:100FE00020601EB1397F2846FFF722FD28680821BE
:100FF000C0F800150020A061E0610121606184F863
:101000002010DCE768020020E01500002DE9F05F09
:10101000044600790E4600EBC001DFF8F0A0174649
:101020000AEB81053046FFF778FEB0B168684FF0F3
:1010300000084FF4047910B12168C1F80893A86939
:101040004FF0000B80B1E86948B1686810B12068C2
:10105000C0F804931120BDE8F09F1020FBE7EF617A
:101060004FF001082E6102E0EE60C5E9067B002525
:101070004FF488712068FFF74AFE4FF4A271206890
:10108000FFF745FE2068C0F83465C0F83875206861
:10109000B8F1000F12D0D0F8001241F02001C0F8D2
:1010A00000122079D04600EBC0010AEB81004068B5
:1010B00038B12068C0F804932846CCE701210160CC
:1010C000EFE74FF4887A4FF4A27951462068FFF792
:1010D00019FE074649462068FFF714FE06464FF4FE
:1010E00092712068FFF70EFE014647EA06000843AA
:1010F000EBD0227902EBC20308EB8302C2F818B0EE
:1011000001B10325002ED7D00F25D5E768020020B6
:101110002DE9F04704460E460079204900EBC00057
:1011200001EB800517463046FFF7F7FD30B120464A
:1011300000F036F820B11120BDE8F0871020FBE761
:101140006F61AE604FF49076002731462068FFF75C
:10115000DEFD4FF4AC7841462068FFF7D8FD2068EB
:10116000AA686969C0F84425C0F8481520680121BB
:101170008160686878B9B14649462068FFF7C2FDCA
:10118000064641462068FFF7BDFD0643F4D000B196
:101190000F27002068613846CEE700006802002073
:1011A0000079054900EBC00001EB80004069002890
:1011B00000D00120704700006802002003498842E7
:1011C00001D1034870470020704700000020004014
:1011D0001000002070B5054688690C4600284FF4C1
:1011E000847128460AD0FFF781FDD5F81805626A98
:1011F000E1688854606A401C606270BDFFF776FD4C
:10120000D5F8180570BD1FB501238DF80030CDE964
:101210000121D0E90012684690471FBD1FB5012388
:101220008DF800308DF808100192D0E90012684660
:1012300090471FBD10B5044600684FF49271FFF748
:1012400055FD4FF484712068FFF750FD206801219F
:10125000016010BD70B50C4605464FF48E71FFF766
:1012600045FD216AA068415C206A401C2062C5F8E7
:101270001C1570BD1FB500228DF8002002918168F9
:1012800001914261D0E90012684690471FBD017884
:10129000022901D0012902D14068FFF7C5B9704782
:1012A0007CB50178244D81B301290BD002292BD1C3
:1012B0008DF80010C068691C01900122C81DFFF75D
:1012C00089FC2EE0406801781C48FFF7D3F91B4CDD
:1012D000012618B18DF80060019006E0A068E16871
:1012E000814205D000208DF8000069686846884773
:1012F000A068E168081AA188884207D80E4901222F
:10130000491CC81DFFF766FC7CBD01E0AE70FBE721
:101310000A4809491030FFF792F930B103208DF8DF
:101320000000696868468847EEE70349012201F139
:101330000800FFF75FFCE7E7180000208C020020A0
:101340001FB50A4601788DF8001041680191017AB5
:101350008DF80810C0680390044850F82210001F50
:1013600050F82220684690471FBD00000C00002066
:101370002DE9FF470C4605464FF40071FFF7BCFC12
:1013800001274FF40178002618B34FF492794946AB
:101390002846FFF7A6FCE0B149462846FFF7A6FC21
:1013A000C5F8088394F8290000B96F6002208DF811
:1013B0000000D5F88004C5F880040390A06902906D
:1013C000E0680190A661E661D4E9001268469047A2
:1013D00028E004212846FFF78FFC18B34FF48471EE
:1013E0002846FFF77EFCE8B121462846FFF7F2FECB
:1013F000616AA069884215D1E06938B1E268616A22
:10140000A0612069E6616662E06008E094F8290066
:1014100000B96F60C5F80883A661E268616A20467A
:10142000FFF7F1FE4FF48E7841462846FFF759FC4E
:1014300078B1206A6169884202D294F8280020B30A
:1014400041462846FFF752FC616911B12046FFF77B
:1014500011FF4FF4A27841462846FFF742FC0028CE
:1014600018D041462846FFF741FC94F8290000B106
:101470002F60A06900280DD0A661E268616A04B0FF
:101480002046BDE8F047FFF7BEBE21462846FFF7DD
:10149000E1FEDEE7BDE8FF871FB50A4601788DF85B
:1014A000001041680191017A8DF80810C06803901E
:1014B000044850F82210001F50F822206846904738
:1014C0001FBD00000C0000202DE9FF410C464FF429
:1014D000927705463946FFF715FC0026C0B139461C
:1014E0002846FFF714FC02208DF80000D5F8800490
:1014F000C5F880040390D5F83C058DF80800E06835
:101500000190A661E661D4E900126846904723E0A5
:101510004FF4887739462846FFF7F4FBE0B13946A7
:101520002846FFF7F4FBD5F83C15A069884213D193
:10153000E06960B1E268D5F8000220F02000C5F84B
:101540000002E069A0612069E661E06001E0A66157
:10155000E2682046FFF762FE4FF4A277394628463C
:10156000FFF7D0FB60B139462846FFF7D0FBA069F2
:1015700030B1A661D5F83C152046E268FFF74EFE73
:101580004FF4907739462846FFF7BCFB002813D06C
:1015900039462846FFF7BBFB606900280CD0D5F818
:1015A0004C058DF800608DF80800A0680190666118
:1015B000D4E9001268469047BDE8FF8108000000AA
:1015C0000600000005000000070000000000000009
:1015D00000E0D701111213140D0E0F105D0D000065
:1015E000910F0000FFFFFFFFFFFFFFFFFFFFFFFF67
:1015F000FFFFFFFF00000000000000000000D60118
:101600000701000024160000000000203C0000003C
:10161000B8050000601600003C00002074220000A5
:10162000C80500000090D00300000000000000008A
:1016300000000000000000000000000000000000AA
:10164000000000000000000000200040000000003A
:10165000002000400000000000000000000000002A
:0400000500000201F4
:00000001FF
