:020000040002F8
:1060000018530020C1630200C9630200CB63020081
:10601000CD630200CF630200D163020000000000E4
:10602000000000000000000000000000D363020038
:10603000D563020000000000D7630200D9630200AC
:1060400039670200DB630200396B0200DB63020088
:10605000DB630200DB63020071650200DB630200A8
:10606000DB630200DB630200DB630200DB63020030
:10607000DB630200DB630200DB630200DB63020020
:10608000DB63020091670200DB630200DB63020056
:1060900015680200DB63020019680200DB6302007E
:1060A000DB630200DB630200DB630200DB630200F0
:1060B000DB630200DB630200000000000000000060
:1060C000DB630200DB630200DB630200DB630200D0
:1060D000DB630200DB630200DB6302000000000000
:1060E00000000000000000000000000000000000B0
:1060F00000000000000000000000000000000000A0
:10610000000000000000000000000000000000008F
:10611000000000000000000000000000000000007F
:10612000000000000000000000000000000000006F
:10613000000000000000000000000000000000005F
:10614000000000000000000000000000000000004F
:10615000000000000000000000000000000000003F
:10616000000000000000000000000000000000002F
:10617000000000000000000000000000000000001F
:10618000000000000000000000000000000000000F
:1061900000000000000000000000000000000000FF
:1061A00000000000000000000000000000000000EF
:1061B00000000000000000000000000000000000DF
:1061C00000000000000000000000000000000000CF
:1061D00000000000000000000000000000000000BF
:1061E00000000000000000000000000000000000AF
:1061F000000000000000000000000000000000009F
:10620000DFF80CD000F076F9004800475D8D020001
:106210001853002030B450E8012F93B2C4892344AE
:106220008489A34228BF1B1B0489A34202BFBFF37A
:106230002F8F002007E0C3EA020340E80134002C5E
:10624000E9D14FF001000A6030BC704750E8012FDF
:10625000C2EA024240E801210029F7D1704730B478
:1062600050E8022F1FFAA2F3C488A34202BFBFF373
:106270002F8F00200DE0C48923448489A34228BFC6
:106280001B1BC2EA034340E80234002CE8D14FF064
:1062900001000A6030BC704750E8022FC2EA224277
:1062A00040E802210029F7D17047034653E8022F46
:1062B000D988B2EB324F4FF0000017BF92B241EADB
:1062C000014142EA014104E05A68B2EB324F08BF93
:1062D000012043E80212002AE8D1704730B4044696
:1062E00054E8000F0D4644E80053002BF8D1156028
:1062F00030BC704730B4044654E8000F40EA010552
:1063000044E80053002BF7D1156030BC704730B41F
:10631000044654E8000F00EA010544E80053002B4E
:10632000F7D1156030BC704730B4044654E8000F14
:1063300080EA010544E80053002BF7D1156030BC1A
:10634000704730B4044654E8000F00EB010544E800
:106350000053002BF7D1156030BC704730B40446B1
:1063600054E8000FA0EB010544E80053002BF7D1DF
:10637000156030BC704770B404464FF0000054E81C
:10638000006F0D68AE4207BF44E80023012044E8D7
:1063900000630E60002B1CBF0020F0E770BC70474C
:1063A00030B4044654E8000F88422CBF451A054615
:1063B00044E80053002BF5D1156030BC7047000055
:1063C0000648804706480047FEE7FEE7FEE7FEE78F
:1063D000FEE7FEE7FEE7FEE7FEE7FEE71D680200D8
:1063E000016202002DE9F05F0546002092469B46BF
:1063F00088460646814640241BE0284641464746DB
:10640000224600F067F853465A46C01A914110D30D
:1064100011461846224600F016F82D1A67EB0108BF
:106420004F4622460120002100F00DF817EB00092D
:106430004E41201EA4F10104DFDC484631462A46C5
:106440004346BDE8F09F202A04DB203A00FA02F11F
:10645000002070479140C2F1200320FA03F3194352
:106460009040704700487047E0C4020040EA0103D2
:106470009B0703D009E008C9121F08C0042AFAD2FA
:1064800003E011F8013B00F8013B521EF9D27047BE
:10649000D2B201E000F8012B491EFBD27047002266
:1064A000F6E710B513460A4604461946FFF7F0FF13
:1064B000204610BD421C10F8011B0029FBD1801A98
:1064C0007047034611F8012B00F8012B002AF9D17F
:1064D00018467047202A04DB203A21FA02F00021F6
:1064E000704721FA02F3D040C2F1200291400843E4
:1064F00019467047064C074D06E0E06840F001037E
:1065000094E8070098471034AC42F6D3FFF77CFEBE
:1065100054CC020074CC020070B58C1810F8015BEA
:1065200015F0070301D110F8013B2A1106D110F82C
:10653000012B03E010F8016B01F8016B5B1EF9D130
:106540002B0705D40023521E0DD401F8013BFAE7B6
:1065500010F8013BCB1A921C03E013F8015B01F821
:10656000015B521EF9D5A142D8D3002070BD0000B6
:106570002DE9F04700268AB0DFF85091B0464FF47D
:106580008075012437460696284603F0BBFA38B1D9
:10659000D9F80403204203D0284603F0A9FA264381
:1065A0002D1D64007F1CADB2082FEDD34FF4BE74D7
:1065B000204603F0A7FA48B1204603F099FA46F0C6
:1065C000004606AA0121002003F07EFA404D16F095
:1065D000FF0F15D00127002437420DD009EB8401AD
:1065E000D1F81005D1F81015C0F3042055F8242077
:1065F000C1F3014102B190477F00641C082CEBD32A
:10660000002E5FDA4FF0FF30CDF8108054E02819EB
:1066100010F8507F90F9000027F0C008401C3BD0D4
:1066200007A9404602F046FE10B34FEA97194046CC
:1066300001F0E8FE55F820701FB1B9F1030F03D047
:1066400006E0B9F1030F27D104A9404602F03AFE53
:106650004FF0A04101EB8800D0F8000706A9C0F375
:10666000014A404602F026FE18B1BAF1020F03D0EB
:1066700012E0BAF1030F0FD1B9F1030F08D1BAF14B
:10668000020F1DD00221404603F002FA761CF6B23A
:1066900017B149464046B847641C042CB7D3002EB6
:1066A00010D06A460121002003F00EFA06990098E6
:1066B000884207D006900498002634460790A6E743
:1066C0000321E0E70AB0BDE8F08700000060004069
:1066D000B828002000F01F020121914040098000ED
:1066E00000F1E020C0F88012704700F01F02012185
:1066F00091404009800000F1E020C0F8001170478F
:1067000000F01F02012191404009800000F1E020CB
:10671000C0F8001270474907090E002806DA00F099
:106720000F0000F1E02080F8141D704700F1E02018
:1067300080F800147047000070B54FF48076304642
:1067400002F004FF114CB50560B1304602F005FFC0
:106750000120C5F80803607920B901206071216823
:10676000002088474FF48276304602F0EFFE002882
:106770000AD0304602F0F1FE0220C5F80803216875
:10678000BDE870400120084770BD00008022002055
:1067900007480021C0F84011C0F84411C0F8481162
:1067A000C0F84C11C0F80011C0F8041105F010B980
:1067B0000010014000F0C6B970B50E46144900EB58
:1067C000400001EBC0051446E86A183520B10128E5
:1067D0000FD0022805D113E0284600F0E7F9A042C7
:1067E00001D2002411E022463146284600F016FA74
:1067F0000BE0284600F0DAF9A042F4D20446F2E7B2
:106800003146284600F0DDF90446204670BD000000
:106810008C30002005F02AB803F0FABEF0B5B54878
:106820000023021D0178101D01254FF08054062918
:106830000BD11678360708D10678C6F30316032E57
:1068400006D0042E04D0052E02D0062907D00EE073
:10685000B4F82463A84FC6F304263E6002E016781D
:10686000360704D10678C6F30316032E02D0062994
:1068700004D00FE0A24FA14E7E670EE016783607D7
:1068800008D10678C6F30316032E06D0042E04D0D2
:10689000052E02D0062907D00EE0D4F84462994FA5
:1068A000C6F342363E6002E01678360704D1067819
:1068B000C6F30316032E02D0062906D011E0924E2D
:1068C000376827F0807737600EE01678360708D1F2
:1068D0000678C6F30316032E06D0042E04D0052E28
:1068E00002D006290AD011E04FF08046C6F80C31DC
:1068F000C6F81031834E361F336002E01678360733
:1069000004D10678C6F30316032E02D0062905D05B
:106910000CE07C4F032664373E600AE016783607A9
:1069200004D10678C6F30316032E02D006290DD033
:1069300014E0764F05263E60744E78363560734E0F
:10694000083633603F263F1D3E6002E0167836076A
:1069500004D10678C6F30316052E02D0062957D0B7
:1069600062E06B4E36686B4F3E60694E361D36688E
:106970003F1D3E60664E083636683F1D3E60644EE1
:106980000C3636683F1D3E60614E103636683F1D3E
:106990003E605F4E143636683F1D3E605C4E1836D2
:1069A00036685C4F20373E60594E1C3636683F1DB6
:1069B0003E60574E203636683F1D3E60544E2436AA
:1069C00036683F1D3E60524E283636683F1D3E6099
:1069D0004F4E2C3636683F1D3E604D4E3036366881
:1069E0004C4F40373E604A4E343636683F1D3E605D
:1069F000474E383636683F1D3E60454E3C36366859
:106A00003F1D3E60424E403636683F1D3E6002E00C
:106A10001678360708D10678C6F30316032E06D07B
:106A2000042E04D0052E02D0062907D019E0D4F890
:106A30005812394A01F04F01116002E0117809073C
:106A40000FD10078C0F30310032803D0042801D02D
:106A5000052806D131480168C90702D06FF001014D
:106A60000160D4F83001062808D1D4F83401062892
:106A700004D12B48016841F48061016022487438D8
:106A8000016841F470010160BFF34F8FBFF36F8F56
:106A90004FF01021D1F80002002803DBD1F80402E6
:106AA000002822DA1F4A15601F480468002CFCD019
:106AB0001524C1F800420568002DFCD0C1F804423D
:106AC00001680029FCD0136001680029FCD0BFF3E5
:106AD0004F8F0D48F0380168144A01F4E06111430A
:106AE0000160BFF34F8F00BFFDE7124910480860F7
:106AF000F0BD0000E00F00F0403501400DF0ADBAF0
:106B000000C007403C050040FCED00E0105600408E
:106B10000404001020C50040E40E004000040040C2
:106B20003C17004004E5014000E401400400FA0580
:106B30000090D0036C23002001480068004700004B
:106B40008822002010B5124C02202061606111A043
:106B5000A06104F17800E0614FF400702062002031
:106B6000A06260620BA1A164E06204F51E71E164A1
:106B70001021A065C4E91410E06509A1E01DFFF72C
:106B8000A0FC08A12046FFF79CFC2020A07110BDAE
:106B90008C3000205465726D696E616C00000000DD
:106BA0005254540053454747455200000269C1689A
:106BB0008A4203D88068401A104400E0501A401EF0
:106BC00070472DE9F047C4681746894606464FF0DE
:106BD00000083069A04201D9051B02E0B168201A03
:106BE0000D1AB0686D1E001BA84200D80546BD42B4
:106BF00000D33D4670682A4620444946FFF736FCDC
:106C0000B0687F1B2C44A844A944A04200D10024B2
:106C1000F460002FDDD14046BDE8F0872DE9F0415A
:106C200004468846D4E90207C51BE1686068164639
:106C30000844B54206D94146FFF718FCB819E06090
:106C4000BDE8F0812A464146FFF710FC761B08EBB1
:106C5000050132466068FFF709FCE660F0E70000D6
:106C6000014A024900F031B8638802000423002081
:106C700002E008C8121F08C1002AFAD17047704705
:106C8000002001E001C1121F002AFBD17047000063
:106C90000121202803DA81400548014003E0402813
:106CA00002DA2038814009B1012070470020704786
:106CB000FC06FFBD082806D228B1012803D004280D
:106CC00001D001207047002070472DE9F0411646A1
:106CD0000F460446002503E03946B047641C6D1C8E
:106CE00020780028F8D12846BDE8F08110B50122AF
:106CF0000221002001F03CFA08B1072810D1072238
:106D00000221012001F034FA08B1072808D100213E
:106D10000A22084601F02CFA08B1072800D1002009
:106D200010BD000070B50024064D06E06868012122
:106D300010F8340003F056FD641C28788442F5D323
:106D4000002070BD90220020F8B515460C4606467E
:106D5000052A01D20720F8BD03F040FE18B903F060
:106D600005FE0028F7D1124900224E600C708D609C
:106D7000C1E90422C1E906220E4D0DE006EBC40074
:106D80002968009181788DF8011000780A4A6946D7
:106D900003F07AFD0028DED1641EE4B2EED2BDE835
:106DA000F84004480021054A001D00F07BB80000AF
:106DB00090220020E4C10200F5880200D58602007E
:106DC00072B603F027F900BF02F066FF0028FBD17E
:106DD000104C0121208801EB00400FA103F06CF85A
:106DE00010480068C00700D000BE2088022101EBD7
:106DF00000400DA103F060F8BFF34F8F0948E4385D
:106E000001680D4A01F4E06111430160BFF34F8F47
:106E100000BFFDE7A0230020466174616C2065720D
:106E2000726F7200F0ED00E053797374656D20723B
:106E300065736574000000000400FA050EB50021BA
:106E40000091CDE901106A4644F20100FFF7B8FF56
:106E50000EBD10B58268C368934203D001F0DAFC1E
:106E6000002010BD052010BD29B112B1531E1342E0
:106E700003D0092070470E207047016083800021F5
:106E80008160C1600846704710B58268C3689A1A6D
:106E900083889A4203D801F0C7FC002010BD04206B
:106EA00010BD0000074B9B7823B12AB120B10068C8
:106EB000037C1BB108207047072070474174426172
:106EC000002070478429002070B504F08BFA104828
:106ED00000240B21047044700E4D817014206C60EE
:106EE0002C706C70FFF7F6FB07211420FFF713FCE2
:106EF0001420FFF7FAFB0848046007211120FFF770
:106F00000AFC0548001F0068A860002070BD000052
:106F100084290020B0220020081501402DE9FC47FB
:106F2000DFF8789099F8023073B368B3052902D27C
:106F30000720BDE8FC87436933B3437C012B25D090
:106F4000002704460025884616468DF800506846FE
:106F500000F0CEF801A805F077F8C8B10121017062
:106F60000F4944600968C0E90218C0E904769DF839
:106F7000040089F801009DF8000000F0DDF81420FD
:106F8000FFF7BEFB2846D4E70820D2E70F46D8E734
:106F900004259DF8000000F0CFF8F3E784290020D5
:106FA000041501400649897839B130B1416921B1F0
:106FB00000210174022104F0E7BC082070470000A2
:106FC0008429002070B50A4E01460A48B578FFF7BB
:106FD00040FF04464DB10020B070711C0122C81D55
:106FE00002F02CFB08B1FFF729FF204670BD00001E
:106FF000C4220020902A0020F0B5244E89B01F46FC
:107000000D00044672603FD0A888296882B22048EB
:10701000FFF72AFF002835D1A889A96882B21C4849
:107020001030FFF721FF00282CD120221949684693
:10703000FFF71CFA60690690207C00B101208DF8F2
:1070400014008DF81C70607C00B10E208DF81500C6
:10705000E0680290A068039020680190606800904A
:107060000A480D4A6946083002F0B4FA002809D1EE
:10707000B0702068401C05D004490122491CC81D7D
:1070800002F0DCFA09B0F0BD0720FBE7C4220020C3
:10709000902A0020F8C10200C9BB020010B50146C9
:1070A0001048FFF7F1FE040019D10F480F4A01788C
:1070B000515C19B1001D03F013FF02E00C3003F026
:1070C000F7FD60B9084907480839FFF7C2FE30B933
:1070D000054901220839044802F0C0FA0446204656
:1070E00010BD0000A02A0020CC2200207422002025
:1070F00030B5EFF3108172B60D4A9468012324B1C4
:107100000370002900D162B630BD93604FF0E023D8
:10711000D3F88051074C25401560C3F88041D3F85F
:10712000844154605A17C3F8842100220270E8E7B2
:10713000B02A0020FC06FFBD0B498A68002A11D046
:1071400000280FD1EFF3108072B60B684FF0E022E9
:10715000C2F800314B68C2F8043100228A6000286E
:1071600000D162B670470000B02A00202DE9F0413E
:10717000064608680C46411C4FF0A0474FF0010539
:1071800006D005FA00F1C7F80815206802F06CFC7B
:107190006068411C02D0002102F054FC3168A069F3
:1071A000C1F82405607D227D31681043C1F86C056B
:1071B000D4E900123068C0F81425C0F80C15207D01
:1071C000012815D1A068411C02D0002102F03AFC30
:1071D000E068411C05D08540C7F80855E06802F01A
:1071E00043FCD4E902123068C0F80825C0F8101535
:1071F000BDE8F0812DE9F041064608680C46411CC7
:107200004FF0A0474FF0010506D005FA00F1C7F88E
:107210000815206802F032FC6068411C02D0002191
:1072200002F019FC3168A069C1F82405607D217D58
:1072300032680843C2F86C05D4E900123068C0F81F
:107240000C15C0F81425207D012815D1A068411C1B
:1072500002D0002102F0FFFBE068411C05D0854010
:10726000C7F80855E06802F009FCD4E9021230685A
:10727000C0F80825C0F81015BDE8F08170B51500FC
:10728000044609D00020286034B1206820B1A079DC
:10729000800703D0072070BD0E2070BD084600F0A7
:1072A00037FBC0B2142804D02179814203D80420CE
:1072B00070BD052070BDE288216800FB02102860C7
:1072C000002070BD2DE9FC47002517880646158073
:1072D00090F82D001446894630B13A46214648467A
:1072E00000F02AFB051E09D1B0784FF00C0A18B344
:1072F0002088C846001DB84202D95046BDE8FC8728
:10730000684679DF0028F9D12088032108F80010A9
:1073100020881921401C80B2208008F800102088A5
:10732000401C80B2208000EB0801BDF8000004F092
:10733000D9FD218808442080F0780222C8B1218834
:1073400096F9033001F1030C4846BC45D5D84254A8
:1073500021884FF0010C491C89B2218000F801C03E
:107360002188491C89B2218009F801302088401CFD
:1073700020807068B8B1218890F9003001F1030CC9
:107380004846BC45B9D8425421880A22491C89B2D2
:10739000218042542188491C89B2218009F801309A
:1073A0002088401C2080308950B1CDE900474B46F1
:1073B0000622022106F1080004F05EFE051E9DD1A2
:1073C000308A50B1CDE900474B460722032106F130
:1073D000100004F051FE051E90D1308B50B1CDE964
:1073E00000474B461522142106F1180004F044FE14
:1073F000051E83D1306A30B13B462246494601F032
:10740000A0F8051EDBD1706A30B13B4622464946E2
:1074100001F0CCFD051ED2D196F82C0038B13B46C8
:1074200022464946304604F033F9051EC7D130786C
:1074300038B13B4622464946304601F03DFE051E26
:10744000BDD128465AE718B504460020ADF8000023
:1074500013466A46204600F006F8002802D0BDF820
:107460000000204418BD70B588B182B10024158891
:1074700003E0065D641C3444A4B2A54203D8061997
:1074800076789E4201D08C42F3D38C4201D3002007
:1074900070BDA11C1180005D401E80B270BD80F8DF
:1074A000301070472DE9F0410D00044606D02CB194
:1074B00095F87A000026012803D006E00E20BDE8EA
:1074C000F08195F89800012829D0D5F8A00004286B
:1074D00025D0D5F89C00042821D04FF00108A670D3
:1074E0002C2205F17801201DFEF7C0FF84F83060E2
:1074F000D5F8A4006063D5F8A800A0634FF6FF702C
:10750000A4F8A80004F19400C4F8A400C4F8AA6088
:10751000A4F8AE6084F8B060207810B104E00720D1
:10752000CDE7FF2084F8540004F155011F27C4F86B
:107530009410A4F8987004F198022846FFF7C2FE50
:107540000028BCD115F13C0F0ED004F17401C4F831
:107550009C10A4F8A07004F1A00205F13C00FFF714
:10756000B1FE0028ABD103E0C4F89C60A4F8A06091
:1075700084F85180208BA4F8480084F83C8026646D
:1075800084F8506060696064454604F13C02002163
:1075900004F1540072DF002891D125708FE710B5F7
:1075A0000288102A1BD0112A20D0262A1DD1007A49
:1075B0000C46012801D0022817D1A0780521401CD3
:1075C000B0FBF1F201FB1201204600F052F8002856
:1075D0000BD0A16B002908D0BDE810400847C27B42
:1075E000012A02D18088A1F8A80010BD0C46002114
:1075F00084F8B2108088B4F8A8108842F5D12079B8
:107600000028F2D10121DFE710B50C46022801D095
:10761000032810D1607800280DD000206070A17878
:10762000204600F026F8002805D0A16B002902D0E2
:10763000BDE81040084710BD10B5044690F854004E
:1076400074DF012084F8B200002084F8B40084F8CC
:1076500050000621204601F0F0F8002808D1A1785A
:10766000204600F006F810B1A16B01B18847002058
:1076700010BD2DE9F05F044600780F4638B1A770C1
:10768000002002F001F9012620B1667007E1082010
:10769000BDE8F09F0025C4F8AA50A4F8AE5084F8C5
:1076A000B050A07910B1A078012806D0E07968B177
:1076B000A078012801D0022808D1616B21B184F89B
:1076C000B1600820884701E084F8B15004F1AB01B3
:1076D00000200A5C0AB1304603E0401C0628F8D3BB
:1076E00000204FF002084FF0030B012F06D0022FAD
:1076F0000CD0032F0FD0042F15D110E0A17929B1A0
:1077000094F8241011B908B130460DE0E17911B1B7
:1077100008B1404608E0207A08B1584604E0607A93
:1077200008B1042000E02846A070616B41B1032835
:1077300001D0042804D1607910B194F8B200A0B14E
:1077400084F8B35004F13C0018210746FEF7A7FE69
:1077500004F12C0084F83C60814603F051FD58B1DF
:1077600094F82C0084F8510008E084F8B45084F8B0
:10777000B36007208847E5E784F8516094F8240057
:1077800050B1484603F03CFD20B194F8280084F83D
:10779000520001E084F8526084F85050A27804F15D
:1077A000AA0104F194094FF0060A052A60D2DFE825
:1077B00002F078030F223F0084F83160C4F8A4502F
:1077C000C4E9101584F83C808020A4F8480051E0FA
:1077D00084F8318094F82420384612B107220270D0
:1077E00001E080F800B0228A8281C4F8A450416090
:1077F000E168B9603EE06069B860208BB88194F8B8
:1078000024003D4610B184F83CA001E084F83C60BF
:10781000204604F0FBFB40B185F81480042120468B
:1078200001F00BF820BB05211EE084F831B01DE00B
:10783000E069B860208CB88194F824003D4610B10E
:1078400084F83CA001E084F83C60204604F0DEFBB4
:1078500048B185F814800421204600F0EEFF38B9C5
:1078600084F831A002E0042184F83110C4F8A49017
:10787000A07878B13A4604F15400D4F8A41072DF2D
:1078800000287FF405AF94F8301094F8540073DFAB
:107890000028F6D1616B11B194F8310088470020BF
:1078A000F6E684F83150F5E770B5040012D00146D1
:1078B0001C221448FEF7DAFD1248134D05602068BB
:1078C00050B17ADF002806D120680168296040683D
:1078D000686005E00E2070BD0B487BDF0028FAD100
:1078E00008484FF6FF711438084A20F8041B054970
:1078F000343901600021FFF7D5FA0028EBD00320CE
:1079000070BD0000102800206C220020A5BF0200DE
:1079100010B5044600F006F808B1204610BD14204A
:1079200010BD0000142801D3002070470146014813
:1079300001F031BC302800207CB5054608880C4693
:107940000930904201D90C207CBD68466DDF0028CB
:10795000FAD121880820685420881B21401C80B25D
:10796000208029542088401C80B220802844DDF8E3
:1079700001100160BDF8051081802088801D80B253
:1079800020809DF80010490800D00121295420884A
:10799000401C208000207CBDF8B5294D028804469B
:1079A0006E88212A37D011DC26484FF00301102AB7
:1079B000008801EB004013D0112A25D0132A29D1C9
:1079C00000231A46852130467FDF17E03B2A32D05C
:1079D000522A2AD0562A1DD18088132176DF0DE045
:1079E00019A102F069FA072000F0DCFB08B1FFF7EB
:1079F00025FAA1886980174801F030FD002809D0D8
:107A0000BDE8F840FFF71ABA13A102F055FA4FF695
:107A1000FF706880F8BD00200090A08869468FDF65
:107A20000028F7D0FFF70AFAF8BD00231A461946D6
:107A30003046B1DFE2E78088132176DFDEE7000021
:107A400020220020A0230020436F6E6E65637465C2
:107A500064000000B8260020446973636F6E6E6591
:107A6000637465640000000010B50B4C0188606809
:107A700010290ED011290ED1401E60600BD1FFF7E6
:107A800035F9002807D02168002904D0BDE810404E
:107A90000847401C606010BD642200202DE9F047BB
:107AA00001883B4E40F2F3194FF6FF7510291BD0A9
:107AB00011293ED0122954D0502946D1C188F289CB
:107AC000841D914241D1618902293ED18688304688
:107AD00000F052FF050038D004F10C0000F0A6F9C8
:107AE000A8B3294630464EE0C17B87880446012969
:107AF0002BD1A846284600F03FFF050017D02F8065
:107B000000202872234843464A460168C5F80A10F7
:107B10004068C5F80E0004F1100105F10A0000F0FC
:107B2000EFFF6872F08900280FD129462AE004206F
:107B300013E0808800F020FF040006D06068FFF7A3
:107B400031FA08B103F074FD2580BDE8F087FFE746
:107B50006868FFF727FA0028F7D0BDE8F04703F080
:107B600067BD87880646384600F006FF0400ECD063
:107B70002B464A4606F1080104F10A0000F0C0FF56
:107B8000607221463846BDE8F04700F021BD000094
:107B9000102800206C2200202DE9F04F0746858830
:107BA00002883D48012197B08346102A09D0112A46
:107BB00049D01A2A6CD1387AB1EB101F45D2012274
:107BC00044E0354C083CA068C0430B9061680BA8AA
:107BD00001F002FB0B990CA800F094FC2C220CA9DC
:107BE0006846FEF743FC0026E946A04610E000BFC9
:107BF00009EB46005FF00004B0F804A008EB840035
:107C00005146001D01F0BCFA641C1D2CF6D3761CF5
:107C10000098B042ECD8142D05D317B00420BDE86D
:107C2000F04FFFF70BB92946584601F0BFFA294635
:107C300008F1040001F0BAFAF87B012828D01648B0
:107C40002946001D15E029461AE000220221B1EB69
:107C5000101F01D2012600E000260F49083901F16A
:107C60001000041D294682B101F0A0FA36B1294660
:107C7000204617B0BDE8F04F01F098BA29462046DB
:107C800017B0BDE8F04F01F07BBA01F079FAF5E7E3
:107C900017B0BDE8F08F00003428002070B5154DF6
:107CA0004FF4FA64002100B96961012000F0FEF888
:107CB00068693C2804D3BDE87040012000F008B991
:107CC000C0074FF47A7200D01446610CE0034FF401
:107CD000FA73C01841F100010023FEF783FB01464F
:107CE000054801224068FFF719F96869401C68617E
:107CF00070BD00004C2200209CC10200F0B585B090
:107D000016460F4604001D4614D004AA19466069A1
:107D1000FFF7B4FA00280BD1A5F57F40FF380BD050
:107D2000049848B1007848B13088F42808D9072071
:107D300005B0F0BD0E20FBE70520F9E70820F7E7C6
:107D400000200090019002900390A088ADF8000000
:107D500001208DF80200CDE9026769462846AEDFB2
:107D6000E6E7000030B5144B0D4604000FCB85B09C
:107D70008DE80F001ED0EDB12868A061214668464D
:107D800062DF002814D120788DF812000120ADF8B0
:107D90001000A21C04A9A8DF002809D1294620460A
:107DA00003F057FB002803D12946204603F05AFE72
:107DB00005B030BD0E20FBE7C8C1020070B588B029
:107DC0000446002924D0002C22D0084621881029FE
:107DD00020D0502924D057291AD10546A1884069BE
:107DE00006AAFFF74BFA002812D1069E3078002829
:107DF0000ED018216846FEF752FB01208DF80000D6
:107E00000195A088ADF808000396A96968468847DF
:107E100008B070BD08B02146BDE8704003F0D6B888
:107E200008B02146BDE8704003F0A8B9007800F022
:107E3000010070470149085C7047000098C10200CA
:107E40000649095C4FF0A040D0F81005C84010F07A
:107E5000010000D0012080F00100704798C10200AD
:107E60002DE9FC410646C0074FF000040ED00E4F2E
:107E700000250122785D009400231146019401F051
:107E800099FD6D1C022DF4D300F032F8B00709D52E
:107E900005480022401E03230078009411460194F7
:107EA00001F088FDBDE8FC8199C1020007490B5C27
:107EB0004FF0A041D1F804250120984020EA0203A8
:107EC000C1F808351040C1F80C05704799C102008F
:107ED0000249085C012101F0ECBD000099C10200DB
:107EE0000249085C002101F0E4BD000099C10200D4
:107EF00010B500242046FFF7EBFF641C022CF9D3D9
:107F000010BD0000044B024600211B784FF0FF30EB
:107F1000934200D10846704798C1020070B50C4EDC
:107F20000C004FF0000530600BD0012000F0F4F899
:107F300008B1022004E0002000F0EEF800B10B20B0
:107F40002070706810B9FEF7D1FE0546284670BD56
:107F50006422002010B5002000F0B8F908B106280E
:107F600006D1012000F0B2F908B1062800D10020A6
:107F700010BD00002DE9F35F884600250098FFF74B
:107F8000C1FF002859D1304EDFF8B4B0741C2D4F1A
:107F90004FF00309A4F1050AB8F1000F39D0B8F188
:107FA000010F15D0B8F1020F47D1398809EB014014
:107FB00026A101F081FF65783570002D3DD0DAF8FB
:107FC0000C10002939D002B02846BDE8F05F084700
:107FD0003888B8464F4609EB00402BA101F06CFFF2
:107FE0002578607890B1B8F8000033A107EB004025
:107FF00001F062FF144A49F69A11521EDBF808009C
:10800000FEF78CFF10B900988AF80300A078307052
:10801000D3E7DBF80800FEF7C5FF3178A07881428E
:1080200000D105466278914200D10546398809EBB6
:1080300001402DA101F040FFBFE7BDE8FC9F00001B
:108040009CC10200A0230020502200205B627370BC
:108050005F627574746F6E5F6576656E745F68617C
:108060006E646C65725D3A204253505F42555454C1
:108070004F4E5F414354494F4E5F4C4F4E475F5008
:108080005553480A000000005B6273705F627574AC
:10809000746F6E5F6576656E745F68616E646C6543
:1080A000725D3A204150505F425554544F4E5F50DC
:1080B000555348310A0000005B6273705F6275744B
:1080C000746F6E5F6576656E745F68616E646C6513
:1080D000725D3A204150505F425554544F4E5F50AC
:1080E000555348320A0000005B6273705F6275741A
:1080F000746F6E5F6576656E745F68616E646C65E3
:10810000725D3A204150505F425554544F4E5F5279
:10811000454C454153450A0008B100207047FFF720
:108120008FBE00000146104810B54088042907D0D2
:1081300007290ED00A2915D1BDE8104003F0ECBA8A
:10814000132176DF0CE000280CD0BDE81040FEF7CC
:1081500075BEA0F57F41FF3904D10448FFF76CFAE2
:108160000828F0D110BD000020220020C4260020E5
:1081700003004FF000000AD1094B012A02D1012966
:1081800007D0002251B1012904D0022904D00720D0
:10819000704710221A7070475A7070479A70704773
:1081A00051220020044A01460020127AD20702D050
:1081B000084600F04DB870474C22002070B50546C7
:1081C0001E480024C0E90251A80720D50E22012133
:1081D0000020FFF7CDFF06460F2202210020FFF707
:1081E000C7FF50EA060412D140F26662012114482A
:1081F000FEF7AAFD04000AD1FEF794FD040006D1A3
:108200000F48104A0021001FFEF74CFE0446E80705
:1082100012D00120FFF724FE74B909480A4A002150
:108220000C38FEF73FFE040006D10548074A00213E
:108230000838FEF737FE0446204670BD4C22002069
:10824000A8C1020099830200698B02009D7C020094
:108250002DE9F0411B4D06460024687818B1002036
:10826000687000F06FFC184F072E14D005DC56B173
:10827000012E0BD0022E04D108E0122E17D0132E9F
:1082800019D005241BE000F05DFC17E07868FEF7CC
:1082900089FE01200CE00120FFF722FE00224FF4AE
:1082A00000417868FEF73AFE040007D007E000209E
:1082B000FFF70EFE02E00020FFF712FE2E702046B0
:1082C000BDE8F0814C2200209CC10200012103F096
:1082D0003ABF00002DE9F8430546861C00208DF8C2
:1082E000000090460F464FF001096846FEF700FF78
:1082F0001B4C20683860D4E90001401AA16804F2E0
:108300001C47081A0EE00121384600F05FFF00F01C
:10831000D7FC0146384600F059FFD4E90001401A65
:10832000A168081A401C8642EDD8B8F1000F03D0AE
:10833000052065F3891002E0062065F39F50A268CE
:108340002168114004EB8101C8602068304420603E
:108350009DF80000FEF7F0FE4846BDE8F8830000F7
:10836000682C002030B482680468531C8360A154D8
:10837000D0E901128A4202D330BC01F08CB930BC82
:1083800070470000034803C8814201D101207047B3
:1083900000207047682C002000780221FFF7EABD1A
:1083A00005494FF0FF32082841F8202002D3084445
:1083B00080F8482070470000B8280020F0B54FF042
:1083C000FF3512B10023082601E008230C260C4CCF
:1083D00005E000BF54F823707F1C04D05B1CB3423F
:1083E000F8D32846F0BD26185DB286F8305044F820
:1083F0002310002AF5D1E11881F84800F1E70000C8
:10840000B82800200249084490F930007047000065
:10841000B828002070B5084C050009D01034216838
:10842000002907D008682060496828468847F6E791
:108430000834F4E770BD0000A4280020054A01219B
:1084400020B1012805D19170FFF7E4BF51700020E1
:10845000FAE77047A42800202DE9F05F264841681C
:10846000F1B3DFF898B00E688146DBF8004087680A
:108470008078E11B21F07F45ED1CB0B9DFF88080EA
:108480004FF48030C8F84403C8F804031120FEF705
:1084900021F91120FEF729F94FF0010AC8F800A0D0
:1084A0002F2002F097F989F802A0B54200D2354694
:1084B000124BE8193C3320F07F401860DBF80010C5
:1084C0005A46091B21F07F41001B20F07F40C91C48
:1084D00081420FD9106818602F2002F07BF900E06C
:1084E00004E0BDE8F05F1120FEF70AB9BDE8F05FD7
:1084F00002F078BFBDE8F09FB022002004150140D3
:108500000010014073B58CB00646002000900D9815
:1085100080B100246D4621460DA800F03CFE30B12C
:10852000009805EB400084800098401C0090641C7B
:10853000142CF0D32C2269463046FDF797FF0EB07D
:1085400070BD2DE9F04117880646B81D14460D464A
:10855000984202D90C20BDE8F08131880722062913
:108560000AD34FF4486C4FF6FF73614501D9994225
:1085700002D17088062801D21046ECE7604501D987
:108580009842F9D1994203D0984201D08142F3D860
:108590000520E85520881221401C80B220802954F3
:1085A0002088401C80B220804119308803F09AFC5A
:1085B0002188084480B220804119708803F092FC21
:1085C0002188084420800020C5E7FEF737BC000062
:1085D00038B54A7A0F4B62B100220A7259690029F4
:1085E00006D001228DF80020ADF8020068468847C9
:1085F00038BD0A7A62B19B684C680246194620462B
:10860000FEF78CFC0028F3D0BDE8384003F010B82A
:108610005B68F1E710280020F0B587B0074600201E
:108620000490ADF810100590ADF812100190029072
:1086300001AA04A9384690DF060022D002F070F8A3
:10864000114C0346012520883A4605EB00400F49AE
:1086500001F03DFCBDF8042012B9BDF8060038B1A8
:108660002088BDF8063005EB004009A101F02FFC81
:10867000BDF808202AB12088154905EB004001F01B
:108680001FFC07B03046F0BD70230020E4C4020098
:1086900054686520726571756573746564205458FB
:1086A0002F5258207061636B6574206C656E67741F
:1086B0006820697320746F6F206C6F6E6720627919
:1086C0002025752F2575206F63746574732E000047
:1086D00030C502002DE9F0470025DFF88C803CE032
:1086E0006068002100EBC506012032789146FDF755
:1086F000AAFED4E9062300EA020701EA030C57EABE
:108700000C0728D082438B434846C4E9062302F075
:1087100023F932788246914601200021FDF793FE2D
:10872000D4E9042300EA020401EA03074A4650465A
:108730000021FDF788FE44404F403C430BD1707848
:10874000012801D0012100E00021726881EA0A01BC
:108750000AB1484690476D1CEDB298F800004446B7
:108760008542BDD3BDE8F0879022002010B50021DE
:10877000024800F03CFD80F3100010BD8430002062
:108780000E4910B50A784C780023A24212D0521C30
:10879000D2B20A70022A00D10B70084A0B780C3250
:1087A00052F8232002608868104420F07F408860DF
:1087B000012010BD0360002010BD0000B022002089
:1087C00030B50446006887B00D46806800281FD089
:1087D00018216846FDF763FE0195A0680590207991
:1087E00010B1012810D107E001208DF800002069A8
:1087F0000290E068039005E002208DF80000E06838
:108800000003029060690490206881686846884788
:1088100007B030BD826883881A4003689A5C0A708A
:108820008168491C81607047C26883881A40036868
:108830009954C168491CC160704770B50D46044623
:10884000B0F89810D0F894000122FEF7FCFD00B1BA
:10885000057004F13C0204F1940104F1540072DF4C
:1088600070BD10B50446C0B2FEF718FC204610BD1E
:108870000B484A8843889A4211D10A88A2F520639E
:10888000773B0CD18988C91E8AB2828005480321B2
:108890001346008801EB004003A101F018BB7047AC
:1088A00020220020A023002044617461206C656EAA
:1088B0002069732073657420746F203078255828E0
:1088C0002564290010B50949094800F011FD08B1D7
:1088D000FEF7B4FAF721064800F0FEFC002803D0AA
:1088E000BDE81040FEF7AABA10BD00007188020072
:1088F000A42600202DE9F0418046024601200021F7
:10890000FDF7A1FD1A4F05460E467868FEF74AFBB3
:1089100000280CD1174CD4E9062110462A4001EA60
:1089200006031A4305D0A843B143C4E90601BDE8D4
:10893000F081404602F010F830B1D4E90401284338
:108940003143C4E9040105E0D4E90410A943B0436C
:10895000C4E90410D4E9060128433143C4E90601FF
:10896000A1687868BDE8F0410022FEF7D7BA0000A0
:10897000E4C10200902200200146034802888A4296
:1089800000D0002070470000FC2700202DE9FC5F8C
:108990000E008346DDE90C47C6F10000984692467A
:1089A000814600D40846012503E000BF90FBFAF0A1
:1089B0006D1C5045FADAA84500D9454624B1002E71
:1089C00001DB780700D5641EB80702D5B8F1000FA7
:1089D0000AD0F80708D13CB1A54205D2202158465B
:1089E000641EFFF7BFFCF6E7002E02DA4E462D218B
:1089F00002E0780703D52B215846FFF7B3FC07F0B8
:108A0000030002280BD1B8F1000F08D13CB1A542F8
:108A100005D230215846641EFFF7A4FCF6E7CDE9E5
:108A20000047434652463146584603F061FABDE8D6
:108A3000FC9F000070B50D46044600684FF4887135
:108A400001F08EFE4FF49071206801F089FE4FF422
:108A50009271206801F084FE4FF4A271206801F049
:108A60007FFE20681249C0F8041320686907000BD4
:108A700040B2090E002806DA00F00F0000F1E020F5
:108A800080F8141D03E000F1E02080F80014206855
:108A90000121000B40B200F01F029140400980000C
:108AA00000F1E020C0F88012C0F8001170BD000095
:108AB00010030200024600201268930702D05307F9
:108AC00002D47047500714D502F00300012802D0E9
:108AD00002280CD105E0C2F383100B68801C1844F7
:108AE00004E00223086803EB92521044086001205E
:108AF0007047086800EB9253C2F38910401CEEE700
:108B0000F0B58488A518944200D82246A41AC288D9
:108B1000D6189A4200D81346D21A4B880788BB420F
:108B20000CD34088834209D88888A04206D3A84243
:108B300004D8C888904201D3B04201D90020F0BDCA
:108B40000120F0BD074810B5807838B100242046D8
:108B5000FFF7BEF9641C022CF9D310BDBDE810402C
:108B6000FFF7C6B94C22002010B50F4C2178072919
:108B700018D020B1012807D020691E2806D3BDE8EF
:108B800010400020FFF7A4B9002020610020FFF76B
:108B90008DF90648022291030068FEF7BFF92069AB
:108BA000401C206110BD00004C2200209CC102002E
:108BB000F721018017214180002101714171FB21C2
:108BC00081711B21C17170472DE9F047394E002793
:108BD00080463D46DFF8E090D6F804A057E003D089
:108BE0000446D0F81C8035E099F8002002EB4201E1
:108BF000521CD2B289F8002009EBC10199F8023069
:108C0000091D9A4201D189F8005048680A78044643
:108C1000012A12D0022A02D0032A3BD108E002F036
:108C200083FE00B10127257434E00574C06900E0BB
:108C300070680028F9D170602CE0207C50BB8868F7
:108C40006060C868A0600869E0604869A061F07869
:108C500000B165606268B168184B501A20F07F401F
:108C6000984202D2A168084406E0881AA16820F060
:108C70007F40814202D9081A206000E025606560CB
:108C80000120A56020742046E56102F02FFEB8F1B6
:108C90000000A4D199F8001099F801008142A3D1F5
:108CA00017B97168514502D00120BDE8F087002056
:108CB000FBE70000B022002084290020FFFF7F0096
:108CC0002DE9FF410026234800F07DFA2148001FCE
:108CD000074600F078FA204C60680090A56800E034
:108CE00000986946284004EB80000C30FFF7E2FE54
:108CF0000028F5D101AA009901EA050304EB8303DA
:108D0000491CDB6842F82030401C00910228F2D355
:108D1000019800F0030001280BD0022810D101981F
:108D2000032101EB90500099BDF80A6001EB90001F
:108D300005E00198BDF80A60C0F383100844009074
:108D4000384600F03DFA08B10098606004B0304643
:108D5000BDE8F08180300020682C0020ACB01822E3
:108D600072496846FDF782FB7148069071494FF4DD
:108D70008070CDE90701099007236F4A06A968466C
:108D8000FEF73AF908B1FEF759F84FF40041002018
:108D900001F0FCF808B1FEF751F800F06FFFFEF7A4
:108DA00093F808B1FEF74AF864490320FFF706FA82
:108DB00008B1FEF743F869460020FFF7AFF808B1A5
:108DC000FEF73CF801F000FA08B1FEF737F801F0C1
:108DD000D7FB08B1FEF732F8002469460120009461
:108DE00001F034FA08B1FEF729F8684601F0D8FA24
:108DF00008B1FEF723F89DF8080051A120F00F00FC
:108E0000401C20F0F00010308DF808000B2202A862
:108E10007CDF08B1FEF712F800941020ADF80000D6
:108E20003C200194ADF80200ADF804404FF4C87046
:108E3000ADF8060068467ADF08B1FDF7FFFFFFF7DF
:108E400041FD4248019001A9414800F012FB08B1E0
:108E5000FDF7F4FF3F48009069463F48FEF782FF68
:108E600008B1FDF7EBFFAC216846FDF718FB0220C7
:108E70008DF800008DF8024006208DF803000120D7
:108E8000ADF84C0034498DF87C008DF87D00891FC9
:108E90004FF4FA7014912490402130482291299087
:108EA00044F250612A48239169460C30FEF7FAFAE1
:108EB00008B1FDF7C3FF264801210C30FEF7EFFA99
:108EC0001C216846FDF7EBFA4FF42030CDE9004055
:108ED0004FF47020029022480590032521488DF818
:108EE0000C500690ADF80E408DF810406846FEF725
:108EF000DBFC08B1FDF7A2FF1BA0FDF7B1FE1F4888
:108F00001FA1008805EB004000F0D6FF10480321A8
:108F10000C30FEF7AEFB08B1FDF790FF01203FDFFC
:108F200000F0BAFE01F064F9FAE7000080C1020027
:108F3000A4240020A425002059BB020025810200A2
:108F40004E6F726469635F554152540035A202004E
:108F5000B8260020FDAE02002C2200208DAF0200BA
:108F6000B1AF0200CB8502000D0A55415254207367
:108F70007461727465642E0D0A000000A023002045
:108F80004465627567206C6F6767696E6720666FFE
:108F9000722055415254206F7665722052545420ED
:108FA000737461727465642E0000000070B514461D
:108FB00082880E4605462088111D0144921C994264
:108FC00001D8FE2A01D90C2070BD521C32542088D1
:108FD000FF21401C80B2208031542088401C80B288
:108FE00020808119288802F07DFF2188084480B202
:108FF0002080AA8842B1A96841B13044FDF736FA11
:109000002088A98808442080002070BD072070BDFA
:109010002DE9F047C7880446181D16468946B0FB5F
:10902000F7F1B0FBF7F207FB12009A193A44D21C91
:10903000B2FBF7F2DDF820A001E02468491E002908
:10904000FBD13D1A8846B54216D818E0BAF1000F98
:1090500005D0211809EB08002A46091D04E0204428
:1090600009EB08012A46001DFDF700FA00202468DC
:10907000761BA844B74201D9354600E03D46002E94
:10908000E4D1BDE8F087000030B5024659B100F0E8
:10909000A9FF0021074C09E004EB810315685B88F8
:1090A000AB4202D11160002030BD491C8142F3D394
:1090B000052030BD70230020F8B50F460178144616
:1090C0000546012901D1687830B12088821C9A4276
:1090D0002DD8012902D006E00720F8BD69780144A7
:1090E000891C994223D8181A801E86B2ADF80060F8
:1090F0002188B81C084469467DDF0028EDD1287816
:10910000022805D1BDF80010B14201D809210AE0BA
:109110000821012805D16878B04202D8ADF80000D6
:1091200001E0ADF80060BDF80000FE2801D90C2078
:10913000F8BD2288401CB8542088401C80B2208092
:1091400039542088401C2080BDF80010084420803D
:109150000020F8BD10B50A8849888A4203D1FDF77E
:109160009BF8012010BD002010BD70B50C460546CF
:10917000FDF775F8002802D061882868084470BDA2
:1091800001F01F0301229A40D243490900EB8100FC
:10919000114600F021B84A0950F8220001F01F02E0
:1091A00001219140084000D00120704701F01F03C9
:1091B00001229A40490900EB8100114600F01CB8D9
:1091C000002100F00FB8012100F016B808B56A467A
:1091D000FDF7B7F8009808BD08B56A46FDF797F89F
:1091E000009808BD08B56A46FDF791F808BD08B5B6
:1091F0006A46FDF773F808BD08B56A46FDF77AF8C8
:10920000009808BD08B56A46FDF7A8F8009808BDA3
:1092100038B5044600258DF800506846FDF768FF14
:1092200021686268086890420ED9401E0860017883
:10923000A38AE26801FB0325227A2168101AC0B2D2
:109240000A79824200D208719DF80000FDF774FF90
:10925000284638BD38B5054600208DF800000C467C
:109260006846FDF745FFE868A98A201AB0FBF1F1CE
:109270002A681068431C136001709DF80000FDF718
:109280005BFF38BD10B530B1017A42680368891AB6
:10929000C9B21A6006E00E2010BD03681A68541C9B
:1092A0001C601170491EC9B2F7D20068002101711B
:1092B000084610BDC20800F007030120895C9840F1
:1092C0000840704710B5C20800F00703885C01240D
:1092D0009C402043885410BD28B1A1F11702E12A17
:1092E00003D3072070470E2070470180002070478D
:1092F00010B560B10161F72120F8021B20F8021BB4
:10930000FB2100F8021BFFF753FC002010BD0E20CC
:1093100010BD0000F0B5858893B00C46002D39D102
:10932000018800263E4F24293BD006DC102909D0B5
:1093300011290CD0232958D14FE03A290BD05529B7
:1093400053D129E00146204601F076FE4DE0A01DF4
:10935000FFF72EFC49E02246408934F8061F81427F
:1093600000D808466080172800D217206080106956
:1093700070B1607960B1D7E90001CDE90301ADF8C2
:109380000E506088ADF81000136903A91046984785
:109390006671267113B0F0BD0146204601F09CFEB7
:1093A00023E0011D2C2206A8FDF760F8BDF8180087
:1093B000BDF81C2004EBC0014A732269AAB1D7E9A9
:1093C0000423CDE90423ADF81200487B8DF8140086
:1093D0002269204604A9904707E0017A207B884251
:1093E00000D201462846FFF717F9A07A0028D1D00D
:1093F000E1882846A5DF012570B11128CAD001F007
:109400008FF90246074808A1008813B005EB004019
:10941000BDE8F04000F054BDA672E572BAE7000066
:10942000B0C102007023002073645F626C655F67E7
:10943000617474635F65786368616E67655F6D749E
:10944000755F72657175657374282920726574750E
:10945000726E65642025732E0000000020B1027832
:10946000DE2A03D0082070470E207047418000207C
:10947000704760B159B10278DE2A0AD009684160AC
:10948000DE2101704FF6FF714180002070470E20F1
:109490007047082070477FB5054600294DD0002D44
:1094A0004BD008780C46DE2847D1A88861888842CE
:1094B00002D1204602F0B6FD2888012825D00228D6
:1094C0003BD011283AD0512837D135F8040F6188A4
:1094D000884232D1A978A81C02292ED1017A042908
:1094E00003D0062901D0052927D1002100910222AD
:1094F0008DF8002001914FF4C07202910391ADF8F4
:109500000420007A05280FD010E0297A204601298E
:1095100013D1A988428891420FD10121017204B070
:10952000BDE8704002F07EBDADF8041028886946A1
:10953000B0DF002801D0616888477FBDA8886188B6
:109540008842FAD14FF6FF7060807FBD00F1804005
:109550000068002800D00120704708B500F1804065
:10956000002101600068009008BD000070B50B4C40
:10957000207808B185250FE00020A06060602061A0
:10958000E060074801F008F9054601F053F808B912
:1095900001F0ECF801202070284670BDA4280020BE
:1095A0003D84020038B500258DF800506846FDF76F
:1095B0009FFD074CE068401EE060E06810B901F0D4
:1095C000FBF8A5709DF80000FDF7B6FD38BD000062
:1095D000A4280020F0B505460478154889B0164641
:1095E00040F82420124A0869121DA2F1080742F827
:1095F0002400487F385520226846FCF737FF049442
:109600002878385C48B10EB10A4A00E00022694669
:10961000281D01F065FB09B0F0BD0EB1064A00E05F
:109620000022694605F10C0001F010FAF3E7000092
:1096300078220020C1BD020069BC020030B403786A
:10964000054CE35C1BB130BC001D01F07FBB30BC9E
:109650000C3001F065BA00007422002030B40378A9
:10966000054CE35C1BB130BC001D01F0F1BB30BC0C
:109670000C3001F0CBBA0000742200200FB408B502
:109680000399002904D004AA00926A4600F00FF85A
:1096900001B05DF814FB10B582680446002A05D0BD
:1096A000D4E90403216898470020A06010BD2DE98B
:1096B000FC4791460C00804676D014F8011B39B166
:1096C00025290ED04046FEF74DFE20780028F4D123
:1096D00098F80C00002867D04046BDE8FC47FFF72B
:1096E000DABF0020012221782B291BD02D2902D09E
:1096F000302908D102E040F0010001E040F0020012
:10970000641C002AEFD100252A290ED02178A1F16E
:1097100030020A2A11D205EB850201EB4205641CD6
:10972000303DF1E740F00400EAE7D9F800100B1DE6
:10973000C9F800300968641C0D44217800232E29E3
:109740000BD114F8011FA1F130020A2A05D203EB54
:10975000830201EB4203303BF3E76C290DD068290B
:109760000BD0692921D00BDC252918D0582931D0FC
:1097700063290ED0642915D117E014F8011FECE716
:10978000702969D0732932D075291BD0782909D165
:1097900020E0D9F80000011DC9F80010017840460A
:1097A000FEF7E0FD641C90E76CE0D9F800100A1D9C
:1097B000C9F800200968CDE900500A224046FFF7A9
:1097C000E5F8EFE7D9F800100A1DC9F8002009688C
:1097D0000A2206E0D9F800100A1DC9F8002009681D
:1097E0001022CDE90050404602F082FBDAE7D9F8BA
:1097F000001000270A1DC9F800200E68C00705D117
:1098000012E04046761C7F1CFEF7ACFD3178002943
:10981000F7D104E0202140466D1EFEF7A3FDBD42B6
:10982000C0D9002DF6D1BDE74EB13046FCF742FE5F
:10983000074604E0202140466D1EFEF793FDBD4221
:1098400006D9002DF6D103E04046761CFEF78AFDCE
:1098500031780029F8D1A5E7D9F80000011DC9F831
:109860000010056830214046FEF77CFD7821404617
:10987000FEF778FD08200021CDE900010346102203
:109880002946B0E7BDE8FC872DE9F04128B1016821
:1098900019B1C969BDE8F04108470D4D0D480024D4
:1098A000461B14270DE000BF04EB840005EB80008D
:1098B000016829B1C969884710B10120BDE8F0816C
:1098C000641CB6FBF7F0A042EED80020F6E70000DB
:1098D0000000000000000000044801214174007AEB
:1098E00008B100207047012070470000482B00207D
:1098F000012801D0032808D10449002201284A7414
:1099000000D00020087401F01DBD7047482B0020D6
:1099100070B50246022801D0032A45D1234C207A93
:10992000002841D0012833D0022831D1204800231B
:10993000022A006802D0032A2AD11BE0E3600179E1
:1099400011B1012924D10DE0D0E90565711B4FF457
:109950008056B14200D33146294481614569A9420C
:109960000ED015E00169491C0161426991420FD195
:10997000237213E0E168491CE160082908D9E3601B
:109980002372022A0AD00D21FEF71AFF01F0D0FC43
:10999000607C28B1BDE8704000F052BE0021F3E7C2
:1099A000BDE8704001F0CEBC70BD0000482B002027
:1099B000F422002070B541EA4201DDE904564FF07F
:1099C000A04441EA830141EA052104EB800041EA19
:1099D0000641C0F8001770BD70B541EA4201DDE9EB
:1099E00004564FF0A04441EA830141EA052104EB0B
:1099F000800041EA0641C0F8001770BD70B541EA29
:109A00004201DDE904564FF0A04441EA830141EAF6
:109A1000052104EB800041EA0641C0F8001770BD43
:109A200070B541EA4201DDE904564FF0A04441EA35
:109A3000830141EA052104EB800041EA0641C0F8B8
:109A4000001770BD1CB500220B4600921146019212
:109A5000FFF7D4FF1CBD1CB500220B460092114637
:109A60000192FFF7DDFF1CBD1CB5002100910B46E4
:109A7000012201911146FFF7C1FF1CBD1CB5002159
:109A800000910B46012201911146FFF7C9FF1CBD51
:109A90004FF0A04202EB8000D0F8002722F44032C1
:109AA000C0F80027D0F8002742EA0141C0F80017AB
:109AB000704701224FF0A043824011B1C3F808253E
:109AC0007047C3F80C25704718B5084B6C46014425
:109AD0001B68009306E000BF54F82030D3F810351F
:109AE000401C08C28142F7D818BD0000D8C102004E
:109AF000034908B50844002101600068009008BDD2
:109B00000060004002494058012800D00020704702
:109B10000060004030B5124B01460020D3F81044DD
:109B2000224609E0157A854205D1401C0A28F7DB58
:109B30004FF0FF3030BD5268002AF3D1421CF9D0FB
:109B40000872D3F810242AB152684A60D3F810245E
:109B5000516030BD0022C3F810144A6030BD0000CF
:109B6000682C00207047FCF725BE704708B5034AF3
:109B700000924023024A00F005F808BD41B60200F9
:109B8000682B0020F0B595B01C4615460F460846D8
:109B90001A9E00F0F7FA182109A8FCF780FC0E962F
:109BA000CDE909540023082203A9384600F0FFFA42
:109BB00005980690BDF81000ADF81C00BDF8120025
:109BC000ADF81E0000208DF821000398082600F053
:109BD0000300012802D0022818D032E0039833464F
:109BE000850AC0F3C2008DF8200003980FA9C0F3C6
:109BF0008314A200384600F0DAFA09A8009006ABF8
:109C000022460FA9284600F019FA1AE00398840D9D
:109C1000C0F3C2008DF82000082C01D2254600E0D8
:109C2000082533462A460FA9384600F0C0FA2E44CC
:109C3000641B09AB06AA29460FA800F051F9002CB5
:109C4000EAD1384600F0A4FA15B0F0BD0A4A01295D
:109C500002EBC00007D0022907D0032907D004294E
:109C600007D0002070470220704704207047007919
:109C7000704740797047000074CC020010B5FFF7C0
:109C800072FF04210348FFF745FF02490120487293
:109C900010BD00000C2300202DE9F04F8DB0FEF721
:109CA00071FB18B100200DB0BDE8F08F7A4C4FF079
:109CB000000BC4F818B4BFF34F8F60680290A5681A
:109CC000D846284004EB800008E0216802988142D1
:109CD00001D86160E6E7284004EB80000C3002A95F
:109CE000FEF7E8FE0028F0D105AA029901EA050373
:109CF00004EB8303491CDB6842F82030401C0291CE
:109D00000228F2D3059800F00300022802D00128AF
:109D10004ED0A9E005985022810D8946B2EB905FA4
:109D200000D850210E4666F39F50059008315B48DD
:109D300000F0DFF9070079D000F024FA434608224A
:109D400005A9384600F039FA029908F1080A2940B5
:109D5000681A8000001D864223D94F4D0C3530B162
:109D6000C2B204EB8101301A90460C3104E029465E
:109D7000F2B2002590462846C6B25346384600F057
:109D80001CFA0AEB08032DB1324629464FEA0700B8
:109D900000F013FA029909F1030001EB9000029020
:109DA0003BE004EB81015346324638460C31EFE785
:109DB0000598C0F38310062800D30620059960F3A8
:109DC0008911C1F38310801C05918100334800F094
:109DD00090F9070048D000F0D5F94346082205A9BC
:109DE000384600F0EAF908F1080800260FE002986A
:109DF000434600EA0501401C04EB81010290042265
:109E000038460C3100F0D9F908F10408761C0598A1
:109E1000C0F38310B042EAD847B1D4F81054D4F854
:109E2000180468B1384600F0B3F92FE01CE0687AF6
:109E3000012804D12A6828463946126890476D687F
:109E4000002DF4D1384600F0A3F98DF800B0684633
:109E5000FDF74EF9D4F8180408B9029860609DF82F
:109E60000000FDF769F911E0D4F8104404E021681E
:109E70002046896888476468002CF8D10848022188
:109E8000008801EB004007A100F016F8FEF77AFA0F
:109E900080F0010007E70000682C0020F4CC0200ED
:109EA000A02300204261636B656E647320666C754D
:109EB000736865640000000000231A4601F090BC3E
:109EC00008B5012300926A4601F08AFC08BD1CB562
:109ED000CDE9002302236A4601F082FC1CBD00008C
:109EE0002DE9F0470E4680461C46924608293ED88A
:109EF00094F80C90002020731946104601F0C0F928
:109F00000025B54206D218F805201AA12046FFF711
:109F1000B5FB03E019A12046FFF7B0FB6D1C082D2F
:109F2000EFD317A12046FFF7A9FB0025B54210D2B9
:109F300018F80570FCF796FA0068C05D10F03E0F47
:109F400001D03A4600E02E220EA12046FFF796FBF4
:109F500003E00DA12046FFF791FB6D1C082DE5D312
:109F600001222146504601F06DF984F80C90BDE8BD
:109F7000F0870000202530327800000020202000EB
:109F80007C0000002563000020000000104810B590
:109F9000FF218160002101604160C0F81814C0F801
:109FA000141480F820140B4800F0F0F800280DD1AC
:109FB00009480A490A4B401AC108002003E000BFC3
:109FC00023F82000401C8842FAD3002010BD000076
:109FD000682C0020F4CC0200F4CC020074CC020007
:109FE0007023002002480349401AC008704700004F
:109FF000F4CC020074CC020013B56846FFF744F8B5
:10A0000008B100201CBD0248009950F831001CBD69
:10A0100074CC020070B508480125D0F8104480F8CF
:10A02000205405E0657221682046496888476468C5
:10A03000002CF7D170BD0000682C00202DE9FF47EF
:10A0400081460C9D00200C462F7B287398461646AF
:10A050002946184601F014F9072E42D2DFE806F02F
:10A0600004090F161F2A360049462846FFF706FB4B
:10A0700037E0494628462268FFF700FB31E0D4E983
:10A08000002349462846FFF7F9FA2AE0A068009025
:10A09000D4E9002349462846FFF7F0FA21E0D4E945
:10A0A0000201CDE90001D4E9002349462846FFF723
:10A0B000E5FA16E004F1080007C88DE80700D4E9C6
:10A0C000002349462846FFF7D9FA0AE004F10800C0
:10A0D0000FC88DE80F00D4E9002349462846FFF752
:10A0E000CDFA00222946404601F0ACF82F73BDE8B6
:10A0F000FF872DE9F041858A80462D1F4819C01C35
:10A10000B0FBF5F0C6B24046FFF782F8041E19D046
:10A110000020207101206071E58000272546761E11
:10A12000C4F800800BE04046FFF772F860B1617937
:10A13000491C6171286005467F1CC0F80080B74249
:10A14000F1D32046BDE8F081204600F002F800205F
:10A15000F8E72DE9F041457901466B1E002201E048
:10A160000968521C9A42FBD30F680146002605E09D
:10A1700038460C68FFF76EF82146761CAE42F7D3DE
:10A18000BDE8F0810121001DFFF720B8FFF77AB884
:10A1900010B504460121001DFFF734F810F0FF0F41
:10A1A00004D12046BDE81040FFF7D3BF10BD38B53D
:10A1B00001240094FEF72CFF38BD38B5002400942C
:10A1C000FEF726FF38BD0000064910B50020487094
:10A1D000091D0860BFF35F8F0349044800F05CFA73
:10A1E000002010BDFC22002050C202005C2B002089
:10A1F00008B500208DF800006846FCF779FFF1EE05
:10A20000100A20F09F00E1EE100ABFF35F8F0849AB
:10A210004020C1F880029DF80000FCF78DFF00F09F
:10A2200009FA08B141DF08BD20BF40BF20BF08BD0B
:10A2300004E000E0FCF702BE20B1034909680160B8
:10A24000002070470E20704730C402002DE9FE4305
:10A2500006460D460846FFF7EFFF00287ED18046F0
:10A26000CDF80080CDF80480012406208DF8006030
:10A27000ADF80400CDF808808DF802406946202032
:10A280002A6869DF3F4F40B100F04AFA0246388839
:10A290003D4904EB0040FFF713FECDF800808DF838
:10A2A00001408DF80280CDF80480CDF808808DF84B
:10A2B0000380694640202A6869DF40B100F030FA27
:10A2C00002463888314904EB0040FFF7F9FDCDF82C
:10A2D00000808DF80060F720ADF80200CDF8048012
:10A2E000CDF80880694623202A6869DF40B100F074
:10A2F00017FA02463888264904EB0040FFF7E0FDD4
:10A30000CDF80080CDF80480CDF808808DF80040AD
:10A310004646694601202A6869DF40B100F000FA2C
:10A32000024638881B4904EB0040FFF7C9FD4FF493
:10A33000B0600090019602966946A1202A6869DF04
:10A3400040B100F0EDF902463888134904EB0040B3
:10A35000FFF7B6FD00960196029600E010E08DF83A
:10A3600000606946A0202A6869DF40B100F0D8F992
:10A3700002463888094904EB0040FFF7A1FD0020A0
:10A38000BDE8FE83A8230020D0CA020018CB02003B
:10A3900064CB020030CA02007CCA0200DCC90200A1
:10A3A0002DE9F0410446D0F8008060DF2168194DA6
:10A3B000074641451CD92888022606EB004016A115
:10A3C000FFF77AFD2888424606EB00401EA123686D
:10A3D000FFF77DFDF006D0F80C012168800200F146
:10A3E0000050421A288825A106EB0040FFF768FDBF
:10A3F000012467B1384600F093F9024628882AA163
:10A4000004EB0040FFF75CFD3846BDE8F0812E48C4
:10A410000470F9E7A8230020496E737566666963C6
:10A4200069656E742052414D20616C6C6F6361747C
:10A43000656420666F722074686520536F6674448B
:10A4400065766963652E00004368616E67652074F8
:10A4500068652052414D207374617274206C6F6383
:10A460006174696F6E2066726F6D20307825782078
:10A47000746F20307825782E000000004D617869D7
:10A480006D756D2052414D2073697A6520666F723B
:10A49000206170706C69636174696F6E20697320EC
:10A4A000307825782E00000073645F626C655F650C
:10A4B0006E61626C6528292072657475726E6564C0
:10A4C0002025732E000000006B23002030B51548B6
:10A4D000ADF5017D0078002821D04FF4FA7500BF5A
:10A4E000ADF8005280A9684661DF38B1052816D062
:10A4F0000DF5017DBDE83040FCF7A0BC6C460A4973
:10A500007DA800F0C9F806E0D0E900212046904778
:10A510007DA800F0D8F87F980028E1D0F4E70DF589
:10A52000017D30BD6B23002034C40200F8B5134C0C
:10A530002078C0B10120A07001F04CF8112814D08F
:10A54000022001F05FF800258DF800506846FCF706
:10A55000CFFD11DF064625709DF80000FCF7ECFDED
:10A560002EB13046F8BD0820F8BD0020F8BDA5701A
:10A5700001F0F2F8032001F045F8F6E76823002027
:10A580007CB5204C207808B108207CBD0120A0704B
:10A59000002001F01FF8112819D0002001F032F836
:10A5A00019480026006801908DF800606846FCF7A5
:10A5B0009FFD164901A810DF05000AD00020207079
:10A5C0009DF80000FCF7B8FD2DB128467CBD0020A9
:10A5D0007CBD0120F3E7A67066700721162000F00D
:10A5E000B0FF08B1FCF72AFC0721152000F0A9FFF5
:10A5F00008B1FCF723FC01F0CBF8012001F002F8D0
:10A60000E5E7000068230020C8C30200C16D020016
:10A610000EB50749684600F03FF805E0D0E90010A4
:10A620008847684600F04FF802980028F6D10EBD22
:10A63000E4C302000148007870470000682300204E
:10A640000548817819B1007818B1FFF76FBF08206D
:10A650007047FFF795BF0000682300201FB56846CC
:10A660004BDF30B1052814D004B0BDE81040FCF732
:10A67000E5BB084901A800F00FF806E0D0E9002189
:10A680000098904701A800F01EF803980028E6D033
:10A69000F4E71FBD50C40200016009684160AFF3D8
:10A6A000008010B5D0E900215368994201D1002102
:10A6B00004E0D1E90034A34202D01946816010BD04
:10A6C00008314160F0E7816800290BD00268926888
:10A6D0000A44826041684B689A4203D10831416064
:10A6E000FFF7DFBF704700000C4A10B502F5947306
:10A6F0000EE0991AC91001EBD171491002EBC101AA
:10A700000C68844201D90B4602E005D201F108022F
:10A710009A42EED3002010BD486810BD70C20200FE
:10A7200000B5FFF7E1FF002800D1014800BD00009F
:10A730005CC202004058002800D00120704708B5D4
:10A74000002242504058009008BDD0F80403084051
:10A7500000D0012070474058002800D001207047E9
:10A7600008B5002242504058009008BD08480068D3
:10A77000012110F0010F08D14FF0E020E02280F815
:10A780000024C0F88012C0F8001102480160704730
:10A7900000E100E0180500400649024600200B7960
:10A7A0000BB1852070470A6001220A7100224A71AC
:10A7B00070470000802200200449012008600448FE
:10A7C0000168C1F300410029FAD170470C00004034
:10A7D00018040040002802D0014980010847704752
:10A7E000F1C102002DE9F0418846054600F012FD56
:10A7F000234E002828461AD0FDF704FE304490F876
:10A8000048008009032802D001280ED007E04FF04D
:10A81000A040D0F81005E84010F0010F05D003214A
:10A820002846BDE8F041FFF733B90221F8E700F010
:10A83000FDFC002822D02846FDF7E4FD04464FF435
:10A84000807000EB84000F4F81B207EB8400D0F8DA
:10A85000102542F00102C0F810250846FFF748F91C
:10A86000B8F1000F0AD02846FDF7CCFD56F82000BD
:10A87000002803D00120A040C7F80403BDE8F08100
:10A88000B8280020006000402DE9FC41DFF8BC80C2
:10A89000044608EB0400002790F930001346C01767
:10A8A0000E46401C01D008274CE0B0781946C0F392
:10A8B00040022046FDF782FD0546401C41D0B0789D
:10A8C000410719D4C0070AD04FF0A04000EB840123
:10A8D000D1F8000720F00200C1F8000707E00021CE
:10A8E0007378204600910A460191FFF775F81749E1
:10A8F00020465431FEF7E6FCB078800718D514489E
:10A90000317800EB8500D0F81025124B1A40C0F8C2
:10A9100010254FF4F8524FF4403302EA042203EAC0
:10A9200001410A43D0F810150A43C0F8102509E088
:10A9300008EB0500327810F8481F41EA82110170D7
:10A9400000E004273846BDE8FC810000B82800205C
:10A9500000600040FFE0FCFF4FF0A041D1F810156F
:10A96000C14011F0010000D00120704770B5184DB2
:10A9700095F8580008B1082070BD0020411E2A1823
:10A98000401CC0B282F830102028F8D300242046A2
:10A99000FDF706FD641CE4B20C2CF8D300240D492D
:10A9A000E0206C6581F8000401264020891FC1F871
:10A9B0008002C1F800014FF4BE70FFF799F8064914
:10A9C000F007C1F8040385F85860204670BD000008
:10A9D000B828002006E000E000600040034890F83E
:10A9E0005800002800D0012070470000B82800203F
:10A9F0000121B1EB507F01D1012070470020704749
:10AA000038B50D4600F088FC040014D000208DF805
:10AA100000006846FCF76CFB207928B19DF8000027
:10AA2000FCF78AFB112038BD0120256020719DF8BC
:10AA30000000FCF781FB002038BD000001490248FE
:10AA400001F02AB914290020002000402DE9F0412E
:10AA50000546007916460F4600EB40012D4A01EBF2
:10AA6000C00102EB810494F82A1011B10820BDE85E
:10AA7000F081294951F820102868FFF7C1FF08B17B
:10AA80001120F4E739462846FCF770FB6660386908
:10AA9000206030004FF001062FD03F7F4FF48E71C1
:10AAA0002868FFF74CFE4FF4A2712868FFF747FEB5
:10AAB00028681A49C0F8041328684FEA4711000BA8
:10AAC00040B2002806DA00F00F0000F1E02080F824
:10AAD000141D03E000F1E02080F800142868000B4A
:10AAE00040B200F01F0206FA02F14009800000F1B6
:10AAF000E020C0F88012C0F8001128680421C0F8D6
:10AB000000150020A061E06184F8290044F8140FCA
:10AB1000A675ACE714290020DCC102008000020009
:10AB20002DE9F05F054600794FF4017600EB400314
:10AB300003EBC000344B03EB80040020636813B1C7
:10AB40002B68C3F80863A3694FF000096BB1E06993
:10AB500038B1606810B12868C0F804631120BDE8FE
:10AB6000F09FE2610120216105E0C4F82490A26118
:10AB7000E160C4F81C9094F82910014302D12846E2
:10AB800000F0CFFC60680028286803D0C0F8046398
:10AB90000020E4E74FF4A2763146FFF7D0FDB2463D
:10ABA0004FF4927B59462868FFF7C4FD06464FF4E0
:10ABB00084712868FFF7BEFD804651462868FFF77C
:10ABC000B9FD074648EA07003043EBD056EA0700D4
:10ABD00007D12146286800F023FCA169606A814200
:10ABE000E0D8C4F818900EB10320B8E70FB10F20D9
:10ABF000B5E794F8291001200029296801D00860E0
:10AC0000C6E74860C4E70000142900202DE9F0479A
:10AC1000054600790B4600EB400101EBC0002349DB
:10AC200001EB8004284600F043F810B11120BDE884
:10AC3000F0874FF00008C4F82080A360626184F8B8
:10AC400028804FF48E76474631462868FFF777FD17
:10AC500028684FF00109C0F808902146286800F0E4
:10AC6000F1FE606800BBD5F800A00EE094F8280063
:10AC700008B10F2716E031465046FFF75BFD00286C
:10AC8000F4D02146504600F0DDFE216A6069814221
:10AC9000F1D331462868FFF74DFD0028F9D0286828
:10ACA000C0F80C90C4F814803846C0E7142900207E
:10ACB000007900EB400101EBC000044901EB80008A
:10ACC0004069002800D001207047000014290020AE
:10ACD0000149024801F08CB84029002000200040C2
:10ACE0002DE9F0410546164600790F46154A00EB5E
:10ACF000C00102EB810494F8201011B10820BDE8D6
:10AD0000F081114951F820102868FFF779FE08B149
:10AD10001120F4E739462846FCF76CFA666038697A
:10AD200020601EB1397F2846FDF784FE286808217F
:10AD3000C0F800150020A061E0610121606184F885
:10AD40002010DCE740290020E0C102002DE9F05F7F
:10AD5000044600790E4600EBC001DFF8F0A017466C
:10AD60000AEB81053046FFF743FEB0B168684FF04B
:10AD700000084FF4047910B12168C1F80893A8695C
:10AD80004FF0000B80B1E86948B1686810B12068E5
:10AD9000C0F804931120BDE8F09F1020FBE7EF619D
:10ADA0004FF001082E6102E0EE60C5E9067B002548
:10ADB0004FF488712068FFF7D3FC4FF4A27120682C
:10ADC000FFF7CEFC2068C0F83465C0F838752068FD
:10ADD000B8F1000F12D0D0F8001241F02001C0F8F5
:10ADE00000122079D04600EBC0010AEB81004068D8
:10ADF00038B12068C0F804932846CCE701210160EF
:10AE0000EFE74FF4887A4FF4A27951462068FFF7B4
:10AE1000A2FC074649462068FFF79DFC06464FF412
:10AE200092712068FFF797FC014647EA0600084345
:10AE3000EBD0227902EBC20308EB8302C2F818B010
:10AE400001B10325002ED7D00F25D5E740290020DA
:10AE50002DE9F04704460E460079204900EBC0007A
:10AE600001EB800517463046FFF7C2FD30B12046A2
:10AE700000F036F820B11120BDE8F0871020FBE784
:10AE80006F61AE604FF49076002731462068FFF77F
:10AE900067FC4FF4AC7841462068FFF761FC2068FE
:10AEA000AA686969C0F84425C0F8481520680121DE
:10AEB0008160686878B9B14649462068FFF74BFC65
:10AEC000064641462068FFF746FC0643F4D000B131
:10AED0000F27002068613846CEE700004029002097
:10AEE0000079054900EBC00001EB800040690028B3
:10AEF00000D0012070470000402900202DE9F041DA
:10AF000005460078002826D10026144F4FF001088E
:10AF100012E02869805DFCF7C1F804000BD0112C09
:10AF2000F7D03988224608EB01400DA1FEF7C8FF93
:10AF30002046FBF783FF761CA88AB042E9D8A98A8D
:10AF40002869084410F8010C0D2804D10A20FCF7E8
:10AF5000A5F81128FAD0BDE8F0810000A023002058
:10AF60004661696C656420726563656976696E67C0
:10AF7000204E5553206D6573736167652E204572B1
:10AF8000726F7220307825782E20000010B550B1F5
:10AF900003280CD10220FDF705F9002807D0BDE8F1
:10AFA0001040FBF74BBFBDE8104000F0B5BB10BD33
:10AFB0000078002807D104483B21408876DF00282C
:10AFC00001D0FBF73BBF704720220020F0B58BB0CB
:10AFD000002601960D4604468988406901AAFCF7BF
:10AFE0004DF90AA8CDE908600227ADF82070ADF848
:10AFF0002260218AA88808AAADDF002819D1A0699B
:10B00000002816D00998FCF711FF002811D0019EE6
:10B010000EB101203070182102A8FBF740FA8DF81C
:10B0200008700394A888ADF810000596A16902A8DD
:10B0300088470BB0F0BD000070B58D88027900EB39
:10B04000C5042273C97BA41D012902D0022904D1A1
:10B0500001E0008800E040882080218860888142EB
:10B060000FD92846A5DF0126A0B1112814D0FFF77B
:10B0700057FB02460A480BA1008806EB0040FEF78A
:10B080001FFFA179E079814208D92846BDE87040C8
:10B09000FDF7C2BA6671F4E72671F2E770BD0000F1
:10B0A0007023002073645F626C655F676174746312
:10B0B0005F65786368616E67655F6D74755F726503
:10B0C000717565737428292072657475726E656474
:10B0D0002025732E000000007CB506468D88C888A8
:10B0E00006EBC504A41D172800D217202188814231
:10B0F00000D8084660800020207121882846B5DFEE
:10B1000050B1FFF70DFB02460E480121008801EB0C
:10B1100000400DA1FEF7D4FE6079002810D13069FF
:10B1200000280DD01449D1E90201CDE90001ADF8A4
:10B1300002506088ADF80400326969463046904795
:10B140007CBD00007023002073645F626C655F67E4
:10B15000617474735F65786368616E67655F6D7451
:10B16000755F7265706C7928292072657475726ECE
:10B1700065642025732E0000B0C10200F0B587B0D1
:10B180000C4605468E1D8988406906AAFCF776F8AC
:10B1900018216846FBF783F90195A088069AADF857
:10B1A0000800039231882B89002704F1120099428C
:10B1B00002D17389022B0DD0AA8991421ED1A969AF
:10B1C00000291BD08DF8007004907089ADF8140030
:10B1D000A96911E0002A11D0FCF728FE20B10699D8
:10B1E00001200870022002E00698077003208DF805
:10B1F0000000A969002901D06846884707B0F0BD62
:10B200000068012803D0022801D0002070470120E7
:10B21000704700000449084490F93000082801DB19
:10B220000120704700207047B828002004490844D6
:10B2300090F93000082801D20120704700207047A3
:10B24000B828002010B50C46017A052908D0407AAC
:10B2500038B1084808A102682046FEF70FFA00E05E
:10B260001AB106A12046FEF709FA2046BDE81040B3
:10B27000FEF711BA44230020257300000D0A0000D8
:10B2800038B5C3880D46044633B114A0009015A20A
:10B2900016A12846FEF7F2F9217A05291CD0607A1A
:10B2A00048B1A088FEF7D2FC164951F8202016A11B
:10B2B0002846FEF7E3F9A0880021FEF79DFE03462D
:10B2C0001049207A143951F8202001B02846BDE8F1
:10B2D00030400EA1FEF7D2B938BD00001B5B306DC7
:10B2E000000000001B5B313B33316D0025734C6F58
:10B2F00067732064726F7070656420282564292547
:10B30000730D0A0044230020257300003C25733E82
:10B310002025733A200000000349884201D10348E8
:10B320007047002070470000002000408822002065
:10B33000034802490068FDF70DBF0000F822002015
:10B3400028C202002DE9F041234C0025234E207A2B
:10B35000012730B92248311D0068FDF706FF306033
:10B3600038B1022020723168087928B101281ED135
:10B3700016E06560BDE8F081D1E90503C01A4FF41D
:10B380008052904200D31046B7EB900F01D2820852
:10B3900000E001220869C9681844194429DF03E064
:10B3A000D1E90301084428DF58B1112812D0032144
:10B3B0003068FDF705FA25726560BDE8F041FFF7DA
:10B3C000B7BF207C0028D5D1BDE8F0410021022084
:10B3D000FEF79EBA2772CDE7482B0020F42200200A
:10B3E00028C2020070B5012670044FF0E02100254C
:10B3F000C1F88001084C4010C4F84803C4F80803A1
:10B4000066602F20FFF7E6F9A660044C2F20A560A8
:10B41000FFF7E0F9A57070BD00100140B0220020D8
:10B4200070B5054688690C4600284FF4847128469B
:10B430000AD0FFF784F9D5F81805626AE1688854E4
:10B44000606A401C606270BDFFF779F9D5F8180595
:10B4500070BD30B58FB005461C216846FBF71FF85C
:10B4600000249DF80000019440F00C008DF80000CD
:10B47000039404940594069428788DF836000220ED
:10B48000ADF834000C949DF83000142120F00F002A
:10B49000401C20F0F00010308DF830009DF8310095
:10B4A00020F00F00401C20F0F00010308DF831002B
:10B4B0009DF8320020F00600801C20F0180040F0BB
:10B4C00001008DF8320007A8FAF7E9FF0DA80790F0
:10B4D0000CA808900120ADF82400F420ADF8264017
:10B4E000ADF82800688805F10C0307AA6946AADFB1
:10B4F0000FB030BD1FB501238DF80030CDE901211B
:10B50000D0E90012684690471FBD1FB501238DF892
:10B5100000308DF808100192D0E90012684690477B
:10B520001FBD10B5044600684FF49271FFF707F98C
:10B530004FF484712068FFF702F92068012101604F
:10B5400010BD70B50D460446FBF7A2FB70B128464E
:10B55000FBF7B0FB68B16807000E002C0CDA04F0B2
:10B560000F0101F1E02181F8140D09E042F2010020
:10B5700070BD42F2020070BD04F1E02484F80004C2
:10B58000002070BD38B50021012548B101280CD03C
:10B59000032809D1FFF7EAF8BDE83840FEF702B802
:10B5A0004FF0E020C0F8805138BD8DF8001068469B
:10B5B000FBF79EFD064C207808B9FDF7D7FFE06841
:10B5C000401CE060A5709DF80000FBF7B5FD38BD9C
:10B5D000A42800203EB5044609496846FFF75CF8F8
:10B5E00008E000BFD0E900212046904730B168460E
:10B5F000FFF769F802980028F4D13EBD11203EBD46
:10B60000CCC302003EB5044608496846FFF744F83B
:10B6100007E000BFD0E90021204690476846FFF7C9
:10B6200052F802980028F5D13EBD0000D8C30200B0
:10B6300002498969002900D0084770471028002076
:10B640002DE9F0411400884618D000250E4F03263E
:10B6500008EB050122460020FBF7AEF80544241A4A
:10B6600040B93878002809D008494FF47A40884713
:10B67000761E05D001203870002CE9D1BDE8F0819C
:10B6800000203870FAE7000008230020B1C3020050
:10B690002DE9F0410746806A14468846C8B3002564
:10B6A00031E000BFB96A05EB450001EB8006B088C8
:10B6B000801CFE2802D90C20BDE8F0812288401CA5
:10B6C00008F8020020881622401C80B2208008F86A
:10B6D00000202088401C80B2208000EB08013088C8
:10B6E00000F000FC2188084480B22080B28842B17A
:10B6F000B16871B14044FAF7B9FE2088B1880844B6
:10B7000020806D1CEDB297F82C00A842CAD800200A
:10B71000D2E7FFE70720CFE710B50020FCF742FD96
:10B7200008B1FBF78BFBFCF715FC08B1FBF786FBB8
:10B7300033DF002803D0BDE81040FBF77FBB10BD0E
:10B74000002805D10349012048700020FCF762BEA3
:10B7500070470000A428002010B51620FBF798FAC7
:10B7600048B10A4882684FF4800152B1016821F45F
:10B770008001016010BDBDE8104042F20100FBF7FE
:10B780005DBB4FF0E020C0F8801110BDB02A002052
:10B7900010B51620FBF77CFA80B10F4890F8000432
:10B7A0004009FBF787FA60B10C4882684FF48001CA
:10B7B0006AB1016841F48001016010BD42F20100EC
:10B7C00001E042F20200BDE81040FBF737BB4FF04A
:10B7D000E020C0F8001110BD16E000E0B02A002003
:10B7E0002DE9F84F204D924689460646984601229B
:10B7F00069461846AF68FCF76DFD58B30098002104
:10B800000446801C09E000BF00EA07035AF8212023
:10B8100005EB8303401C491CDA604145F4D34FEA31
:10B82000164AFCF7A3FF4AEA0041601C384005EBCA
:10B8300080003C4005EB8402C160D06866F3C5001F
:10B8400068F3891069F39F2020F00300401C20F06A
:10B850000400D06095F8200402E000BFFEF71CFA57
:10B860000028FBD1BDE8F88F682C00202DE9F84FA7
:10B870001D4C00256846D4E901A6FCF781FF00278E
:10B8800038B30023009A61681CE0D1F800C0084674
:10B89000944503D9ACEB02020A6015E0A2EB0C025E
:10B8A00063440760D0F80CC0C1698146BCF1000F49
:10B8B00008D006EB030828F07F48C0E9018CC9F8DE
:10B8C0001C5005460029E0D128466160FDF77CF94F
:10B8D00003E02846FDF778F910B15046FCF7BCFDAF
:10B8E000E770BDE8F88F0000B02200200D4B10B5C6
:10B8F000596831B102680C68A24204D8A21A0A60E1
:10B90000C161586010BD0B4603E00B46C969121BAC
:10B9100021B10C689442F8D3A41A0C600260C16192
:10B92000D86110BDB02200202DE9F041144E776897
:10B930003D462C4603E0844204D02546E469002CB1
:10B94000F9D11BE0D4B1A5420BD1F869706040B9C0
:10B950000C49012088600021B160F0702F20FEF7B3
:10B9600039FF2168E069E86110B1026811440160A3
:10B970007068874202D00120BDE8F0810020FBE71B
:10B98000B0220020001001407CB5064600240D4680
:10B990008DF800406846FBF7ABFB01A800F054FBB4
:10B9A00070B10570094946609DF8040048709DF823
:10B9B0000000FBF7C1FB1420FAF7A2FE20467CBD75
:10B9C00004249DF80000FBF7B7FBF7E7842900206B
:10B9D0002DE9F041194D6C68002C2CD01848002737
:10B9E0000068A968B846401A20F07F462068B04237
:10B9F0000CD82146361A0744E469087C20B181F846
:10BA00001080886949698847002CEFD129786878C7
:10BA1000814206D1401CC0B26870022801D185F86D
:10BA20000180064869780C3040F82170BDE8F0418B
:10BA30001420FAF765BEBDE8F0810000B0220020B6
:10BA40000415014070B50C4605464FF48E71FEF7A3
:10BA500076FE216AA068415C206A401C2062C5F81D
:10BA60001C1570BD30B58FB00024054607949DF8B5
:10BA70001C001C2120F00F00401C20F0F0001030B2
:10BA80008DF81C009DF81D0020F00F00401C20F0D8
:10BA9000F00010308DF81D009DF81E0020F006000B
:10BAA000801C8DF81E006846FAF7F9FC9DF800002E
:10BAB000019440F010008DF8000007A8CDE9044083
:10BAC0000394069428788DF83A000320ADF83800E6
:10BAD0000D949DF83400142120F00F00401C20F03C
