:020000040002F8
:1060000060570020C1630200C9630200CB63020035
:10601000CD630200CF630200D163020000000000E4
:10602000000000000000000000000000D363020038
:10603000D563020000000000D7630200D9630200AC
:1060400041670200DB630200E16A0200DB630200D9
:10605000DB630200DB63020079650200DB630200A0
:10606000DB630200DB630200DB630200DB63020030
:10607000DB630200DB630200DB630200DB63020020
:10608000DB63020099670200DB630200DB6302004E
:10609000BD670200DB630200C1670200DB63020030
:1060A000DB630200DB630200DB630200DB630200F0
:1060B000DB630200DB630200000000000000000060
:1060C000DB630200DB630200DB630200DB630200D0
:1060D000DB630200DB630200DB6302000000000000
:1060E00000000000000000000000000000000000B0
:1060F00000000000000000000000000000000000A0
:10610000000000000000000000000000000000008F
:10611000000000000000000000000000000000007F
:10612000000000000000000000000000000000006F
:10613000000000000000000000000000000000005F
:10614000000000000000000000000000000000004F
:10615000000000000000000000000000000000003F
:10616000000000000000000000000000000000002F
:10617000000000000000000000000000000000001F
:10618000000000000000000000000000000000000F
:1061900000000000000000000000000000000000FF
:1061A00000000000000000000000000000000000EF
:1061B00000000000000000000000000000000000DF
:1061C00000000000000000000000000000000000CF
:1061D00000000000000000000000000000000000BF
:1061E00000000000000000000000000000000000AF
:1061F000000000000000000000000000000000009F
:10620000DFF80CD000F07AF9004800472DA002001A
:106210006057002030B450E8012F93B2C489234462
:106220008489A34228BF1B1B0489A34202BFBFF37A
:106230002F8F002007E0C3EA020340E80134002C5E
:10624000E9D14FF001000A6030BC704750E8012FDF
:10625000C2EA024240E801210029F7D1704730B478
:1062600050E8022F1FFAA2F3C488A34202BFBFF373
:106270002F8F00200DE0C48923448489A34228BFC6
:106280001B1BC2EA034340E80234002CE8D14FF064
:1062900001000A6030BC704750E8022FC2EA224277
:1062A00040E802210029F7D17047034653E8022F46
:1062B000D988B2EB324F4FF0000017BF92B241EADB
:1062C000014142EA014104E05A68B2EB324F08BF93
:1062D000012043E80212002AE8D1704730B4044696
:1062E00054E8000F0D4644E80053002BF8D1156028
:1062F00030BC704730B4044654E8000F40EA010552
:1063000044E80053002BF7D1156030BC704730B41F
:10631000044654E8000F00EA010544E80053002B4E
:10632000F7D1156030BC704730B4044654E8000F14
:1063300080EA010544E80053002BF7D1156030BC1A
:10634000704730B4044654E8000F00EB010544E800
:106350000053002BF7D1156030BC704730B40446B1
:1063600054E8000FA0EB010544E80053002BF7D1DF
:10637000156030BC704770B404464FF0000054E81C
:10638000006F0D68AE4207BF44E80023012044E8D7
:1063900000630E60002B1CBF0020F0E770BC70474C
:1063A00030B4044654E8000F88422CBF451A054615
:1063B00044E80053002BF5D1156030BC7047000055
:1063C0000648804706480047FEE7FEE7FEE7FEE78F
:1063D000FEE7FEE7FEE7FEE7FEE7FEE7C567020031
:1063E000016202002DE9F05F0546002092469B46BF
:1063F00088460646814640241BE0284641464746DB
:10640000224600F06BF853465A46C01A914110D309
:1064100011461846224600F016F82D1A67EB0108BF
:106420004F4622460120002100F00DF817EB00092D
:106430004E41201EA4F10104DFDC484631462A46C5
:106440004346BDE8F09F202A04DB203A00FA02F11F
:10645000002070479140C2F1200320FA03F3194352
:10646000904070470048704794FE020040EA0103E4
:106470009B0703D009E008C9121F08C0042AFAD2FA
:1064800003E011F8013B00F8013B521EF9D27047BE
:10649000D2B201E000F8012B491EFBD27047002266
:1064A000F6E710B513460A4604461946FFF7F0FF13
:1064B000204610BD421C10F8011B0029FBD1801A98
:1064C000704730B504460020034600E05B1C934251
:1064D00003D2E05CCD5C401BF8D030BD202A04DB49
:1064E000203A21FA02F00021704721FA02F3D0404D
:1064F000C2F120029140084319467047064C074DEF
:1065000006E0E06840F0010394E807009847103483
:10651000AC42F6D3FFF778FE100703003007030004
:1065200070B58C1810F8015B15F0070301D110F855
:10653000013B2A1106D110F8012B03E010F8016B82
:1065400001F8016B5B1EF9D12B0705D40023521E05
:106550000DD401F8013BFAE710F8013BCB1A921C6D
:1065600003E013F8015B01F8015B521EF9D5A1426B
:10657000D8D3002070BD00002DE9F04700268AB076
:10658000DFF85091B0464FF48075012437460696E7
:10659000284604F00DFF38B1D9F80403204203D097
:1065A000284604F0FBFE26432D1D64007F1CADB27F
:1065B000082FEDD34FF4BE74204604F0F9FE48B125
:1065C000204604F0EBFE46F0004606AA012100201A
:1065D00004F0D0FE404D16F0FF0F15D00127002427
:1065E00037420DD009EB8401D1F81005D1F8101510
:1065F000C0F3042055F82420C1F3014102B19047B3
:106600007F00641C082CEBD3002E5FDA4FF0FF30C4
:10661000CDF8108054E0281910F8507F90F9000050
:1066200027F0C008401C3BD007A9404604F00FF8F3
:1066300010B34FEA9719404601F05CFD55F8207001
:106640001FB1B9F1030F03D006E0B9F1030F27D151
:1066500004A9404604F003F84FF0A04101EB880084
:10666000D0F8000706A9C0F3014A404603F0EFFF47
:1066700018B1BAF1020F03D012E0BAF1030F0FD133
:10668000B9F1030F08D1BAF1020F1DD00221404623
:1066900004F054FE761CF6B217B149464046B8479E
:1066A000641C042CB7D3002E10D06A4601210020B0
:1066B00004F060FE06990098884207D0069004987E
:1066C000002634460790A6E70321E0E70AB0BDE8BC
:1066D000F087000000600040CC2E002000F01F0278
:1066E000012191404009800000F1E020C0F88012B3
:1066F000704700F01F02012191404009800000F125
:10670000E020C0F80011704700F01F020121914005
:106710004009800000F1E020C0F8001270474907EE
:10672000090E002806DA00F00F0000F1E02080F8E2
:10673000141D704700F1E02080F80014704700003D
:1067400070B54FF48076304604F0A0F9114CB505D1
:1067500060B1304604F0A1F90120C5F80803607962
:1067600020B9012060712168002088474FF48276AB
:10677000304604F08BF900280AD0304604F08DF939
:106780000220C5F808032168BDE8704001200847D1
:1067900070BD00007425002007480021C0F840119A
:1067A000C0F84411C0F84811C0F84C11C0F80011ED
:1067B000C0F8041108F0F0BB0010014008F03ABB2B
:1067C00005F07ABBF0B5B5480023021D0178101D15
:1067D00001254FF0805406290BD11678360708D1D1
:1067E0000678C6F30316032E06D0042E04D0052E19
:1067F00002D0062907D00EE0B4F82463A84FC6F3F0
:1068000004263E6002E01678360704D10678C6F307
:106810000316032E02D0062904D00FE0A24FA14E8A
:106820007E670EE01678360708D10678C6F30316A1
:10683000032E06D0042E04D0052E02D0062907D040
:106840000EE0D4F84462994FC6F342363E6002E04F
:106850001678360704D10678C6F30316032E02D045
:10686000062906D011E0924E376827F0807737600E
:106870000EE01678360708D10678C6F30316032E05
:1068800006D0042E04D0052E02D006290AD011E02D
:106890004FF08046C6F80C31C6F81031834E361FD3
:1068A000336002E01678360704D10678C6F3031683
:1068B000032E02D0062905D00CE07C4F0326643756
:1068C0003E600AE01678360704D10678C6F3031650
:1068D000032E02D006290DD014E0764F05263E6027
:1068E000744E78363560734E083633603F263F1D50
:1068F0003E6002E01678360704D10678C6F3031628
:10690000052E02D0062957D062E06B4E36686B4FD9
:106910003E60694E361D36683F1D3E60664E083645
:1069200036683F1D3E60644E0C3636683F1D3E6043
:10693000614E103636683F1D3E605F4E1436366835
:106940003F1D3E605C4E183636685C4F20373E6017
:10695000594E1C3636683F1D3E60574E203636680D
:106960003F1D3E60544E243636683F1D3E60524EF9
:10697000283636683F1D3E604F4E2C3636683F1D28
:106980003E604D4E303636684C4F40373E604A4E82
:10699000343636683F1D3E60474E383636683F1DF8
:1069A0003E60454E3C3636683F1D3E60424E4036A6
:1069B00036683F1D3E6002E01678360708D106783B
:1069C000C6F30316032E06D0042E04D0052E02D0E3
:1069D000062907D019E0D4F85812394A01F04F01BE
:1069E000116002E0117809070FD10078C0F303109D
:1069F000032803D0042801D0052806D131480168B6
:106A0000C90702D06FF001010160D4F830010628F7
:106A100008D1D4F83401062804D12B48016841F488
:106A20008061016022487438016841F4700101609E
:106A3000BFF34F8FBFF36F8F4FF01021D1F80002DB
:106A4000002803DBD1F80402002822DA1F4A15606F
:106A50001F480468002CFCD01524C1F800420568CA
:106A6000002DFCD0C1F8044201680029FCD013605D
:106A700001680029FCD0BFF34F8F0D48F038016842
:106A8000144A01F4E06111430160BFF34F8F00BF6E
:106A9000FDE7124910480860F0BD0000E00F00F06B
:106AA000403501400DF0ADBA00C007403C05004044
:106AB000FCED00E0105600400404001020C500402A
:106AC000E40E0040000400403C17004004E5014093
:106AD00000E401400400FA050090D0039C26002049
:106AE00001480068004700007C25002002E008C83B
:106AF000121F08C1002AFAD170477047002001E038
:106B000001C1121F002AFBD170470000012120287B
:106B100003DA81400548014003E0402802DA2038CA
:106B2000814009B10120704700207047FC06FFBD7D
:106B3000082806D228B1012803D0042801D001205A
:106B400070470020704710B560B159B102780B78DA
:106B50005208B2EB530F05D10622401C491CFFF727
:106B6000B0FC08B1002010BD012010BD800701D08D
:106B70000020704701207047C3688B4206D811443B
:106B80000069491E814201D80120704700207047EA
:106B900010B501220221002001F0DCF808B107281D
:106BA00010D107220221012001F0D4F808B10728F2
:106BB00008D100210A22084601F0CCF808B10728C4
:106BC00000D1002010BD000000B5ABB0AC2168467C
:106BD000FFF765FC02208DF8000001208DF802000F
:106BE0008DF87C0006214FF496708DF803102290EA
:106BF00000202390074829906946074800F0AAFB27
:106C000008B100F0EBF80121034800F0A0FB2BB025
:106C100000BD000029C70200FC26002010B550B1BD
:106C20000A480321008801EB004009A104F0B0FDEF
:106C300007F054F803E00321094800F055FC002850
:106C400003D0BDE8104000F0C9B810BDEC2600200C
:106C5000457261736520626F6E64732E00000000E0
:106C6000FC26002070B58CB015460E4600236C46FD
:106C7000C3F10F01415CE1545B1C102BF8D30D21D3
:106C800004F11000FFF70BFC0020C0F10F02315C93
:106C90002244401C11740328F7D3684646DF0020C5
:106CA000C0F10F01214491F820102954401C032801
:106CB000F6D30CB070BD00000149097900F074BD35
:106CC0004825002070B50024064D06E068680121C3
:106CD00010F8340005F0DAF9641C28788442F5D302
:106CE000002070BD88250020F8B515460C460646E4
:106CF000052A01D20720F8BD05F0C4FA18B905F03D
:106D000089FA0028F7D1124900224E600C708D607C
:106D1000C1E90422C1E906220E4D0DE006EBC400D4
:106D20002968009181788DF8011000780A4A694637
:106D300005F0FEF90028DED1641EE4B2EED2BDE813
:106D4000F84004480021054A001D00F053B8000037
:106D50008825002018FB0200F9930200D18502006B
:106D600072B604F0D5FD00BF04F002FC0028FBD190
:106D7000104C0121208801EB00400FA104F008FD18
:106D800010480068C00700D000BE2088022101EB37
:106D900000400DA104F0FCFCBFF34F8F0948E4381C
:106DA00001680D4A01F4E06111430160BFF34F8FA8
:106DB00000BFFDE7EC260020466174616C2065721F
:106DC000726F7200F0ED00E053797374656D20729C
:106DD00065736574000000000400FA050EB500211B
:106DE0000091CDE901106A4644F20100FFF7B8FFB7
:106DF0000EBD0000074B9B7823B12AB120B100687B
:106E0000037C1BB108207047072070474174426122
:106E100000207047982F002070B507F06DFA1048D9
:106E200000240B21047044700E4D817014206C609E
:106E30002C706C70FFF752FC07211420FFF76FFCD9
:106E40001420FFF756FC0848046007211120FFF7C3
:106E500066FC0548001F0068A860002070BD0000A7
:106E6000982F0020A8250020081501402DE9FC4797
:106E7000DFF8789099F8023073B368B3052902D22D
:106E80000720BDE8FC87436933B3437C012B25D041
:106E9000002704460025884616468DF800506846AF
:106EA00000F038F801A808F0D9FAC8B10121017042
:106EB0000F4944600968C0E90218C0E904769DF8EA
:106EC000040089F801009DF8000000F047F8142044
:106ED000FFF71AFC2846D4E70820D2E70F46D8E788
:106EE00004259DF8000000F039F8F3E7982F002002
:106EF000041501400649897839B130B1416921B1A1
:106F000000210174022108F023B808207047000016
:106F1000982F002030B5EFF3108172B60D4A9468B7
:106F2000012324B10370002900D162B630BD936003
:106F30004FF0E023D3F88051074C25401560C3F88B
:106F40008041D3F8844154605A17C3F88421002249
:106F50000270E8E7A4300020FC06FFBD0B498A68F8
:106F6000002A11D000280FD1EFF3108072B60B6801
:106F70004FF0E022C2F800314B68C2F80431002221
:106F80008A60002800D162B670470000A43000205B
:106F90002DE9F041064608680C46411C4FF0A04719
:106FA0004FF0010506D005FA00F1C7F80815206872
:106FB00004F0B0F96068411C02D0002104F098F997
:106FC0003168A069C1F82405607D227D31681043D5
:106FD000C1F86C05D4E900123068C0F81425C0F877
:106FE0000C15207D012815D1A068411C02D000217C
:106FF00004F07EF9E068411C05D08540C7F80855CB
:10700000E06804F087F9D4E902123068C0F8082576
:10701000C0F81015BDE8F0812DE9F041064608687A
:107020000C46411C4FF0A0474FF0010506D005FA71
:1070300000F1C7F80815206804F076F96068411C73
:1070400002D0002104F05DF93168A069C1F824057F
:10705000607D217D32680843C2F86C05D4E90012D6
:107060003068C0F80C15C0F81425207D012815D112
:10707000A068411C02D0002104F043F9E068411CE3
:1070800005D08540C7F80855E06804F04DF9D4E90B
:1070900002123068C0F80825C0F81015BDE8F0816C
:1070A00002F020BF2DE9F047074600888EB08046E9
:1070B00002F028FC824604462D4800252A46017825
:1070C000404600F089FB7879400734D501254FF61A
:1070D000FF7603AB2A460721504605F03BFF01002F
:1070E00004D0404607F01AFB00252BE0B14631469C
:1070F000049802F05BFB064648450FD00446014663
:10710000404602F0E9FB4046FFF7D6FD30B9404665
:1071100007F0DEFA4046FFF7CFFD48B122460721CF
:10712000504605F08DFF010003D0404607F0F6FA07
:1071300000254E4506D0404606F0F0F810B1504606
:1071400002F0CCFB02208DF81800ADF81A80787997
:10715000400701D5012000E002208DF820008DF8C5
:10716000215006A801F03CFC0EB0BDE8F0870000FD
:10717000482500202DE9FC47002517880646158084
:1071800090F82D001446894630B13A4621464846CB
:1071900000F0D6FB051E09D1B0784FF00C0A18B3E9
:1071A0002088C846001DB84202D95046BDE8FC8779
:1071B000684679DF0028F9D12088032108F80010FB
:1071C00020881921401C80B2208008F800102088F7
:1071D000401C80B2208000EB0801BDF8000008F0E0
:1071E0009FF8218808442080F0780222C8B12188C5
:1071F00096F9033001F1030C4846BC45D5D84254FA
:1072000021884FF0010C491C89B2218000F801C08F
:107210002188491C89B2218009F801302088401C4E
:1072200020807068B8B1218890F9003001F1030C1A
:107230004846BC45B9D8425421880A22491C89B223
:10724000218042542188491C89B2218009F80130EB
:107250002088401C2080308950B1CDE900474B4642
:107260000622022106F1080008F010F9051E9DD142
:10727000308A50B1CDE900474B460722032106F181
:10728000100008F003F9051E90D1308B50B1CDE904
:1072900000474B461522142106F1180008F0F6F8B5
:1072A000051E83D1306A30B13B462246494600F084
:1072B000FEFF051EDBD1706A30B13B4622464946CF
:1072C00002F0DEFE051ED2D196F82C0038B13B4606
:1072D00022464946304607F0C7FA051EC7D1307826
:1072E00038B13B4622464946304602F0F1FF051EC2
:1072F000BDD128465AE718B504460020ADF8000075
:1073000013466A46204600F006F8002802D0BDF871
:107310000000204418BD70B588B182B100241588E2
:1073200003E0065D641C3444A4B2A54203D80619E8
:1073300076789E4201D08C42F3D38C4201D3002058
:1073400070BDA11C1180005D401E80B270BD80F830
:10735000301070472DE9F0410D00044606D02CB1E5
:1073600095F87A000026012803D006E00E20BDE83B
:10737000F08195F89800012829D0D5F8A0000428BC
:1073800025D0D5F89C00042821D04FF00108A67024
:107390002C2205F17801201DFFF768F884F8306091
:1073A000D5F8A4006063D5F8A800A0634FF6FF707D
:1073B000A4F8A80004F19400C4F8A400C4F8AA60DA
:1073C000A4F8AE6084F8B060207810B104E0072023
:1073D000CDE7FF2084F8540004F155011F27C4F8BD
:1073E0009410A4F8987004F198022846FFF7C2FEA2
:1073F0000028BCD115F13C0F0ED004F17401C4F883
:107400009C10A4F8A07004F1A00205F13C00FFF765
:10741000B1FE0028ABD103E0C4F89C60A4F8A060E2
:1074200084F85180208BA4F8480084F83C802664BE
:1074300084F8506060696064454604F13C020021B4
:1074400004F1540072DF002891D125708FE710B548
:107450000288102A1BD0112A20D0262A1DD1007A9A
:107460000C46012801D0022817D1A0780521401C24
:10747000B0FBF1F201FB1201204600F035F80028C4
:107480000BD0A16B002908D0BDE810400847C27B93
:10749000012A02D18088A1F8A80010BD0C46002165
:1074A00084F8B2108088B4F8A8108842F5D1207909
:1074B0000028F2D10121DFE710B50C46022801D0E7
:1074C000032810D1607800280DD000206070A178CA
:1074D000204600F009F8002805D0A16B002902D051
:1074E000BDE81040084710BD2DE9F05F0446007864
:1074F0000F4638B1A770002003F020FD012620B10F
:10750000667007E10820BDE8F09F0025C4F8AA5086
:10751000A4F8AE5084F8B050A07910B1A07801283A
:1075200006D0E07968B1A078012801D0022808D1FE
:10753000616B21B184F8B1600820884701E084F8CC
:10754000B15004F1AB0100200A5C0AB1304603E0FF
:10755000401C0628F8D300204FF002084FF0030B20
:10756000012F06D0022F0CD0032F0FD0042F15D1DE
:1075700010E0A17929B194F8241011B908B130466E
:107580000DE0E17911B108B1404608E0207A08B178
:10759000584604E0607A08B1042000E02846A07054
:1075A000616B41B1032801D0042804D1607910B186
:1075B00094F8B200A0B184F8B35004F13C00182153
:1075C0000746FEF76CFF04F12C0084F83C6081460E
:1075D00005F0D8FF58B194F82C0084F8510008E069
:1075E00084F8B45084F8B36007208847E5E784F84E
:1075F000516094F8240050B1484605F0C3FF20B113
:1076000094F8280084F8520001E084F8526084F86D
:107610005050A27804F1AA0104F194094FF0060A2F
:10762000052A60D2DFE802F078030F223F0084F8D9
:107630003160C4F8A450C4E9101584F83C8080205F
:10764000A4F8480051E084F8318094F824203846AA
:1076500012B10722027001E080F800B0228A828114
:10766000C4F8A4504160E168B9603EE06069B86068
:10767000208BB88194F824003D4610B184F83CA0DA
:1076800001E084F83C60204607F0C4FE40B185F874
:1076900014800421204601F0ABFB20BB05211EE035
:1076A00084F831B01DE0E069B860208CB88194F8AE
:1076B00024003D4610B184F83CA001E084F83C6011
:1076C000204607F0A7FE48B185F814800421204623
:1076D00001F08EFB38B984F831A002E0042184F86F
:1076E0003110C4F8A490A07878B13A4604F154005F
:1076F000D4F8A41072DF00287FF405AF94F830109E
:1077000094F8540073DF0028F6D1616B11B194F83E
:10771000310088470020F6E684F83150F5E7000094
:1077200010B5044600F078F8002805D02146BDE8E1
:107730001040024802F0EFBE10BD0000DC2800201F
:1077400070B515460E46044607F070FE002809D0B5
:10775000054800EB840080692A463146BDE8704048
:1077600001F084BB70BD0000CC28002070B5054638
:10777000002400F051F838B12946044802F0CBFE4D
:1077800008B1022400E00124204670BDD828002062
:1077900010B51821034802F099FE182800D0C0B295
:1077A00010BD0000CC28002070B505460C460846E8
:1077B00007F03CFE60B1284600F02EF840B10548C5
:1077C000294600EB8400BDE87040183002F0A3BEEB
:1077D000002070BDCC28002070B5054614460E462A
:1077E000084607F023FE002812D0284600F014F8BF
:1077F00000280DD00748294600EB860018301CB140
:10780000BDE8704002F092BEBDE8704002F043BE99
:1078100070BD0000CC280020142801D30020704740
:107820000146014802F077BED028002070B540B173
:107830000C4D297839B1044606F038FD28B10020F6
:1078400070BD0E2070BD082070BDE868062807D204
:107850000549226801EB8001401C0A60E860EEE700
:10786000042070BD002500204429002040B10549B6
:1078700000220123CA600B70C1E901021046704763
:107880000E2070470025002070B504002DD000297F
:107890002BD020480078002827D020880D461128BA
:1078A00015D0302804D0322807D033281ED109E063
:1078B000211D284605F012F918E0211D284604F084
:1078C00069FF13E0211D284605F03EF80EE0A08870
:1078D000B5F8CA12884209D1002085F8C70285F898
:1078E000C8024FF6FF70A5F8CA0270BD95F8C8022D
:1078F0000028FAD020883028F7D34F28F5D8A08860
:10790000B5F8CA128842F0D12846BDE8704000F0B0
:1079100011BF00000025002048B1084A137843B188
:10792000D26832B190F8C7222AB1112070470E20D8
:1079300070470820704700F0FDBE000000250020C1
:107940007CB5054608880C460930904201D90C20C8
:107950007CBD68466DDF0028FAD121880820685474
:1079600020881B21401C80B2208029542088401C84
:1079700080B220802844DDF801100160BDF80510B8
:1079800081802088801D80B220809DF800104908E9
:1079900000D0012129542088401C208000207CBD7B
:1079A00038B5018804463B291AD015DC21484FF030
:1079B00003021029008802EB004019D011292AD0B7
:1079C000212908D100200090A08869468FDF002877
:1079D00001D0FFF703FA38BD522921D05629FAD138
:1079E0003B2923D05629F6D18088132176DF0CE07D
:1079F00011A103F0CDFE072000F0C6F908B1FFF792
:107A0000EDF9A1880F4802F0C9FF0028E3D0BDE8D6
:107A10003840FFF7E3B9BDE838400BA103F0B8BE2A
:107A2000002380881A461946B1DFEEE780881321CB
:107A300076DFEAE7EC260020436F6E6E65637465BF
:107A4000642E000060280020446973636F6E6E65C9
:107A5000637465642E00000010B50B4C01886068EB
:107A600010290ED011290ED1401E60600BD1FFF7F6
:107A70008FF8002807D02168002904D0BDE8104005
:107A80000847401C606010BDF82400202DE9F04F2D
:107A90000746858802883D48012197B08346102A11
:107AA00009D0112A49D01A2A6CD1387AB1EB101FAB
:107AB00045D2012244E0354C083CA068C0430B90FD
:107AC00061680BA802F04BFD0B990CA800F0D0FBED
:107AD0002C220CA96846FEF7C9FC0026E946A04600
:107AE00010E000BF09EB46005FF00004B0F804A00E
:107AF00008EB84005146001D02F0CDFC641C1D2CD7
:107B0000F6D3761C0098B042ECD8142D05D317B0EC
:107B10000420BDE8F04FFFF761B92946584602F04E
:107B200005FD294608F1040002F000FDF87B01285C
:107B300028D016482946001D15E029461AE00022E3
:107B40000221B1EB101F01D2012600E000260F49EF
:107B5000083901F11000041D294682B102F0E6FC4B
:107B600036B12946204617B0BDE8F04F02F0DEBC22
:107B70002946204617B0BDE8F04F02F08CBC02F059
:107B80008AFCF5E717B0BDE8F08F0000D42800208C
:107B900010B504460748007800280AD0204601F0B6
:107BA0008BFD204606F0A4FE2046BDE8104001F003
:107BB00025BB10BD382500200649095C4FF0A040C8
:107BC000D0F81005C84010F0010000D0012080F06E
:107BD0000100704751F902007CB50546C0074FF01F
:107BE00000040AD00B4801220023007800941146BB
:107BF000019403F023FB00F041F8A80709D50548DC
:107C00000022401C0323007800941146019403F0E5
:107C100015FB7CBD50F9020007490B5C4FF0A041F9
:107C2000D1F804250120984020EA0203C1F8083564
:107C30001040C1F80C05704750F902000249085C79
:107C4000012103F08CBB000050F902000249085CDE
:107C5000002103F084BB000050F902000649095CD2
:107C60004FF0A040D0F80405C84010F0010000D04B
:107C7000012080F00100704750F902000020FFF75A
:107C8000DDBF0020FFF7E2BF044B024600211B7856
:107C90004FF0FF30934200D10846704751F902007F
:107CA00070B50C4E0C004FF0000530600BD0012079
:107CB00000F04AF808B1022004E0002000F044F887
:107CC00000B10B202070706810B9FEF761FF054607
:107CD000284670BDF82400202DE9F0410D4680466D
:107CE000FFF7D2FF002829D1164F15487C1C661FCC
:107CF000EDB1012D0BD0022D20D16578002D1DD0C6
:107D0000F16800291AD02846BDE8F04108472578D7
:107D1000617849B10B4A4FF40041521E8068FFF769
:107D2000A5F808B986F80380A0783870E6E780687F
:107D3000FFF7E0F83878A578A842DFD0BDE8F081F9
:107D400054F90200EC24002008B100207047FFF72E
:107D500033BF000003004FF000000AD1094B012A95
:107D600002D1012907D0002251B1012904D00229F2
:107D700004D0072070470E221A7070475A7070475F
:107D80009A707047ED240020044A01460020127AC0
:107D9000D20702D0084600F047B87047E824002018
:107DA00070B506461C480024C0E90261B00724D51E
:107DB00000250BE005F10E00C2B2152A00D9012200
:107DC00001212846FFF7C6FF04466D1C55EA040052
:107DD000F0D094B940F2666201211048FEF784FFAA
:107DE00004000AD1FEF76EFF040006D10B480C4ACE
:107DF0000021001FFEF7FEFF0446F0070AD0012015
:107E0000FFF7EAFE34B90548064A00210C38FEF7B0
:107E1000F1FF0446204670BDE824002060F902000E
:107E200089800200619C02002DE9F05F634C0546E9
:107E300000266078B34618B184F801B001F006FF5F
:107E40005F4F4FF47A694FF4C87A4FF00108142D50
:107E500060D2DFE805F0AB0A0A2F3E4B60AE6770D8
:107E60006770797C7C7C7C7CABAE0020FFF7F6FEF3
:107E700000284FF0000008D0FFF7E0FE022D02D1ED
:107E80004FF4E16008E0484606E0FFF7DFFE022D10
:107E900001D1C82000E05046410CC0034FF4FA72F3
:107EA000801841F10001257052000023FEF79AFA74
:107EB00001462AE00020FFF7D1FE00284FF0000025
:107EC00004D0FFF7BBFE4FF44870E5E7FFF7BEFEB6
:107ED000DFE70020FFF7C2FE00284FF0000002D0CD
:107EE000FFF7ACFECFE7FFF7B1FED4E70020FFF7C6
:107EF000B5FE00284FF0000002D0FFF79FFE01E022
:107F0000FFF7A4FE257041F69A1100223868FEF7AB
:107F1000ADFF064647E00020FFF77EFE257006E035
:107F2000257040E084F801800020FFF775FE0022F4
:107F300040F6CD41EAE784F801800020FFF76CFEAF
:107F400000224FF48041E1E7FFF79BFEE8E7786805
:107F5000FEF7D0FF0646D5F1110000D02EB100206B
:107F6000FFF76CFE84F802B01DE0012816D980B23C
:107F7000C8214843C117C90341EA5041C0034FF427
:107F8000FA72801841F1000152000023FEF72AFA2C
:107F9000014600227868FEF769FF06460020FFF7D9
:107FA00055FE84F802803046BDE8F09F01F04EFE99
:107FB000B6E70020FFF74AFEB2E70000E824002001
:107FC00054F902002DE9F8430546861C00208DF87F
:107FD000000090460F464FF001096846FEF79AFFF1
:107FE0001B4C20683860D4E90001401AA16804F2F3
:107FF0001C47081A0EE00121384602F0AAFA01F0E7
:10800000C7FF0146384602F0A4FAD4E90001401A3D
:10801000A168081A401C8642EDD8B8F1000F03D0C1
:10802000052065F3891002E0062065F39F50A268E1
:108030002168114004EB8101C86020683044206051
:108040009DF80000FEF78AFF4846BDE8F88300006F
:108050003C33002030B482680468531C8360A15410
:10806000D0E901128A4202D330BC02F094BD30BC88
:1080700070470000034803C8814201D101207047C6
:10808000002070473C33002000780221FFF724BE17
:1080900005494FF0FF32082841F8202002D3084458
:1080A00080F8482070470000CC2E0020F0B54FF03B
:1080B000FF3512B10023082601E008230C260C4CE2
:1080C00005E000BF54F823707F1C04D05B1CB34252
:1080D000F8D32846F0BD26185DB286F8305044F833
:1080E0002310002AF5D1E11881F84800F1E70000DB
:1080F000CC2E00200249084490F93000704700005F
:10810000CC2E002008B5024690F8C6020B4600EBC4
:108110008001C1EB801002EB400092F8C52242B111
:10812000521ED2B202EBC20100EB4102518A491C3D
:1081300000E0C188ADF800100089ADF80200694682
:1081400018469DDF08BD70B504464FF6FF750A4618
:108150002846AC4208D14FF480742146104605F001
:10816000F9FBA04209D070BDFF2CFCD82146104677
:1081700005F0E3FB08B1204670BD284670BD000045
:1081800070B5084C050009D010342168002907D0CB
:1081900008682060496828468847F6E70834F4E70D
:1081A00070BD0000B82E0020054A012120B1012831
:1081B00005D19170FFF7E4BF51700020FAE77047D6
:1081C000B82E00202DE9F05F26484168F1B3DFF8B2
:1081D00098B00E688146DBF8004087688078E11B24
:1081E00021F07F45ED1CB0B9DFF880804FF480307E
:1081F000C8F84403C8F804031120FEF76FFA1120F1
:10820000FEF777FA4FF0010AC8F800A02F2003F01C
:1082100035FF89F802A0B54200D23546124BE81965
:108220003C3320F07F401860DBF800105A46091BF1
:1082300021F07F41001B20F07F40C91C81420FD9F3
:10824000106818602F2003F019FF00E004E0BDE87B
:10825000F05F1120FEF758BABDE8F05F06F04CB8A9
:10826000BDE8F09FA8250020041501400010014042
:1082700073B58CB00646002000900D9880B10024A4
:108280006D4621460DA802F046F930B1009805EB85
:10829000400084800098401C0090641C142CF0D393
:1082A0002C2269463046FEF7E1F80EB070BD2DE98C
:1082B000F04117880646B81D14460D46984202D96B
:1082C0000C20BDE8F0813188072206290AD34FF43B
:1082D000486C4FF6FF73614501D9994202D170880D
:1082E000062801D21046ECE7604501D99842F9D141
:1082F000994203D0984201D08142F3D80520E85535
:1083000020881221401C80B2208029542088401CE3
:1083100080B220804119308807F002F82188084493
:1083200080B220804119708806F0FAFF2188084445
:1083300020800020C5E70000F0B585B016460F4646
:1083400004461D4614220B496846FEF78FF80A487A
:108350008DF80870ADF80240ADF80A608DF80C5049
:10836000017800222046FFF737FA684600F038FB14
:1083700005B0F0BDD0FA020048250020F0B587B066
:10838000074600200490ADF810100590ADF81210CB
:108390000190029001AA04A9384690DF060022D07D
:1083A00003F012FE114C0346012520883A4605EBE6
:1083B00000400F4903F0F7F9BDF8042012B9BDF8E9
:1083C000060038B12088BDF8063005EB004009A151
:1083D00003F0E9F9BDF808202AB12088154905EB1A
:1083E000004003F0D9F907B03046F0BDB8260020B0
:1083F00074FF020054686520726571756573746559
:10840000642054582F5258207061636B6574206C3F
:10841000656E67746820697320746F6F206C6F6E6F
:10842000672062792025752F2575206F6374657428
:10843000732E0000C0FF02000146014802F06EBA30
:108440004028002030B5044685B000211B4805F0C7
:1084500074FA00282FD00025204601F05CF868B19E
:10846000112812D086281BD0A0F54051023903D024
:108470000146204606F03EF9294607E005B02946A8
:108480002046BDE8304001F061BD0121204601F0E9
:108490005DFD05B00021BDE83040084805F081BA17
:1084A000142207496846FDF7E1FFADF8024068462F
:1084B00000F072FAE0E705B030BD000011250020A1
:1084C000F8F902007FB50C4610B1012004B070BD70
:1084D0002079002638B141F61D5501281BD002280D
:1084E00026D00F20F2E70220207102960396E06862
:1084F0000190694601A805F03FFE50B102988188BD
:10850000E18000882081BDF80010029805F0B2FEDD
:10851000DCE70A20DAE70A4B6A460021A01D05F0D5
:10852000E7FD38B1064918398E61CE610A28CDD1F0
:108530002846CBE702488188019805F09BFEF5E7C5
:10854000E82500202DE9F843054690F8C6020F46BD
:1085500000EB8001C1EB801005EB400695F8C542A9
:10856000914604EBC40006EB40013279601C0A31ED
:10857000904226D16B460022284601F031FB18B309
:1085800010E0401EA04201D1002004E004EBC40032
:1085900006EB40001C30804602466B46284601F040
:1085A0001FFB30B100203870694648469EDFBDE8A9
:1085B000F88395F8C5024146401C641C85F8C50245
:1085C000E4B23079A042DCD8012038700020EEE718
:1085D0002DE9F0470025DFF88C803CE06068002141
:1085E00000EBC506012032789146FDF72CFFD4E957
:1085F000062300EA020701EA030C57EA0C0728D019
:1086000082438B434846C4E9062303F0F9FD3278E0
:108610008246914601200021FDF715FFD4E904238D
:1086200000EA020401EA03074A4650460021FDF72A
:108630000AFF44404F403C430BD17078012801D0E1
:10864000012100E00021726881EA0A010AB148466E
:1086500090476D1CEDB298F8000044468542BDD3AA
:10866000BDE8F087882500202DE9F047894690F87D
:10867000C612904601EB8102C2EB811100EB41076B
:10868000384605F013FE06002FD0194CA0680628C6
:108690002BD2184D762205EBC0103946A0F8028087
:1086A000001DFDF7E3FE0027B9F1000F04D0A0681C
:1086B00005EBC010077004E0A168022005EBC111B2
:1086C0000870A06805EBC011401CCE67A060E1688F
:1086D00088420AD1002604E005EBC610C16F884726
:1086E000761CE0688642F7D3A760BDE8F0870000FB
:1086F000002500205C29002070B50E4690F8C612B7
:10870000154601EB8102C2EB8111A0B000EB4100E4
:1087100005F0CCFD040009D07C2205496846FDF730
:10872000A5FEADF8025068460196A04720B070BD86
:1087300068F9020070B50E4604464FF43371FDF738
:10874000AEFE11480025A4F8CA62856084F8C952BB
:108750000E4884F8C65284F8C5520068206022464C
:10876000012130469BDF0121112806D0002809D1C4
:1087700084F8C71284F8C85203E084F8C71284F85A
:10878000C812002070BD00000025002044290020F0
:1087900010B50021024801F0F7FE80F3100010BD73
:1087A000583700200E4910B50A784C780023A242B1
:1087B00012D0521CD2B20A70022A00D10B70084AA1
:1087C0000B780C3252F8232002608868104420F0A5
:1087D0007F408860012010BD0360002010BD0000B4
:1087E000A825002013460A460021FFF7A5BD00007A
:1087F0002DE9F843104D0F4680461E4691466946C6
:10880000286801F01CFE040014D01C21FDF747FE6F
:1088100001202071C4F81490380BC4F80080C4E91A
:1088200002606946286801F02BFE05F0F5FB002088
:10883000BDE8F8830420FBE7B0FB020010B5037825
:108840000022072B06D2DFE803F0050406102029DA
:1088500030000A7010BD01230B7003898B8183885F
:10886000CB81C06888600A7410BD02220A70028938
:108870008A818288CA81C2688A60807D062802D087
:108880000020087410BD0120FBE703220A70C28893
:108890008A810289CA81C068886010BD04230B7078
:1088A000C0888881CA818A6010BD0520087010BD0B
:1088B00070B5064D0646002455F8241009B130461F
:1088C0008847641C042CF7D370BD0000BC30002026
:1088D00030B50446006887B00D46806800281FD078
:1088E00018216846FDF7DBFD0195A0680590207909
:1088F00010B1012810D107E001208DF80000206997
:108900000290E068039005E002208DF80000E06826
:108910000003029060690490206881686846884777
:1089200007B030BD70B586B015460C00064619D0AC
:10893000112C17D0082C15D014216846FDF7AFFD77
:10894000ADF80260304600F0DDFFADF804000D2CFC
:108950000AD0862C1CD007208DF8000002946846AF
:1089600000F04CF806B070BD03208DF8000025B172
:108970002878C00701D0012000E002208DF808000F
:1089800000208DF80C0041F20110ADF80A00E6E776
:1089900006208DF80000E2E710B50446408800F09C
:1089A000B1FFA080024801682046BDE8104008479A
:1089B000182500202DE9F04107460024064E074DFA
:1089C00005E000BF56F8241038468847641CE87854
:1089D0008442F7DBBDE8F0816C2E002038250020B2
:1089E00010B50446408800F08DFFA0800248016861
:1089F0002046BDE810400847A4FA02000149096872
:108A000008470000F8FA02007047000070B586B011
:108A1000044614216846FDF742FDA0890125A0F512
:108A20004040ADF8040020782A4E062833D2DFE813
:108A300000F0320303032C48A08900F0BDF930B9DF
:108A4000E08943F6FE71A0F54040884223D8A07B20
:108A50008DF80800207803280FD000208DF8090039
:108A6000A0680390606850B109208DF8000060682C
:108A70000490684604F02CFB0DE00120EEE708208E
:108A80008DF800008DF81050F3E7A08900F094F9FC
:108A900008B1E08930B17078002801D004F048FCBA
:108AA00006B070BD606820B10B208DF800007570B5
:108AB000DFE70A208DF80000BDF8040004F0C2FCD6
:108AC000F5E713208DF800004FF6FF70ADF80400B5
:108AD000CFE700002825002038B504460E4800786E
:108AE000A8B1A4F57F40FF380FD0684605F0C6F95D
:108AF00078B10521017001210171C480684605F03B
:108B0000CBF905F07BFA002038BD042038BD0220E7
:108B100038BD082038BD0000F02500200C4808B5FD
:108B2000007888B1684605F0A9F978B1062101708E
:108B3000684605F0B1F90748017809B101210173D0
:108B400005F05CFA002008BD022008BD082008BD21
:108B5000F025002080310020F0B587B01421684650
:108B6000FDF79DFC2B4C207818B16846FFF7A0FE5E
:108B70004EE0201D01F0EAFCB8BB4FF01020416927
:108B80000004026940694B1C01D100FB02F122483C
:108B900000220161A1F54051C160204902F08AF92B
:108BA000002820D11F481C238C221D49006801F099
:108BB00033FC04F07DF8051E14D0022812D00027E3
:108BC0000126062D12D005A805F058F988B10670C7
:108BD0000C2D18D2DFE805F0170F170F1716171610
:108BE000171113110B2007B0F0BD11E0267067605C
:108BF000BBE70820F7E7077105E0032100E0022149
:108C0000017100E0067105A805F046F905F0F6F9D6
:108C10000020E8E7F0250020A0260020C0FB02008D
:108C2000CC30002028FB020038B5040014D069467F
:108C300005F0A2FAA0B1BDF8000000EB80010948E0
:108C400000EB8100C16849B1A17A39B1C168491E00
:108C5000C1600020A07238BD052038BD062038BD97
:108C60000A2038BD583100201FB501A9684605F01B
:108C70003FFA04B010BD07B513460A466946002006
:108C800005F036FA0EBD07B513460A4600216846C0
:108C900005F02EFA0EBD20B119B100680860002061
:108CA0007047052070470000F8B50D46040018D045
:108CB000BDB1694605F060FAA8B1BDF800000B49E6
:108CC00000EB800001EB800001210C30666801F0B0
:108CD00040FC2E6060680C3068600120A0720020AB
:108CE000F8BD0520F8BD0A20F8BD0000583100206D
:108CF00018B10323002206F003BD052070470223AC
:108D0000002206F0FDBC12B1022306F0F9BC0520DA
:108D100070470000084910B50A69042A0AD0074ABA
:108D2000096942F8210004480121103001F011FCCA
:108D3000002010BD0C2010BDD0250020BC3000202C
:108D400038B5044609480D46007858B164B1694603
:108D5000284606F0CFFD002803D1BDF80010218081
:108D6000658038BD022038BD052038BDF0250020C3
:108D700010B504460E48007898B1A4B121880229A4
:108D800013D80C4A01EB810002EB80026088528903
:108D9000C31C934209D806F0A1FD0020208060800A
:108DA00010BD022010BD052010BD042010BD000024
:108DB000F02500205831002043F6FE71A0F5404018
:108DC000884201D8012070470020704710B5044642
:108DD0000078182802D1FEF7DBFC207010BD10B51A
:108DE00004460078182802D1FEF7D2FC207010BD8E
:108DF00070B50D460446B0F89810D0F894000122E2
:108E0000FEF779FA00B1057004F13C0204F1940117
:108E100004F1540072DF70BD70B51346002206469F
:108E20001546862902D0112902D002E0012200E075
:108E300001250D4C73B1A179FEF7CEFC2A4661796C
:108E40003046FEF7C9FC0022A1783046FEF7C4FC8C
:108E5000002203E0A178FEF7BFFC2A466178304685
:108E6000BDE87040FEF7B8BC50250020F7B51746A6
:108E70000E0011D00098002560B1002421466846FC
:108E800001F049FB18B1A0B23946B0476D1C641C13
:108E9000142CF3D32846FEBD0020FEBD406805F02B
:108EA0000DB8000070B5314D0446017828880326BE
:108EB000A0B006EB0040C9B101294ED0022952D022
:108EC000032948D12AA102F063FC2888A28806EB76
:108ED000004031A102F060FC2888E28806EB0040E7
:108EE00034A120B0BDE8704002F056BC374902F012
:108EF0004FFC6188221D364801F096FC08B1FDF751
:108F00006DFF60881EA904F07BFE08B1FDF766FFC7
:108F10001222211D0DF10A00FDF7A8FA2C48762235
:108F200069468C38FDF7A2FA2949002378228C394A
:108F3000BDF8780004F015FE862801D1FFF7EEFD9C
:108F400008B1FDF74BFF0121214801F047FC002843
:108F500001D0FDF743FF20B070BD20B01D49BDE832
:108F6000704002F015BC62881BA1BAE7EC26002015
:108F700053657276696365204368616E6765642036
:108F8000696E6469636174696F6E20726563656997
:108F90007665642E0000000048616E646C65207286
:108FA000616E67652073746172743A20253034787D
:108FB0000000000048616E646C652072616E676538
:108FC00020656E643A20253034780000ECFE020003
:108FD0004028002030FF020047415454532053657D
:108FE000727669636520636C69656E742064697369
:108FF000636F6E6E656374656420636F6E6E656328
:1090000074696F6E2068616E646C652025692E003E
:109010004089002800D001207047000070B508B1D9
:10902000012070BD194C0025207B08B1257301E09B
:1090300000F0A0F82078082826D2DFE800F0250408
:10904000080C10251420BDE8704000F021B8BDE8E0
:10905000704000F07DB8BDE8704000F05FB8BDE83A
:10906000704000F03BB86088084900EB8000283968
:1090700001EB80004068BDE8704003F0F9BD656019
:10908000BDE8704003F002BE0F2070BD80310020AB
:109090001149F0B48A1C00200346A1F128050C18E0
:1090A000A67A4EB1A37200EB800405EB8404E66857
:1090B00016B9247C012C0AD0401C80B20228EED3C1
:1090C0000B704B804B60F0BC41F61D507047108018
:1090D000F0BC00F03DB80000803100200C48418811
:1090E00001EB8102A0F1280101EB8201CA6852B1B3
:1090F00005210170074802218180016800230122B7
:10910000054801F041BE042202704968F6E70000FC
:1091100080310020F8250020A026002038B50A491B
:10912000084803240B684268898803EB810153884F
:109130000470DB1C00201B0400909B0B034801F013
:1091400093FF38BD80310020F8250020A0260020A4
:10915000074910B54888091D05F05EF818B1BDE84B
:109160001040FFF7DBBFBDE81040FFF7B7BF0000BE
:1091700080310020F0B51F481F49012506780224E0
:109180008B88A0F12802082E19D2DFE806F0041817
:10919000181B222F2F170189491C018100214180B2
:1091A00080F80C1001EB810312F8233043B1002347
:1091B0004418491C89B2A3720229F3D30570F0BD8B
:1091C0000123F5E742685288D21C1A448A80047051
:1091D000F0BD46880D6806EB860602EB86025668EF
:1091E0000E60556013818C80062100E0072101701C
:1091F000F0BD000080310020F825002030B5018846
:109200008488224D85B0502924D0522902D0542977
:1092100031D103E0204600F065FE2CE014221C4909
:109220006846FDF723F9ADF80240204600F06AFBDE
:10923000ADF8040000F022F9002269792046FEF71B
:10924000CBFA002229792046FEF7C6FA6846FFF7D6
:10925000A3FB10E0017B01290DD1817A01290AD1FC
:109260000089A0F52451023905D10121204600F0E2
:109270006DFE06F0C5F800220649E878FEF760FAB0
:1092800005B0BDE8304005F07DBA00001025002093
:1092900020FA0200A170020010B5044600780028F0
:1092A0000FD1608800F01EFE608800F081F9002870
:1092B00007D00449608801220979BDE81040FEF713
:1092C0008BBA10BD1025002010B5124C0020207064
:1092D000FEF75EFAA070FEF75BFAE070FEF758FA50
:1092E0002071FEF755FA6071A17818290FD0E17846
:1092F00018290CD02179182909D0182807D0012164
:10930000601C04F013FB01202070002010BD03201E
:1093100010BD0000102500207CB504460078082808
:109320002FD1607A38BB207A4FF6FF7501280DD017
:10933000072802D0082824D11EE0A08800F020FAD7
:10934000A8421ED0012100F001FE1AE0A0886A4662
:10935000012103F0D5FD70B90198007858B1A088BB
:1093600000F00EFAA8420CD0084901220979FEF754
:1093700033FA05F007FA04E004480021401C04F029
:1093800010FBBDE87C4006F03BB800001025002033
:1093900010B504460A4841782046FEF705FA68B140
:1093A0000848002101EB410200EB82025288A242F0
:1093B00001D1C8B210BD491C1429F3D3FF2010BD40
:1093C000222500205C2C002070B5094D094E002498
:1093D00004EB440005EB800071784088FEF7E4F967
:1093E00020B1641C142CF3D3FF2070BDE0B270BD1B
:1093F0005C2C0020222500202DE9F0418046024609
:1094000001200021FDF71FF81A4F05460E46786827
:10941000FDF770FD00280CD1174CD4E90621104649
:109420002A4001EA06031A4305D0A843B143C4E920
:109430000601BDE8F081404602F0E2FE30B1D4E919
:10944000040128433143C4E9040105E0D4E90410D0
:10945000A943B043C4E90410D4E9060128433143C9
:10946000C4E90601A1687868BDE8F0410022FDF773
:10947000FDBC000018FB0200882500201CB5054A31
:10948000D2E90212CDE900120022694603F05DFD27
:109490001CBD000038FA020003484FF6FF718180BE
:1094A00001210170002070471C2500202DE9FC419E
:1094B000804600F027FA002403250127A0F57F410C
:1094C0002646FF3908D06A46082103F019FD18B96D
:1094D0000198841D8688056832462B462146404601
:1094E000B1DF042804D0082804D00B2808D002E0FB
:1094F000112000E00020002F00D10B20BDE8FC81EE
:109500000027A80701D50125E6E73443F5D000245C
:1095100026460325E0E72DE9FC41804600F0F2F9FC
:109520000646A0F57F40FF380ED001252A466D1C67
:109530000027ADB26B460821304603F00BFD040056
:1095400006D0072C25D025E043F20200BDE8FC81BF
:10955000019903230A1D0B604046891DB2DF0400F8
:1095600004D00C2C09D0052C09D009E03246082182
:10957000104603F065FD04460CE0012700E00024DE
:109580000821304603F048FD00B10324002FCDD15F
:1095900000E00C242046D9E704488088A0F57F41EC
:1095A000FF3901D005F0F8B8704700001C250020F5
:1095B0000EB502A9019100F0A5F96A46012103F058
:1095C0009FFC08B100200EBD019800780EBD000080
:1095D0002DE9F04107464FF6FF760A48B3DF10B198
:1095E0000320BDE8F081074C43F20305A41E324678
:1095F00061883846AFDFA842F3D16088401C6080A4
:10960000F5E700001E250020428800EB82020C32A4
:109610008A4201D9022070478188A1F57F42FF3A32
:1096200003D0008808B100207047012070478842AD
:1096300004D20068401C01D0012070470020704710
:109640003EB5027802230C46B3EB520F17D1B0F8A7
:109650000110ADF80010C1788DF802108188ADF8C6
:10966000041080798DF8060002AA01A92046FDF7B2
:10967000F9FA032202A96846FCF723FF08B100208B
:109680003EBD01203EBD000010B50C46FFF780FE38
:10969000FF280CD0074900EB400001EB8000416837
:1096A00021600189A180807AA071002010BD052071
:1096B00010BD00005C2C002070B5018890B010290E
:1096C00059D1011D2C226846FCF7D0FE9DF80400FC
:1096D0004FF6FF76032134466D46B1EB500F2AD08A
:1096E00003F064FD9DF8040040080ED001280CD062
:1096F000022820D118E00D99281D1131FDF723FA19
:1097000018B100BFBDF82C4015E00CAA0BA907202A
:1097100003F020FD0028EED10DE00D99281D491C15
:10972000FFF78EFF0028EDD10CAA0BA9072003F04C
:1097300011FD0028F1D1BDF80000291D00F016FE32
:10974000B44218D0BDF80000214600F0C5F8BDF8BD
:109750000000ADF82E000020ADF83040074E8DF827
:109760002C000BAD044600BF56F82410284688474D
:10977000641C022CF8D310B070BD00004CFA02003B
:10978000094A002101EB410332F82330834205D11D
:1097900001EB410002EB800040887047491C14290E
:1097A000F0D34FF6FF7070475C2C00203EB50C469E
:1097B000054603F0FBFC0BE0BDF80000A04207D01B
:1097C0002846029900F02EF810B1BDF800003EBD09
:1097D00001AA6946072003F0BDFC0028ECD14FF632
:1097E000FF703EBD10B50D4C18200D4A6070002072
:1097F0004FF6FF7100EB400302EB8303401C5980DE
:109800001428F7D3FDF7C4FF6070182803D0012097
:109810002070002010BD032010BD00002225002074
:109820005C2C00202DE9F0410C46054600F11107A3
:1098300001F111061022491C401CFCF742FE48B9F8
:10984000681C00F0F3F928B1601C00F0EFF908B1D2
:10985000012400E0002431463846FDF774F93B78D6
:109860000222B2EB530F0CD00321B1EB530F08D0FF
:109870003378B2EB530F04D0B1EB530F01D0012179
:1098800000E00021084201D18C4302D00120BDE854
:10989000F0810020FBE7018811B9421892780AB1E3
:1098A00001207047491C0829F7D30020704710B5E4
:1098B0000C460346FFF7EFFF00280AD018882188DE
:1098C000884205D10822A11C981CFCF7FAFD08B1BA
:1098D000002010BD012010BD03F008BE70B5044685
:1098E000FFF74EFF0546204603F00DFB4FF6FF71D4
:1098F00004468D4203D014B9284603F0F7FD2046F4
:1099000070BD000010B5FFF743FDFF2805D00449E6
:1099100000EB400031F8200010BD4FF6FF7010BD85
:109920005C2C00203EB5044603F040FC0EE001999B
:1099300020464631FFF7BBFF28B9019920462A315E
:10994000FFF7B5FF10B1BDF808003EBD6A4602A999
:10995000072003F0FFFB0028E9D14FF6FF703EBD62
:1099600010B50A4941600A4800F0F0FD58B902F00C
:10997000B5FA07491C238C22087404488C39001F4F
:10998000006800F049FD002010BD0000B4FB02009B
:109990001C3200202DE9F0412D4F002518B17D60CB
:1099A0000120BDE8F0810879012258B1294E012833
:1099B0000CD0274C4FF002080834022821D003288D
:1099C00042D128E00A7103F061F93BE05FF000004A
:1099D00000EB800116F82110022908D0401C80B24B
:1099E0000228F5D33A707D6041F61D50D9E700EBAF
:1099F000800006F8205006EB8000406803F038F93C
:109A000020E00D71A4F8048000230122124821688F
:109A100001F0BAF916E00D71206803F029F90D493B
:109A200023682831498801EB810206EB8201D1F8D5
:109A300004C0C4F800C04B60A3880B81A4F8048064
:109A400006F822500028ACD07D600E20A9E7000067
:109A5000F025002058310020A02600202DE9FC5FD1
:109A60000E008346DDE90C47C6F100009846924699
:109A7000814600D40846012503E000BF90FBFAF0C0
:109A80006D1C5045FADAA84500D9454624B1002E90
:109A900001DB780700D5641EB80702D5B8F1000FC6
:109AA0000AD0F80708D13CB1A54205D2202158467A
:109AB000641EFEF7CFFAF6E7002E02DA4E462D219D
:109AC00002E0780703D52B215846FEF7C3FA07F0CA
:109AD000030002280BD1B8F1000F08D13CB1A54218
:109AE00005D230215846641EFEF7B4FAF6E7CDE9F8
:109AF0000047434652463146584605F027FCBDE82C
:109B0000FC9F000070B50D46044600684FF4887154
:109B100002F07AFA4FF49071206802F075FA4FF46F
:109B20009271206802F070FA4FF4A271206802F07E
:109B30006BFA20681249C0F8041320686907000B0B
:109B400040B2090E002806DA00F00F0000F1E02014
:109B500080F8141D03E000F1E02080F80014206874
:109B60000121000B40B200F01F029140400980002B
:109B700000F1E020C0F88012C0F8001170BD0000B4
:109B800010030200024600201268930702D0530718
:109B900002D47047500714D502F00300012802D008
:109BA00002280CD105E0C2F383100B68801C184416
:109BB00004E00223086803EB92521044086001207D
:109BC0007047086800EB9253C2F38910401CEEE71F
:109BD0000248007A002800D0012070471C32002083
:109BE00010B509892AB1D088491C814218D10020BA
:109BF00010BD90F8C62202EB8204C4EB821200EB87
:109C0000420212899142F2D0491C198090F8C61282
:109C100001EB8102C2EB811100EB4100008902E0FF
:109C20001980D088401E5880012010BD0021425C60
:109C30000AB101207047491C1029F8D30020704751
:109C4000800701D0002070470120704703488078CA
:109C5000002801D1FEF712B870470000E824002068
:109C60001220FEF791B81721018041800021017177
:109C700041711B218171C171704700002DE9FE4FB8
:109C80002B4D984691460F00824601D000260DE0EC
:109C9000684600F097FB6A460021504603F09FF8A3
:109CA0002878009E10B99DF8090098B14A463146BF
:109CB000504604F079FF0446014600225046FFF763
:109CC000ABF80D2C32D008DC84B3082C2ED00B2C32
:109CD0000BD12BE00520BDE8FE8F112C10D0862C77
:109CE0001AD0A4F54050023820D00325B8F1000F57
:109CF00004D0324621465046FEF714FE2846EAE7D5
:109D00003A4629795046FDF767FD4A46E9785046BC
:109D1000FDF762FD0025E9E73A4629795046FDF74F
:109D20005BFD4A46E9785046FDF756FD2546DDE7DE
:109D3000502500202DE9F041204F0E4615460446DF
:109D40003978FDF731FD002835D0204603F03EF884
:109D500050B32046FFF7D6FD80462046B978FDF780
:109D600023FD08B1012700E00227204603F0D6FAC0
:109D70000028404602D0FFF7B1FD0DE0A8F57F4175
:109D8000FF3909D0072103F047F9010004D0052964
:109D900002D0204604F0C2FC2B463246394620460B
:109DA000BDE8F041FEF7C8BA2A4631462046BDE874
:109DB000F041FEF717BDBDE8F08100004825002006
:109DC00070B5094D0646E978FDF7EEFC04462979A1
:109DD0003046FDF7E9FC014622463046BDE87040BA
:109DE0000123FFF74BBF0000502500202DE9F0476D
:109DF000394E002780463D46DFF8E090D6F804A0B3
:109E000057E003D00446D0F81C8035E099F80020D4
:109E100002EB4201521CD2B289F8002009EBC101C9
:109E200099F80230091D9A4201D189F8005048681A
:109E30000A780446012A12D0022A02D0032A3BD112
:109E400008E005F055F800B10127257434E00574E9
:109E5000C06900E070680028F9D170602CE0207CB7
:109E600050BB88686060C868A0600869E0604869A5
:109E7000A061F07800B165606268B168184B501A53
:109E800020F07F40984202D2A168084406E0881A78
:109E9000A16820F07F40814202D9081A206000E0CA
:109EA000256065600120A56020742046E56105F00D
:109EB00001F8B8F10000A4D199F8001099F8010058
:109EC0008142A3D117B97168514502D00120BDE884
:109ED000F0870020FBE70000A8250020982F002035
:109EE000FFFF7F0030B585B0054600241421684689
:109EF000FCF7D5FAA5F57F40ADF80250FF3815D034
:109F00002846FFF7D3FA98B10B2815D0112811D0A5
:109F1000A0F54051023903D00146284604F0EAFB7F
:109F200009482246C1782846FDF756FC05B030BDE9
:109F30000E2002E00124F3E70F208DF800006846B0
:109F4000FEF72AFDECE70000102500200A46024932
:109F50008978FDF741BC000010250020F8B50546C2
:109F600000780C46002620420FD100208DF800001A
:109F70006846FCF7CFFF2878204202D120432870A2
:109F800001269DF80000FCF7E9FF3046F8BD00000F
:109F90002DE9FF410026234800F0D5FA2148001F93
:109FA000074600F0D0FA204C60680090A56800E0F9
:109FB00000986946284004EB80000C30FFF7E2FD72
:109FC0000028F5D101AA009901EA050304EB8303F7
:109FD000491CDB6842F82030401C00910228F2D373
:109FE000019800F0030001280BD0022810D101983D
:109FF000032101EB90500099BDF80A6001EB90003D
:10A0000005E00198BDF80A60C0F383100844009091
:10A01000384600F095FA08B10098606004B0304608
:10A02000BDE8F081543700203C33002000F0AEF84A
:10A0300009480321008801EB004008A101F0A8FBBA
:10A040000E480078FCF7EAFD01F092FA0028FBD1F7
:10A0500001F04CFDF8E70000EC2600204741545485
:10A06000205365727669636520636C69656E742040
:10A07000737461727465642E000000001822002061
:10A0800070B5144682880E4605462088111D01448D
:10A09000921C994201D8FE2A01D90C2070BD521C95
:10A0A00032542088FF21401C80B220803154208807
:10A0B000401C80B220808119288805F031F9218860
:10A0C000084480B22080AA8842B1A96841B13044D6
:10A0D000FCF7CCF92088A98808442080002070BDB6
:10A0E000072070BD2DE9F047C7880446181D1646A5
:10A0F0008946B0FBF7F1B0FBF7F207FB12009A19A3
:10A100003A44D21CB2FBF7F2DDF820A001E024684B
:10A11000491E0029FBD13D1A8846B54216D818E0E1
:10A12000BAF1000F05D0211809EB08002A46091DD5
:10A1300004E0204409EB08012A46001DFCF796F9CB
:10A1400000202468761BA844B74201D9354600E0B8
:10A150003D46002EE4D1BDE8F087000030B5024650
:10A1600059B101F0BDFB0021074C09E004EB81036C
:10A1700015685B88AB4202D11160002030BD491CDC
:10A180008142F3D3052030BDB42600203EB54FF404
:10A190000041002001F078FB08B1FCF71FFE01F040
:10A1A000D9F90120FDF718FDFCF736FE08B1FCF7E0
:10A1B00015FE3E4C00210320FDF7F2FD08B1FCF72F
:10A1C0000DFE69460020FDF76BFD08B1FCF706FEA9
:10A1D0009DF80000022867D00020207001F072FC7A
:10A1E00008B1FCF7FBFD01F01FFE08B1FCF7F6FD1E
:10A1F000002469460120009401F0A6FC08B1FCF798
:10A20000EDFD684601F022FD08B1FCF7E7FD9DF881
:10A21000080027A120F00F00401C20F0F0001030B3
:10A220008DF808000C2202A87CDF08B1FCF7D6FDEF
:10A2300000945020ADF80000A0200194ADF8020079
:10A24000ADF804404FF4C870ADF8060068467ADFF8
:10A2500008B1FCF7C3FD0021194800F00AFA08B163
:10A26000FCF7BCFD1748FDF701FB08B1FCF7B6FD94
:10A2700015480094CDE90140114802A9343000F09E
:10A2800098FB08B1FCF7AAFD104800900C486946FD
:10A29000143000F0DFFA08B1FCF7A0FDFCF794FCE5
:10A2A000BDE83E4003F030B9012096E718220020B7
:10A2B0004E6F726469635F4741545453000000005D
:10A2C0002C2800203984020031BB0200A58E020038
:10A2D000F8B50F46017814460546012901D1687882
:10A2E00030B12088821C9A422DD8012902D006E084
:10A2F0000720F8BD69780144891C994223D8181AAF
:10A30000801E86B2ADF800602188B81C08446946FA
:10A310007DDF0028EDD12878022805D1BDF8001096
:10A32000B14201D809210AE00821012805D1687845
:10A33000B04202D8ADF8000001E0ADF80060BDF811
:10A340000000FE2801D90C20F8BD2288401CB8541A
:10A350002088401C80B2208039542088401C2080F6
:10A36000BDF80010084420800020F8BD70B50546F7
:10A370000C004FF0FF0020D04FF6FF76B5421CD006
:10A380000E48012241782846FDF726FA2846FEF7B6
:10A39000FFFFFF2803D1FFF717F8FF280DD0084B68
:10A3A00000EB400203EB82014D8023F8226022681B
:10A3B0004A60A2880A81A2798A7270BD2225002093
:10A3C0005C2C0020034A00219268C0E900218160D2
:10A3D000704700005025002070B54FF6FF750E46FF
:10A3E000A84201D1002000E0401C84B208E02146D0
:10A3F000304603F0CAFA08B1204670BD641CA4B20E
:10A40000FF2CF4D9284670BD10B5FBF74EFF08B1FC
:10A41000002010BD112010BD10B531B1B2FBF3F416
:10A4200003FB14241CB1092010BD0E2010BD0160D7
:10A430000021416081608281C381084610BD70B5F2
:10A440000C460546FBF7E6FE002802D02188286866
:10A45000084470BD10B50A8849888A4203D1FBF7C9
:10A460001BFF012010BD002010BD70B50C46054635
:10A47000FBF7F5FE002802D061882868084470BD0B
:10A4800010B50A8849888A4203D1FBF7DFFE012014
:10A4900010BD002010BD01F01F0301229A40D243DD
:10A4A000490900EB8100114600F059B80A4601F055
:10A4B0001F030121994010B552090C4600EB8200A0
:10A4C00000F05DF8204000D0012010BD2DE9F041E2
:10A4D00080460D460024481E012101EB501716E06E
:10A4E00058F82400C04390FAA0F0B0FA80F0202879
:10A4F0000CD200EB4416AE4208D231464046FFF77C
:10A50000D5FF0028ECD13046BDE8F081641CA7429D
:10A51000E6D82846F8E74A0950F8220001F01F0261
:10A5200001219140084000D00120704701F01F0335
:10A5300001229A40490900EB8100114600F029B838
:10A54000002100F017B8012100F023B8012100F02C
:10A5500016B808B56A46FBF7F4FE009808BD08B5C2
:10A560006A46FBF7D4FE009808BD08B56A46FBF7BB
:10A57000E8FE08BD08B56A46FBF7C9FE08BD08B588
:10A580006A46FBF7B7FE08BD08B56A46FBF7A6FEAC
:10A5900008BD08B56A46FBF7ADFE009808BD08B5D2
:10A5A0006A46FBF7DBFE009808BD38B50446002577
:10A5B0008DF800506846FCF7ADFC216862680868B9
:10A5C00090420ED9401E08600178A38AE26801FB20
:10A5D0000325227A2168101AC0B20A79824200D279
:10A5E00008719DF80000FCF7B9FC284638BD38B565
:10A5F000054600208DF800000C466846FCF78AFCF2
:10A60000E868A98A201AB0FBF1F12A681068431C97
:10A61000136001709DF80000FCF7A0FC38BD10B578
:10A6200030B1017A42680368891AC9B21A6006E03B
:10A630000E2010BD03681A68541C1C601170491E5E
:10A64000C9B2F7D2006800210171084610BDC208E6
:10A6500000F007030120895C98400840704710B55E
:10A66000C20800F00703885C01249C402043885402
:10A6700010BD10B560B10161172120F8021B20F850
:10A68000021B1B2100F8021BFFF7EDFA002010BD92
:10A690000E2010BDF0B5858893B00C46002D39D141
:10A6A000018800263E4F24293BD006DC102909D022
:10A6B00011290CD0232958D14FE03A290BD0552924
:10A6C00053D129E00146204602F0EEF84DE0A01DEE
:10A6D000FFF7C9FA49E02246408934F8061F814253
:10A6E00000D808466080172800D2172060801069C3
:10A6F00070B1607960B1D7E90001CDE90301ADF82F
:10A700000E506088ADF81000136903A910469847F1
:10A710006671267113B0F0BD0146204602F08CF937
:10A7200023E0011D2C2206A8FBF7A0FEBDF81800AF
:10A73000BDF81C2004EBC0014A732269AAB1D7E915
:10A740000423CDE90423ADF81200487B8DF81400F2
:10A750002269204604A9904707E0017A207B8842BD
:10A7600000D201462846FDF709FEA07A0028D1D084
:10A77000E1882846A5DF012570B11128CAD001F073
:10A7800023FC0246074808A1008813B005EB0040EF
:10A79000BDE8F04001F000B8A672E572BAE700002B
:10A7A00054FA0200B826002073645F626C655F672C
:10A7B000617474635F65786368616E67655F6D740B
:10A7C000755F72657175657374282920726574757B
:10A7D000726E65642025732E000000007FB504466C
:10A7E00000780D4658B1A08AA0F57F41FF3906D008
:10A7F0002046FEF70DFC10B125B1022003E0082031
:10A8000004B070BD0020ADF80C00064807C88DE804
:10A810000700A089ADF8020003A80290A08A69464B
:10A82000A3DFEDE700FB020078B103787BB1818202
:10A830004AB1518981819189C181118A4182D1892D
:10A84000018211894181002070470E207047082045
:10A850007047000070B50D46040013D095B128680C
:10A8600080B120212046FBF71AFE4FF6FF70A08230
:10A870002868A0610448FCF7D9FF002801D1012114
:10A88000217070BD0E2070BDFCFA020030B5054687
:10A89000087887B00C46002824D0002C22D0002D48
:10A8A00020D0288811281FD039281BD161896889B8
:10A8B000884217D1A069002814D0A888A4DF10B15D
:10A8C000E16901B18847288AA169ADF80400688A66
:10A8D000ADF8060003208DF80000A888ADF802004E
:10A8E0006846884707B030BDA08AA9888842F9D158
:10A8F0004FF6FF70A0822046FEF78AFB0028F1D0B9
:10A9000002208DF80000A169684688470020608118
:10A91000A081E08160822082E4E70000F0B5054676
:10A92000007887B00C46002836D001208DF8000052
:10A93000207804F10E0218BBA08841F6010188427C
:10A9400022D1A07901281FD1002142F60526207AC4
:10A9500018E000BF01EBC10332F81370B74210D109
:10A9600002EB43031B799B060BD501EBC10002EB05
:10A970004001122201A8FBF779FD00208DF80000AC
:10A9800002E0491C8842E5D8A969002904D0608802
:10A99000ADF802006846884707B0F0BD20B10278E4
:10A9A000DE2A03D0082070470E2070474180002027
:10A9B000704760B159B10278DE2A0AD00968416057
:10A9C000DE2101704FF6FF714180002070470E209C
:10A9D0007047082070477FB5054600294DD0002DEF
:10A9E0004BD008780C46DE2847D1A8886188884279
:10A9F00002D1204604F020FD2888012825D0022815
:10AA00003BD011283AD0512837D135F8040F61884E
:10AA1000884232D1A978A81C02292ED1017A0429B2
:10AA200003D0062901D0052927D100210091022257
:10AA30008DF8002001914FF4C07202910391ADF89E
:10AA40000420007A05280FD010E0297A2046012939
:10AA500013D1A988428891420FD10121017204B01B
:10AA6000BDE8704004F0E8BCADF8041028886946E1
:10AA7000B0DF002801D0616888477FBDA888618861
:10AA80008842FAD14FF6FF7060807FBD00F18040B0
:10AA90000068002800D00120704708B500F1804010
:10AAA000002101600068009008BD000070B50B4CEB
:10AAB000207808B185250FE00020A060606020614B
:10AAC000E060074801F0BCFA054601F007FA08B952
:10AAD00001F0A0FA01202070284670BDB82E002099
:10AAE000A981020038B500258DF800506846FCF7B2
:10AAF00011FA074CE068401EE060E06810B901F010
:10AB0000AFFAA5709DF80000FCF728FA38BD0000E8
:10AB1000B82E0020F0B505460478154889B01646D1
:10AB200040F82420124A0869121DA2F1080742F8D1
:10AB30002400487F385520226846FBF797FC049490
:10AB40002878385C48B10EB10A4A00E00022694614
:10AB5000281D01F005FD09B0F0BD0EB1064A00E068
:10AB60000022694605F10C0001F0CCFBF3E7000080
:10AB70006C250020FDF1020049F002000FB408B579
:10AB80000399002904D004AA00926A4600F00FF845
:10AB900001B05DF814FB10B582680446002A05D0A8
:10ABA000D4E90403216898470020A06010BD2DE976
:10ABB000FC4791460C00804676D014F8011B39B151
:10ABC00025290ED04046FDF745FA20780028F4D11B
:10ABD00098F80C00002867D04046BDE8FC47FFF716
:10ABE000DABF0020012221782B291BD02D2902D089
:10ABF000302908D102E040F0010001E040F00200FD
:10AC0000641C002AEFD100252A290ED02178A1F159
:10AC100030020A2A11D205EB850201EB4205641CC1
:10AC2000303DF1E740F00400EAE7D9F800100B1DD1
:10AC3000C9F800300968641C0D44217800232E29CE
:10AC40000BD114F8011FA1F130020A2A05D203EB3F
:10AC5000830201EB4203303BF3E76C290DD06829F6
:10AC60000BD0692921D00BDC252918D0582931D0E7
:10AC700063290ED0642915D117E014F8011FECE701
:10AC8000702969D0732932D075291BD0782909D150
:10AC900020E0D9F80000011DC9F8001001784046F5
:10ACA000FDF7D8F9641C90E76CE0D9F800100A1D94
:10ACB000C9F800200968CDE900500A224046FEF795
:10ACC000CDFEEFE7D9F800100A1DC9F80020096889
:10ACD0000A2206E0D9F800100A1DC9F80020096808
:10ACE0001022CDE90050404604F030FBDAE7D9F8F5
:10ACF000001000270A1DC9F800200E68C00705D102
:10AD000012E04046761C7F1CFDF7A4F9317800293B
:10AD1000F7D104E0202140466D1EFDF79BF9BD42AE
:10AD2000C0D9002DF6D1BDE74EB13046FBF7C2FBCE
:10AD3000074604E0202140466D1EFDF78BF9BD4219
:10AD400006D9002DF6D103E04046761CFDF782F9C6
:10AD500031780029F8D1A5E7D9F80000011DC9F81C
:10AD60000010056830214046FDF774F9782140460F
:10AD7000FDF770F908200021CDE9000103461022FB
:10AD80002946B0E7BDE8FC872DE9F84F2B4E0400BB
:10AD90009A4630884FF001031546894603EB004080
:10ADA00024D0216800292BD0002D32D0626849467A
:10ADB0004FF010071268A2F1010C1CEA090F11D123
:10ADC00098466A432046FBF7D7FE00282AD0206821
:10ADD00053462A46066901B049462046B446BDE8B6
:10ADE000F04F6047164B17A2009721E00E2100910B
:10ADF000134B1EA21FA100F0DEFC0E20BDE8F88F51
:10AE0000082100910E4B26A21AA100F0D4FC0820C4
:10AE1000F4E7092100910A4B24A216A100F0CBFC13
:10AE20000920EBE700973188054B214A08EB0140E8
:10AE300010A100F0C0FC1020E0E70000DC2600209C
:10AE40009BFB0200616464725F69735F7061676598
:10AE50005F616C69676E656428705F66732C207033
:10AE60006167655F6164647229000000705F6673EA
:10AE700000000000257320636865636B20666169CC
:10AE80006C656420696E20257328292077697468B1
:10AE90002076616C756520307825782E00000000E2
:10AEA000705F66732D3E705F617069006C656E0047
:10AEB0001800030038B503000F484FF001054FF0AC
:10AEC0000E04008805EB004009D061B119600C68E0
:10AED00001B0A446BDE83040114618466047074B14
:10AEE00007A2009402E0054B07A2009408A100F01D
:10AEF00062FC0E2038BD0000DC26002050FB020062
:10AF0000705F667300000000705F61706900000090
:10AF1000257320636865636B206661696C656420D6
:10AF2000696E202573282920776974682076616C02
:10AF3000756520307825782E000000002DE9F0415D
:10AF400028B1016819B1C969BDE8F04108470D4D44
:10AF50000D480024461B14270DE000BF04EB8400BD
:10AF600005EB8000016829B1C969884710B101204B
:10AF7000BDE8F081641CB6FBF7F0A042EED80020DB
:10AF8000F6E70000A0260020B42600200448012196
:10AF90004174007A08B1002070470120704700001A
:10AFA0001C320020012801D0032808D104490022C6
:10AFB00001284A7400D00020087402F0CFBF704707
:10AFC0001C32002070B50246022801D0032A45D168
:10AFD000234C207A002841D0012833D0022831D1D7
:10AFE00020480023022A006802D0032A2AD11BE04D
:10AFF000E360017911B1012924D10DE0D0E90565A3
:10B00000711B4FF48056B14200D33146294481610F
:10B010004569A9420ED015E00169491C01614269E8
:10B0200091420FD1237213E0E168491CE1600829C5
:10B0300008D9E3602372022A0AD00D21FDF748FCEB
:10B0400002F032FF607C28B1BDE8704000F04CBFD8
:10B050000021F3E7BDE8704002F080BF70BD000042
:10B060001C320020142600202DE9F84F3A4D040030
:10B070008B4628884FF00106DDF828A098469146B7
:10B080004FF00E0106EB00401AD0B9F1000F1BD0B3
:10B090002168002920D00921B8F1000F25D062686D
:10B0A0005368B8FBF3F703FB1782002A21D02B4B20
:10B0B0002BA2009135A100F07EFB0920BDE8F88F9E
:10B0C000264B3DA2009102E0244B3DA200912FA10E
:10B0D00000F071FB0E20F1E7082100911F4B3AA20E
:10B0E0002AA100F068FB0820E8E71C4B39A2009178
:10B0F000E0E75846FBF73AFD102798B14846FBF7C2
:10B1000035FDB0B1424659462046FBF735FDB8B192
:10B11000CDF800A0206843464A46C56859462046F7
:10B12000A847CBE7009728880C4B06EB00402AA2E3
:10B130000CE000972888094B06EB00402CA205E0A4
:10B1400000972888054B06EB004032A20FA100F0C3
:10B1500032FB1020B2E70000DC26002088FB020052
:10B1600021286C656E202520705F66732D3E705F10
:10B17000666C6173685F696E666F2D3E70726F6793
:10B1800072616D5F756E697429000000257320631C
:10B190006865636B206661696C656420696E202553
:10B1A00073282920776974682076616C7565203072
:10B1B0007825782E00000000705F667300000000A4
:10B1C000705F737263000000705F66732D3E705F86
:10B1D000617069006C656E00616464725F69735FC1
:10B1E000616C69676E656433322864657374290025
:10B1F000616464725F69735F616C69676E65643313
:10B2000032282875696E7433325F7429705F7372E7
:10B2100063290000616464725F69735F77697468B1
:10B22000696E5F626F756E647328705F66732C2041
:10B23000646573742C206C656E29000070B541EA5A
:10B240004201DDE904564FF0A04441EA830141EA9E
:10B25000052104EB800041EA0641C0F8001770BDEB
:10B2600070B541EA4201DDE904564FF0A04441EADD
:10B27000830141EA052104EB800041EA0641C0F860
:10B28000001770BD70B541EA4201DDE904564FF088
:10B29000A04441EA830141EA052104EB800041EA30
:10B2A0000641C0F8001770BD70B541EA4201DDE902
:10B2B00004564FF0A04441EA830141EA052104EB22
:10B2C000800041EA0641C0F8001770BD1CB500219E
:10B2D00000910B4601220191FFF7D4FF1CBD1CB564
:10B2E000002100910B4601220191FFF7DDFF1CBDFB
:10B2F0001CB500220B46009211460192FFF7C2FFD7
:10B300001CBD1CB500220B46009211460192FFF7AE
:10B31000CBFF1CBD1CB5002100910B460122019101
:10B320001146FFF7AFFF1CBD1CB5002100910B4675
:10B33000012201911146FFF7B7FF1CBD4FF0A0425B
:10B3400002EB8000D0F8002722F44032C0F800273A
:10B35000D0F8002742EA0141C0F8001770470122E7
:10B360004FF0A043824011B1C3F808257047C3F8DD
:10B370000C25704718B5084B6C4601441B680093B8
:10B3800006E000BF54F82030D3F81035401C08C246
:10B390008142F7D818BD00000CFB0200034908B534
:10B3A0000844002101600068009008BD0060004072
:10B3B00002494058012800D000207047006000403A
:10B3C00030B5124B01460020D3F81044224609E064
:10B3D000157A854205D1401C0A28F7DB4FF0FF3073
:10B3E00030BD5268002AF3D1421CF9D00872D3F85C
:10B3F00010242AB152684A60D3F81024516030BD3D
:10B400000022C3F810144A6030BD00003C33002015
:10B41000F0B595B01C4615460F4608461A9E00F03A
:10B420002FFB182109A8FBF73AF80E96CDE909542D
:10B430000023082203A9384600F037FB0598069040
:10B44000BDF81000ADF81C00BDF81200ADF81E00EC
:10B4500000208DF821000398082600F00300012841
:10B4600002D0022818D032E003983346850AC0F390
:10B47000C2008DF8200003980FA9C0F38314A20026
:10B48000384600F012FB09A8009006AB22460FA92F
:10B49000284600F051FA1AE00398840DC0F3C20068
:10B4A0008DF82000082C01D2254600E008253346FF
:10B4B0002A460FA9384600F0F8FA2E44641B09AB5F
:10B4C00006AA29460FA800F089F9002CEAD13846CF
:10B4D00000F0DCFA15B0F0BD7047012003F0D2BDDA
:10B4E000084810B50178084A515C19B1001D01F0F7
:10B4F000C3F802E00C3000F0D1FFBDE8104000209E
:10B5000003F0C0BD282600206825002008B5034AA6
:10B5100000924023024AFFF77BFF08BD45E7020087
:10B520003C3200200A4A012902EBC00007D0022960
:10B5300007D0032907D0042907D000207047022034
:10B5400070470420704700797047407970470000C9
:10B550003007030010B5FFF7C0FF04210348FFF7D1
:10B560002FFF02490120487210BD00003C26002038
:10B570002DE9F04F8DB0FCF77DFD18B100200DB026
:10B58000BDE8F08F7A4C4FF0000BC4F818B4BFF34D
:10B590004F8F60680290A568D846284004EB800071
:10B5A00008E021680298814201D86160E6E72840FE
:10B5B00004EB80000C3002A9FEF7E4FA0028F0D179
:10B5C00005AA029901EA050304EB8303491CDB6821
:10B5D00042F82030401C02910228F2D3059800F076
:10B5E0000300022802D001284ED0A9E0059850227D
:10B5F000810D8946B2EB905F00D850210E4666F36C
:10B600009F50059008315B4800F0F1F9070079D0B0
:10B6100000F036FA4346082205A9384600F04BFAF6
:10B62000029908F1080A2940681A8000001D864224
:10B6300023D94F4D0C3530B1C2B204EB8101301A21
:10B6400090460C3104E02946F2B200259046284687
:10B65000C6B25346384600F02EFA0AEB08032DB165
:10B66000324629464FEA070000F025FA029909F10F
:10B67000030001EB900002903BE004EB8101534694
:10B68000324638460C31EFE70598C0F383100628A0
:10B6900000D30620059960F38911C1F38310801C43
:10B6A00005918100334800F0A2F9070048D000F06E
:10B6B000E7F94346082205A9384600F0FCF908F1ED
:10B6C000080800260FE00298434600EA0501401CE6
:10B6D00004EB81010290042238460C3100F0EBF9B2
:10B6E00008F10408761C0598C0F38310B042EAD82C
:10B6F00047B1D4F81054D4F8180468B1384600F0B3
:10B70000C5F92FE01CE0687A012804D12A68284690
:10B710003946126890476D68002DF4D1384600F024
:10B72000B5F98DF800B06846FBF7F4FBD4F81804BF
:10B7300008B9029860609DF80000FBF70FFC11E06B
:10B74000D4F8104404E0216820468968884764687A
:10B75000002CF8D108480221008801EB004007A125
:10B7600000F016F8FCF786FC80F0010007E7000007
:10B770003C330020C0070300EC2600204261636BCD
:10B78000656E647320666C75736865640000000004
:10B7900000231A4603F008BB08B5012300926A464D
:10B7A00003F002FB08BD1CB5CDE9002302236A4665
:10B7B00003F0FAFA1CBD3EB5069C8DE81C0003237D
:10B7C0006A4603F0F1FA3EBD7FB5DDE908458DE834
:10B7D0003C0004236A4603F0E7FA7FBD2DE9F047F9
:10B7E0000E4680461C46924608293ED894F80C9096
:10B7F000002020731946104602F0E8FA0025B542F1
:10B8000006D218F805201AA12046FFF7B7F903E081
:10B8100019A12046FFF7B2F96D1C082DEFD317A12F
:10B820002046FFF7ABF90025B54210D218F8057095
:10B83000FAF718FE0068C05D10F03E0F01D03A46DE
:10B8400000E02E220EA12046FFF798F903E00DA19B
:10B850002046FFF793F96D1C082DE5D30122214600
:10B86000504602F095FA84F80C90BDE8F08700008D
:10B870002025303278000000202020007C000000CD
:10B880002563000020000000104810B5FF218160F2
:10B89000002101604160C0F81814C0F8141480F849
:10B8A00020140B4800F0F0F800280DD109480A498F
:10B8B0000A4B401AC108002003E000BF23F8200013
:10B8C000401C8842FAD3002010BD00003C33002009
:10B8D000C0070300C007030030070300B4260020A0
:10B8E00002480349401AC00870470000C00703001F
:10B8F0003007030013B56846FEF730FC08B100209E
:10B900001CBD0248009950F831001CBD30070300EF
:10B9100070B508480125D0F8104480F8205405E09F
:10B92000657221682046496888476468002CF7D111
:10B9300070BD00003C3300202DE9FF4781460C9D7F
:10B9400000200C462F7B2873984616462946184639
:10B9500002F03CFA072E42D2DFE806F004090F1687
:10B960001F2A360049462846FFF708F937E04946BE
:10B9700028462268FFF702F931E0D4E9002349465E
:10B980002846FFF7FBF82AE0A0680090D4E90023DE
:10B9900049462846FFF7F2F821E0D4E90201CDE953
:10B9A0000001D4E9002349462846FFF7E7F816E0EE
:10B9B00004F1080007C88DE80700D4E900234946D0
:10B9C0002846FFF7DBF80AE004F108000FC88DE80D
:10B9D0000F00D4E9002349462846FFF7CFF800229C
:10B9E0002946404602F0D4F92F73BDE8FF872DE9C0
:10B9F000F041858A80462D1F4819C01CB0FBF5F028
:10BA0000C6B24046FEF7D1FD041E19D000202071B9
:10BA100001206071E58000272546761EC4F800806D
:10BA20000BE04046FEF7C1FD60B16179491C6171D0
:10BA3000286005467F1CC0F80080B742F1D320463D
:10BA4000BDE8F081204600F002F80020F8E72DE97B
:10BA5000F041457901466B1E002201E00968521C45
:10BA60009A42FBD30F680146002605E038460C6871
:10BA7000FEF7BDFD2146761CAE42F7D3BDE8F0814E
:10BA80000121001DFEF765BDFEF7C9BD10B50446D6
:10BA90000121001DFEF783FD10F0FF0F04D12046A9
:10BAA000BDE81040FFF7D3BF10BD38B501240094A6
:10BAB000FEF718FB38BD38B500240094FEF712FBE2
:10BAC00038BD0000064910B500204870091D086007
:10BAD000BFF35F8F0349044800F032FA002010BD25
