:020000040002F8
:10600000504C0020F96202000163020003630200A9
:10601000056302000763020009630200000000003C
:106020000000000000000000000000000B63020000
:106030000D630200000000000F6302001163020004
:10604000E16502001363020081690200136302002C
:106050001363020013630200196402001363020059
:106060001363020013630200136302001363020050
:106070001363020013630200136302001363020040
:106080001363020039660200136302001363020007
:106090005D66020013630200616602001363020082
:1060A0001363020013630200136302001363020010
:1060B00013630200136302000000000000000000F0
:1060C00013630200136302001363020013630200F0
:1060D0001363020013630200136302000000000058
:1060E00000000000000000000000000000000000B0
:1060F00000000000000000000000000000000000A0
:10610000000000000000000000000000000000008F
:10611000000000000000000000000000000000007F
:10612000000000000000000000000000000000006F
:10613000000000000000000000000000000000005F
:10614000000000000000000000000000000000004F
:10615000000000000000000000000000000000003F
:10616000000000000000000000000000000000002F
:10617000000000000000000000000000000000001F
:10618000000000000000000000000000000000000F
:1061900000000000000000000000000000000000FF
:1061A00000000000000000000000000000000000EF
:1061B00000000000000000000000000000000000DF
:1061C00000000000000000000000000000000000CF
:1061D00000000000000000000000000000000000BF
:1061E00000000000000000000000000000000000AF
:1061F000000000000000000000000000000000009F
:10620000DFF80CD000F0CAF80048004735800200E3
:10621000504C002030B4044654E8000F0D4644E8CA
:106220000053002BF8D1156030BC704730B40446E1
:1062300054E8000F40EA010544E80053002BF7D171
:10624000156030BC704730B4044654E8000F00EAD3
:10625000010544E80053002BF7D1156030BC7047AE
:1062600030B4044654E8000F80EA010544E80053C6
:10627000002BF7D1156030BC704730B4044654E8A9
:10628000000F00EB010544E80053002BF7D1156027
:1062900030BC704730B4044654E8000FA0EB010551
:1062A00044E80053002BF7D1156030BC704770B440
:1062B00004464FF0000054E8006F0D68AE4207BF7F
:1062C00044E80023012044E800630E60002B1CBF5B
:1062D0000020F0E770BC704730B4044654E8000F6B
:1062E00088422CBF451A054644E80053002BF5D1DF
:1062F000156030BC704700000648804706480047DC
:10630000FEE7FEE7FEE7FEE7FEE7FEE7FEE7FEE765
:10631000FEE7FEE76566020001620200202A04DB58
:10632000203A00FA02F1002070479140C2F12003A8
:1063300020FA03F31943904070470000004870476B
:10634000DCAE020040EA01039B0703D009E008C964
:10635000121F08C0042AFAD203E011F8013B00F82A
:10636000013B521EF9D27047D2B201E000F8012B76
:10637000491EFBD270470022F6E710B513460A46C5
:1063800004461946FFF7F0FF204610BD421C10F8E6
:10639000011B0029FBD1801A70470000064C074DF5
:1063A00006E0E06840F0010394E8070098471034E5
:1063B000AC42F6D3FFF728FFE0B5020000B60200BA
:1063C00070B58C1810F8015B15F0070301D110F8B7
:1063D000013B2A1106D110F8012B03E010F8016BE4
:1063E00001F8016B5B1EF9D12B0705D40023521E67
:1063F0000DD401F8013BFAE710F8013BCB1A921CCF
:1064000003E013F8015B01F8015B521EF9D5A142CC
:10641000D8D3002070BD00002DE9F04700268AB0D7
:10642000DFF85091B0464FF4807501243746069648
:10643000284602F0ABFB38B1D9F80403204203D060
:10644000284602F099FB26432D1D64007F1CADB247
:10645000082FEDD34FF4BE74204602F097FB48B1ED
:10646000204602F089FB46F0004606AA01210020E2
:1064700002F06EFB404D16F0FF0F15D001270024EF
:1064800037420DD009EB8401D1F81005D1F8101571
:10649000C0F3042055F82420C1F3014102B1904714
:1064A0007F00641C082CEBD3002E5FDA4FF0FF3026
:1064B000CDF8108054E0281910F8507F90F90000B2
:1064C00027F0C008401C3BD007A9404601F0E6FF7A
:1064D00010B34FEA9719404601F054F955F820706F
:1064E0001FB1B9F1030F03D006E0B9F1030F27D1B3
:1064F00004A9404601F0DAFF4FF0A04101EB88000B
:10650000D0F8000706A9C0F3014A404601F0C6FFD3
:1065100018B1BAF1020F03D012E0BAF1030F0FD194
:10652000B9F1030F08D1BAF1020F1DD00221404684
:1065300002F0F2FA761CF6B217B149464046B84767
:10654000641C042CB7D3002E10D06A460121002011
:1065500002F0FEFA06990098884207D00690049847
:10656000002634460790A6E70321E0E70AB0BDE81D
:10657000F0870000006000403825002000F01F0276
:10658000012191404009800000F1E020C0F8801214
:10659000704700F01F02012191404009800000F186
:1065A000E020C0F80011704700F01F020121914067
:1065B0004009800000F1E020C0F800127047490750
:1065C000090E002806DA00F00F0000F1E02080F844
:1065D000141D704700F1E02080F80014704700009F
:1065E00070B54FF48076304602F098F8114CB5053E
:1065F00060B1304602F099F80120C5F808036079CF
:1066000020B9012060712168002088474FF482760C
:10661000304602F083F800280AD0304602F085F8B0
:106620000220C5F808032168BDE870400120084732
:1066300070BD0000E822002007480021C0F840118A
:10664000C0F84411C0F84811C0F84C11C0F800114E
:10665000C0F8041103F0CEBF0010014003F018BFD2
:1066600002F0DEBFF0B5B5480023021D0178101D11
:1066700001254FF0805406290BD11678360708D132
:106680000678C6F30316032E06D0042E04D0052E7A
:1066900002D0062907D00EE0B4F82463A84FC6F351
:1066A00004263E6002E01678360704D10678C6F369
:1066B0000316032E02D0062904D00FE0A24FA14EEC
:1066C0007E670EE01678360708D10678C6F3031603
:1066D000032E06D0042E04D0052E02D0062907D0A2
:1066E0000EE0D4F84462994FC6F342363E6002E0B1
:1066F0001678360704D10678C6F30316032E02D0A7
:10670000062906D011E0924E376827F0807737606F
:106710000EE01678360708D10678C6F30316032E66
:1067200006D0042E04D0052E02D006290AD011E08E
:106730004FF08046C6F80C31C6F81031834E361F34
:10674000336002E01678360704D10678C6F30316E4
:10675000032E02D0062905D00CE07C4F03266437B7
:106760003E600AE01678360704D10678C6F30316B1
:10677000032E02D006290DD014E0764F05263E6088
:10678000744E78363560734E083633603F263F1DB1
:106790003E6002E01678360704D10678C6F3031689
:1067A000052E02D0062957D062E06B4E36686B4F3B
:1067B0003E60694E361D36683F1D3E60664E0836A7
:1067C00036683F1D3E60644E0C3636683F1D3E60A5
:1067D000614E103636683F1D3E605F4E1436366897
:1067E0003F1D3E605C4E183636685C4F20373E6079
:1067F000594E1C3636683F1D3E60574E203636686F
:106800003F1D3E60544E243636683F1D3E60524E5A
:10681000283636683F1D3E604F4E2C3636683F1D89
:106820003E604D4E303636684C4F40373E604A4EE3
:10683000343636683F1D3E60474E383636683F1D59
:106840003E60454E3C3636683F1D3E60424E403607
:1068500036683F1D3E6002E01678360708D106789C
:10686000C6F30316032E06D0042E04D0052E02D044
:10687000062907D019E0D4F85812394A01F04F011F
:10688000116002E0117809070FD10078C0F30310FE
:10689000032803D0042801D0052806D13148016817
:1068A000C90702D06FF001010160D4F83001062859
:1068B00008D1D4F83401062804D12B48016841F4EA
:1068C0008061016022487438016841F47001016000
:1068D000BFF34F8FBFF36F8F4FF01021D1F800023D
:1068E000002803DBD1F80402002822DA1F4A1560D1
:1068F0001F480468002CFCD01524C1F8004205682C
:10690000002DFCD0C1F8044201680029FCD01360BE
:1069100001680029FCD0BFF34F8F0D48F0380168A3
:10692000144A01F4E06111430160BFF34F8F00BFCF
:10693000FDE7124910480860F0BD0000E00F00F0CC
:10694000403501400DF0ADBA00C007403C050040A5
:10695000FCED00E0105600400404001020C500408B
:10696000E40E0040000400403C17004004E50140F4
:1069700000E401400400FA050090D003AC2300209D
:106980000148006800470000F022002002E008C82B
:10699000121F08C1002AFAD170477047002001E099
:1069A00001C1121F002AFBD17047000001212028DD
:1069B00003DA81400548014003E0402802DA20382C
:1069C000814009B10120704700207047FC06FFBDDF
:1069D000082806D228B1012803D0042801D00120BC
:1069E000704700207047000030B52548A5B03C2115
:1069F000006824902348807C8DF892006846FFF759
:106A0000BAFC02208DF8000001248DF80240062017
:106A10008DF803003C210FA8FFF7ADFC24A81A4D08
:106A20001490ADF84C402A1D6846296800F044FADD
:106A300008B100F0DFF8144A0FA80C32A96800F082
:106A40003BFA08B100F0D6F818211EA8FFF793FC16
:106A500000208DF88D408DF87840ADF884001F90AF
:106A60008DF88C004020084920901EAAA1F10C004E
:106A700072DF002801D000F0BDF825B030BD000065
:106A8000C8AB0200E4230020C4220020064810B551
:106A90000121007873DF08B100F0ACF8BDE81040C8
:106AA000002000F02DBD0000B822002070B50024A9
:106AB000084D05E0686810F8340002F08DFE641C93
:106AC00028788442F6D304484068BDE8704000F05E
:106AD0001DB90000F822002004AC020070B50024AB
:106AE000064D06E06868012110F8340002F098FEB7
:106AF000641C28788442F5D3002070BDF822002061
:106B0000F8B515460C460646052A01D20720F8BD01
:106B100002F082FF18B902F047FF0028F7D11249AE
:106B200000224E600C708D60C1E90422C1E906228A
:106B30000E4D0DE006EBC4002968009181788DF8B8
:106B4000011000780A4A694602F0BCFE0028DED136
:106B5000641EE4B2EED2BDE8F84004480021054AC4
:106B6000001D00F053B80000F822002004AC020021
:106B7000417B0200557A020072B602F0A5FA00BF0E
:106B800002F0E4F80028FBD1104C0121208801EB31
:106B900000400FA102F0EAF910480068C00700D0D9
:106BA00000BE2088022101EB00400DA102F0DEF9B9
:106BB000BFF34F8F0948E43801680D4A01F4E061E2
:106BC00011430160BFF34F8F00BFFDE7D4230020C6
:106BD000466174616C206572726F7200F0ED00E0C6
:106BE00053797374656D20726573657400000000DD
:106BF0000400FA050EB500210091CDE901106A46A6
:106C000044F20100FFF7B8FF0EBD0000074B9B7870
:106C100023B12AB120B10068037C1BB10820704762
:106C2000072070474174426100207047042600200D
:106C300070B503F081FA104800240B2104704470F1
:106C40000E4D817014206C602C706C70FFF796FCF8
:106C500007211420FFF7B3FC1420FFF79AFC084823
:106C6000046007211120FFF7AAFC0548001F0068F7
:106C7000A860002070BD000004260020182300201A
:106C8000081501402DE9FC47DFF8789099F80230AB
:106C900073B368B3052902D20720BDE8FC874369B6
:106CA00033B3437C012B25D00027044600258846BA
:106CB00016468DF80050684600F038F801A803F039
:106CC00003FFC8B1012101700F4944600968C0E9A0
:106CD0000218C0E904769DF8040089F801009DF8C7
:106CE000000000F047F81420FFF75EFC2846D4E7C8
:106CF0000820D2E70F46D8E704259DF8000000F0F1
:106D000039F8F3E704260020041501400649897884
:106D100039B130B1416921B100210174022103F080
:106D200045BC0820704700000426002030B5EFF372
:106D3000108172B60D4A9468012324B103700029B2
:106D400000D162B630BD93604FF0E023D3F880519C
:106D5000074C25401560C3F88041D3F88441546046
:106D60005A17C3F8842100220270E8E71027002098
:106D7000FC06FFBD0B498A68002A11D000280FD1FC
:106D8000EFF3108072B60B684FF0E022C2F80031CA
:106D90004B68C2F8043100228A60002800D162B634
:106DA00070470000102700202DE9F04106460868D2
:106DB0000C46411C4FF0A0474FF0010506D005FAE4
:106DC00000F1C7F80815206801F092FE6068411CC8
:106DD00002D0002101F07AFE3168A069C1F82405D3
:106DE000607D227D31681043C1F86C05D4E9001242
:106DF0003068C0F81425C0F80C15207D012815D185
:106E0000A068411C02D0002101F060FEE068411C36
:106E100005D08540C7F80855E06801F069FED4E95F
:106E200002123068C0F80825C0F81015BDE8F081DE
:106E30002DE9F041064608680C46411C4FF0A0477A
:106E40004FF0010506D005FA00F1C7F808152068D3
:106E500001F058FE6068411C02D0002101F03FFEA5
:106E60003168A069C1F82405607D217D326808433E
:106E7000C2F86C05D4E900123068C0F80C15C0F8EF
:106E80001425207D012815D1A068411C02D00021C5
:106E900001F025FEE068411C05D08540C7F8085583
:106EA000E06801F02FFED4E902123068C0F808252E
:106EB000C0F81015BDE8F0812DE9FC4700251788C2
:106EC0000646158090F82D001446894630B13A46A2
:106ED0002146484600F0E6F8051E09D1B0784FF08B
:106EE0000C0A18B32088C846001DB84202D9504683
:106EF000BDE8FC87684679DF0028F9D120880321A6
:106F000008F8001020881921401C80B2208008F861
:106F100000102088401C80B2208000EB0801BDF8E2
:106F2000000003F02BFD218808442080F078022225
:106F3000C8B1218896F9033001F1030C4846BC45DD
:106F4000D5D8425421884FF0010C491C89B22180C8
:106F500000F801C02188491C89B2218009F801305C
:106F60002088401C20807068B8B1218890F90030DA
:106F700001F1030C4846BC45B9D8425421880A2285
:106F8000491C89B2218042542188491C89B2218040
:106F900009F801302088401C2080308950B1CDE9AB
:106FA00000474B460622022106F1080003F0A4FD2B
:106FB000051E9DD1308A50B1CDE900474B460722CE
:106FC000032106F1100003F097FD051E90D1308BD0
:106FD00050B1CDE900474B461522142106F11800A7
:106FE00003F08AFD051E83D1306A30B13B4622464C
:106FF000494600F066FC051EDBD1706A30B13B46A5
:107000002246494601F0DCF8051ED2D196F82C0044
:1070100038B13B4622464946304603F07BF9051E0F
:10702000C7D1307838B13B4622464946304601F058
:107030004DF9051EBDD128465AE7000070B5040081
:1070400012D001461C221448FFF77CF91248134D58
:107050000560206850B17ADF002806D120680168F9
:1070600029604068686005E00E2070BD0B487BDF3A
:107070000028FAD108484FF6FF711438084A20F862
:10708000041B0549343901600021FFF7BFFD0028CA
:10709000EBD0032070BD000090240020D4220020FB
:1070A0003DAA02007CB5054608880C46093090428E
:1070B00001D90C207CBD68466DDF0028FAD12188FB
:1070C0000820685420881B21401C80B2208029544D
:1070D0002088401C80B220802844DDF80110016027
:1070E000BDF8051081802088801D80B220809DF829
:1070F0000010490800D0012129542088401C20801C
:1071000000207CBDF8B5314D028804466E88212AE6
:1071100047D011DC2E484FF00301102A008801EB04
:10712000004013D0112A2AD0132A43D100231A4633
:10713000852130467FDF1CE03B2A42D0522A3AD0DC
:10714000562A37D18088132176DF12E021A101F081
:107150000DFF012000F0D4F9002000F0C9F9A1884A
:1071600069801F4801F062FA08B1FFF743FDFFF79D
:10717000B5FC00281ED0BDE8F840FFF73BBD19A1C3
:1071800001F0F4FE012000F0B3F94FF6FF706880C3
:10719000FFF78CFC08B1FFF72DFDBDE8F840FFF7C5
:1071A00075BC00200090A08869468FDF002801D0C0
:1071B000FFF720FDF8BD00231A4619463046B1DF1F
:1071C000D7E78088132176DFD3E70000B8220020BC
:1071D000D4230020436F6E6E656374656400000005
:1071E00010240020446973636F6E6E656374656478
:1071F000000000002DE9F04701883B4E40F2F319F2
:107200004FF6FF7510291BD011293ED0122954D0FA
:10721000502946D1C188F289841D914241D16189AA
:1072200002293ED18688304600F0CCFC050038D0DB
:1072300004F10C0000F038F9A8B3294630464EE0BE
:10724000C17B8788044601292BD1A846284600F037
:10725000B9FC050017D02F80002028722348434630
:107260004A460168C5F80A104068C5F80E0004F1E6
:10727000100105F10A0000F069FD6872F08900282C
:107280000FD129462AE0042013E0808800F09AFC00
:10729000040006D06068FFF739FD08B103F012F86A
:1072A0002580BDE8F087FFE76868FFF72FFD00281D
:1072B000F7D0BDE8F04703F005B8878806463846A2
:1072C00000F080FC0400ECD02B464A4606F1080191
:1072D00004F10A0000F03AFD607221463846BDE82C
:1072E000F04700F035BB000090240020D42200209D
:1072F0002DE9F04F0746858802883D48012197B067
:107300008346102A09D0112A49D01A2A6CD1387A1A
:10731000B1EB101F45D2012244E0354C083CA06877
:10732000C0430B9061680BA801F04AF80B990CA8B8
:1073300000F0A8FA2C220CA96846FFF703F80026F3
:10734000E946A04610E000BF09EB46005FF00004EC
:10735000B0F804A008EB84005146001D01F004F8C9
:10736000641C1D2CF6D3761C0098B042ECD8142D6A
:1073700005D317B00420BDE8F04FFFF73BBC29460A
:10738000584601F007F8294608F1040001F002F818
:10739000F87B012828D016482946001D15E029460B
:1073A0001AE000220221B1EB101F01D2012600E0F9
:1073B00000260F49083901F11000041D294682B149
:1073C00000F0E8FF36B12946204617B0BDE8F04F7F
:1073D00000F0E0BF2946204617B0BDE8F04F00F0AE
:1073E000C3BF00F0C1FFF5E717B0BDE8F08F0000A4
:1073F000B424002030B50446134B85B008680D4610
:1074000060610FCB8DE80F0004F11201684662DF66
:10741000002816D1A07C8DF8120041F22350ADF85F
:107420001000224604A90120A8DF002809D129461E
:10743000204600F0D3F8002803D12946204600F06A
:10744000A7FC05B030BD0000E8AB020030B40288F4
:10745000502A10D1034630F8062F4C88A2420AD198
:107460004289012A07D14C69002C04D0027B9888FC
:10747000A44630BC604730BC704707B586B00122D7
:1074800000230093ADF810200193029303938DF82D
:1074900002204989ADF8001008A9039104A90291BE
:1074A0006946AEDF09B000BD007800F0010070470A
:1074B0007CB50546C0074FF000040AD00B480122F6
:1074C0000023007800941146019401F0A5FA00F021
:1074D0001FF8A80709D505480022401C032300789F
:1074E00000941146019401F097FA7CBDCCAB0200E8
:1074F0000249085C012101F020BB0000CCAB020076
:107500000249085C002101F018BB0000CCAB02006E
:107510000020FFF7EDBF00002DE9F8430546861C6B
:1075200000208DF8000090460F464FF00109684694
:10753000FFF7FCFB1B4C20683860D4E90001401ABF
:10754000A16804F21C47081A0EE00121384600F039
:1075500031FF00F021FD0146384600F02BFFD4E951
:107560000001401AA168081A401C8642EDD8B8F103
:10757000000F03D0052065F3891002E0062065F3B3
:107580009F50A2682168114004EB8101C860206807
:10759000304420609DF80000FFF7ECFB4846BDE852
:1075A000F88300002828002030B482680468531C47
:1075B0008360A154D0E901128A4202D330BC01F0A9
:1075C00032B930BC70470000034803C8814201D182
:1075D00001207047002070472828002030B58FB068
:1075E0000024054607949DF81C001C2120F00F0084
:1075F000401C20F0F00010308DF81C009DF81D009C
:1076000020F00F00401C20F0F00010308DF81D001D
:107610009DF81E0020F00600801C8DF81E006846B4
:10762000FEF7A9FE9DF80000019440F012008DF8CD
:10763000000007A8CDE9044003940694A87C8DF8C7
:107640003A0041F22450ADF838000D949DF8340012
:10765000142120F00F00401C20F0F00010308DF8B5
:1076600034009DF8350020F0FF008DF835009DF8BE
:10767000360020F00600801C20F019008DF836003E
:1076800008A8FEF778FE0EA808900DA80990012022
:10769000ADF82800ADF82A40ADF82C000C942888ED
:1076A00005F10A0308AA6946AADF0FB030BD000041
:1076B00010B50C46112819D10F480321008801EBA1
:1076C00000400EA101F052FC1448224612494088A5
:1076D000FFF7D3FE00280DD0A0F54051023909D0A4
:1076E000082807D043F20141884203D0BDE810408A
:1076F000FFF780BA10BD0000D423002053656E64EC
:1077000020627574746F6E20737461746520636891
:10771000616E67652E000000E4230020B82200207F
:1077200005494FF0FF32082841F8202002D30844D1
:1077300080F848207047000038250020F0B54FF051
:10774000FF3512B10023082601E008230C260C4C5B
:1077500005E000BF54F823707F1C04D05B1CB342CB
:10776000F8D32846F0BD26185DB286F8305044F8AC
:107770002310002AF5D1E11881F84800F1E7000054
:10778000382500200249084490F930007047000075
:107790003825002070B5084C050009D01034216848
:1077A000002907D008682060496828468847F6E71E
:1077B0000834F4E770BD000024250020054A0121AB
:1077C00020B1012805D19170FFF7E4BF517000206E
:1077D000FAE77047242500202DE9F05F264841682C
:1077E000F1B3DFF898B00E688146DBF80040876897
:1077F0008078E11B21F07F45ED1CB0B9DFF8808077
:107800004FF48030C8F84403C8F804031120FEF791
:10781000B5FE1120FEF7BDFE4FF0010AC8F800A02A
:107820002F2001F0D1FF89F802A0B54200D23546E1
:10783000124BE8193C3320F07F401860DBF8001051
:107840005A46091B21F07F41001B20F07F40C91CD4
:1078500081420FD9106818602F2001F0B5FF00E0B9
:1078600004E0BDE8F05F1120FEF79EBEBDE8F05FCA
:1078700002F062BCBDE8F09F18230020041501400F
:107880000010014073B58CB00646002000900D98A2
:1078900080B100246D4621460DA800F070FD30B186
:1078A000009805EB400084800098401C0090641C08
:1078B000142CF0D32C2269463046FEF743FD0EB05F
:1078C00070BD2DE9F04117880646B81D14460D46D7
:1078D000984202D90C20BDE8F081318807220629A0
:1078E0000AD34FF4486C4FF6FF73614501D99942B2
:1078F00002D17088062801D21046ECE7604501D914
:107900009842F9D1994203D0984201D08142F3D8EC
:107910000520E85520881221401C80B2208029547F
:107920002088401C80B220804119308803F026F85E
:107930002188084480B220804119708803F01EF825
:107940002188084420800020C5E7FFF753B90000D4
:1079500038B54A7A0F4B62B100220A725969002980
:1079600006D001228DF80020ADF802006846884755
:1079700038BD0A7A62B19B684C68024619462046B7
:10798000FFF780F90028F3D0BDE8384002F09ABC38
:107990005B68F1E790240020F0B587B0074600202F
:1079A0000490ADF810100590ADF8121001900290FF
:1079B00001AA04A9384690DF060022D001F0AAFEF1
:1079C000114C0346012520883A4605EB00400F493B
:1079D00001F0D7FABDF8042012B9BDF8060038B19D
:1079E0002088BDF8063005EB004009A101F0C9FA76
:1079F000BDF808202AB12088154905EB004001F0A8
:107A0000B9FA07B03046F0BDB0230020E0AE020066
:107A10005468652072657175657374656420545887
:107A20002F5258207061636B6574206C656E6774AB
:107A30006820697320746F6F206C6F6E67206279A5
:107A40002025752F2575206F63746574732E0000D3
:107A50002CAF02002DE9F0470025DFF88C803CE0D8
:107A60006068002100EBC506012032789146FEF7E0
:107A700055FCD4E9062300EA020701EA030C57EAA1
:107A80000C0728D082438B434846C4E9062301F003
:107A900081FF32788246914601200021FEF73EFCAC
:107AA000D4E9042300EA020401EA03074A465046E7
:107AB0000021FEF733FC44404F403C430BD170782B
:107AC000012801D0012100E00021726881EA0A0149
:107AD0000AB1484690476D1CEDB298F80000444644
:107AE0008542BDD3BDE8F087F822002010B5002103
:107AF000024800F070FC80F3100010BD442C002000
:107B00000E4910B50A784C780023A24212D0521CBC
:107B1000D2B20A70022A00D10B70084A0B780C32DC
:107B200052F8232002608868104420F07F4088606B
:107B3000012010BD0360002010BD000018230020AC
:107B40002DE9F0418046024601200021FEF7E6FBC8
:107B50001A4F05460E467868FFF7D8F800280CD172
:107B6000174CD4E9062110462A4001EA06031A43BD
:107B700005D0A843B143C4E90601BDE8F081404601
:107B800001F008FF30B1D4E9040128433143C4E9CE
:107B9000040105E0D4E90410A943B043C4E904108A
:107BA000D4E9060128433143C4E90601A168786895
:107BB000BDE8F0410022FFF765B8000004AC020008
:107BC000F82200200146034802888A4200D00020A3
:107BD000704700007C2400202DE9FC5F0E008346E6
:107BE000DDE90C47C6F1000098469246814600D474
:107BF0000846012503E000BF90FBFAF06D1C5045DC
:107C0000FADAA84500D9454624B1002E01DB7807F1
:107C100000D5641EB80702D5B8F1000F0AD0F807E6
:107C200008D13CB1A54205D220215846641EFFF779
:107C3000BBFCF6E7002E02DA4E462D2102E0780763
:107C400003D52B215846FFF7AFFC07F003000228AD
:107C50000BD1B8F1000F08D13CB1A54205D23021BB
:107C60005846641EFFF7A0FCF6E7CDE900474346FF
:107C700052463146584602F087FEBDE8FC9F0000A0
:107C800070B50D46044600684FF4887101F062FD3E
:107C90004FF49071206801F05DFD4FF492712068FF
:107CA00001F058FD4FF4A271206801F053FD2068E7
:107CB0001249C0F8041320686907000B40B2090E8E
:107CC000002806DA00F00F0000F1E02080F8141D13
:107CD00003E000F1E02080F8001420680121000B8F
:107CE00040B200F01F0291404009800000F1E02006
:107CF000C0F88012C0F8001170BD0000100302002F
:107D0000024600201268930702D0530702D470473E
:107D1000500714D502F00300012802D002280CD12C
:107D200005E0C2F383100B68801C184404E00223B2
:107D3000086803EB925210440860012070470868FD
:107D400000EB9253C2F38910401CEEE7F0B5848833
:107D5000A518944200D82246A41AC288D6189A427E
:107D600000D81346D21A4B880788BB420CD34088F0
:107D7000834209D88888A04206D3A84204D8C8887C
:107D8000904201D3B04201D90020F0BD0120F0BDE6
:107D900030B58FB005461C216846FEF7ECFA00248A
:107DA0009DF80000019440F00A008DF80000039453
:107DB000049405940694A87C8DF8360041F2255071
:107DC000ADF834000C949DF83000142120F00F0021
:107DD000401C20F0F00010308DF830009DF831008C
:107DE00020F00F00401C20F0F00010308DF8310022
:107DF0009DF8320020F00600801C20F019008DF85C
:107E0000320007A8FEF7B7FA0DA807900CA8089053
:107E10000120ADF82400ADF82640ADF828000B9401
:107E20002888AB1C07AA6946AADF0FB030BD000046
:107E300070B50B4C03254FF0020032B1FFF760FB29
:107E4000208808A105EB004005E0FFF751FB2088E2
:107E500009A105EB0040BDE8704001F087B80000C3
:107E6000D42300205265636569766564204C4544DF
:107E7000204F4E21000000005265636569766564FD
:107E8000204C4544204F4646210000001721018028
:107E900041800021017141711B218171C1717047C5
:107EA0002DE9F047394E002780463D46DFF8E09047
:107EB000D6F804A057E003D00446D0F81C8035E083
:107EC00099F8002002EB4201521CD2B289F800203E
:107ED00009EBC10199F80230091D9A4201D189F8D4
:107EE000005048680A780446012A12D0022A02D0BB
:107EF000032A3BD108E002F029FB00B101272574D9
:107F000034E00574C06900E070680028F9D1706041
:107F10002CE0207C50BB88686060C868A06008695D
:107F2000E0604869A061F07800B165606268B1689E
:107F3000184B501A20F07F40984202D2A1680844A2
:107F400006E0881AA16820F07F40814202D9081A11
:107F5000206000E0256065600120A5602074204657
:107F6000E56102F0D5FAB8F10000A4D199F800104B
:107F700099F801008142A3D117B97168514502D027
:107F80000120BDE8F0870020FBE700001823002057
:107F900004260020FFFF7F002DE9FF410026234833
:107FA00000F005FA2148001F074600F000FA204CB7
:107FB00060680090A56800E000986946284004EBDE
:107FC00080000C30FFF79CFE0028F5D101AA009933
:107FD00001EA050304EB8303491CDB6842F8203007
:107FE000401C00910228F2D3019800F00300012800
:107FF0000BD0022810D10198032101EB9050009979
:10800000BDF80A6001EB900005E00198BDF80A6038
:10801000C0F3831008440090384600F0C5F908B159
:108020000098606004B03046BDE8F081402C00202C
:108030002828002088B04FF40041002001F000F80B
:1080400008B1FEF7D7FD00F073FE0120FFF730FA0C
:10805000FEF7EEFD08B1FEF7CDFD40F266620121AC
:108060004648FEF74DFD08B1FEF7C4FD01F006F9E4
:1080700008B1FEF7BFFD01F08BFA08B1FEF7BAFDBB
:10808000002469460120009401F03AF908B1FEF796
:10809000B1FD684601F0B8F908B1FEF7ABFD9DF8F7
:1080A000080037A120F00F00401C20F0F000103035
:1080B0008DF808000D2202A87CDF08B1FEF79AFDBA
:1080C00000945020ADF80000A0200194ADF802000B
:1080D000ADF804404FF4C870ADF8060068467ADF8A
:1080E00008B1FEF787FD0021294800F0E9F908B141
:1080F000FEF780FD274801A9CDE90040244814304F
:1081000000F09FFA08B1FEF775FD23480090204863
:1081100069461838FFF76EF908B1FEF76BFDFEF7F8
:1081200063FC1C216846FEF726F94FF42020CDE9B8
:1081300000408010029019480590032518488DF8DA
:108140000C500690ADF80E408DF810406846FEF7D2
:1081500075FF08B1FEF74EFD124813A1008805EB2C
:10816000004000F003FFFEF791FC00BF00F0EEFDC1
:108170000028FBD101F096F8F8E70000BC220020AF
:108180004E6F726469635F426C696E6B79000000C8
:10819000FC230020E9920200317E0200BD9E020015
:1081A0004B790200D4230020426C696E6B79206504
:1081B00078616D706C6520737461727465642E00F3
:1081C00070B5144682880E4605462088111D01446C
:1081D000921C994201D8FE2A01D90C2070BD521C74
:1081E00032542088FF21401C80B2208031542088E6
:1081F000401C80B220808119288802F0BFFB2188B2
:10820000084480B22080AA8842B1A96841B13044B4
:10821000FEF798F82088A98808442080002070BDC7
:10822000072070BD2DE9F047C7880446181D164683
:108230008946B0FBF7F1B0FBF7F207FB12009A1981
:108240003A44D21CB2FBF7F2DDF820A001E024682A
:10825000491E0029FBD13D1A8846B54216D818E0C0
:10826000BAF1000F05D0211809EB08002A46091DB4
:1082700004E0204409EB08012A46001DFEF762F8DD
:1082800000202468761BA844B74201D9354600E097
:108290003D46002EE4D1BDE8F087000030B502462F
:1082A00059B100F0F9FE0021074C09E004EB81030D
:1082B00015685B88AB4202D11160002030BD491CBB
:1082C0008142F3D3052030BDB0230020F8B50F461E
:1082D000017814460546012901D1687830B120881B
:1082E000821C9A422DD8012902D006E00720F8BD51
:1082F00069780144891C994223D8181A801E86B2D5
:10830000ADF800602188B81C084469467DDF00286C
:10831000EDD12878022805D1BDF80010B14201D86E
:1083200009210AE00821012805D16878B04202D865
:10833000ADF8000001E0ADF80060BDF80000FE28D7
:1083400001D90C20F8BD2288401CB8542088401C5C
:1083500080B2208039542088401C2080BDF8001055
:10836000084420800020F8BD01F01F0301229A403C
:10837000D243490900EB8100114600F021B84A09B7
:1083800050F8220001F01F0201219140084000D066
:108390000120704701F01F0301229A40490900EBB8
:1083A0008100114600F01CB8002100F00FB8012137
:1083B00000F016B808B56A46FDF75FFF009808BDE3
:1083C00008B56A46FDF73FFF009808BD08B56A4644
:1083D000FDF739FF08BD08B56A46FDF71BFF08BD6C
:1083E00008B56A46FDF722FF009808BD08B56A4641
:1083F000FDF750FF009808BD38B5044600258DF8FC
:1084000000506846FEF792FC216862680868904256
:108410000ED9401E08600178A38AE26801FB03259B
:10842000227A2168101AC0B20A79824200D20871F9
:108430009DF80000FEF79EFC284638BD38B505467D
:1084400000208DF800000C466846FEF76FFCE868D7
:10845000A98A201AB0FBF1F12A681068431C136046
:1084600001709DF80000FEF785FC38BD10B530B1F5
:10847000017A42680368891AC9B21A6006E00E20C0
:1084800010BD03681A68541C1C601170491EC9B2E3
:10849000F7D2006800210171084610BDC20800F043
:1084A00007030120895C98400840704710B5C20856
:1084B00000F00703885C01249C402043885410BDD1
:1084C00010B560B10161172120F8021B20F8021BD2
:1084D0001B2100F8021BFFF7D9FC002010BD0E2065
:1084E00010BD0000F0B5858893B00C46002D39D141
:1084F000018800263E4F24293BD006DC102909D0F4
:1085000011290CD0232958D14FE03A290BD05529F5
:1085100053D129E00146204601F0DEFC4DE0A01DCC
:10852000FFF7B4FC49E02246408934F8061F814237
:1085300000D808466080172800D217206080106994
:1085400070B1607960B1D7E90001CDE90301ADF800
:108550000E506088ADF81000136903A910469847C3
:108560006671267113B0F0BD0146204601F004FD8E
:1085700023E0011D2C2206A8FDF7E4FEBDF818003B
:10858000BDF81C2004EBC0014A732269AAB1D7E9E7
:108590000423CDE90423ADF81200487B8DF81400C4
:1085A0002269204604A9904707E0017A207B88428F
:1085B00000D201462846FFF7EFF9A07A0028D1D073
:1085C000E1882846A5DF012570B11128CAD001F045
:1085D000A1F80246074808A1008813B005EB004047
:1085E000BDE8F04000F0C6BCA672E572BAE7000034
:1085F000D0AB0200B023002073645F626C655F67DC
:10860000617474635F65786368616E67655F6D74DC
:10861000755F72657175657374282920726574754C
:10862000726E65642025732E0000000020B1027870
:10863000DE2A03D0082070470E20704741800020BA
:10864000704760B159B10278DE2A0AD009684160EA
:10865000DE2101704FF6FF714180002070470E202F
:108660007047082070477FB5054600294DD0002D82
:108670004BD008780C46DE2847D1A888618888420C
:1086800002D1204602F00EFA2888012825D00228BF
:108690003BD011283AD0512837D135F8040F6188E2
:1086A000884232D1A978A81C02292ED1017A042946
:1086B00003D0062901D0052927D1002100910222EB
:1086C0008DF8002001914FF4C07202910391ADF832
:1086D0000420007A05280FD010E0297A20460129CD
:1086E00013D1A988428891420FD10121017204B0AF
:1086F000BDE8704002F0D6B9ADF80410288869468C
:10870000B0DF002801D0616888477FBDA8886188F4
:108710008842FAD14FF6FF7060807FBD00F1804043
:108720000068002800D00120704708B500F18040A3
:10873000002101600068009008BD000070B50B4C7E
:10874000207808B185250FE00020A06060602061DE
:10875000E060074801F01AF8054600F073FF08B919
:1087600000F0FEFF01202070284670BD2425002067
:10877000BD77020038B500258DF800506846FEF739
:10878000D5FA074CE068401EE060E06810B901F0DF
:108790000DF8A5709DF80000FEF7ECFA38BD00005A
:1087A00024250020F0B505460478154889B0164602
:1087B00040F82420124A0869121DA2F1080742F865
:1087C0002400487F385520226846FDF7BBFD0494FD
:1087D0002878385C48B10EB10A4A00E000226946A8
:1087E000281D01F087FA09B0F0BD0EB1064A00E07D
:1087F0000022694605F10C0001F04EF9F3E7000094
:10880000E022002059A80200A5A602000FB408B576
:108810000399002904D004AA00926A4600F00FF8D8
:1088200001B05DF814FB10B582680446002A05D03B
:10883000D4E90403216898470020A06010BD2DE909
:10884000FC4791460C00804676D014F8011B39B1E4
:1088500025290ED04046FEF7A7FE20780028F4D147
:1088600098F80C00002867D04046BDE8FC47FFF7A9
:10887000DABF0020012221782B291BD02D2902D01C
:10888000302908D102E040F0010001E040F0020090
:10889000641C002AEFD100252A290ED02178A1F1ED
:1088A00030020A2A11D205EB850201EB4205641C55
:1088B000303DF1E740F00400EAE7D9F800100B1D65
:1088C000C9F800300968641C0D44217800232E2962
:1088D0000BD114F8011FA1F130020A2A05D203EBD3
:1088E000830201EB4203303BF3E76C290DD068298A
:1088F0000BD0692921D00BDC252918D0582931D07B
:1089000063290ED0642915D117E014F8011FECE794
:10891000702969D0732932D075291BD0782909D1E3
:1089200020E0D9F80000011DC9F800100178404688
:10893000FEF73AFE641C90E76CE0D9F800100A1DBF
:10894000C9F800200968CDE900500A224046FFF727
:1089500043F9EFE7D9F800100A1DC9F800200968AB
:108960000A2206E0D9F800100A1DC9F8002009689B
:108970001022CDE90050404602F006F8DAE7D9F8B7
:10898000001000270A1DC9F800200E68C00705D195
:1089900012E04046761C7F1CFEF706FE3178002967
:1089A000F7D104E0202140466D1EFEF7FDFDBD42DB
:1089B000C0D9002DF6D1BDE74EB13046FDF7E6FC3B
:1089C000074604E0202140466D1EFEF7EDFDBD4246
:1089D00006D9002DF6D103E04046761CFEF7E4FDF3
:1089E00031780029F8D1A5E7D9F80000011DC9F8B0
:1089F0000010056830214046FEF7D6FD782140463C
:108A0000FEF7D2FD08200021CDE900010346102227
:108A10002946B0E7BDE8FC8770B541EA4201DDE9CF
:108A200004564FF0A04441EA830141EA052104EBDA
:108A3000800041EA0641C0F8001770BD70B541EAF8
:108A40004201DDE904564FF0A04441EA830141EAC6
:108A5000052104EB800041EA0641C0F8001770BD13
:108A600070B541EA4201DDE904564FF0A04441EA05
:108A7000830141EA052104EB800041EA0641C0F888
:108A8000001770BD70B541EA4201DDE904564FF0B0
:108A9000A04441EA830141EA052104EB800041EA58
:108AA0000641C0F8001770BD1CB5002100910B46AF
:108AB00001220191FFF7D4FF1CBD1CB500210091DC
:108AC0000B4601220191FFF7DDFF1CBD1CB5002202
:108AD0000B46009211460192FFF7C2FF1CBD1CB568
:108AE00000220B46009211460192FFF7CBFF1CBDFE
:108AF0001CB5002100910B46012201911146FFF7A0
:108B0000AFFF1CBD1CB5002100910B460122019155
:108B10001146FFF7B7FF1CBD4FF0A04202EB8000EB
:108B2000D0F8002722F44032C0F80027D0F8002700
:108B300042EA0141C0F80017704701224FF0A043FC
:108B4000824011B1C3F808257047C3F80C2570475F
:108B500018B5084B6C4601441B68009306E000BF43
:108B600054F82030D3F81035401C08C28142F7D8A1
:108B700018BD0000F8AB0200034908B50844002105
:108B800001600068009008BD006000400249405844
:108B9000012800D0002070470060004030B5124B23
:108BA00001460020D3F81044224609E0157A854298
:108BB00005D1401C0A28F7DB4FF0FF3030BD52686A
:108BC000002AF3D1421CF9D00872D3F810242AB13C
:108BD00052684A60D3F81024516030BD0022C3F8B7
:108BE00010144A6030BD000028280020F0B595B070
:108BF0001C4615460F4608461A9E00F01DFB18211C
:108C000009A8FDF7B8FB0E96CDE909540023082208
:108C100003A9384600F025FB05980690BDF8100022
:108C2000ADF81C00BDF81200ADF81E0000208DF854
:108C300021000398082600F00300012802D0022832
:108C400018D032E003983346850AC0F3C2008DF88D
:108C5000200003980FA9C0F38314A200384600F047
:108C600000FB09A8009006AB22460FA9284600F099
:108C70003FFA1AE00398840DC0F3C2008DF820007B
:108C8000082C01D2254600E0082533462A460FA9C4
:108C9000384600F0E6FA2E44641B09AB06AA2946C2
:108CA0000FA800F077F9002CEAD1384600F0CAFA94
:108CB00015B0F0BD7047012001F012BD084810B595
:108CC0000178084A515C19B1001D01F09FF802E0DB
:108CD0000C3000F0ADFFBDE81040002001F000BDF9
:108CE00038230020DC22002008B5034A00924023EC
:108CF000024AFFF77BFF08BDD5A20200282700200B
:108D00000A4A012902EBC00007D0022907D0032933
:108D100007D0042907D000207047022070470420A4
:108D200070470079704740797047000000B6020034
:108D300010B5FFF7C0FF04210348FFF72FFF0249DA
:108D40000120487210BD00004C2300202DE9F04F97
:108D50008DB0FEF739FC18B100200DB0BDE8F08FE2
:108D60007A4C4FF0000BC4F818B4BFF34F8F606813
:108D70000290A568D846284004EB800008E02168EE
:108D80000298814201D86160E6E7284004EB800048
:108D90000C3002A9FEF7B4FF0028F0D105AA029911
:108DA00001EA050304EB8303491CDB6842F8203029
:108DB000401C02910228F2D3059800F0030002281B
:108DC00002D001284ED0A9E005985022810D894695
:108DD000B2EB905F00D850210E4666F39F5005908D
:108DE00008315B4800F0DFF9070079D000F024FA81
:108DF0004346082205A9384600F039FA029908F1DD
:108E0000080A2940681A8000001D864223D94F4D68
:108E10000C3530B1C2B204EB8101301A90460C31EE
:108E200004E02946F2B2002590462846C6B25346D1
:108E3000384600F01CFA0AEB08032DB132462946E9
:108E40004FEA070000F013FA029909F1030001EB61
:108E5000900002903BE004EB8101534632463846D5
:108E60000C31EFE70598C0F38310062800D30620E5
:108E7000059960F38911C1F38310801C059181006D
:108E8000334800F090F9070048D000F0D5F9434688
:108E9000082205A9384600F0EAF908F1080800267A
:108EA0000FE00298434600EA0501401C04EB8101F3
:108EB0000290042238460C3100F0D9F908F1040878
:108EC000761C0598C0F38310B042EAD847B1D4F8B5
:108ED0001054D4F8180468B1384600F0B3F92FE004
:108EE0001CE0687A012804D12A68284639461268AD
:108EF00090476D68002DF4D1384600F0A3F98DF845
:108F000000B06846FDF712FFD4F8180408B90298BB
:108F100060609DF80000FDF72DFF11E0D4F81044CB
:108F200004E021682046896888476468002CF8D1ED
:108F300008480221008801EB004007A100F016F864
:108F4000FEF742FB80F0010007E700002828002020
:108F500068B60200D42300204261636B656E6473BF
:108F600020666C75736865640000000000231A4673
:108F700001F048BA08B5012300926A4601F042FAAE
:108F800008BD1CB5CDE9002302236A4601F03AFA78
:108F90001CBD00002DE9F0470E4680461C46924657
:108FA00008293ED894F80C900020207319461046EA
:108FB00001F06AF80025B54206D218F805201AA17A
:108FC0002046FFF723FC03E019A12046FFF71EFC13
:108FD0006D1C082DEFD317A12046FFF717FC0025C5
:108FE000B54210D218F80570FDF7A8F90068C05D09
:108FF00010F03E0F01D03A4600E02E220EA120468E
:10900000FFF704FC03E00DA12046FFF7FFFB6D1CFA
:10901000082DE5D301222146504601F017F884F8C7
:109020000C90BDE8F0870000202530327800000069
:10903000202020007C0000002563000020000000AC
:10904000104810B5FF218160002101604160C0F827
:109050001814C0F8141480F820140B4800F0F0F82D
:1090600000280DD109480A490A4B401AC1080020BE
:1090700003E000BF23F82000401C8842FAD3002000
:1090800010BD00002828002068B6020068B6020063
:1090900000B60200B023002002480349401AC0086D
:1090A0007047000068B6020000B6020013B56846BB
:1090B000FFF7F4F808B100201CBD0248009950F8F1
:1090C00031001CBD00B6020070B508480125D0F87B
:1090D000104480F8205405E06572216820464968F4
:1090E00088476468002CF7D170BD00002828002054
:1090F0002DE9FF4781460C9D00200C462F7B2873ED
:10910000984616462946184600F0BEFF072E42D262
:10911000DFE806F004090F161F2A360049462846E4
:10912000FFF774FB37E0494628462268FFF76EFBDD
:1091300031E0D4E9002349462846FFF767FB2AE0DF
:10914000A0680090D4E9002349462846FFF75EFB5B
:1091500021E0D4E90201CDE90001D4E90023494628
:109160002846FFF753FB16E004F1080007C88DE816
:109170000700D4E9002349462846FFF747FB0AE0E9
:1091800004F108000FC88DE80F00D4E90023494618
:109190002846FFF73BFB00222946404600F056FFD9
:1091A0002F73BDE8FF872DE9F041858A80462D1F8A
:1091B0004819C01CB0FBF5F0C6B24046FFF71CF9D9
:1091C000041E19D00020207101206071E580002765
:1091D0002546761EC4F800800BE04046FFF70CF9E8
:1091E00060B16179491C6171286005467F1CC0F837
:1091F0000080B742F1D32046BDE8F081204600F060
:1092000002F80020F8E72DE9F041457901466B1E90
:10921000002201E00968521C9A42FBD30F68014604
:10922000002605E038460C68FFF708F92146761C51
:10923000AE42F7D3BDE8F0810121001DFFF7BAB8B7
:10924000FFF714B910B504460121001DFFF7CEF851
:1092500010F0FF0F04D12046BDE81040FFF7D3BF48
:1092600010BD38B501240094FEF7DCFF38BD38B5D9
:1092700000240094FEF7D6FF38BD0000064910B563
:1092800000204870091D0860BFF35F8F0349044840
:1092900000F0FCF9002010BD2C23002040AC02009F
:1092A0001C27002008B500208DF800006846FDF757
:1092B0003DFDF1EE100A20F09F00E1EE100ABFF331
:1092C0005F8F08494020C1F880029DF80000FDF73B
:1092D00051FD00F0B7F908B141DF08BD20BF40BF24
:1092E00020BF08BD04E000E0FDF784BC20B10349C5
:1092F00009680160002070470E2070472CAE020004
:10930000FEB502460E460846FFF7F0FF00286ED174
:10931000002400940194012506208DF80020ADF86A
:10932000040002948DF8025069462020326869DFFB
:109330002F4F48B100F0EEF93988024605EB0143A2
:109340002C491846FFF716FE00948DF801508DF851
:109350000240019402948DF803406946402032682F
:1093600069DF40B100F0D6F902463888224905EBA2
:109370000040FFF7FFFD00940A208DF800000194E3
:10938000029469460120326869DF48B100F0C2F9F1
:109390003988024605EB014318491846FFF7EAFDF4
:1093A0004FF4B0600090019402946946A1203268A5
:1093B00069DF40B100F0AEF902463888104905EB8C
:1093C0000040FFF7D7FD0094019402948DF800400F
:1093D0006946A020326869DF40B100F09BF902467F
:1093E0003888084905EB0040FFF7C4FD0020FEBDAA
:1093F000DC230020CCB4020014B502002CB402001F
:1094000078B40200D8B302002DE9F0410446D0F848
:10941000008060DF2168194D074641451CD9288826
:10942000022606EB004016A1FFF7A0FD2888424661
:1094300006EB00401EA12368FFF7A3FDF006D0F85D
:109440000C012168800200F10050421A288825A1F1
:1094500006EB0040FFF78EFD012467B1384600F0AF
:1094600059F9024628882AA104EB0040FFF782FD43
:109470003846BDE8F0812E480470F9E7DC2300206F
:10948000496E73756666696369656E742052414DF5
:1094900020616C6C6F636174656420666F72207408
:1094A000686520536F66744465766963652E0000B5
:1094B0004368616E6765207468652052414D207372
:1094C00074617274206C6F636174696F6E20667270
:1094D0006F6D203078257820746F20307825782EB5
:1094E000000000004D6178696D756D2052414D207E
:1094F00073697A6520666F72206170706C69636150
:1095000074696F6E20697320307825782E00000012
:1095100073645F626C655F656E61626C65282920AB
:1095200072657475726E65642025732E00000000EC
:10953000AB23002030B5144891B00078002820D02B
:109540005FF03405ADF8405010A903A861DF30B1D9
:10955000052816D011B0BDE83040FDF74BBB03AC79
:109560000A49684600F092F807E000BFD0E9002100
:1095700020469047684600F0A0F802980028E1D005
:10958000F4E711B030BD0000AB23002030AE020084
:109590007CB5204C207808B108207CBD0120A0704B
:1095A000002000F061FE112819D0002000F074FEA8
:1095B00019480026006801908DF800606846FDF7A4
:1095C000B5FB164901A810DF05000AD00020207065
:1095D0009DF80000FDF7CEFB2DB128467CBD002094
:1095E0007CBD0120F3E7A67066700721162000F00D
:1095F000F1FD08B1FDF7FEFA0721152000F0EAFDA4
:1096000008B1FDF7F7FA00F0D5FE012000F044FEA6
:10961000E5E70000A8230020C4AD0200796B02003A
:109620000EB50749684600F031F805E0D0E90010B2
:109630008847684600F041F802980028F6D10EBD30
:10964000E0AD02000148007870470000A823002028
:109650001FB568464BDF30B1052814D004B0BDE813
:109660001040FDF7C7BA084901A800F00FF806E05E
:10967000D0E900210098904701A800F01EF8039857
:109680000028E6D0F4E71FBD4CAE02000160096877
:109690004160AFF3008010B5D0E9002153689942D2
:1096A00001D1002104E0D1E90034A34202D01946DF
:1096B000816010BD08314160F0E7816800290BD05E
:1096C000026892680A44826041684B689A4203D1FA
:1096D00008314160FFF7DFBF704700000C4A10B54A
:1096E00002F594730EE0991AC91001EBD17149107B
:1096F00002EBC1010C68844201D90B4602E005D29D
:1097000001F108029A42EED3002010BD486810BD56
:1097100060AC020000B5FFF7E1FF002800D101486E
:1097200000BD00004CAC02004058002800D00120D1
:10973000704708B5002242504058009008BDD0F84C
:109740000403084000D0012070474058002800D092
:109750000120704708B5002242504058009008BDD3
:1097600008480068012110F0010F08D14FF0E020F7
:10977000E02280F80024C0F88012C0F800110248EE
:109780000160704700E100E018050040064902460C
:1097900000200B790BB1852070470A6001220A7105
:1097A00000224A7170470000E8220020044901208D
:1097B000086004480168C1F300410029FAD17047EC
:1097C0000C00004018040040002802D0014980012C
:1097D0000847704711AC020010B5044600F01EFCAB
:1097E00028B12046BDE810400021FFF795B920467A
:1097F00000F020FC00280FD02046FDF7C3FF074AE9
:1098000002EB8001D1F8103523F00103C1F81035C7
:1098100001218140C2F8081310BD00000060004023
:109820002DE9F0418846054600F0F8FB234E00285C
:1098300028461AD0FDF7A6FF304490F8480080096A
:10984000032802D001280ED007E04FF0A040D0F846
:109850001005E84010F0010F05D003212846BDE8AF
:10986000F041FFF759B90221F8E700F0E3FB0028C7
:1098700022D02846FDF786FF04464FF4807000EBA7
:1098800084000F4F81B207EB8400D0F8102542F01E
:109890000102C0F810250846FFF76EF9B8F1000F75
:1098A0000AD02846FDF76EFF56F82000002803D0A6
:1098B0000120A040C7F80403BDE8F081382500204E
:1098C000006000402DE9FC41DFF8BC80044608EB55
:1098D0000400002790F930001346C0170E46401CC4
:1098E00001D008274CE0B0781946C0F3400220466A
:1098F000FDF724FF0546401C41D0B078410719D43C
:10990000C0070AD04FF0A04000EB8401D1F8000757
:1099100020F00200C1F8000707E00021737820461C
:1099200000910A460191FFF789F817492046543102
:10993000FEF7BCFDB078800718D51448317800EBED
:109940008500D0F81025124B1A40C0F810254FF4AE
:10995000F8524FF4403302EA042203EA01410A4379
:10996000D0F810150A43C0F8102509E008EB0500EF
:10997000327810F8481F41EA8211017000E0042794
:109980003846BDE8FC81000038250020006000401A
:10999000FFE0FCFF4FF0A041D1F81015C14011F0DD
:1099A000010000D00120704770B5184D95F858009F
:1099B00008B1082070BD0020411E2A18401CC0B20A
:1099C00082F830102028F8D300242046FDF7A8FEA6
:1099D000641CE4B20C2CF8D300240D49E0206C6523
:1099E00081F8000401264020891FC1F88002C1F8D7
:1099F00000014FF4BE70FFF7BFF80649F007C1F849
:109A0000040385F85860204670BD0000382500200A
:109A100006E000E000600040034890F8580000288D
:109A200000D0012070470000382500200121B1EB53
:109A3000507F01D1012070470020704738B50D4696
:109A400000F06EFB040014D000208DF80000684682
:109A5000FDF76CF9207928B19DF80000FDF78AF92F
:109A6000112038BD0120256020719DF80000FDF710
:109A700081F9002038BD10B500F052FB002802D05B
:109A800000210160017110BD0149024800F050BE83
:109A900094250020002000402DE9F0410546007982
:109AA00016460F4600EB40012D4A01EBC00102EBC8
:109AB000810494F82A1011B10820BDE8F0812949E9
:109AC00051F820102868FFF7B9FF08B11120F4E71A
:109AD00039462846FDF768F966603869206030002D
:109AE0004FF001062FD03F7F4FF48E712868FFF7AB
:109AF00020FE4FF4A2712868FFF71BFE28681A4960
:109B0000C0F8041328684FEA4711000B40B2002840
:109B100006DA00F00F0000F1E02080F8141D03E0E9
:109B200000F1E02080F800142868000B40B200F03B
:109B30001F0206FA02F14009800000F1E020C0F89F
:109B40008012C0F8001128680421C0F80015002018
:109B5000A061E06184F8290044F8140FA675ACE711
:109B600094250020FCAB0200800002002DE9F047A4
:109B7000054600790B4600EB400101EBC00023498C
:109B800001EB8004284600F043F810B11120BDE835
:109B9000F0874FF00008C4F82080A360626184F869
:109BA00028804FF48E76474631462868FFF7C1FD7E
:109BB00028684FF00109C0F808902146286800F095
:109BC00053FD606800BBD5F800A00EE094F82800B3
:109BD00008B10F2716E031465046FFF7A5FD0028D3
:109BE000F4D02146504600F03FFD216A6069814271
:109BF000F1D331462868FFF797FD0028F9D028688F
:109C0000C0F80C90C4F814803846C0E794250020B2
:109C1000007900EB400101EBC000044901EB80003A
:109C20004069002800D001207047000094250020E2
:109C30002DE9F047044600794FF0000900EB4001A0
:109C400001EBC000254901EB80072068C0F80095B2
:109C5000786880B120682249C0F808132068012183
:109C6000000B40B200F01F0291404009800000F15B
:109C7000E020C0F880112068D0F80C25D0F81485B9
:109C8000D0F80865D0F810554FF0FF31C0F8141522
:109C9000C0F80C152068C0F80815C0F81015501C45
:109CA00002D01046FEF700FFB8F1FF3F02D0404659
:109CB000FEF7FAFE681C02D02846FEF7F5FE701C7F
:109CC00002D03046FEF7F0FE2068FFF7D4FE87F89A
:109CD0002A90C7F80490BDE8F08700009425002082
:109CE000840202000149024800F0CEBDC0250020D8
:109CF000002000402DE9F0410546164600790F4648
:109D0000154A00EBC00102EB810494F8201011B158
:109D10000820BDE8F081114951F820102868FFF7AC
:109D20008DFE08B11120F4E739462846FDF780F88A
:109D30006660386920601EB1397F2846FDF7A0FFB4
:109D400028680821C0F800150020A061E061012109
:109D5000606184F82010DCE7C025002000AC020020
:109D60002DE9F04704460E460079204900EBC0007B
:109D700001EB800517463046FFF758FE30B120460C
:109D800000F036F820B11120BDE8F0871020FBE785
:109D90006F61AE604FF49076002731462068FFF780
:109DA000D9FC4FF4AC7841462068FFF7D3FC20681B
:109DB000AA686969C0F84425C0F8481520680121DF
:109DC0008160686878B9B14649462068FFF7BDFCF4
:109DD000064641462068FFF7B8FC0643F4D000B1C0
:109DE0000F27002068613846CEE70000C02500201C
:109DF0000079054900EBC00001EB800040690028B4
:109E000000D0012070470000C02500202DE9F04758
:109E100004460079274900EBC00001EB8007206869
:109E20004FF00009C0F80095786880B12068224999
:109E3000C0F8081320680121000B40B200F01F0297
:109E400091404009800000F1E020C0F880112068B6
:109E5000D0F80C25D0F81485D0F80865D0F8105546
:109E60004FF0FF31C0F80C15C0F814152068C0F889
:109E70000815C0F81015501C02D01046FEF71DFE44
:109E8000B8F1FF3F02D04046FEF717FE681C02D033
:109E90002846FEF712FE701C02D03046FEF70DFE7B
:109EA0002068FFF7E8FD87F82090C7F80490BDE828
:109EB000F0870000C0250020100302000078002871
:109EC00007D104483B21408876DF002801D0FCF709
:109ED00091BE7047B822002070B58D88027900EBE2
:109EE000C5042273C97BA41D012902D0022904D113
:109EF00001E0008800E0408820802188608881425D
:109F00000FD92846A5DF0126A0B1112814D0FFF7EC
:109F100001FC02460A480BA1008806EB0040FFF74F
:109F200029F8A179E079814208D92846BDE8704036
:109F3000FDF732BD6671F4E72671F2E770BD0000EF
:109F4000B023002073645F626C655F676174746343
:109F50005F65786368616E67655F6D74755F726574
:109F6000717565737428292072657475726E6564E5
:109F70002025732E000000007CB506468D88C88819
:109F800006EBC504A41D172800D2172021888142A2
:109F900000D8084660800020207121882846B5DF5F
:109FA00050B1FFF7B7FB02460E480121008801EBD4
:109FB00000400DA1FEF7DEFF6079002810D1306966
:109FC00000280DD01449D1E90201CDE90001ADF816
:109FD00002506088ADF80400326969463046904707
:109FE0007CBD0000B023002073645F626C655F6716
:109FF000617474735F65786368616E67655F6D74C3
:10A00000755F7265706C7928292072657475726E3F
:10A0100065642025732E0000D0AB0200044908447B
:10A0200090F93000082801DB0120704700207047BC
:10A03000382500200449084490F93000082801D24E
:10A0400001207047002070473825002010B50C46CD
:10A05000017A052908D0407A38B1084808A1026879
:10A060002046FEF7D3FB00E01AB106A12046FEF71A
:10A07000CDFB2046BDE81040FEF7D5BB8423002071
:10A08000257300000D0A000038B5C3880D4604464C
:10A0900033B114A0009015A216A12846FEF7B6FB16
:10A0A000217A05291CD0607A48B1A088FEF728FEE5
:10A0B000164951F8202016A12846FEF7A7FBA088D4
:10A0C0000021FEF7F3FF03461049207A143951F8B6
:10A0D000202001B02846BDE830400EA1FEF796BB17
:10A0E00038BD00001B5B306D000000001B5B313B86
:10A0F00033316D0025734C6F67732064726F70701D
:10A100006564202825642925730D0A008423002016
:10A11000257300003C25733E2025733A2000000083
:10A120000349884201D1034870470020704700006E
:10A1300000200040F022002070B5012670044FF08E
:10A14000E0210025C1F88001084C4010C4F8480304
:10A15000C4F8080366602F20FFF736FBA660044CA6
:10A160002F20A560FFF730FBA57070BD00100140E7
:10A170001823002070B5054688690C4600284FF466
:10A18000847128460AD0FFF7D4FAD5F81805626A18
:10A19000E1688854606A401C606270BDFFF7C9FACC
:10A1A000D5F8180570BD1FB501238DF80030CDE935
:10A1B0000121D0E90012684690471FBD1FB5012359
:10A1C0008DF800308DF808100192D0E90012684631
:10A1D00090471FBD70B50D460446FCF7E7FB70B114
:10A1E0002846FCF7F5FB68B16807000E002C0CDA76
:10A1F00004F00F0101F1E02181F8140D09E042F2B1
:10A20000010070BD42F2020070BD04F1E02484F848
:10A210000004002070BD000038B50021012548B1C0
:10A2200001280CD0032809D1FFF79AFABDE838407D
:10A23000FEF7A0BA4FF0E020C0F8805138BD8DF88D
:10A2400000106846FCF772FD064C207808B9FEF74E
:10A2500075FAE068401CE060A5709DF80000FCF70E
:10A2600089FD38BD242500203EB5044609496846CD
:10A27000FFF70CFA08E000BFD0E900212046904724
:10A2800030B16846FFF719FA02980028F4D13EBDB4
:10A2900011203EBDC8AD02003EB5044608496846DF
:10A2A000FFF7F4F907E000BFD0E90021204690470E
:10A2B0006846FFF702FA02980028F5D13EBD00007B
:10A2C000D4AD020002498969002900D008477047CF
:10A2D0009024002070B50D4C0020D2B22070201DBB
:10A2E0000B4D0378EB5C1BB1001DFFF739FD02E05D
:10A2F0000C30FFF73BFC08B1FCF77CFC60780028D1
:10A3000002D021780029FAD070BD0000342300204B
:10A31000DC2200202DE9F0410746806A1446884679
:10A32000C8B3002531E000BFB96A05EB450001EB79
:10A330008006B088801CFE2802D90C20BDE8F08180
:10A340002288401C08F8020020881622401C80B297
:10A35000208008F800202088401C80B2208000EB7C
:10A360000801308800F00AFB2188084480B2208070
:10A37000B28842B1B16871B14044FBF7E3FF208875
:10A38000B188084420806D1CEDB297F82C00A842DB
:10A39000CAD80020D2E7FFE70720CFE7002805D181
:10A3A0000349012048700020FDF7F4B97047000010
:10A3B0002425002010B51620FCF7F8FA80B10F48CC
:10A3C00090F800044009FCF703FB60B10C48826878
:10A3D0004FF480016AB1016841F48001016010BD51
:10A3E00042F2010001E042F20200BDE81040FCF739
:10A3F00001BC4FF0E020C0F8001110BD16E000E0F5
:10A40000102700202DE9F84F204D92468946064638
:10A410009846012269461846AF68FDF77DF858B3A3
:10A42000009800210446801C09E000BF00EA0703F1
:10A430005AF8212005EB8303401C491CDA60414592
:10A44000F4D34FEA164AFDF751FB4AEA0041601C7B
:10A45000384005EB80003C4005EB8402C160D068C9
:10A4600066F3C50068F3891069F39F2020F00300AC
:10A47000401C20F00400D06095F8200402E000BFEA
:10A48000FEF764FC0028FBD1BDE8F88F28280020E7
:10A490002DE9F84F1D4C00256846D4E901A6FDF7CB
:10A4A0002FFB002738B30023009A61681CE0D1F825
:10A4B00000C00846944503D9ACEB02020A6015E0DF
:10A4C000A2EB0C0263440760D0F80CC0C16981465E
:10A4D000BCF1000F08D006EB030828F07F48C0E964
:10A4E000018CC9F81C5005460029E0D1284661605E
:10A4F000FDF7D6FC03E02846FDF7D2FC10B150462C
:10A50000FDF76AF9E770BDE8F88F00001823002016
:10A510000D4B10B5596831B102680C68A24204D8DD
:10A52000A21A0A60C161586010BD0B4603E00B46D9
:10A53000C969121B21B10C689442F8D3A41A0C60AB
:10A540000260C161D86110BD182300202DE9F041DF
:10A55000144E77683D462C4603E0844204D02546DD
:10A56000E469002CF9D11BE0D4B1A5420BD1F86904
:10A57000706040B90C49012088600021B160F07022
:10A580002F20FFF721F92168E069E86110B1026826
:10A59000114401607068874202D00120BDE8F0815B
:10A5A0000020FBE718230020001001407CB5064680
:10A5B00000240D468DF800406846FCF7B7FB01A863
:10A5C00000F082FA70B10570094946609DF80400F8
:10A5D00048709DF80000FCF7CDFB1420FBF7E4FF6A
:10A5E00020467CBD04249DF80000FCF7C3FBF7E780
:10A5F000042600202DE9F041194D6C68002C2CD068
:10A60000184800270068A968B846401A20F07F461D
:10A610002068B0420CD82146361A0744E469087C09
:10A6200020B181F81080886949698847002CEFD1F2
:10A6300029786878814206D1401CC0B2687002282F
:10A6400001D185F80180064869780C3040F8217006
:10A65000BDE8F0411420FBF7A7BFBDE8F081000082
:10A66000182300200415014070B50C4605464FF430
:10A670008E71FFF75EF8216AA068415C206A401C79
:10A680002062C5F81C1570BD1FB500228DF8002092
:10A690000291816801914261D0E9001268469047B9
:10A6A0001FBD00001FB50A4601788DF800104168F3
:10A6B0000191017A8DF80810C0680390044850F8A1
:10A6C0002210001F50F82220684690471FBD00004E
:10A6D000E422002001490120087070473423002043
:10A6E00010B588B0044620220E496846FBF72AFEC2
:10A6F00006200090C01F0190029003904FF0EB7075
:10A7000006900CB1084A00E0002269460748FEF7AF
:10A7100049F808B1FCF76EFA0448001F447008B00D
:10A7200010BD000094AD0200D5A602003823002021
:10A730002DE9FF470C4605464FF40071FEF7FFFF79
:10A7400001274FF40178002618B34FF49279494657
:10A750002846FEF7E9FFE0B149462846FEF7E9FF43
:10A76000C5F8088394F8290000B96F6002208DF8BD
:10A770000000D5F88004C5F880040390A069029019
:10A78000E0680190A661E661D4E90012684690474E
:10A7900028E004212846FEF7D2FF18B34FF4847155
:10A7A0002846FEF7C1FFE8B121462846FFF7E2FC44
:10A7B000616AA069884215D1E06938B1E268616ACE
:10A7C000A0612069E6616662E06008E094F8290013
:10A7D00000B96F60C5F80883A661E268616A204627
:10A7E000FFF7E1FC4FF48E7841462846FEF79CFFC8
:10A7F00078B1206A6169884202D294F8280020B3B7
:10A8000041462846FEF795FF616911B12046FFF7E2
:10A810003BFF4FF4A27841462846FEF785FF00280B
:10A8200018D041462846FEF784FF94F8290000B16D
:10A830002F60A06900280DD0A661E268616A04B0AB
:10A840002046BDE8F047FFF7AEBC21462846FFF79B
:10A850000BFFDEE7BDE8FF871FB50A4601788DF8DC
:10A86000001041680191017A8DF80810C0680390CA
:10A87000044850F82210001F50F8222068469047E4
:10A880001FBD0000E42200202DE9FF410C464FF4DB
:10A89000927705463946FEF758FF0026C0B1394683
:10A8A0002846FEF757FF02208DF80000D5F88004F7
:10A8B000C5F880040390D5F83C058DF80800E068E1
:10A8C0000190A661E661D4E900126846904723E052
:10A8D0004FF4887739462846FEF737FFE0B139460E
:10A8E0002846FEF737FFD5F83C15A069884213D1FA
:10A8F000E06960B1E268D5F8000220F02000C5F8F8
:10A900000002E069A0612069E661E06001E0A66103
:10A91000E2682046FFF752FC4FF4A27739462846FA
:10A92000FEF713FF60B139462846FEF713FFA06912
:10A9300030B1A661D5F83C152046E268FFF73EFC31
:10A940004FF4907739462846FEF7FFFE002813D0D3
:10A9500039462846FEF7FEFE606900280CD0D5F87F
:10A960004C058DF800608DF80800A06801906661C4
:10A97000D4E9001268469047BDE8FF810870000ADC
:10A9800048700220704700002DE9F05F8346DDE942
:10A990000A4A994690460D460846012703E000BF43
:10A9A000B0FBF8F07F1C4045FAD2B94500D94F46BC
:10A9B0005FEACA7012D18CB15FEA8A7002D5B9F130
:10A9C000000F01D0202607E0302605E0314658462A
:10A9D000641EFCF7E9FD0CB1A742F7D35FF0010656
:10A9E000B9F1010F02D9A9F1010903E0B5FBF6F0B5
:10A9F000404502D306FB08F6F2E7DFF83C9000BFC3
:10AA0000B5FBF6F000FB165519F800105846FCF798
:10AA1000CBFDB6FBF8F6002EF2D15FEACA7009D082
:10AA2000002C07D0A74205D220215846641EFCF70F
:10AA3000BBFDF5E7BDE8F09F16AC0200F8B5054692
:10AA400080B2FDF7BFF8040013D0154E207A00271E
:10AA5000317B88420ED2A8B204F10A0175DF28B119
:10AA6000112806D0BDE8F840FFF72CBC207A401C26
:10AA70002072F8BD2772307C38B1A8B23B2176DF56
:10AA800018B1082801D0FFF71DFC71690029F0D02A
:10AA90008DF80070ADF8025068468847F8BD000098
:10AAA0009024002030B40446007A00280AD0608840
:10AAB000002166DF28B1112802D0616830BC084748
:10AAC0000120207230BC70470A494A788B78521CAA
:10AAD000D2B2934200D100220B78934201D10020E0
:10AAE00070470270487800EB400001EBC000001D89
:10AAF00070470000042600202DE9FC411646DDE9E0
:10AB00000854CDE900541F468046022200F00CF89C
:10AB1000002807D1CDE900543B461022314640467B
:10AB200000F002F8BDE8FC812DE9FC5F0026DDE9BC
:10AB30000C4B994692468E4680462788354630E033
:10AB4000D8F80400002200EB8500694600680190F7
:10AB500001A864DF002830D19DF8000050451FD1C6
:10AB60000EB1002100E00221228808441118594545
:10AB700022D846B9521C90B2208009F800E0208803
:10AB8000401C20800126218801A801EB09026946AA
:10AB900064DF002811D120889DF80010084420802F
:10ABA0006D1CB8F80000A842CADC56B12088C01B52
:10ABB000401E80B2FF2802D90C20BDE8FC9F09F896
:10ABC00007000020F9E70000231500001411000021
:10ABD000770A000000000000770A00000000000073
:10ABE0007ADA00000000000023D1BCEA5F78231568
:10ABF000DEEF12120000000000000050899A0200EF
:10AC0000E59C020003000000E42500200000000095
:10AC10000338FDD870473031323334353637383960
:10AC2000414243444546000000000000000000008F
:10AC30000000000000000000000000000000000014
:10AC400028AC020040AC020004000000556E6B6EA0
:10AC50006F776E206572726F7220636F646500009B
:10AC600000000000FCB2020001000000A8B10200D8
:10AC7000020000009CAF0200030000001CB20200B2
:10AC80000400000070B202000500000050B1020094
:10AC900006000000ECB002000700000058B20200FD
:10ACA0000800000064B1020009000000C8B1020001
:10ACB0000A000000E4B202000B00000084AF0200B2
:10ACC0000C0000007CB102000D0000004CB302003B
:10ACD0000E00000048B202000F00000084B2020023
:10ACE00010000000B8B202001100000060B30200C2
:10ACF0001200000034B3020013000000D0B20200C2
:10AD00008000000004B102008100000040B0020099
:10AD10008200000000B0020083000000E0AF0200EB
:10AD2000840000001CB002008500000028B1020071
:10AD30008600000030B2020090000000CCB002009B
:10AD400091000000C0AF02009200000090B102002C
:10AD50000082000098B2020001820000E4B102000B
:10AD60000282000000B20200008400005CB0020019
:10AD70000184000008B3020002840000A4B00200B5
:10AD80000384000080B00200E98C0200BD8C020048
:10AD9000B58C0200FFFFFFFFFFFFFFFFFFFFFFFF7C
:10ADA000FFFFFFFF00000000000000000000D601D0
:10ADB000070100000000000000000000000000008B
:10ADC0000000000001000007B4AD0200C4AD0200A5
:10ADD00008000000ECAD0200FCAD0200080000001D
:10ADE000FCAD02000CAE020008000000C8B6020074
:10ADF000D0B602000000000000000000B8B602005B
:10AE0000C8B60200000000000000000080B602008A
:10AE100088B6020088B6020098B6020098B6020012
:10AE2000A8B60200A8B60200B0B60200B822002000
:10AE30000CAE02002CAE020008000000B0B602000A
:10AE4000B8B6020000000000000000003CAE0200A6
:10AE50004CAE02000800000000404040404040402E
:10AE600040404141414141404040404040404040DD
:10AE70004040404040404040400502020202020281
:10AE800002020202020202020220202020202020D0
:10AE900020202002020202020202909090909090E4
:10AEA00010101010101010101010101010101010A2
:10AEB0001010101002020202020288888888888816
:10AEC0000808080808080808080808080808080802
:10AED00008080808020202024000000059AE020001
:10AEE00073645F626C655F6761705F646174615F0A
:10AEF0006C656E6774685F7570646174652829207D
:10AF0000287265717565737429206F6E20636F6E8A
:10AF10006E656374696F6E20307825782072657471
:10AF200075726E65642025732E00000054686520DC
:10AF300072657175657374656420636F6D62696EA7
:10AF40006174696F6E206F6620545820616E6420B2
:10AF50005258207061636B6574206C656E6774680D
:10AF60007320697320746F6F206C6F6E6720627935
:10AF7000202575206D6963726F7365636F6E6473EE
:10AF80002E0000004E52465F4552524F525F494ECE
:10AF900056414C49445F4441544100004E52465F83
:10AFA0004552524F525F534F4654444556494345CC
:10AFB0005F4E4F545F454E41424C454400000000F7
:10AFC0004E52465F4552524F525F4645415455528C
:10AFD000455F4E4F545F454E41424C454400000092
:10AFE0004E52465F4552524F525F4D555445585F41
:10AFF000554E4C4F434B5F4641494C454400000081
:10B000004E52465F4552524F525F4D555445585F20
:10B010004C4F434B5F4641494C4544004E52465FBE
:10B020004552524F525F4D555445585F434F4E4421
:10B030005F494E49545F4641494C45440000000079
:10B040004E52465F4552524F525F4D555445585FE0
:10B05000494E49545F4641494C4544004E52465F73
:10B060004552524F525F424C455F495053505F52D8
:10B07000585F504B545F5452554E43415445440021
:10B080004E52465F4552524F525F424C455F4950C7
:10B0900053505F504545525F52454A4543544544DD
:10B0A000000000004E52465F4552524F525F424CE4
:10B0B000455F495053505F4C494E4B5F44495343A1
:10B0C0004F4E4E4543544544000000004E52465FEB
:10B0D0004552524F525F4150495F4E4F545F494D68
:10B0E000504C454D454E5445440000004E52465F7D
:10B0F0004552524F525F4E4F545F535550504F522E
:10B10000544544004E52465F4552524F525F4D4F98
:10B1100044554C455F4E4F545F494E495449414C4C
:10B12000495A4544000000004E52465F4552524F76
:10B13000525F4D4F44554C455F414C524541445937
:10B140005F494E495449414C495A4544000000006A
:10B150004E52465F4552524F525F4E4F545F464FDC
:10B16000554E44004E52465F4552524F525F494E33
:10B1700056414C49445F5354415445004E52465F3A
:10B180004552524F525F444154415F53495A450022
:10B190004E52465F4552524F525F494F5F50454EA7
:10B1A00044494E47000000004E52465F4552524F00
:10B1B000525F5356435F48414E444C45525F4D49A0
:10B1C0005353494E470000004E52465F4552524F7E
:10B1D000525F494E56414C49445F4C454E47544896
:10B1E000000000004E52465F4552524F525F44529B
:10B1F000565F5457495F4552525F414E41434B00A1
:10B200004E52465F4552524F525F4452565F54571A
:10B21000495F4552525F444E41434B004E52465F98
:10B220004552524F525F494E5445524E414C0000D8
:10B230004E52465F4552524F525F53544F52414710
:10B24000455F46554C4C00004E52465F4552524FAA
:10B25000525F4E554C4C00004E52465F4552524F85
:10B26000525F494E56414C49445F504152414D0056
:10B270004E52465F4552524F525F4E4F5F4D454DC5
:10B28000000000004E52465F4552524F525F464FFB
:10B290005242494444454E004E52465F4552524F39
:10B2A000525F4452565F5457495F4552525F4F5662
:10B2B000455252554E0000004E52465F4552524F85
:10B2C000525F494E56414C49445F4144445200004C
:10B2D0004E52465F4552524F525F5245534F555260
:10B2E000434553004E52465F4552524F525F494EBE
:10B2F00056414C49445F464C414753004E52465FCD
:10B3000053554343455353004E52465F4552524FA7
:10B31000525F424C455F495053505F4348414E4E47
:10B32000454C5F414C52454144595F45584953543F
:10B33000530000004E52465F4552524F525F434FFA
:10B340004E4E5F434F554E54000000004E52465F34
:10B350004552524F525F54494D454F5554000000DD
:10B360004E52465F4552524F525F4255535900006C
:10B370007761726E696E67006465627567000000D0
:10B380001B5B313B33306D001B5B306D00000000F8
:10B390001B5B313B33316D001B5B313B33326D0046
:10B3A0001B5B313B33336D001B5B313B33346D0032
:10B3B0001B5B313B33356D001B5B313B33366D001E
:10B3C0001B5B313B33376D00696E666F0000000018
:10B3D0006572726F7200000073645F626C655F6318
:10B3E00066675F73657428292072657475726E656F
:10B3F00064202573207768656E20617474656D70B4
:10B4000074696E6720746F2073657420424C455FC9
:10B4100047415454535F4346475F5345525649434F
:10B42000455F4348414E4745442E000073645F62C8
:10B430006C655F6366675F73657428292072657445
:10B4400075726E6564202573207768656E2061745F
:10B4500074656D7074696E6720746F2073657420F5
:10B46000424C455F434F4D4D4F4E5F4346475F56FD
:10B47000535F555549442E0073645F626C655F638A
:10B4800066675F73657428292072657475726E65CE
:10B4900064202573207768656E20617474656D7013
:10B4A00074696E6720746F2073657420424C455F29
:10B4B00047415454535F4346475F415454525F548D
:10B4C00041425F53495A452E0000000073645F6299
:10B4D0006C655F6366675F736574282920726574A5
:10B4E00075726E6564202573207768656E206174BF
:10B4F00074656D7074696E6720746F207365742055
:10B50000424C455F434F4E4E5F4346475F47415075
:10B510002E00000073645F626C655F6366675F7333
:10B52000657428292072657475726E6564202573B0
:10B53000207768656E20617474656D7074696E67DC
:10B5400020746F2073657420424C455F4741505F03
:10B550004346475F524F4C455F434F554E542E0074
:10B560006E72665F626C655F6761747400000000F4
:10B57000636C6F636B000000434C4F434B00000053
:10B580004750494F544500005052530055415254C2
:10B590000000000055415254450000007077725F72
:10B5A0006D676D740000000062616C6C6F632E6CDF
:10B5B0006F675F6D656D706F6F6C0000617070001C
:10B5C0006E72665F736468006E72665F7364685F54
:10B5D000626C65006E72665F7364685F736F6300B0
:10B5E000D0B60200B82200202C010000C063020087
:10B5F00020B70200E42300206C2800009C690200B0
:10B6000060B502000000030370B5020000000000F6
:10B6100078B502000000000080B5020000000000C4
:10B6200088B50200000000008CB502000000000098
:10B6300094B50200000000009CB50200000000006C
:10B64000A8B5020000000003BCB50200000003031F
:10B65000C0B5020000000303C8B5020000000303E8
:10B66000D4B502000000030360230020582300200B
:10B670006023002068270020D0230020180000004D
:10B68000F172020000000000E5840200FC230020AB
:10B69000F5710200000000004D740200E423002058
:10B6A00067860200102400200571020000000000DF
:10B6B0009DA302000000000035950200000000007C
:10B6C000519602000000000019A2020000000000D4
:10B6D00012FF14FFFF11120314B17602131C24335E
:10B6E000201F5A3B0801691220AA4008042588AD92
:10B6F0000214D0B3021A70041AC8041A78041A8803
:10B70000041A80041A90041A98041AA0041AA804AF
:10B710001AB0041AB8041AC00451043490D00300BB
:040000050002620192
:00000001FF
